:020000040800F2
:1000000058330020254800082D4800082F480008D4
:100010003148000833480008354800080000000057
:100020000000000000000000000000003748000849
:1000300039480008000000003B48000889500008CB
:100040003F4800083F4800083F480008C5580008DE
:100050003F4800083F480008B14D0008C74D000860
:100060003F480008E54D00083F4800083F480008A9
:100070003F4800083F4800083F4800083F48000844
:100080003F4800083F4800083F4800083F48000834
:100090003F4800083F4800083F480008034E00085A
:1000A0003F4800083F4800083F4800083F48000814
:1000B0003F4800083F4800083F4800083F48000804
:1000C0003F4800083F4800083F4800083F480008F4
:1000D0003F480008EF8B00083F4800083F480008F1
:1000E0003F4800083F4800083F4800083F480008D4
:1000F0003F480008DFF80CD00BF080F900480047BB
:100100002109000858330020EFF3108072B67047C1
:1001100080F31088704700000120FE49088870476E
:1001200010B500BF0AF07AF80121FB4806F086FD01
:100130000128F7D010BD704770B505460E4605B1D1
:1001400006B970BD00240CE0295DF44808F035FCC8
:1001500000BF4021F14808F0E0FC0128F9D1601C03
:10016000C4B2B442F0DB00BFEBE72DE9F05F054617
:100170008B4616461F4615B1B6F5007F09DD00BF58
:1001800032462946E6A00AF04AFC00BF0020BDE83E
:10019000F09F2C4604F10C08052088F8000001208F
:1001A00088F80100E5480088A8F80200E4480088C3
:1001B000A8F80400A8F806604D2020704120607067
:1001C00000BFA07820F07000A070A07840F0300050
:1001D000A07000BF00BFA07820F00800A070A07839
:1001E00040F00800A07000BF00BFA07820F007001A
:1001F000A070A07807F007010843A07000BF00BFFF
:10020000A07820F08000A070A07840F08000A0705E
:1002100000BF012F07D1CB480088000A2071C948D0
:10022000007860710BE0C8480088000A2071C64859
:1002300000786071C4480088401CC3490880C348E6
:100240000088000AA071C1480078E0710020207287
:10025000607256B1BBF1000F07D0012F05D03246B6
:10026000594605F114000AF0D8FC032F01D172267B
:1002700002E0012F00D1002606F10A001FFA80F9E2
:100280004FEA1920A07284F80B9006F1120081B297
:100290004FF6FF72A81C0AF073FC82464FEA1A213F
:1002A00006F114002954401C05F800A009F10C00C7
:1002B00081B2A748FFF740FF09F10C00C0B266E722
:1002C0002DE9F74191B00C461546B4F8008294F838
:1002D0000202012802D014B0BDE8F0811F208DF881
:1002E000000002208DF80100B8F1010F28DB1FFA91
:1002F00088F0ADF82000182204F110010DF106007D
:100300000AF08BFC2020ADF802008C480188ADF883
:100310000A100120ADF80400BDF80200001D82B2F1
:10032000002369468A48FFF720FF0646002E03DABD
:1003300088A00AF074FB50E08CA00AF070FB4CE03F
:10034000002712E007EB470304F1100202EBC301A0
:10035000119A12883A4402EB4203119A083202EBD6
:10036000C30018220AF059FC7F1C4745EADB1198AC
:1003700000884044119908802868401C2860119822
:10038000028881A029680AF04AFB11980088002899
:1003900002DA2868012820DB2020ADF802002022A4
:1003A00011A901A80AF039FCBDF80200001D82B2B3
:1003B000002369466648FFF7D8FE0646002E03DA9A
:1003C00064A00AF02CFB02E076A00AF028FB2021B2
:1003D00011980AF03BFC00202860204603F082FFC1
:1003E00000BF78E710B500F03DFB044604F4803010
:1003F000002825D00AF0BEF800BF71A00AF00FFB5C
:1004000000BF02F0BCFC022807D100BF74A00AF0B4
:1004100006FB00BF02F01DFA0FE0744800780128C7
:1004200002D17349087002E000207149087002206F
:1004300000F04BFB022000F031FB00206B490870FC
:1004400004F0020090B16A48007803F0E3FB02F088
:1004500096FC032803D002F092FC012806D16448E0
:100460000078012802D100206149087010BD10B544
:10047000002009F089FE052009F06BFE052140F6F9
:10048000411009F0E4FD10BDF0B5ADF66C2D002073
:100490000B90002500274FF40041564806F0E6FB7C
:1004A0004FF48051534806F0E1FBFFF7E0FF2021B5
:1004B00002A80AF0CBFB02F062FC0746022F07D12C
:1004C000C00300F0EBFA9621F80300F053FB03E0C1
:1004D0004FF4803000F0E2FA2CE103F02AFB01280F
:1004E00005D1022000F0F1FA022000F0D7FA04F062
:1004F000C7FD00F0BFFBFFF775FF02F043FC0028CB
:10050000EAD003F064FBCDE90C0103F058FBADF831
:10051000380071E002FF0108000402400038014089
:100520004275696C64204661696C6564207062750F
:1005300066202558206C656E25640A002400002082
:10054000160000201C0000201A00002014000020CB
:10055000B80300202D2D2D2D2D2D2D2D2D2D736526
:100560006E64206661696C0A000000002A2A312D41
:100570002D2D2D2D2D2D2D73656E642073756363C8
:100580006573730A000000002A74696D6573203D6D
:100590002564202D2D2D207061636B2E6E203D254E
:1005A000640A00002A2A322D2D2D2D2D2D2D2D737C
:1005B000656E6420737563636573730A00000000E1
:1005C0002D2D2D2D2D2D2D2D2D2D2D2D2D2D2D2D5B
:1005D0002D2D2D2D2D2D2D2D2D2D2D2D0A000000F5
:1005E0002073656E6420706F6C6C0A00260000201A
:1005F000270000200000024003F007FB8DF83C00BC
:1006000003F0FDFAADF83A009DF83C30BDF8382013
:10061000BDF83A1048A00AF002FA9DF83C00012803
:1006200054D10CA80FC803F0FEFF0646002E27D1B8
:1006300005EB851110AA02EBC1004FF402710AF01C
:1006400005FB05EB851010A901EBC000B0F80022F6
:10065000294646A00AF0E3F905EB851010A901EB45
:10066000C000CDE900050CA80FC803F058FEBDF886
:100670004022BDF84A1042A00AF0D1F96D1C3EE0BC
:10068000012E1FD1002400E0641CAC4209DA04EB07
:10069000841010A901EBC0004089BDF83A108842CF
:1006A000F2D1AC4202DD0DF66C2DF0BD04EB8410EE
:1006B00010A901EBC000CDE900040CA80FC803F09D
:1006C0002EFE1CE038A00AF0AAF918E0002D16DD75
:1006D0000023DDE90C105940584001430FD000249D
:1006E0000BE004EB841010A901EBC000CDE900047D
:1006F0000CA80FC803F013FE641CAC42F1DB00240D
:1007000016E004EB841010A901EBC00090F802027F
:1007100001280CD1294633A00AF081F904EB84109A
:1007200010AA02EBC0010BAA02A8FFF7C9FD641CC6
:10073000AC42E6DBD1E600000A20726563764361D5
:10074000726449443D202564203B20203B73657141
:100750006E756D3D2025643B20737065656474790A
:1007600070653D202564200A000000006D73675FFE
:100770006172725B25645D2E6E3D202564200A0047
:100780007072655F717569636B2E63617264696411
:1007900020203D25642C206D73675F6172722E6E80
:1007A0003D2564200A000000746865206368656365
:1007B0006B5F7374616E646172644944206172722C
:1007C0006179207761732066756C6C202C67657485
:1007D00020612077726F6E67206D656E6265722092
:1007E0000A000000202D2D2D2D2D2D2D2D2D2D20FD
:1007F0006B3D2564202D2D2D2D2D2D2D2D2D2D2DB9
:10080000200A00007CB5182003F08AFB02F0F5FEF8
:100810000446664884421AD01021654806F028FA3A
:10082000012003F02CFC1021614806F01FFA07207C
:1008300003F025FC322003F022FC02F0DEFE044629
:100840005A48844201D080177CBD09F091FF03F023
:1008500047FB5848006802F08FFA02F057FD054642
:10086000002D02DA4FF0FF30EEE7082003F058FBCE
:1008700002F0C3FE04464D48844201D08017E3E7EE
:100880004C48006802F078FA4B48006802F086FA9B
:1008900000204A49086008460068C0EBC00048498B
:1008A000085C8DF8000045480068C0EBC0000844B3
:1008B000C0788DF8010041480068C0EBC0000844D2
:1008C00040788DF802003D480068C0EBC000084445
:1008D00040798DF8050039480068C0EBC000084435
:1008E00080798DF8060035480068C0EBC0000844E8
:1008F00080788DF8030031480068C0EBC0000844E0
:1009000000798DF80400684602F07BFE4FF4FA701F
:1009100003F02AF800202B4903F042F8204693E721
:1009200010B5002404F0CEF80AF044F80220214962
:10093000086008460068022806D100201E490860A9
:100940000846006802F02AFA0620012181401E4A6A
:10095000430942F8231000BF00BF1CA00AF05FF853
:1009600000BF03F0BDFAFFF74DFF401C68B900BFA0
:1009700021A00AF054F800BF06E004F0F4F904F0F6
:1009800001FAC82003F07BFBF7E706200121814034
:100990004209920002F1E022C2F8001100BF04F007
:1009A00079FBFFF771FD002010BD00003001CADEA9
:1009B00000000240340000203800002030000020F9
:1009C0003C0000200000144080E100E00A202A2AB8
:1009D0002A2A2A2A2A2A2A2A2A2A2A2A206D6169C8
:1009E0006E2073746172742A2A2A2A2A2A2A2A2AD1
:1009F0002A2A2A2A0A000000496E69742064773185
:100A0000303030206572726F720A0000014600209B
:100A100006E0012282400A4002B103E0421CD0B24B
:100A20002028F6DB00BF704770B5044624B1E043D0
:100A3000401C2040A04201D0002070BDFFF764FBA5
:100A40000646C2480068204030B1C0480068604097
:100A5000BE490860012500E000253046FFF758FB3D
:100A60002846EAE770B5FFF74FFB0546B74804682C
:100A70000020B64908602846FFF74AFB204670BDB3
:100A800010B54FF4C071B2480AF0E0F80020B14947
:100A90000860AE490860B049087010BD70B50446E2
:100AA00024B1E043401C2040A04201D0002070BD92
:100AB000FFF72AFB0546A54800682043A3490860C4
:100AC0002846FFF725FB0120F1E770B5044624B165
:100AD000E043401C2040A04201D0002070BDFFF741
:100AE00013FB054699480068A043984908602846CA
:100AF000FFF70EFB0120F1E72DE9F04105460E4618
:100B000026B92846FFF7CAFFBDE8F08145B1E843A2
:100B1000401C2840A84203D16FF00040864201D318
:100B20000020F1E72846FFF771FF0446202C01DB87
:100B30000020E9E7FFF7E8FA074604EB44008449A0
:100B400001EB8000406820B983480078401C82494E
:100B50000870002004EB44017D4A42F8210004EBB8
:100B60004400114601EB800046603846FFF7D0FA9A
:100B70000120C9E72DE9F04105460E464DB1E84395
:100B8000401C2840A84204D11EB16FF000408642AC
:100B900002D30020BDE8F0812846FFF737FF044666
:100BA000202C01DB0020F5E7FFF7AEFA074604EB47
:100BB0004400674901EB8000406880B966480078CE
:100BC000401C65490870002004EB4401604A42F86B
:100BD000210004EB4400114601EB8000466004EB69
:100BE00044005B4901EB800086605A480068284356
:100BF000584908603846FFF78BFA0120CAE770B5FC
:100C0000044624B1E043401C2040A04201D0002013
:100C100070BD2046FFF7FAFE0546202D01DB0020BF
:100C2000F6E7FFF771FA064605EB4500484901EB88
:100C30008000406820B148480078401E464908704E
:100C4000002005EB4501424A42F8210005EB450131
:100C500002EB810148603F480068A0433D490860BD
:100C60003A480068A043394908603046FFF750FA17
:100C70000120CDE72DE9F0414FF0FF303749086002
:100C80003248006808B10020086004F00DFA0546FB
:100C9000002651E006EB46002D4901EB8004FFF7EA
:100CA00033FA8046606818B94046FFF731FA41E0F0
:100CB000206810B960682844206020682F1A6FF0FF
:100CC0000040874222D20020244908600120B04021
:100CD0001E49096808431D4908600120B0401D49AC
:100CE0000968084018B1A068284420601EE0002070
:100CF0002060606018480078002803DD16480078FE
:100D0000401E00E00020144908700FE013480068FE
:100D100060B12068401B11490968884202D90F4818
:100D2000006801E02068401B0C4908604046FFF75E
:100D3000EFF900BF701CC6B2202EABDBBDE8F0811E
:100D400010B5FFF797FF0548006810BD8000002030
:100D5000B80500207C0000208800002084000020CE
:100D600070B505460E466C68F8480068844206D0A7
:100D70002146F7A009F053FE0020F7490860F34828
:100D8000046070BD0120F54981F89C027047002085
:100D9000F24981F89C027047F04991F89C020021C9
:100DA000EE4A82F89C1270470020ED49088844F60C
:100DB0002160704710B54FF40030FFF786FE0A211E
:100DC0004FF40030FFF798FE10BD70B50546012DB9
:100DD00002D14CF6CC4402E00DB94DF6DD5420466C
:100DE00008F06DFE70BD78B502460B4600240094F5
:100DF0000020BDE0C0EBC00404EB4404D94D15F85D
:100E00003440012C55D1C0EBC00404EB440405EB85
:100E1000C404247A012C4CD1C0EBC00404EB44047C
:100E200005EBC404B4F80B400094BDF800409442B4
:100E30007ED1012B1ED1002119E0C0EBC00404EBD0
:100E40004404C84D05EBC404083404EB4114647930
:100E500044F00805C0EBC00404EB4404C14E06EBAB
:100E6000C404083404EB411465714C1CE1B205293B
:100E7000E3DB1DE0002119E0C0EBC00404EB4404F7
:100E8000B84D05EBC404083404EB4114647924F034
:100E90000805C0EBC00404EB4404B24E06EBC404E6
:100EA000083404EB411465714C1CE1B20529E3DB05
:100EB00078BDC0EBC00404EB4404AA4D15F83440DF
:100EC000052C53D100214FE0C0EBC00404EB4404D7
:100ED000A44D05EBC404083404EB41142478012C20
:100EE00040D1C0EBC00404EB440405EBC404B4F8E7
:100EF0000B400094BDF80040944233D1012B18D12F
:100F0000C0EBC00404EB440405EBC404083404EB58
:100F10004114647944F00805C0EBC00404EB4404B8
:100F2000904E06EBC404083404EB4114657118E0DC
:100F30001CE0C0EBC00404EB44048A4D05EBC40480
:100F4000083404EB4114647924F00805C0EBC004B4
:100F500004EB4404834E06EBC404083404EB411450
:100F60006571A5E74C1CE1B20529ADDB441CE0B27C
:100F70001928FFF63FAF00BF9AE72DE9F04106467A
:100F80000F46904600240025B8F1010F30D1FF2F05
:100F900009D16621744809F059FEFF207249087092
:100FA000FFF7F0FE23E070480078FF2802D1002010
:100FB0006D490870002408E06B48801C30F814006C
:100FC000B04201D1BDE8F081641C67480078A042BE
:100FD000F2DC65480078401C6349087008460178D7
:100FE000801C20F8116041463046FFF7FCFEE9E71F
:100FF0005D48007800B9E5E7FF2F1FD166215A4808
:1010000009F024FE002058490870FFF7C0FE0024B4
:1010100011E000250CE0F721C4EBC40000EB400018
:10102000504A02EBC000083000EB451041716D1CC6
:10103000052DF0DB641C192CEBDB31E000242BE0E8
:101040004948801C30F81400B04224D1254607E0FE
:101050004548801C691C30F8111020F815106D1CD3
:1010600041480078401EA842F2DC3F480078022840
:1010700007DB00223C480078801E3B49891C21F890
:10108000102039480078401E3749087041463046E4
:10109000FFF7A9FE96E7641C33480078A042CFDC36
:1010A00000BF8FE730B50346002200242E480278A7
:1010B00003F5D6704254FF2A10D000BF0CE003F5B0
:1010C000D6704D1C05442848801C00EB4400008865
:1010D0002880881CC1B2641C9442F0DB084630BDF5
:1010E00070B502460025002400231C4890F89C029D
:1010F000012801D1FF2070BD022915D1192092FBD2
:10110000F0F0C5B2192092FBF0F600FB1620C4B235
:10111000C4EBC40000EB4000124E06EBC0000830E8
:1011200000EB4510437901E01048437903F00800D3
:1011300008B1FF20DFE70020DDE770B5024600239D
:10114000064C2478022C7DD1002082E0240100206E
:101150002D2D2564200000005801002038070020B4
:1011600000FF0108E009002070100020D8100020C6
:10117000C0EBC00404EB4404F84D15F83440012CD6
:1011800029D1C0EBC00404EB440405EBC404247A69
:10119000012C20D193421ED1002119E0C0EBC004E4
:1011A00004EB4404ED4D05EBC404083404EB411496
:1011B000647924F00405C0EBC00404EB4404E74E5A
:1011C00006EBC404083404EB411465714C1CE1B215
:1011D0000529E3DB3BE0C0EBC00404EB4404DF4D36
:1011E00015F83440052C32D100212EE0C0EBC004AC
:1011F00004EB4404D94D05EBC404083404EB41145A
:101200002478012C1DD1934203D04FF6FF74A242E3
:1012100017D1C0EBC00404EB4404D04D05EBC4046B
:10122000083404EB4114647924F00405C0EBC004D5
:1012300004EB4404C94E06EBC404083404EB411427
:10124000657100E008E04C1CE1B20529CEDB441CCE
:10125000E0B219288CDB11E0C14C2478012C0DD1AF
:10126000C04C2488944203D04FF6FF74A24205D1AB
:10127000BC4CA47824F00404BA4DAC7070BDF0B539
:1012800002460C4600230026192094FBF0F0C6B25B
:1012900001214DE0481C0C2790FBF7FC07FB1C00CC
:1012A000C5B26018192790FBF7FC07FB1C00C3B2FE
:1012B00033B9701C052790FBF7FC07FB1C00C6B276
:1012C000C3EBC30000EB4000A44F17F8300098B9FF
:1012D00006EBC60000EB061018447D2790FBF7FCD8
:1012E00007FB1C0010701078193090FBF7FC07FB0F
:1012F0001C0010700120F0BDC3EBC30000EB4000E8
:10130000964F17F83000062810D17DB1C3EBC3000B
:1013100000EB400007EBC000007A032806D16018FC
:101320007D2790FBF7FC07FB1C001070481CC1B226
:101330001929AFDD0020DEE72DE9F04303460F4613
:1013400000214E1E00220024AEE0192097FBF0F091
:1013500020444FF0050890FBF8F908FB190201251D
:101360009CE0042C04D1192D02D1FF20187098E0C4
:1013700078194FF0190890FBF8F908FB1900C1B271
:1013800031B9501C4FF0050890FBF8F908FB190221
:10139000C1EBC10000EB4000DFF8C08118F830005D
:1013A000052801D1012000E00020C1EBC10808EBB5
:1013B0004808DFF8A89119F83880B8F1000F02D179
:1013C0004FF0010801E04FF0000840EA0800E0B3E8
:1013D000C1EBC10000EB4000DFF8808118F830005D
:1013E000052819D1C1EBC10000EB400008EBC0009B
:1013F000083000EB4210007870B902EBC20000EB3D
:10140000021008444FF07D0890FBF8F908FB190022
:1014100018700120BDE8F083C1EBC10000EB400073
:10142000DFF8388118F83000B0BB701CA0BB02EBAD
:10143000C20000EB021008444FF07D0890FBF8F961
:1014400008FB190606F1190000E004E090FBF8F92A
:1014500008FB190620E0C1EBC10000EB4000DFF8FB
:10146000FC8018F83000062816D1C1EBC10000EB53
:10147000400008EBC000083000EB42100078032861
:101480000AD102EBC20000EB021008444FF07D08C5
:1014900090FBF8F908FB190C681CC5B2192D7FF7F1
:1014A00060AF00BF601CC4B2052CFFF64EAF002E2B
:1014B00002DB1E700220ADE783F800C00020A9E720
:1014C000F8B503460C46164600220021FF200025F1
:1014D000DFB28DF800701F0A8DF80170012C59D110
:1014E00000BF54E0C1EBC10707EB4707DFF86CC052
:1014F0001CF83770012F48D1C1EBC10707EB470734
:101500000CEBC707FF7A9DF800C067453DD1C1EBE2
:10151000C10707EB4707DFF844C00CEBC7073F7B69
:101520009DF801C0674530D1084602E000F1190777
:10153000F8B2B042FADB7D2790FBF7FC07FB1C07F3
:10154000F8B2C1EBC10707EB4707DFF810C00CEB9F
:10155000C707BD7B002D17DD002213E0E009002046
:101560003807002036010020C1EBC10707EB470711
:10157000DFF8C0C40CEBC707083707EB4217BD7193
:10158000571CFAB2052AEFDBF8BD4F1CF9B2192936
:10159000A8DB3CE0052C3AD1002236E0C2EBC207C2
:1015A00007EB4707DFF88CC41CF83770052F2AD1EA
:1015B000002126E0C2EBC20707EB4707DFF874C43F
:1015C0000CEBC707083707EB4117FF789DF800C001
:1015D000674515D1C2EBC20707EB4707DFF854C4D4
:1015E0000CEBC707083707EB41173F799DF801C09F
:1015F000674505D101EBC10707EB01171744F8B2A6
:10160000C2E70529D6DB571CFAB2192AC6DB00BF90
:10161000BAE7F0B5024600BF00BF0021192592FBD2
:10162000F5F5EBB2192592FBF5F605FB1625E8B2A8
:10163000C0EBC00505EB4505FE4E16F83540012C04
:101640001ED100BF19E0C0EBC00505EB4505F94E02
:1016500006EBC505083505EB41156D7945F0080623
:10166000C0EBC00505EB4505F24F07EBC505083596
:1016700005EB41156E714D1CE9B20529E3DB19E05C
:10168000052C17D1C0EBC00505EB4505E94E06EB6F
:10169000C505083505EB43156D7945F00806C0EB27
:1016A000C00505EB4505E34F07EBC505083505EB20
:1016B00043156E71F0BD70B5DF4C247834BB02F178
:1016C0007D04641A641E7D2594FBF5F605FB164423
:1016D000A3B203EB8304C0EBC404D74D6C818A42F0
:1016E00001D0FF2A63D1D44C6478012C02D140F29E
:1016F000712304E0D04C6478052C00D17D2303EBEA
:101700008304C0EBC404CC4D6C8150E0CA4C2478F7
:10171000012C4CD1C84D2C702C46A17000242C817A
:10172000AC712C466478012C22D16C702C46248933
:10173000BCB9FF2A15D0914203D1C0F57A746C81EF
:1017400035E002F17D04641A7D2594FBF5F605FB76
:101750001644A3B203EB8304C0EBC404B64D6C8102
:1017600025E0FF2A23D1C0F57A74B34D6C811EE0C9
:10177000B14C6478052C1AD1AF4D6C702C4624897D
:10178000ACB9914204D141F28834241A6C810EE044
:1017900002F17D04641A7D2594FBF5F605FB1644E1
:1017A000A3B203EB8304C0EBC404A34D6C8170BDF2
:1017B000F3B5024600BF00BF00BF92F88A4219216C
:1017C00094FBF1F1CBB2192194FBF1F501FB15412A
:1017D000C8B2C0EBC00101EB4101964D05EBC10160
:1017E000083101EB4311097803290ED192F88E12CA
:1017F000012902D192F88C4207E092F88E12052955
:1018000002D192F88C4200E0FCBD192194FBF1F169
:10181000CBB2192194FBF1F501FB1541C8B292F846
:101820008E1201295DD1C0EBC00505EB4505814E47
:1018300006F83510002151E00126C0EBC00505EB8C
:1018400045057C4F07EBC505083505EB41152E70A6
:10185000C0EBC00505EB450507EBC505083505EBF5
:1018600041156E700026C0EBC00505EB450507EB82
:10187000C505083505EB4115AE7101EBC10505EB5A
:10188000011505447D2695FBF6F706FB1755EEB2CC
:10189000C0EBC00505EB4505664F07EBC5050835F0
:1018A00005EB4115AE7040F2BD36C0EBC00505EB4F
:1018B000450507EBC505083505EB41156E81C0EB05
:1018C000C00505EB45053E4606EBC505083505EBAD
:1018D0004115BDF80460A5F80360491C0529ABDB80
:1018E00060E092F88E1205295CD1C0EBC00505EBD3
:1018F0004505504E06F83510C0EBC00101EB410123
:10190000354605EBC1014978491CC0EBC00505EB24
:10191000450506EBC50569700125C0EBC00101EB6B
:10192000410106EBC101083101EB43110D700525A2
:10193000C0EBC00101EB410106EBC101083101EB35
:1019400043114D70C0EBC00101EB4101354605EB81
:10195000C101083101EB43118C700025C0EBC001BF
:1019600001EB410106EBC101083101EB43118D711F
:1019700041F25D35C0EBC00101EB410106EBC10155
:10198000083101EB43114D81C0EBC00101EB410176
:10199000354605EBC101083101EB4311BDF8045098
:1019A000A1F8035000BF2FE72DE9F04106460C4691
:1019B0000025C4EBC40000EB40001E4901EBC00051
:1019C000083000EB46104778052F7DD1C4EBC400EA
:1019D00000EB400001EBC000407800280FDDC4EBB5
:1019E000C40000EB400001EBC0004078401EC4EB97
:1019F000C40101EB41010F4A02EBC1014870C4EB85
:101A0000C40000EB40000B4901EBC000407838B93E
:101A10000020C4EBC40101EB4101064A02F8310089
:101A20000021C4EBC40000EB4000024A02EBC000FE
:101A3000083003E0E0090020D810002000EB461039
:101A40004171C4EBC40000EB400002EBC000083061
:101A500000EB46100170C4EBC40000EB400002EB49
:101A6000C000083000EB46108171C4EBC40000EBED
:101A7000400002EBC000083000EB46100181C4EBCF
:101A8000C40000EB400002EBC000083000EB461041
:101A90000171C4EBC40000EB400002EBC000083051
:101AA00000EB4610C170C4EBC40000EB400002EB39
:101AB000C000083000EB46104181C4EBC40000EBCD
:101AC000400002EBC00000E004E0083000EB4610EC
:101AD000817066E0012F64D100BFFAA008F09FFF7B
:101AE00000BF0020C4EBC40101EB4101F74A02F83A
:101AF0003100002553E00021C4EBC40000EB40009E
:101B0000F24A02EBC000083000EB45100170C4EB54
:101B1000C40000EB400002EBC000083000EB4510B1
:101B20004171C4EBC40000EB400002EBC000083080
:101B300000EB45108171C4EBC40000EB400002EBE8
:101B4000C000083000EB45100181C4EBC40000EB7D
:101B5000400002EBC000083000EB45100171C4EBFF
:101B6000C40000EB400002EBC000083000EB451061
:101B7000C170C4EBC40000EB400002EBC0000830B1
:101B800000EB45104181C4EBC40000EB400002EBC8
:101B9000C000083000EB45108170681CC5B2052DEF
:101BA000A9DBBDE8F0812DE9F05F80468A4600257B
:101BB000002600240027C64880F88A82192098FB56
:101BC000F0F0C6B2192098FBF0F100FB1180C4B20E
:101BD000BF4880F8A04280F8A162BAF1010F5CD141
:101BE000C4EBC40000EB4000B84901EBC000083072
:101BF00000EB461090F80190C4EBC40000EB4000ED
:101C000001EBC000083000EB46100078012844D1F9
:101C1000B9F1050F0AD1C4EBC40000EB400001EBA1
:101C2000C000083000EB4610877930E0B9F1010FB1
:101C30002DD1002518E0C4EBC40000EB4000A349FF
:101C400001EBC000083000EB45108079B84209DD97
:101C5000C4EBC40000EB400001EBC000083000EB17
:101C600045108779681CC5B2052DE4DB00250CE022
:101C7000C4EBC40000EB4000944901EBC000083005
:101C800000EB45108771681CC5B2052DF0DB042FF1
:101C900003DB21463046FFF787FEC4EBC40000EBB0
:101CA00040008A4901EBC000083000EB461090F874
:101CB00000B0BBF1000F09D0BBF1010F09D0BBF19F
:101CC000020F08D0BBF1030F09D106E00120BDE8E7
:101CD000F09F0220FBE70320F9E70420F7E700204C
:101CE000F5E7F0B5044600BF00BF192094FBF0F003
:101CF000C1B2192094FBF0F600FB1640C2B2C2EB51
:101D0000C20000EB4000714E06EBC000083000EB53
:101D100041104578052D0CD1C2EBC20000EB40000C
:101D200006EBC000083000EB41100089401C83B274
:101D30001FE0012D1BD159B9C2EBC20000EB4000DE
:101D4000624E06EBC000B0F89000401C83B210E079
:101D5000C2EBC20000EB40005C4E06EBC000083056
:101D60004E1E00EB46100089401C83B201E00020AB
:101D7000F0BDC2EBC20000EB4000544E06EBC000C9
:101D8000083000EB411003810126C2EBC20000EBDA
:101D900040004E4F07EBC000083000EB41100670CA
:101DA0000026C2EBC20707EB4707DFF820C10CEBA8
:101DB000C707083707EB41173E617E61C2EBC200DF
:101DC00000EB4000664606EBC000083000EB411017
:101DD0008079401CC6B2C2EBC20000EB40006746EF
:101DE00007EBC000083000EB411086711846BFE7D2
:101DF00018B5014600BF00BF192091FBF0F0C2B238
:101E0000192091FBF0F400FB1410C3B2C3EBC30024
:101E100000EB40002D4C04EBC000083000EB4210FA
:101E2000B0F803000090BDF8000018BD11B500BF68
:101E300000BF00BF264B93F8A12293F8A012C1EB7C
:101E4000C10303EB4303214C04EBC303083303EB4F
:101E500042135878C1EBC10303EB430304EBC30304
:101E6000B3F80B30ADF8003018BD7FB50021002469
:101E7000192592FBF5F5E9B2192592FBF5F605FB5C
:101E80001625ECB26BB9C4EBC40505EB45050F4E46
:101E900006EBC505083505EB4115BDF800602E823F
:101EA0000EE0012B0CD1C4EBC40505EB4505074E34
:101EB00006EBC505083505EB4115BDF800602E831E
:101EC00004B070BD7C7C30303E3E2000E009002034
:101ED00038070020F0B500207CE00025C0EBC006EC
:101EE00006EB4606FB4F07F83650C0EBC00606EB84
:101EF000460607EBC6067570002168E001EBC105D8
:101F000005EB01152A180026C0EBC00505EB4505B9
:101F1000F04F07EBC505083505EB41152E70C0EBFA
:101F2000C00505EB450507EBC505083505EB411573
:101F3000AA70C0EBC00505EB450507EBC5050835E4
:101F400005EB41152E81C0EBC00505EB450507EB00
:101F5000C505083505EB4115AE71C0EBC00505EBB5
:101F6000450507EBC505083505EB41152E71C0EB9E
:101F7000C00505EB450507EBC505083505EB411523
:101F8000EE70C0EBC00707EB4707DFF848C30CEB68
:101F9000C707083707EB41173E617E610025C0EB9C
:101FA000C00606EB46060CEBC606083606EB4116E5
:101FB000B561F5610026C0EBC00505EB4505674638
:101FC00007EBC505083505EB41156E71491C052960
:101FD00094DB401C192880DB0C23002075E0451C95
:101FE00095FBF3F603FB165585BB0625C0EBC00633
:101FF00006EB4606B74F07F836500525C0EBC0067E
:1020000006EB460607EBC606757000211BE001EBE8
:10201000C10505EB01152A180226C0EBC00505EB2A
:102020004505AC4F07EBC505083505EB41152E708E
:10203000C0EBC00505EB450507EBC505083505EB0D
:102040004115AA70491C0529E1DB3DE0FFE75D1E53
:10205000854201DD441C01E0A0F10B04062594FB40
:10206000F5F605FB16457DBB0625C0EBC00606EB65
:102070004606984F07F836500525C0EBC00606EB1C
:10208000460607EBC606757000211BE001EBC10593
:1020900005EB01152A180326C0EBC00505EB450525
:1020A0008C4F07EBC505083505EB41152E70C0EBCD
:1020B000C00505EB450507EBC505083505EB4115E2
:1020C000AA70491C0529E1DB401C192887DBF0BDFB
:1020D0002DE9F04104468048B0F8030020807E4896
:1020E000008960807C48407920737B484078207369
:1020F0007A48007802280ED177480022784BD0E940
:102100000451284608F0C4FE074609F021F8606033
:102110000020A06012E07148007801280ED17148BB
:10212000006860606C4800226D4BD0E9065128467B
:1021300008F0AEFE074609F00BF8A060BDE8F0819C
:102140000021694A1170012805D10121517040F226
:10215000B631518107E0052805D10521624A517049
:1021600041F25631518100215F4A917000225E494F
:102170000A71CA7000215C4A1181917151717047D6
:10218000002055498870002153480171C17000201A
:10219000514908818871487100214F4A116151618C
:1021A0009061D06170472DE9F04F87B0824600BF43
:1021B0004FF0000B00200690DAF800B09AF8040007
:1021C00040B20690584608F063FF06460F46069850
:1021D00008F04DFF80460022444B08F059FE0022D3
:1021E000424BCDE9000108F053FE32463B46CDE9B3
:1021F000020108F0A6FD3E4A3E4BCDE9040108F07D
:1022000047FE04460D462046294607B0BDE8F08F3C
:102210002DE9F05F04460D46354A364B20462946E7
:1022200008F0A8FE80460022334B08F0A3FE824649
:102230008B465046594608F0A4FF06460F463046E6
:102240003946BDE8F09F2DE9F04704460D4600BF32
:102250002046294608F029FF0646254A254B08F066
:1022600017FE8046894640464946BDE8F0872DE97D
:10227000FC5F82460AF5A076C0CE7F20D6F1FF3102
:10228000B84102DA361E67F5807730463946FFF7E7
:10229000DAFF0022194BCDE9000108F0F9FD804674
:1022A00089464FF09852164B4046494608F0F0FDDB
:1022B00004460D460022134B2046294608F08CFFA9
:1022C00006D30022104B2046294608F09DFF1DD260
:1022D000BDE8FC9FE0090020F8100020380700202E
:1022E00000005940B8000020D81000200000F04045
:1022F000FA48CE3B1835B13D80842E410000D03FD6
:1023000019DDB1410000E0BF0088D34020462946D6
:1023100008F092FF83469AF815209AF8140059465F
:1023200006F068FE22462B46CDE9000108F0ADFD1F
:1023300004460D4625F00045FD4A30C200BFBDE809
:10234000FC9F2DE9F04F87B08246DAF83C91DAF82D
:1023500038817F20D8F1FF3170EB090004DA0022C8
:10236000B8EB020869F5807940464946FFF76BFFF4
:102370000022F04BCDE9020108F08AFDCDE904010D
:102380004FF09852EC4BDDE9040108F081FD044662
:102390000D460022E94B2046294608F01DFF06D3D2
:1023A0000022E74B2046294608F02EFF02D207B054
:1023B000BDE8F08F2046294608F03EFF83469AF894
:1023C00015209AF81400594606F014FE22462B46B2
:1023D000CDE9020108F059FD04460D4625F00045FF
:1023E000D84830C022462B46DAF898B15846DAF879
:1023F0009C1108F0A6FC0AF5CC7203C2DAF8A00121
:10240000401CCAF8A001DAF8A00108F030FECDE9BE
:10241000020102460B46DAF898B15846DAF89CC138
:10242000614608F0A7FD06460F46C74AC0C2DAF863
:10243000A411481CCAF8A4010AF5AC7000EBC10253
:1024400030C2DAF8A401082802D10020CAF8A40199
:10245000DAF8A80108282AD10020029003908346C8
:102460000EE00AF5AC7000EBCB0103C9CDE9000129
:10247000DDE9022308F065FCCDE902010BF1010B57
:10248000DAF8A8015845ECDCDAF8A80108F0EFFD0D
:1024900002460B46CDE90001DDE9020108F06AFDC4
:1024A000CDE90201A94ADDE9020103C204E0DAF83C
:1024B000A801401CCAF8A80100BF78E7CA233F2240
:1024C0001354DE2340221354412280F83C2090F81C
:1024D0003C2009B1202300E000231A4380F83C206F
:1024E00088233D22135490F88A323E221354FF234E
:1024F000412213544222135400F13C02944B1B8896
:10250000A0F84330704710B5002101EB011303EB35
:102510008303904C04EBC30383F8720210BD2DE9D2
:10252000F04104460D4617461E4684F8AC7135B19D
:102530002A4604F5D67104F1450008F06EFB05F15A
:102540000B00A4F81A0131462046FFF7B7FF012E11
:1025500002D1022084F8520284F85362BDE8F0816F
:102560002DE9F041064614461D4636B1200A40EAE0
:102570000567384607F099FF00BF304608F02AF893
:10258000BDE8F0812DE9F04104460D460026B4F87F
:102590001A01002204F13C0107F0C7F9B4F81A014E
:1025A000002107F0D5F955B194F834010206D4F8AA
:1025B000301142EA1127384607F077FF00BF94F840
:1025C000520218B141F2883008F02AF894F85212F9
:1025D0002943C8B207F071FF00B101263046BDE8BB
:1025E000F08100B5A7B080225B4901A808F015FB77
:1025F000182001F095FC08F0BBF802208DF88C0043
:1026000009208DF891008DF8900002208DF88D0042
:1026100000208DF8930028208DF88E0003208DF87F
:102620008F0001208DF8920000208DF89800032182
:1026300023A807F037F89DF88C0000EB40004749CD
:1026400011F820008DF884009DF88C0000EB40000C
:1026500001EB8000001D9DF88D10491E50F82100EF
:10266000229021A806F0BCFF4FF4805008F0FAF841
:10267000002201A97F2007F058F900217F2007F0F0
:1026800067F9002007F019FF002027B000BD7CB5D6
:1026900002250126182001F043FC08F069F805EB3B
:1026A00045002E4911F820008DF8000005EB45008B
:1026B00001EB8000001D711E50F82100019068465A
:1026C00006F08EFF284608F085F8002403E0E0B20B
:1026D00006F0B4FF641C1F2CF9DD7CBD2DE9F04130
:1026E000804698F8520210BB00BF98F83800C8B175
:1026F000D8F83012D8F8080140180446D8F80C0071
:102700000B280FD10022164BD8F848623046D8F873
:102710004C1208F079FD05D20420D8F83812A1FB3C
:10272000000100194FF00002134610461AE01CE0A9
:10273000B00000200000D03F19DDB1410000E0BF33
:102740000088D34098000020A8000020A0000020AE
:102750002400002038070020ECB90008C8B40008A5
:1027600000C06240FFF7FCFE02E0002088F8520241
:10277000002088F8380098F8000030B1D8F80C0034
:10278000052802D00120C8F810000820C8F804006D
:10279000BDE8F0811CB5044600200090019002F0D5
:1027A00080FCFE49086094F87402FD49087094F8B2
:1027B000A302012804D1002140F2AD10015506E02A
:1027C00094F8A30218B9012140F2AD100155F54863
:1027D0000088010A4FF4D7700155F248017840F2A1
:1027E000AF100155608F401C6087608F010A4FF465
:1027F000D870015594F83A10401C0155002321224D
:1028000006212046FFF78BFE0220E06000212046D3
:10281000FFF7B8FE38B10220606000202061608FB1
:10282000401E608706E00020DF49086002206060EB
:102830000120206194F8A302012803D14FF47A709B
:1028400001F01DFC94F8A30210B9642001F017FCFC
:102850001CBD10B5D548FFF79DFF10BD10B504464F
:10286000D3A008F0DCF80120DA4908700020DA492A
:102870000870182007F00AF9B4F8060207F01FF9EB
:10288000C848008807F023F9C6480188D3A008F09B
:10289000C6F8C4480088A4F8800204F13C00C1498D
:1028A0000988A4F843100B20606094F8650207F0D3
:1028B00088FC052007F04DFC10BD10B504464DF610
:1028C000CA60A4F8060200BFB6480188C7A008F095
:1028D000A6F800BF0020CB498870FF200880B148CF
:1028E0000088A4F88002002007F0D0F8B4F80602AF
:1028F00007F0E5F8AB48008807F0E9F804F13C0080
:10290000A8490988A4F84310002084F8380007F08B
:102910006FFC012084F8650294F8650207F051FC11
:10292000002007F07DFE2046FFF7D8FE10BD00B561
:10293000ADF57B7D4FF47A7101A807F0ABFB401C2D
:1029400020B900BFB0A008F06AF800BF1021B3485A
:1029500004F08EF9012001F092FB1021AF4804F041
:1029600085F9012001F08BFB022007F012FDAC4835
:10297000008806F04EFE002007F079FB0121A948EF
:1029800007F089FE0DF57B7D00BD70B504460D4650
:10299000042D24D100BFA4A008F041F800BF94F892
:1029A0005002A0B194F85002032810DB002084F8F4
:1029B000380084F8520207F033FE207803280DD146
:1029C000E06805280AD12046FFF788FE06E00820C7
:1029D000606000BF96A008F022F800BF70BD012D16
:1029E00018D0052D04D1002084F8520207F018FEFB
:1029F0006D480068401C6C4908600846006830B1AA
:102A000002F04FFB8B490968401A8B49086001208E
:102A10002061E3E700250020634908602061E06849
:102A2000801E0B280DD2DFE800F0070E080D0C0CFD
:102A30000C0C0C060F0000BF00BF012084F838000A
:102A400006E000BF00BF00BF002084F8380000BFD0
:102A500000BFE0680D2802D10B2060603DE0E06817
:102A6000032809D102F01DFB06462078032802D175
:102A70000120C4F810022DE0E068022806D1207879
:102A8000022803D102F00DFB064623E0E06802288D
:102A900006D12078032803D102F003FB064619E093
:102AA000E06805280ED102F0FCFA064600BF634834
:102AB0000068311A62A007F0B2FF00BF0120C4F81D
:102AC000100207E0E0680B2803D10020414908709C
:102AD00000E000BF2046FFF701FE00BF7EE72DE9C2
:102AE000FE4F04460F466068022804D0082806D02E
:102AF0000B284CD13CE12046FFF74CFE38E1002F7B
:102B000046D0022F04D0042F43D0062F42D125E116
:102B100004F19F064FF00008B6F807000290B6F8DF
:102B20000500019096F8098096F80290BDF808001B
:102B3000A4F84801B8F1210F2DD135464FF0000A15
:102B4000002084F85402B5F807000090207803288C
:102B500022D1404800684049086002F0A2FA3D498D
:102B6000086002F09EFA3C490968401A3B49086037
:102B70003B480088401C3A49088002F092FA3949E3
:102B8000B0FBF1F201FB120044F620616CE0EEE0D4
:102B9000E5E0A7E0E8E091E088E00000BC0000206C
:102BA000F5000020240000209000002038070020BD
:102BB0002A2A2A2A2A2A2A2A2A2A20544147202A2B
:102BC0002A2A2A2A2A2A2A2A2A2A2A2A2A2A200A8F
:102BD0000000000020010020701000200920414466
:102BE0004452203D202564200A0000005355422015
:102BF000535441092041444452203D202564200A79
:102C000000000000360100204641494C4544207434
:102C10006F2057414B452055500A000000000240EC
:102C2000F800002080D002002D574F5420000000F3
:102C300028312900C0000020F0000020CC00002036
:102C4000726576465F73656E645265705F593D25A7
:102C500064202000FC00002000010020040100206E
:102C6000E400002040420F00B0FBF1F0401C84F86B
:102C70007202A87AFE490870E87A0002FD490880CD
:102C8000287B09880844FB4908800846008808809A
:102C9000687B00026087618FA87B08446087608F33
:102CA000F54908800120C4F8100201E095F809A058
:102CB000072060602046FFF711FD06E0002084F841
:102CC00038002046FFF70AFD00BF00BF94F82C0231
:102CD00038B9207828B9002084F838002046FFF75A
:102CE000FDFC42E0E06A401CE062002020612078A8
:102CF000032802D02078012812D12078032804D19B
:102D0000E068022801D1606026E00020E06207F060
:102D100087FC002084F853022046FFF7DFFC24E004
:102D20002078022818D194F88B0210B1E0680B28A3
:102D300002D10B2060600DE094F88B02012809D1CC
:102D400002206060E068032802D0E0680B2801D10F
:102D50000B20606007F00EFC002706E000BF206932
:102D600008B90120206100E000BF00BF00E000BF03
:102D700000BF2069BDE8FE8FC04A10707047BF4891
:102D800000787047BD48D0F8100228B10020BB4938
:102D9000C1F81002012070470020FCE7B74A82F812
:102DA000A302704710B50024002004EB041101EBCE
:102DB0008101B24A02EBC101C86204EB041101EBCC
:102DC000810102EBC10181F80402002104EB04122D
:102DD00002EB8202A94B03EBC202C2F89811C2F8BF
:102DE0009C1104EB041101EB81011A4602EBC101B5
:102DF000C1F8A001012007F060FC002004EB0411E1
:102E000001EB81019D4A02EBC10181F8040204EB50
:102E1000041101EB810102EBC101C1F8A80104EB2F
:102E2000041101EB810102EBC101C1F8A40104EB23
:102E3000041101EB810102EBC101086304EB0411F1
:102E400001EB810102EBC101486310BD8B49C1F860
:102E5000840270472DE9FE430546002400200190BE
:102E600002900026002780460120FFF7EFFF287818
:102E700002287DD1687804EB041101EB81017F4ABF
:102E800002EBC10181F81E0100220121684606F013
:102E90006EFD6888052801D1052701E0022700BFE3
:102EA00000BF022F65D104EB041000EB80007349D2
:102EB00001EBC00090F8570202287DDA01A806F065
:102EC000C7FD9DF804009DF8051000EB01209DF85A
:102ED000061000EB01409DF8071000EB01669DF81D
:102EE0000800002104EB041202EB8202634B03EBA7
:102EF000C20202F5887203C204EB041000EB8000EA
:102F0000194601EBC000D0F81001002104EB0412B7
:102F100002EB820203EBC202C2F81011C2F81401E4
:102F200004EB041000EB8000194601EBC000D0F860
:102F30001021D0F81401921940F1000004EB0411A3
:102F400001EB810103EBC101C1F81021C1F81401AB
:102F500004EB041000EB8000194601EBC000D0F830
:102F60001011D0F81401464AC2E90010688801E047
:102F70008EE08CE004EB041101EB81011A4602EBB8
:102F8000C101A1F81C01698804EB041202EB820262
:102F900003EBC20202F19F00002206F0E8FC04EB02
:102FA000041000EB8000354901EBC00090F8A80048
:102FB0002A280BD1002000E043E004EB041101EBD0
:102FC00081012E4A02EBC10181F85402012004EB79
:102FD000041101EB8101294A02EBC10181F854027D
:102FE000022104EB041000EB800002EBC00090F81B
:102FF000572204EB041000EB8000204B03EBC000D1
:1030000090F85702401C04EB041303EB8303DFF832
:103010006CC00CEBC30383F8570204EB041000EB05
:103020008000634603EBC00000F255208154082065
:1030300004EB041101EB81011A4602EBC101486067
:1030400001E04FF001080F480068401C0D4908607E
:1030500004EB041000EB8000084901EBC000406B5A
:10306000401C04EB041101EB8101044A0CE0000058
:103070005301002054010020500100203807002097
:10308000480100203001002002EBC10148635CE0F0
:10309000287804284AD104EB041000EB8000FE4994
:1030A00001EBC00090F85702022828DA042104EB53
:1030B000041000EB8000F84A02EBC00090F85722A1
:1030C00004EB041000EB8000F34B03EBC00090F81E
:1030D0005702401C04EB041303EB8303DFF8B8C36F
:1030E0000CEBC30383F8570204EB041000EB8000E1
:1030F000634603EBC00000F25520815401E04FF01D
:10310000080804EB041000EB8000E34901EBC00069
:103110004068062819D104EB041101EB8101DE4A55
:1031200002EBC1000421FFF730FC0EE004EB0410B9
:1031300000EB8000D84901EBC00090F8650220B98F
:10314000002213461046FFF70BFAB8F1000F06DD18
:103150004FF00A0807F00EFA002007F03BFABDE82E
:10316000FE832DE9FC4107460024002000900190D9
:1031700000253E780120FFF769FE04EB041000EB08
:103180008000C54901EBC00090F81E0150B1062631
:10319000002004EB041101EB8101BF4A02EBC101E5
:1031A00081F81E01012E7AD104EB041000EB80009F
:1031B000B94901EBC00090F85702022853DA68467B
:1031C00006F037FC9DF800009DF8011000EB01208F
:1031D0009DF8021000EB01409DF8031000EB016523
:1031E0009DF80400002104EB041202EB8202AA4BBA
:1031F00003EBC20202F5847203C204EB041000EB7D
:103200008000194601EBC000D0F80801002104EB52
:10321000041202EB820203EBC202C2F80811C2F8E8
:103220000C0104EB041000EB8000194601EBC00018
:10323000D0F80821D0F80C01521940F1000004EB3D
:10324000041101EB810103EBC101C1F80821C1F8B0
:103250000C01002004EB041101EB81011A4602EB82
:10326000C10181F8540204EB041000EB80008A498C
:1032700001EBC000006B401C04EB041101EB810169
:10328000854A02EBC101086304EB041101EB8101E3
:1032900002EBC1000121FFF778FB35E0FFE7062EC6
:1032A00032D104EB041000EB80007B4901EBC0003D
:1032B00090F85702022827DA062104EB041000EBED
:1032C0008000754A02EBC00090F8572204EB04100E
:1032D00000EB8000704B03EBC00090F85702401CDD
:1032E00004EB041303EB8303DFF8ACC10CEBC30363
:1032F00083F8570204EB041000EB8000634603EBF5
:10330000C00000F255208154BDE8FC8170B5002456
:10331000002004EB041101EB81015F4A02EBC101C3
:1033200081F8380004EB041101EB810102EBC101CB
:10333000486004EB041101EB810102EBC10181F84B
:103340002D0204EB041101EB810102EBC10181F8B4
:103350002C0204EB041101EB810102EBC101C1F865
:10336000A40104EB041101EB810102EBC101C1F8DE
:10337000A80107F0FDF940F6070006F092F80546AF
:103380000121464807F087F9022007F002F80DB145
:10339000601E70BDAFF24351AFF2392006F03AFF24
:1033A000FFF700FD4DF6CA6004EB041101EB81014B
:1033B000394A02EBC101A1F80602012004EB041115
:1033C00001EB810102EBC10181F82E02002004EB28
:1033D000041101EB810102EBC10181F82F02304998
:1033E000FEF716FF2F4B1840C9B204EB041202EB94
:1033F0008202294B03EBC20202F5107203C20020C5
:103400002949FEF705FF274B1840C9B204EB041207
:1034100002EB8202204B03EBC20202F50E7203C2E2
:103420000021224804EB041202EB820203EBC202E9
:10343000C2F84812C2F84C0200201D49FEF7E8FE0F
:1034400004EB041202EB8202134B03EBC20202F5FF
:103450000C7203C2174804EB041101EB81011A46F8
:1034600002EBC101C1F81C02002004EB041101EBC6
:10347000810102EBC10181F8500204EB041101EB60
:10348000810102EBC10181F8520204EB041101EB4E
:10349000810102EBC1010FE03807002080D002005B
:1034A00000409F4000FEFFFF0088B3400000144032
:1034B0000070A74040420F0081F8530204EB041152
:1034C00001EB810102EBC10181F8540204EB04110C
:1034D00001EB810102EBC10181F8580201F0E1FD2D
:1034E00004EB041101EB8101FE4A02EBC101C1F8BA
:1034F0006002002004EB041101EB810102EBC10129
:1035000081F85502002104EB041000EB800002EB6F
:10351000C00080F85612002004EB041101EB810179
:1035200002EBC10181F8570242F2107004EB041162
:1035300001EB810102EBC101C1F82002002004EB84
:10354000041101EB810102EBC10181F8650204EB7A
:10355000041101EB810102EBC101488704EB041166
:1035600001EB810102EBC10181F8880204EB041137
:1035700001EB810102EBC10181F88F0204EB041120
:1035800001EB810102EBC101A1F8940204EB0411EB
:1035900001EB810102EBC10181F8900204EB0411FF
:1035A00001EB810102EBC10181F8A20204EB0411DD
:1035B00001EB810102EBC10101F26A2006F098FAE9
:1035C000FDF7F2FBC8490880C6480078022809D1F7
:1035D00004EB041101EB8101C24A02EBC100FFF7C9
:1035E0003DF908E004EB041101EB8101BD4A02EB57
:1035F000C100FFF762F90020CBE610B505F04BFFE4
:1036000010BD2DE9F04105460024032700BF2878AE
:1036100004EB041101EB8101B24A02EBC101087510
:10362000697804EB041000EB800002EBC0004176E7
:10363000697804EB041000EB800002EBC000017617
:10364000A97804EB041000EB800002EBC000417588
:10365000E97804EB041000EB800002EBC000C176B7
:10366000297904EB041000EB800002EBC0008175A7
:10367000697904EB041000EB800002EBC000C17517
:10368000A97904EB041000EB800002EBC000817606
:10369000002104EB041000EB800002EBC000017776
:1036A00041F2410104EB041000EB800002EBC0008A
:1036B000C183002104EB041000EB800002EBC0008A
:1036C00080F82010394604EB041202EB8202854B8D
:1036D00003EBC20202F1140005F0E4FF287800EBCE
:1036E0004000824911F8200004EB041101EB810134
:1036F0007C4A02EBC10181F8240004EB041202EBC6
:103700008202784B03EBC202117DA87805F076FFA8
:1037100006460EB1701C50B9287800EB4000734982
:1037200001EB8000001DA978491E50F8216004EBD0
:10373000041000EB80006B4901EBC00090F8200002
:10374000012807D104EB041000EB800001EBC0005E
:1037500086620FE0F0B240EA002141EA004141EA0E
:10376000006204EB041101EB81015E4B03EBC1012C
:103770008A6200BF04EB041101EB8101594A02EB9C
:10378000C10191F8200006F0C8FC04EB041101EB24
:103790008101544A02EBC10101F1240005F020FF30
:1037A00007F0020018BBA878401E514931F81000FC
:1037B00004EB041101EB81014A4A02EBC101A1F8BB
:1037C000200104EB041101EB810102EBC101B1F80E
:1037D000200105F028FF04EB041101EB8101414AAF
:1037E00002EBC101B1F8200105F013FF38E0A87821
:1037F00006F093F8401004EB041101EB8101394A03
:1038000002EBC101A1F8200104EB041000EB8000E1
:10381000114601EBC000B0F8200108BBA878401E9B
:10382000334931F8100004EB041101EB810102EB84
:10383000C101A1F8200104EB041101EB810102EBAD
:10384000C101B1F8200105F0EEFE04EB041101EB1B
:103850008101244A02EBC101B1F8200105F0D9FE33
:1038600004EB041000EB80001E4901EBC000B0F82F
:10387000200120490880BDE8F0812DE9F04105468E
:103880000024032700BF04EB041000EB800015495F
:1038900001EBC0000575394604EB041202EB82020D
:1038A000104B03EBC20202F1140005F0FBFE05EB26
:1038B00045000E4911F8200004EB041101EB8101D1
:1038C000084A02EBC10181F8240004EB041000EB6C
:1038D000800002EBC000017D012005F08FFE06464E
:1038E00066B109E03807002024000020C8B40008B1
:1038F00028B50008F8000020701C28B905EB450029
:10390000FE4901EB8000466804EB041000EB8000E8
:10391000FB4901EBC00090F82000012807D104EB1F
:10392000041000EB800001EBC00086620FE0F0B2F3
:1039300040EA002141EA004141EA006204EB04113F
:1039400001EB8101EE4B03EBC1018A6200BF04EB86
:10395000041101EB8101EA4A02EBC10191F8200058
:1039600006F0DBFBBDE8F08110B500214FF47A7260
:10397000424301EB011303EB8303E14C04EBC3036C
:10398000C3F8182210BD10B5002202EB021303EB9E
:103990008303DB4C04EBC30303F5127303C310BDB5
:1039A0002DE9F04704460D464FF0000A0022D54BA2
:1039B0002046294607F06CFA0646FEF729FC0AEB7A
:1039C0000A1202EB8202CE4B03EBC20202F50E7228
:1039D00003C20AEB0A1000EB8000194601EBC0009D
:1039E00000F5127030C000224FF080432046294677
:1039F00007F048FA06460022C24B07F049FA804613
:103A0000FEF706FC0AEB0A1202EB8202BC4B03EB48
:103A1000C20202F50C7203C2BDE8F08710B50021A6
:103A200001EB011303EB8303B54C04EBC30383F8F1
:103A30002E0210BD10B51021B34803F019F9012072
:103A400001F055FF1021B04803F010F9052001F0F6
:103A50004EFF002006F00BFB0021481E06F01BFE67
:103A600010BDA74890F855027047A8480CC81046EA
:103A700019467047A249D1F8A0017047A4480CC864
:103A8000104619467047A3480CC81046194670479F
:103A90009B49486B70479A49086B70479E480CC811
:103AA00010461946704770479C49497901F0040156
:103AB00009B1002000E0012070479849497901F0E0
:103AC000080109B1012000E000207047002094495E
:103AD000087070478A4991F890020021884A82F85C
:103AE0009012704710B500208C49087008818870CA
:103AF00088710021894A11615161FDF766F910BD95
:103B00008649488970477E49B1F8940200217C4A71
:103B1000A2F89412704770B5794800F51E7060C81D
:103B2000102200232846314607F046F81446204666
:103B300070BD7349D1F88402704730B90B21704AC7
:103B40005160002182F88B120DE0012806D102217C
:103B50006B4A5160012182F88B1204E0022802D1E5
:103B60000821674A51607047654981F889027047AA
:103B7000634991F8890270476149C1F898020121AF
:103B8000684A11700021684A116070475C49D1F899
:103B9000980270475A49A1F89E020121584A82F8BA
:103BA0009D1270470120564981F8A202704754497E
:103BB00091F8A2020021524A82F8A21270475B4893
:103BC00001880020594A108008467047704730B578
:103BD0005748D0E90020C3B20021554C21606160F4
:103BE0001046194630BD30B55248D0E90020C3B266
:103BF0000021504C216061601046194630BD4E498D
:103C0000088800214C4A118070474C490878704759
:103C10000020704770B50546002400BF00BF04EBCC
:103C2000041000EB8000364901EBC00090F85562AB
:103C30005DB900BF04EB041101EB8101304A02EBD6
:103C4000C1003146FEF74BFF08E004EB041101EB25
:103C500081012B4A02EBC100FEF740FDEEB30020CC
:103C600004EB041101EB8101254A02EBC10181F84B
:103C7000550204EB041000EB8000114601EBC0007C
:103C800090F85702401E04EB041101EB810102EB96
:103C9000C10181F8570204EB041000EB80001146CB
:103CA00001EBC00090F85602B8B104EB041000EB31
:103CB000800001EBC00090F8560204EB041101EB08
:103CC000810102EBC10181F85502002104EB0410CF
:103CD00000EB800002EBC00000E001E080F856122B
:103CE000002104EB041000EB8000054A02EBC00049
:103CF00080F8561200BF002070BD0000C8B4000854
:103D00003807002000408F4000000240A80000203B
:103D100098000020B0000020A0000020D810002053
:103D2000340100202101002030010020500100203A
:103D300048010020400100205401002053010020D0
:103D40000020704710B500BF0221614804F098FBC5
:103D50000028F9D000215E4804F00EFB002010BDC1
:103D60002DE9F04105460E461746984600241021DD
:103D7000584802F07DFF00BF0EE0315D544804F06A
:103D800048FB00BF0121524804F07AFB0028F9D01B
:103D90004F4804F03BFB641CAC42EEDB00240FE018
:103DA00018F804104A4804F034FB00BF01214848C9
:103DB00004F066FB0028F9D0454804F027FB641C9A
:103DC000BC42EDD31021434802F050FF0020BDE873
:103DD000F0812DE9F04105460E461746984600242D
:103DE00010213C4802F044FF00BF0EE0315D38482E
:103DF00004F00FFB00BF0121354804F041FB00280F
:103E0000F9D0334804F002FB641CAC42EEDB002422
:103E100010E000212E4804F0FCFA00BF01212C48DC
:103E200004F02EFB0028F9D0294804F0EFFA08F836
:103E30000400641CBC42ECD31021264802F016FF9B
:103E40000020BDE8F0812DE9F04104460F461546FB
:103E50000026B0462FB14FF400611F4802F006FF64
:103E60000BE0012C04D1287800F0030000B1A0463B
:103E70004FF40061184802F0FBFE4FF480511648E1
:103E800002F0F6FE00260EE0A95D144804F0C1FA27
:103E900000BF0121114804F0F3FA0028F9D00F48BF
:103EA00004F0B4FA761CA642EED34FF400610A483F
:103EB00002F0DEFE4FF48051074802F0D7FEB8F161
:103EC000000F02D0022001F020F9BDE8F0810000CF
:103ED0000030014000000240000402400038004071
:103EE0001CB54FF48070009001208DF80400032071
:103EF0008DF805006946454802F03EFE4FF480719A
:103F0000424802F0B5FE4FF48070009003208DF817
:103F100004008DF8050069463C4802F02DFE1CBDEA
:103F200010B586B004463A4804F062F90020ADF8B6
:103F300004004FF48270ADF806000020ADF80800D0
:103F4000ADF80A00ADF80C004FF40070ADF80E00AB
:103F5000ADF810400020ADF812000720ADF81400B5
:103F600001A92B4804F06AF90121294804F004FA58
:103F700006B010BD0EB50121080703F0E7F90120D6
:103F800002F0ADFF012003F0BBF9002003F0B8F907
:103F9000012003F0C4F800BF492003F06DF80028A9
:103FA000FAD04FF4803003F087F9012003F0A4F930
:103FB00003F07EFA4FF4801002F0CCF84FF480103A
:103FC000019000208DF8080008208DF809000120DC
:103FD0008DF80A0001A802F04CF803208DF80000CB
:103FE00000208DF801008DF8020001208DF80300FB
:103FF000684601F02AFD002003F0FAFD002003F0DE
:104000000CFE0121880304F067F80EBD0000024099
:104010000030014070B501F044F805464FF0E02053
:1040200040694FF0E020806900204FF0E0214969AD
:10403000B0FBF1F4204670BD70B50446FFF7EAFF0F
:104040000546164804FB00F600BFFFF7E3FF401BE0
:10405000B042FAD3002070BD70B501F022F80446DA
:104060004FF0E02040694FF0E0218969401A4FF09D
:10407000E0214969B0FBF1F00519284670BD70B523
:104080000446FFF7E9FF0546264600BFFFF7E4FFB9
:10409000401BB042FAD3002070BD000040420F0028
:1040A0000FB430B5DDE90B45DDE905321B1BAA4134
:1040B00008D3DDE90723A21A75EB030202D32046D9
:1040C000294613E0DDE905321B1BAA4104D2DDE9D4
:1040D0000501CDE9054509E0DDE90732E31A75EB95
:1040E000020203D2DDE90701CDE9074530BC5DF8E6
:1040F00014FB2DE9FF5F86B0DDE914BA9DF82400BA
:10410000012802D00AB0BDE8F09FBDF82000BBF83E
:104110000810401A01287DD1DDE90630DBE90012E4
:10412000591A60EB0200B1F1010840F1FF014FF0B4
:10413000FF32FF23404606F03FFD14461D46FE4871
:1041400000EB4A10806958B9FB4800EB4A10C0E9FF
:1041500002450021F84A02EB4A1211605160B6E0B4
:10416000F54800EB4A108069012823D1F24800EBA2
:104170004A10D0E90210091BA8410FD2EE4800EB0B
:104180004A11D1E90201EC4A02EB4A12C2E90401E8
:10419000E94800EB4A10C0E9024504E0E64800EBBC
:1041A0004A10C0E904450020E34A02EB4A121060BD
:1041B00050608CE0E04800EB4A108069022841DB47
:1041C000DD4800EB4A10806966283BDADA4800EBEC
:1041D0004A13CDE9044510330FCB8DE80F00D648C4
:1041E00000EB4A1C9CE80F00FFF75AFF06460F46FB
:1041F000D14800EB4A108069801EC317CE4901EBFD
:104200004A12D2E9001CA0FB012E03FB01E100FBD6
:104210000C1C00E064E0134698194CEB0702CDE952
:104220000402C54800EB4A108069401EC31780464F
:104230004246DDE9040106F0BFFCBF4A02EB4A1228
:1042400003C244E0BC4800EB4A10806966283ED1B6
:10425000B94800EB4A11D1E90201201A75EB0100BF
:1042600035D2B54800EB4A10D0E90410091BA8412B
:104270002DD2B14800EB4A108069801EC317AE49A9
:1042800001EB4A12D2E900C2A0FB0C1E03FB0CE3B7
:1042900000FB023009196841CDE90410A64800EB83
:1042A0004A108069401EC317804642460846059959
:1042B00006F082FCA04A02EB4A1203C29E4800EBC1
:1042C0004A108069401E9C4901EB4A1188619A4856
:1042D00000EB4A108069401C974901EB4A11886144
:1042E00000BF0FE770B504460025102600BF09E0A7
:1042F00005EB450204F1100101EBC200314606F066
:10430000A5FC6D1C142DF3DB314604F5F87006F0A6
:104310009DFC0020A4F8000284F8020270BD2DE983
:10432000FF4788B0DDF8548000241498B0F80042AC
:104330001498CDE9000808A80FC8FFF7DAFEC4BB3F
:104340009DF82C00012835D17C48D0E900100022CE
:104350005140504001431AD1BDF8280014990989F1
:10436000401A012813D1149ADDE90810D2E900326D
:10437000CB1A60EB0200B3F1010940F1FF014FF0ED
:10438000FF32FF23484606F017FC6C480CC0BDF80E
:104390002A0014994881149ADDE90810C2E9001036
:1043A000BDF82800149908819DF82C001499087311
:1043B00037E1FFE71498D0E9001000235940584036
:1043C00001437DD09DF82C00002879D1282C77DA84
:1043D000002C48D15948D0E90030594A9A1A70F156
:1043E000000005D2544800EB481103C9534A03C2E8
:1043F000DDE90830149A06CA591A60EB0200B1F1DF
:10440000010940F1FF014FF0FF32FF23484606F05B
:10441000D3FB04EB44011498103000EBC100C0E959
:104420000223464903C906F054FE81460022454B4B
:1044300006F02EFDCDE9060104EB4401149810307E
:1044400000EBC100D0E90221104606F042FECDE9A2
:104450000401DDE9062306F0D7FE04D20020149003
:104460000CB0BDE8F0871498B0F80002401C149915
:10447000A1F80002BDF82A1004EB44021498103091
:1044800020F832101498418904EB4402103000EBFC
:10449000C20041802C48018804EB4402149810307B
:1044A00000EBC2008180149BDDE90810D3E9002CE9
:1044B0008B1A60EB0C00B3F1010940F1FF0100E041
:1044C00017E04FF0FF32FF23484606F075FB04EB80
:1044D00044011498103000EBC100C0E90223BDF87C
:1044E000281004EB44021498103000EBC200C18085
:1044F00097E0012CFCDB9DF82C000128F8D11498E2
:1045000000F5C07008A991E80E107030A0E80E10F8
:10451000BDF8280014990989401A012878D1149B04
:10452000DDE908100CCB8A1A60EB0300B2F1010937
:1045300040F1FF010AE00000181100206001002096
:1045400040420F000000F83F2A0000204FF0FF32E9
:10455000FF23484606F030FB16461F4600254FE075
:10456000464800EB48108069142808DA05EB45013D
:104570001498103000EBC100C0E904673FE03F48E9
:1045800000EB4810D0E9001005EB4503149A1032F7
:1045900002EBC302C2E9041005EB45011498103088
:1045A00000EBC100D0E90221104606F092FDCDE9F2
:1045B00004013046394606F078FD81468A462F4888
:1045C00000EB4810D0E90021104606F082FD4A4673
:1045D0005346CDE9000106F0CDFCCDE90201DDE94D
:1045E000042306F055FCCDE9060106F0CAFD05EBF3
:1045F0004503149A103202EBC302C2E902016D1C9A
:10460000A542ADDB0120149981F8020203E0FFE727
:104610001498FFF767FE08A991E80E101498A0E817
:104620000E1000BF1CE71FB54FF0FF320023002122
:1046300011E0134850F8210010B9501C00B90A4687
:104640000F4850F82100BDF80A40A04202D10A46A6
:10465000012302E0491C0529EBDB00BF002A07DB30
:10466000052A05DABDF80A00054C44F8220003E0EB
:104670004FF0FF3004B010BD1846FBE718110020C2
:10468000B811002010B50246002000210AE042FACD
:1046900001F303F00103C1F10704A3400343D8B2BF
:1046A00000BF491C0829F2DB10BD10B5044600BF4D
:1046B0000221594803F0E4FE0028F9D0214656486B
:1046C00003F0A7FE00BF0121534803F0D9FE0028E4
:1046D000F9D0514803F09AFEC0B210BD70B505463E
:1046E0000C464FF480514D4802F0C2FA4FF480510D
:1046F0004A4802F0BBFA2846FFF7D7FF2046FFF7EB
:10470000D4FF4FF48051454802F0B2FA70BD10B5A5
:10471000CA210020FFF7E2FF2B210120FFF7DEFF77
:1047200000210220FFF7DAFF20210320FFF7D6FF48
:1047300010210420FFF7D2FF96210520FFF7CEFFBE
:1047400096210620FFF7CAFF2B210720FFF7C6FF9F
:1047500000210820FFF7C2FF00210920FFF7BEFF5C
:1047600000211020FFF7BAFF00211120FFF7B6FF4C
:1047700000211220FFF7B2FF00211320FFF7AEFF48
:1047800010BD1FB500208DF80C008DF80F004FF400
:104790000070029002A9224802F0EEF909210020DF
:1047A00003F0D5FE00208DF8040008208DF80500E8
:1047B00001208DF8060040020090684601F059FC87
:1047C0001FBD1CB54FF48060009000208DF80400E0
:1047D0008DF807006946124802F0CEF94FF4805078
:1047E000009001208DF8040000208DF806000320C1
:1047F0008DF8050000208DF807006946074802F093
:10480000BBF91CBD10B5FFF7BCFFFFF7DAFFFFF7E0
:104810007EFF00F098FD10BD00380040000402400B
:10482000000002400648804706480047FEE7FEE7D2
:10483000FEE7FEE7FEE7FEE7FEE7FEE7FEE7FEE750
:10484000A58E0008F500000800B589B001214802D6
:1048500002F06BFD0220019003208DF8080000207B
:104860008DF80B0001208DF8090001A94F4802F0D6
:1048700083F91020019001208DF8080000208DF8A8
:104880000A008DF80B0001208DF8090001A94848A5
:1048900002F072F903A801F076F9002003908DF878
:1048A000100001208DF811000020059007900120D4
:1048B0008DF8200003A93F4801F040F900230122B0
:1048C00011463C4801F0C3F910213A4801F095F92E
:1048D00001224FF44031374801F086F90021354874
:1048E00001F06CF909B000BD10B51021304802F09C
:1048F000BDF9012002F010FC00BF212002F0BCFB3A
:104900000028FAD001212B4801F058F900BF4021BE
:10491000284801F07BFB0028F9D0264801F043FA33
:1049200000BF0221234801F071FB0028F9D010BD1F
:1049300010B500211F4801F041F9002002F0ECFB06
:1049400010BD10B5FFF7D0FF1A4801F068FA044611
:10495000FFF7EEFF204610BD2DE9F0470546002683
:10496000284606F07FFB8146134906F07AF9804617
:10497000124906F0A8F9074606F0B7FB85B20024F5
:104980000CE040F28D400F2101FB1400A84203DC33
:10499000C4F15400C6B203E0601CC4B2142CF0DBB6
:1049A00000BF06B942263046BDE8F087000002404D
:1049B000000402400024014000401C4500F07F45F7
:1049C0001CB50220009000208DF8040001208DF815
:1049D000050002208DF807006946484802F0CCF82F
:1049E0000121084603F0B3FD00F014FD1CBD1CB509
:1049F000022001F0AFFB0220009000208DF804009F
:104A000008208DF8050001208DF80600684601F0A9
:104A100030FB1CBD1CB50220009000208DF8040066
:104A200008208DF8050000208DF80600684601F08A
:104A300020FB1CBD1FB50120029000208DF80C004A
:104A40008DF80F0002A92D4802F096F800210120F0
:104A500003F07DFD0120009000208DF80400082067
:104A60008DF8050001208DF80600684601F001FB75
:104A70001FBD08B50F208DF801008DF80200012040
:104A80008DF8030028208DF80000684600F0DDFF57
:104A900017208DF80000684600F0D7FF09208DF838
:104AA0000000684600F0D1FF01208DF801008DF86C
:104AB00002008DF8030007208DF80000684600F022
:104AC000C4FF08BD10B500F07EFA00F086FA00F0D1
:104AD000D1F800F059F800F049FB00F011F8FFF7A9
:104AE000B3FEFFF76DFF00F0CBFBFFF78BFEFFF788
:104AF000C0FFFFF79FFF00F063FB10BD0004024002
:104B00001FB500208DF80C008DF80F0008200290D2
:104B100002A91C4802F030F84020029002A919486E
:104B200002F02AF80321012003F011FD06210120E3
:104B300003F00DFD00208DF8040008208DF805001D
:104B400001208DF8060008200090684601F091FAD7
:104B500040200090684601F08CFA1FBD10B500247B
:104B60004021084802F06AF810B144F0020406E05F
:104B70000821044802F062F808B144F0010420461C
:104B800010BD00000004024000B587B007220221DA
:104B9000364802F07AF807220321344802F075F80B
:104BA00026208DF8180001208DF8190000208DF8BE
:104BB0001A0001208DF81B0006A800F046FF08200F
:104BC000049003208DF8150000208DF814008DF856
:104BD000170004A9254801F0CFFF0420049003200A
:104BE0008DF8150002208DF8140000208DF81600B5
:104BF00004A91E4801F0C0FF4FF4E13000900020EE
:104C0000ADF80600ADF80800ADF80400ADF80C00F2
:104C10000C20ADF80A006946154803F01EFE01217C
:104C2000134803F09FFE4021114803F083FF07B0B3
:104C300000BD70B504460D46E1B20D4803F0BDFE5F
:104C400000BF40210A4803F068FF0028F9D00A2C71
:104C50000AD10D21064803F0B0FE00BF40210448F0
:104C600003F05BFF0028F9D0204670BD0000024031
:104C7000004400401CB50121072002F045FB102034
:104C8000009001208DF8040003208DF8050069468E
:104C9000444801F071FF1021424801F0E9FF102162
:104CA000404801F0E3FF4FF48050009001208DF860
:104CB000040003208DF8050069463A4801F05CFFC6
:104CC0004FF48051374801F0D3FF4FF4004000907B
:104CD00001208DF8040003208DF805006946314855
:104CE00001F04AFF4FF400412E4801F0C1FF4FF49C
:104CF0008060009001208DF8040003208DF80500ED
:104D00006946294801F038FF4FF48061264801F0D8
:104D1000AFFF4FF48061244801F0A8FF4FF400502A
:104D2000009001208DF8040003208DF805006946ED
:104D30001E4801F021FF4FF400511C4801F096FF7E
:104D40004FF40070009001208DF8040003208DF8CE
:104D500005006946144801F00FFF4FF40071124836
:104D600001F086FF1CBD10B54FF400410D4801F065
:104D70007FFF142000F0C9F94FF40041094801F009
:104D800075FF10BD10B54FF48051064801F070FF5B
:104D9000142000F0BAF94FF48051024801F066FF88
:104DA00010BD000000000240000402400008024064
:104DB00010B5012001F0C3F920B1FBF7B1F90120D2
:104DC00001F0C8F910BD10B5022001F0B8F940B1EA
:104DD0000120DE490870C003FBF760FE022001F0ED
:104DE000B9F910BD10B5082001F0A9F940B10120B2
:104DF000D64908701020FBF751FE082001F0AAF9EF
:104E000010BD10B5402001F09AF940B10120CF4902
:104E100008701020FBF742FE402001F09BF94FF490
:104E2000007001F08CF930B12020FBF737FE4FF411
:104E3000007001F08FF910BD10B500214FF0006037
:104E400000F038FE4FF4E06000F0FAFD10BD10B540
:104E50000121084602F058FA0121022002F054FA1A
:104E60000121042002F050FA0121480402F06EFAF8
:104E70000121880302F059FA0121080302F055FAD2
:104E80000121880302F062FA0121084602F04DFA7E
:104E900010BD2DE9F047054600260027B046002446
:104EA000A14601F083FB01F0B5FD044635B904F0DD
:104EB000010050B100BF4FF0010906E0012D04D1FF
:104EC00004F0010008B91026A946B9F1000F17D067
:104ED00004F0020008B1002700E0202704F00400DD
:104EE00010B14FF0000801E04FF0400800BF42460B
:104EF0003946304601F016FD0428F8D101F06CFB6C
:104F000001F063FBBDE8F087704710B501F06BF965
:104F100001F04CFB01F08FFD38B100BFAA2001F079
:104F200037FC0428FAD101F057FB10BD10B5012061
:104F300002F0FCF800BF412002F09EF80028FAD0F1
:104F40000120FFF7A6FF45F2555001F0D1FE0620E3
:104F500001F0D1FE40F6FF7001F0D0FE01F0D1FE6D
:104F600001F0D4FE10BD7FB5684602F029F94FF478
:104F70007A710198B0FBF1F42146B1F1807F00D342
:104F80001DE021F07F40401E4FF0E022506150179D
:104F90000F22002807DA13071E0E6D4B00F00F05D5
:104FA0002D1F5E5503E013071D0E6A4B1D5400BFF5
:104FB00000204FF0E02290610720106100BF042024
:104FC00000F090FD7FBD10B5FFF736FFFFF7CBFF78
:104FD000FFF7ACFF00F080FC10BD10B5FFF737FF06
:104FE00000F0D1FA10BD1CB500215B4803F0C4F9F4
:104FF00000214FF4805002F098F90021574803F047
:10500000B1FC00214FF4003002F0A0F901208DF82E
:10501000040003208DF8050000208DF80600022012
:105020008DF8070001034E4801F022FE4FF4007195
:105030004C4801F01BFE10214A4801F019FE1CBD2E
:1050400010B50121080302F070F90121424803F074
:1050500093F90121480402F079F901213F4803F056
:1050600081FC4FF400513E4801F000FE4FF4007106
:105070003C4801F0FDFD10213A4801F0F7FD10BD5C
:1050800010B501F03EFE10BD37480068401C36499F
:105090000860704700203449086070473249086052
:1050A00070473148006870472F48006870472E49A4
:1050B000096801442C4A116070472B4A11684FF06F
:1050C000E02252694FF0E0239B69D21A4FF0E023AF
:1050D0005B69B2FBF3F250187047234A11684FF036
:1050E000E02252694FF0E0239B69D21A4FF47A73A1
:1050F0005A434FF0E0235B69B2FBF3F201EB41034B
:10510000C3EBC11302EBC30070472DE9F041044625
:105110002746FFF7D2FF064606E0FFF7CEFF851BC6
:10512000BD4201D3BDE8F081F7E72DE9F041044627
:105130002746FFF7D2FF064606E0FFF7CEFF851BA6
:10514000BD4201D3BDE8F081F7E700001100002067
:1051500018ED00E000E400E00030014000440040B1
:105160000008024000040240680100201CB54FF412
:105170000060009001208DF8040000208DF80600EA
:1051800002208DF8070001208DF8050069460B48C4
:1051900001F0F2FC4FF40061084801F067FD1CBD0E
:1051A00010B54FF40061054801F062FD10BD10B567
:1051B0004FF40061014801F059FD10BD00000240AC
:1051C00000B587B005221146644801F05EFD052256
:1051D0000621624801F059FD052207215F4801F0D0
:1051E00054FD02208DF8040000208DF806000220F6
:1051F0008DF8070003208DF80500202000906946F7
:10520000564801F0B9FC402000906946534801F02F
:10521000B3FC802000906946504801F0ADFC504836
:1052200002F0E6FF0020ADF808004FF48270ADF800
:105230000A000020ADF80C00ADF80E00ADF810002B
:105240004FF40070ADF812004648006846498842A5
:1052500003D91820ADF8140002E01820ADF81400AE
:105260000020ADF816000720ADF8180002A93C4850
:1052700002F0E4FF01213A4803F07EF807B000BDD8
:1052800000B587B005220D21384801F0FEFC05224B
:105290000F21364801F0F9FC05220E21334801F0B8
:1052A000F4FC02208DF8040000208DF80600022096
:1052B0008DF8070003208DF805004FF40050009092
:1052C00069462A4801F058FC4FF4004000906946B6
:1052D000264801F051FC4FF4804000906946234875
:1052E00001F04AFC224802F083FF0020ADF80800DC
:1052F0004FF48270ADF80A000020ADF80C00ADF854
:105300000E00ADF810004FF40070ADF81200154813
:1053100000681549884203D90820ADF8140002E05E
:105320000020ADF814000020ADF816000720ADF8FD
:10533000180002A90E4802F081FF01210C4803F079
:105340001BF807B000BD10B50021094803F014F8A0
:1053500000214FF4804001F0F9FF10BD0000024031
:10536000003001408801002000366E010004024038
:105370000038004070B504460D467B48007808B1FF
:10538000FF2070BD2A462146382000F06BFA00202D
:10539000F7E710B504467448007808B1FF2010BD47
:1053A0002146382000F070FAC0B2F8E710B52A2084
:1053B000FFF7EFFF40F0010421462A20FFF7DAFF54
:1053C00010BD10B52A20FFF7E4FF044624F00104C5
:1053D00021462A20FFF7CEFF10BD70B5002400251E
:1053E00000BF0D21382000F04FFAC4B21A2C05D0AE
:1053F0002A2C03D03A2C01D0052DF2DB1A2C05D033
:105400002A2C03D03A2C01D0012000E0002056497C
:10541000087070BD10B5FFF7E0FF5348007800B189
:1054200010BDFFF7CEFF6A222A21382000F01AFAB9
:105430001F222B21382000F015FA5A222C21382067
:1054400000F010FA2C222D21382000F00BFA2C222B
:105450002E21382000F006FAB8221521382000F05D
:1054600001FA08221721382000F0FCF90322182144
:10547000382000F0F7F91F221D21382000F0F2F942
:1054800011221F21382000F0EDF900220E213820D2
:1054900000F0E8F910220F21382000F0E3F9112084
:1054A000FFF777FF044644F04004224611213820DC
:1054B00000F0D8F91320FFF76CFF044604F03F0416
:1054C00000BF44F0400444F08004224613213820F9
:1054D00000F0C8F91C20FFF75CFF044604F0F80454
:1054E00000BF44F0010422461321382000F0BAF92D
:1054F0001420FFF74EFF044604F0070444F038047C
:1055000022461421382000F0ADF91420FFF741FFA6
:10551000044604F0F80444F0010422461421382023
:1055200000F0A0F92D20FFF734FF044644F01004EA
:1055300022462D21382000F095F92E20FFF729FF73
:10554000044604F0EF0444F0100422462E213820D3
:1055500000F088F905221221382000F083F9FFF7C6
:1055600025FF00BF5CE700006C01002008B500903B
:1055700004E09DF80010491EC9B200919DF800108A
:105580000029F6D108BD1CB54FF4806000900120C1
:105590008DF8040003208DF8050000208DF806002A
:1055A00001208DF807006946C54801F0E5FA4FF47F
:1055B0000060009001208DF8040003208DF80500A4
:1055C00000208DF8060001208DF807006946BC48D0
:1055D00001F0D2FA4FF40061B94801F047FB4FF4F3
:1055E0008061B74801F042FB1CBD1CB54FF400615F
:1055F000B34801F03BFB00BF4FF400600090012076
:105600008DF8040003208DF8050000208DF80600B9
:1056100001208DF807006946A94801F0ADFA00BFE6
:105620004FF48061A64801F021FB0120FFF79EFFA7
:105630004FF40061A24801F01BFB4FF48061A048C9
:1056400001F016FB0120FFF791FF1CBD1CB54FF4C4
:1056500000619B4801F00CFB00BF4FF4006000901C
:1056600001208DF8040003208DF8050000208DF83E
:10567000060001208DF807006946914801F07CFA88
:1056800000BF4FF480618E4801F0F0FA0120FFF76F
:105690006DFF4FF400618A4801F0E8FA0120FFF73E
:1056A00065FF1CBD1CB504462CB94FF4006184484D
:1056B00001F0DEFA04E04FF40061814801F0D6FA0F
:1056C00000BF4FF40060009001208DF8040003201B
:1056D0008DF8050000208DF8060001208DF80700E8
:1056E0006946774801F048FA00BF4FF4806174487A
:1056F00001F0BCFA0120FFF739FF4FF480617048D8
:1057000001F0B6FA0120FFF731FF1CBD7CB506465B
:1057100000BF4FF40060009001208DF804000320CA
:105720008DF8050000208DF8060001208DF8070097
:105730006946634801F020FA00BF002421E006FA20
:1057400004F000F0800028B14FF400615C4801F0E3
:105750008DFA04E04FF40061594801F089FA4FF4E2
:105760008061574801F082FA0120FFF7FFFE4FF4F5
:105770008061534801F07CFA0120FFF7F7FE601CBE
:10578000C4B2082CDBDB4FF400614D4801F06EFA27
:1057900000BF4FF40060009000208DF8040003204B
:1057A0008DF8050001208DF8060000208DF8070017
:1057B0006946434801F0E0F900BF4FF4806140487A
:1057C00001F054FA0120FFF7D1FE4FF400613C488C
:1057D00001F034FA012801D1002500E001254FF441
:1057E0008061374801F044FA28467CBD7CB500252D
:1057F00000BF4FF40060009000208DF804000320EB
:105800008DF8050001208DF8060000208DF80700B6
:1058100069462B4801F0B0F900BF002419E04FF4AD
:105820008061274801F024FA0120FFF79FFE4FF422
:105830008061234801F01AFA0120FFF797FE6806FD
:10584000050E4FF400611E4801F0F8F90543601C95
:10585000C4B2082CE3DB4FF48061194801F008FA68
:1058600028467CBD70B504460D461646FFF7BDFEC2
:105870002046FFF74BFF2846FFF748FF3046FFF76B
:1058800045FFFFF7E3FE70BD70B504460D46FFF718
:10589000ACFE2046FFF73AFF2846FFF737FFFFF739
:1058A000A4FE44F00100FFF731FFFFF79FFF06461B
:1058B0000020FFF7F7FEFFF7C9FE304670BD00007D
:1058C0000004024010B54FF4801000F043FC4FF488
:1058D000804002F078FC10BD10B50121080701F0EE
:1058E00035FD002001F069FAFEF744FB10BD70B5EC
:1058F0000546FFF7C5FB49F28800684300094FF4ED
:105900007A71B0FBF1F4B4F5803F01D34FF6FF7428
:1059100004B970BD4FF4801000F01CFC4FF48040BF
:1059200002F051FC002002F088F9204602F075F9DF
:10593000012002F082F90121084601F029FB002034
:1059400002F07BF900BF012001F08FFB00BF00BF18
:10595000312001F091FB0028FAD0012001F0F1FB89
:1059600000BF392001F088FB0028FAD0032001F0A5
:10597000F8FB00BF01F0FFFB0C28FBD100BFFFF7D5
:10598000F2FAFFF77DFB00BFC3E770B505462C4672
:105990000E2C00DC70BD0E3C04F091FAFAF7CBFB44
:1059A000FFF721FB44F62060844218DD06E044F650
:1059B0002060FFF79CFFA4F59C44203C44F6206047
:1059C000844203DB1B4800780028F0D00E2C09DD50
:1059D0001848007830B92046FFF789FF02E02046DA
:1059E000FFF785FFFFF72CFB04F10E00FFF75FFBCD
:1059F00000BFCFE710B504462046FFF778FF10BD83
:105A0000FAF782FB00BFBFF34F8F0B48006800F42A
:105A1000E0600A490843001D07490860BFF34F8F43
:105A200000BF00BFFEE710B504462046FFF7ADFFFC
:105A300010BD0000110000200CED00E00000FA0590
:105A400032490143324A1160704770B5002100238A
:105A50000F22C4781CB32E4C246804F4E064C4F50F
:105A6000E064C4F30721C1F10404E3B20A414478BD
:105A70009C40E1B28478144021430C07210E254C50
:105A800005786155047804F01F050124AC400578C1
:105A90006D11AD0005F1E025C5F8004109E004787D
:105AA00004F01F050124AC401B4D0678761145F823
:105AB000264070BD194A0A400243154B1B1F1A604D
:105AC000704739B1124A121D12680243104B1B1D58
:105AD0001A6006E00E4A121D126882430C4B1B1D11
