:020000040000FA
:06000000020EF602077477
:03001300020517CC
:03002B00020DAB18
:03003300020F9920
:03003B000205B308
:030053000206762C
:03006B00020F93EE
:03007B000207B0C9
:100083000206EF0101C4C34BB030A806AC96CABB4D
:10009300B6F3ACD7AD93D1ABB16CAEEDA98BAD4D8F
:1000A300AA70CE3EAF3BB173B1A8A73FAD97D19F26
:1000B300D1DFB6E3B18BB08EA6A7D1010203050150
:1000C3001C010000050100001ED8CF1C1F050BCC2E
:1000D3002A125A121F06CF1E240000003C1242129D
:1000E3002053CF1E280344D02A1236122181CD1E5D
:1000F300340480CE2A12361222D7D01E380AD8C32F
:1001030060126612238ACD1E000501CC0000000098
:100113002406CF1F250308D02A1232132506CF2425
:100123000000000038133E132606CF240000000011
:1001330044134A132706CF240000000000000000E8
:100143002892CF200000000000009C12298BCF20B2
:1001530030000000AE12BA122A7DCF20000000004A
:100163000000CC122B8BCF292B0450CEC012C61209
:100173002C7DCF2A00000000D212BA122D7DCF2C85
:100183000003F6CFD812DE122E7DCF2D0000000023
:10019300E412EA122F0000280000000002130813E3
:1001A3003053CF28310302D0F012F6123100002869
:1001B300000000000E13141332000028000000009A
:1001C3001A132013330000280000000026132C13F9
:1001D30034DBCD210000000048124E1235E4CD215E
:1001E3000000000048124E1236EDCD210000000041
:1001F30048124E1237FFCD21000338D02A12541271
:100203003847CB22420478CE78127E12399CCD2215
:10021300000283D16C1272123A73CC22000468CEAE
:100223002A1200003BE4CA2200027BD190129612EC
:100233003C00002200000000000000003D72CA22C2
:1002430000000000000000003EBCC9220005F7CBFF
:100253002A1200003FAECD22000000000000000083
:1002630040C0CD22000000000000000041F0C92280
:1002730000000000000000004211CE38000460CEF0
:100283002A12841243FACA38000460CE2A12841256
:10029300441ACE3800000000000000004523CE3889
:1002A30000027BD12A128A124608CE3900027FD17E
:1002B3000000000005010A6407FF090000000000B8
:1002C300090000000000B207010001000102040858
:1002D3001020408002004080C0FF01040404040297
:1002E300581D581D581D581D261C201C581D7320B1
:1002F300000000003721000000000C0000000C008B
:1003030074F7120ADC74F6120E097403120FAAE4CE
:10031300F07901121464E970030203D0A2AFE492EE
:10032300E0FEC2AF9017D3C3E0940CA3E094004067
:10033300107401901832F0EEA2E092AF790202033A
:10034300D279067CB97D17851882851983AA82AB79
:10035300831216987403120FAAE0A2E150367508AF
:10036300017509009017D3E07808120EAAE508F486
:10037300F8E509F4F99017D5E058F0A3E059F090A7
:1003830017D3E02401F0A3E03400F0EEA2E092AF33
:100393007900803B7ACE7B17121BD8E9702A7CB98F
:1003A3007D177ACE7B17121BAEE9601C75080175A9
:1003B30009009017D3E07808120EAA9017D5E045EC
:1003C30008F0A3E0450980B6EEA2E092AF7903748A
:1003D3000A120D787F02020BC974F7120ADCA2AF6E
:1003E300E492E0FEC2AF7AC57B17121BDEE960120E
:1003F3007401901831F0120B3CEEA2E092AF790138
:1004030080447CB97D177AC57B17121BB4E9602F32
:100413007508067509007808120DE07C417D187A8D
:10042300B97B17121E247402120D78EA7001EB7067
:1004330005120B3C800979067AB97B171216A4EED4
:10044300A2E092AF7904808C74F7120ADCA2AFE4C5
:1004530092E0FEC2AF9017D3C3E0940CA3E09400E4
:10046300500D7ACE7B17121BD8E970030205049056
:1004730017D3E4F0A3F09017D5E07002A3E0700A5D
:10048300901847E004F0540770777ACE7B17121B5D
:10049300CC8A0890070EE0FAA3E0FB9017D7EAF0A6
:1004A300A3EBF090071AE0FAA3E0FB9017D9EAF068
:1004B300A3EBF09017D5E0FAA3E0FB9017DBEAF08B
:1004C300A3EBF0901848E09017DDF090184804F083
:1004D300E5089017DEF07CDF7D177ACE7B17121BC1
:1004E300C67D007C069017DEE02408F97AD77B17D7
:1004F30012148E1214C4E4901847F09017D5F0A389
:10050300F0901832E06005120303E4F0EEA2E092EB
:10051300AF0203D7C0E0C0D0E8C0E0E9C0E0EAC062
:10052300E0C082C083E5C1C0E0901886E02480F873
:10053300A3E03400F988828983E0F8901886E028E4
:10054300FAA3E034008A82F583D0E0F0901886E0C5
:100553002480F8A3E03400F988828983E0C0E09026
:100563001886E024820808A3E03400F9888289838E
:10057300E0FAD0E0C39A901886E04010248018185F
:10058300A3E03400F988828983E4800F248018185B
:10059300A3E03400F988828983E004F0C28BD0831E
:1005A300D082D0E0FAD0E0F9D0E0F8D0D0D0E03279
:1005B300C0E0C0D0E8C0E0E9C0E0EAC0E0EBC0E0E2
:1005C300C082C083C2E9901886E02489F8A3E0348E
:1005D30000F988828983E0FA901886E0248A08A3C8
:1005E300E03400F988828983E06A9018867010E00D
:1005F300248918A3E03400F988828983E4800FE01A
:10060300248918A3E03400F988828983E004F090F8
:100613001886E02489F8A3E03400F988828983E00E
:10062300FA901886E0248818A3E03400F9888289B8
:1006330083E06A6032901886E0248908A3E03400DE
:10064300F988828983E0F8901886E02486FAA3E08B
:100653003400FB8A828B83E028FAA3E034008A8289
:10066300F583E0F5C18002C281D083D082D0E0FB64
:100673000205A5C0E0C0D0E8C0E0E9C0E0EAC0E000
:10068300EBC0E0ECC0E0EDC0E0EEC0E0C082C083B0
:10069300C0F0A2AFE492E0FED2AFE5A7FAE5A1FB7A
:1006A300EA5B5410600812192075A1EF8019EAA2C1
:1006B300E0C0D0EBA2E092F0120E97158182F050C9
:1006C300061219CE75A1FEEEA2E092AFD0F0D08350
:1006D300D082D0E0FED0E0FDD0E0FCD0E0FBD0E063
:1006E300FAD0E0F9D0E0F8D0D0D0E032C0E0C0D00A
:1006F300E8C0E0E9C0E0EAC0E0EBC0E0ECC0E0ED58
:10070300C0E0EEC0E0C082C083C0F0A2AFE492E0DC
:10071300FED2AF9061A4E0FA759B00E5915A5408AC
:1007230060087591F712196E802AE5915A5410608A
:10073300087591EF121974801BEAA2E0C0D0E5910D
:10074300A2E092F0120E97158182F05007E0C2E00A
:10075300F0121ABE9061A3E0FAE5E95A5404600E60
:10076300121A9475E9FB906193E0A2E640F2020647
:10077300CAC0E0C0D0E8C0E0E9C0E0EAC0E0EBC036
:10078300E0ECC0E0EDC0E0EEC0E0C082C083C0F0AA
:10079300A2AFE492E0FED2AF9061A5E0FAE5BF5AC2
:1007A3005404600675BFFB121AD60206CAC0E0C025
:1007B300D0E8C0E0E9C0E0EAC0E0EBC0E0ECC0E0B4
:1007C300EDC0E0EEC0E0C082C083C0F0E58AA2E7DE
:1007D3005034E58DA2E7502E1213ECE96025E5A80D
:1007E300FEC2AF121854EEA2E792AF901872E090D7
:1007F3001873F07C107D277A007B04900677E0F96C
:1008030012149A538A7FE58AA2E65019E58DA2E66F
:1008130050137C1E7D007A007B029005CEE0F91216
:10082300149A538ABFE58AA2E0500CE58DA2E050EA
:1008330006538AFE120303E58AA2E2500CE58DA259
:10084300E25006538AFB1203DCC2EBD0F0D083D014
:1008530082D0E0FED0E0FDD0E0FCD0E0FBD0E0FAB7
:10086300D0E0F9D0E0F8D0D0D0E032C3E498F8E497
:1008730099F91208AF8026C3E49AFAE49BFBE920B6
:10088300E7E91208AFE498F8E499F922C3E498F889
:10089300E499F91208AFE498F8E499F9C3E49AFAF1
:1008A300E49BFB22EB20E7CFE920E7E0B90010BB94
:1008B3000008E88AF084F8AAF022E4FBC8FA22EBE5
:1008C30070227B10C833C8C933C9335007C39AC3D6
:1008D300DBF280069A50012ADBEAC833F4C8C93335
:1008E300F4C9FA2275F008E4C833C8C933C933C957
:1008F3009AC99B5004C92AC93BD5F0ECFBC833F411
:10090300C8E4C9FA22080808EAC0E0EBC0E086F0B0
:10091300E7A4FA180986F0E7A42AFA180986F0E78B
:10092300A42AFA180986F0E7A42AFA1986F0E7A49C
:10093300FBE5F02AFA190886F0E7A42BFBE5F03A69
:10094300FA190886F0E7A42BFBE5F03AFA18180920
:1009530086F0E7A4C5F02BFBE43AFA1908E7C5F0E3
:10096300C6A426F6E5F03BFBE43AFA1886F0E7A4C2
:10097300F6E5F00826F6E43B08F6E43A08F6D0E09C
:10098300FBD0E0FA22120F9FB900030209F0E490B2
:100993000400786879168002F0A3D8FCD9FA781A93
:1009A3009000867A01BA00028007E493A3F608DA7E
:1009B300F9781B9000877A01BA00028007E493A3B9
:1009C300F608DAF9901967AA82AB83900088787CDD
:1009D30079038015E493A3AC82AD838A828B83F081
:1009E300A3AA82AB838C828D83D8E9D9E77582EA87
:1009F3007583A27403120D3F75827A75831F740089
:100A0300120D3FE4CFC0E0E4CEC0E0E4CDC0E0E4AB
:100A1300CCC0E075F020C3E633F608E633F608E60B
:100A230033F608E633F6181818EC33FCED33FDEE15
:100A330033FEEF33FFC3EC9709ED9709EE9709EF08
:100A430097191919400FFFEC97FC09ED97FD09EE73
:100A530097FE191906D5F0BEECF709EDF709EEF785
:100A630009EFF7191919D0E0FCD0E0FDD0E0FED072
:100A7300E0FF222518C582C0E0E51934FFC583C015
:100A8300E0E518C3958224F8F8E4C5A885831985A1
:100A93008218C5A8E8CEF0A3E520F0A37808E608FD
:100AA300F0A3DEFAEFF0A3E58124FAF8E608F0A359
:100AB300E608F0A3E608F0A30808E608F0A3E608B2
:100AC300F0A315811581D0E0FED0E0F815811581E2
:100AD3001581E8C0E0EEC0E0222518C582C0E0E53C
:100AE3001934FFC583C0E0E518C3958224F9F8E4FF
:100AF300C5A8858319858218C5A8E8CEF0A3E5208B
:100B0300F0A37808E608F0A3DEFAEFF0A3E581246A
:100B1300FBF8E608F0A3E608F0A30808E608F0A34C
:100B2300E608F0A315811581D0E0FED0E0F8158129
:100B33001581E8C0E0EEC0E02274F8120ADC7AEC1A
:100B4300791312169E7A02790212169E90179EE06E
:100B5300FA90179FE0F912169E7AF4790112169E05
:100B63007A00790012169E7E037A00790012169E8F
:100B73001EEE70F57E097A00790012169E1EEE7045
:100B8300F579067F01020BC9851983851882E0A3D5
:100B9300FEE0A3F5207808E0A3F608DFFAE0A3FF60
:100BA300E0A3C0E0E0A3C0E0E0A3C0E0E0A3C0E0B6
:100BB300E0A3C0E0E4C5A8858218858319C5A8D041
:100BC30083D082020D45851983851882E0A3FEE058
:100BD300A3F5207808E0A3F608DFFAE0A3FFE0A37B
:100BE300C0E0E0A3C0E0E0A3C0E0E0A3C0E0E4C550
:100BF300A8858218858319C5A8D083D08222D08383
:100C0300D082C5F0E493A3C5F0C395F0F5F0E49367
:100C1300A3C395F04005E5F0048001E475F002A458
:100C23002582F582E5F03583F583E493A3C0E0E400
:100C330093C0E022EA7001EB601FEAF8EBF97AE86F
:100C43007B0300120C5D7001EB70F7E824FF18E9D9
:100C530034FFF9E87001E970E522EA24FF1AEB3466
:100C6300FFFBEA2274028000CCC0E0EDC0E0E5188F
:100C7300C39CCCAD1950011D10AF068C188D198083
:100C8300068C188D19D2AF120CE0D0E0FDD0E0FC39
:100C930022D083D082CCC0E0E493A36006120D017E
:100CA3001470FAE493A36006120DF31470FAD0E003
:100CB300FCE493A3C0E0E493C0E022CAC0E0E49361
:100CC300A3C582CCC582C583CDC583F0A3C582CC21
:100CD300C582C583CDC583DAE5D0E0CA22CAC0E0A8
:100CE300E0A3C582CCC582C583CDC583F0A3C582ED
:100CF300CCC582C583CDC583DAE6D0E0CA22C0E085
:100D0300E493A3D39C5010E493A3C39C400AD0E084
:100D1300D0E0D0E0020CB1A3A3A3D0E02270090875
:100D23000808226016181818C6C333C608C633C687
:100D330008C633C608C633C6D5E0EA22C09FF59F6E
:100D4300E473D09F22D083D082C09FE493C0E07429
:100D53000193C0E0740293F59F222518F58210AF2A
:100D630008F518400215198008F51840021519D224
:100D7300AF85198322C0D0251810AF08F51850028B
:100D830005198008F51850020519D2AFD0D022609A
:100D930016080808C6C313C618C613C618C613C652
:100DA30018C613C6D5E0EA22C0E0C0D0EAC0E0E529
:100DB300A8D2AFC2C7A2E792AFD0E0FAD0D0D0E0BA
:100DC30032C3E0C696F608A3E0C696F608A3E0C6CB
:100DD30096F608A3E0C696F6227404800674028091
:100DE300027401C0E0F404120D5DD0E0120F8622FC
:100DF300C0E0E493A36C7009D0E0D0E0D0E0020C33
:100E0300B1A3A3D0E022251810AF08F518400215AE
:100E1300198008F51840021519D2AF22C3E09608CD
:100E2300A3E09608A3E09608A3E096A2D265D03388
:100E330022E066701008A3E066700A08A3E06670FB
:100E43000408A3E06622C3E096F008A3E096F00846
:100E5300A3E096F008A3E096F022C3E697F608090C
:100E6300E697F60809E697F60809E697F622E056AC
:100E7300F608A3E056F608A3E056F608A3E056F6F4
:100E830022E056F008A3E056F008A3E056F008A3CA
:100E9300E056F022C0E0E8C0E0E58124FCF8E6A2D9
:100EA300E7D0E0F8D0E022700422600D18C6C33307
:100EB300C608C633C6D5E0F41822E026F608A3E038
:100EC30036F608A3E036F608A3E036F622E026F06D
:100ED30008A3E036F008A3E036F008A3E036F022DA
:100EE300E627F60809E637F60809E637F60809E6BD
:100EF30037F62275D00075813F7518007519047592
:100F03009F00020988E4C396F608E496F608E4967F
:100F1300F608E496F622C6F4C608C6F4C608C6F474
:100F2300C608C6F4C622C3E7960809E7960809E788
:100F3300960809E79622600D08C6A2E713C618C6ED
:100F430013C6D5E0F322C3E09608A3E09608A3E016
:100F53009608A3E09622E0F608A3E0F608A3E0F6DD
:100F630008A3E0F622E6F008A3E6F008A3E6F008FB
:100F7300A3E6F022600C08C6C313C618C613C6D571
:100F8300E0F422CAC0E0E6F0A308DAFAD0E0FA22DD
:100F9300758900C2C532758B00C2E83274F855C733
:100FA3004401F5C77901222518F582E43519F58343
:100FB30022120D48285800120D48BB5900120D4843
:100FC300F45900120D48665B00120D487E5B001257
:100FD3000D48DB5E00120D486C5F00120D48F36094
:100FE30000120D48196100120D48536100120D489B
:100FF3008D6100120D48CE6100120D48536300123B
:101003000D48B06300120D482B6400120D48AF6504
:1010130000120D489D6600120D48FE6600120D4831
:10102300CC6700120D48396800120D48B9680012E8
:101033000D48E56800120D48F56800120D48B76ABF
:1010430000120D48406B00120D48D56B00120D487D
:10105300476E00120D486B6F00120D481BDB021226
:101063000D4853DB02120D48B1DB02120D4800DCC0
:1010730002120D4828DC02120D485FDC02120D48F3
:101083009BDC02120D48CFDC02120D4813DD021265
:101093000D4836DD02120D4855DD02120D4873DD91
:1010A30002120D48EEDD02120D486BDE02120D48EE
:1010B30077DE02120D4886DE02120D4894DE02121C
:1010C3000D48BEDE02120D48F8DE02120D481DDF88
:1010D30002120D4843DF02120D485DDF02120D4874
:1010E30069DF02120D483BE002120D483EB40212C2
:1010F3000D4888B402120D489DB402120D48A6B4DF
:1011030002120D48A9B402120D48ACB402120D48E4
:10111300AFB402120D48B2B402120D48B5B40212B4
:101123000D48B8B402120D48C4B402120D489EB55E
:1011330002120D48A1B502120D48CAB502120D489C
:10114300CDB502120D48FCB502120D48FFB50212CF
:101153000D48D8B602120D48DBB602120D481BB774
:1011630002120D4841B702120D4882B702120D4810
:1011730085B702120D48B1B702120D48B4B7021277
:101183000D48B7B702120D48BAB702120D48BDB7E2
:1011930002120D48C0B702120D48EBB702120D48F8
:1011A3003DB902120D48FAB902120D48FDB90212F7
:1011B3000D483CBA02120D486BBA02120D4841BBEE
:1011C30002120D4844BB02120D4847BB02120D48E0
:1011D30055BB02120D486DBB02120D48FFBB021234
:1011E3000D4802BC02120D4805BC02120D4808BC92
:1011F30002120D480BBC02120D4832BC02120D48FC
:1012030044BC02120D487CBC02120D48D3D2011219
:101213000D48F4D201120D4805D301120D4883D3B2
:1012230001120D4865D501120D48F8D501120D487C
:10123300FBD501120D4870D801120D4848D901128F
:101243000D48F8DA01120D482CDC01120D487BDD44
:1012530001120D480CDF01120D4835DF01120D4854
:1012630067DF01120D489ADF01120D484EE00112AB
:101273000D4882E001120D48B0E001120D482EE145
:1012830001120D48D4E101120D48A0E201120D48EC
:10129300F6E201120D4816E301120D486CE3011248
:1012A3000D480EE401120D4811E401120D4814E437
:1012B30001120D48BCE401120D487BEA01120D48EE
:1012C30008EC01120D4816EC01120D4843EE011211
:1012D3000D48ECEE01120D48BBEF01120D48C9EFAA
:1012E30001120D48B0F001120D48B3F001120D4880
:1012F300A8F101120D48B6F101120D4877F201125F
:101303000D48A2F201120D480BF401120D48B1F47D
:1013130001120D48BFF401120D48D2F401120D4819
:10132300D5F401120D4861F501120D4864F501125F
:101333000D48E9F501120D4885F701120D4811F822
:1013430001120D486AF801120D4891F801120D4877
:10135300008002120D48A98002120D486D8102120D
:101363000D48B68102120D48608202120D48CE82EA
:1013730002120D48608702120D48CB8702120D48F6
:101383003F8902120D48448902120D483A8A02121B
:101393000D48A48B02120D485A8E02120D48499132
:1013A30002120D48839102120D48DD9202120D487C
:1013B300A69302120D48539402120D486897021225
:1013C3000D48749702120D48AE9702120D486198AA
:1013D30002120D48C59802120D4822FF01120D4852
:1013E30091FF01120D489AFF01120D48CAFF011225
:1013F3000D48D1FF01120D4836BD02120D483BBE08
:1014030002120D48FAC302120D48C9C502120D4853
:10141300E4C502120D4802C602120D4841A303128D
:101423000D4863D502120D48B1D502120D486FD78E
:1014330002120D4802D802120D48D9D902120D48E2
:10144300DCD902120D48F7D902120D484BDA021209
:101453000D484EDA02120D4872DA02120D4838A511
:1014630003120D48AEE002120D48C4E002120D480B
:10147300CFE002120D4813E102120D4827E10212D8
:101483000D4860E102120D488EE102120D48FAE1A7
:1014930002120D4839E202120D4873E202120D489E
:1014A30084E202120D4899E202120D48B3E20212DD
:1014B3000D48FFE202120D4844E302120D486EE3A9
:1014C30002120D4833E402120D48B9E402120D482A
:1014D30083E502120D48DEE502120D48E8E502122B
:1014E3000D483FE602120D485EE602120D48B4E6CF
:1014F30002120D48E9E602120D484BE702120D48AD
:10150300E2E702120D4841E802120D48A5E8021273
:101513000D4825E902120D488AE902120D48C9E96E
:1015230002120D480EEA02120D482DEA02120D486E
:10153300379903120D48FF9903120D489C9103122A
:101543000D480A9203120D482A9203120D48309354
:1015530003120D48009902120D48EA9902120D4830
:10156300309A02120D48159C02120D48589C021223
:101573000D48399E02120D48809E02120D48809F2D
:1015830002120D4832A002120D48ADA002120D48FE
:1015930040A102120D4894A102120D48EDA10212BE
:1015A3000D4835A202120D48B1A302120D4878A5C9
:1015B30002120D4839A702120D4847A702120D481F
:1015C300A7A702120D48A2AA02120D48E7FF0212B2
:1015D3000D4880F902120D4898F902120D4839FAA4
:1015E30002120D487AFA02120D4897FA02120D48B8
:1015F300BAFA02120D48F3FA02120D489FFC0212C6
:101603000D48649B03120D48819B03120D48C69B32
:1016130003120D485D9C03120D4865A403120D4887
:1016230009CE02120D4874CE02120D486FCF02127A
:101633000D488ECF02120D489ECF02120D4865D081
:1016430002120D48BFD002120D48EFD002120D480E
:101653001FD102120D48BBD102120D48CED1021286
:101663000D48A2D202120D48D2D202120D4889D3DC
:1016730002120D48B5D302120D48DBD302120D48F6
:101683009FD402120D4828D502120D4834A6031226
:101693000D48CDEE02120D4846EF02120D4806F03A
:1016A30002120D4861F002120D48DAF002120D48E1
:1016B30050F102120D489DF102120D48C3F10212BE
:1016C3000D481BF202120D483BF202120D4847F27D
:1016D30002120D4868F202120D487FF202120D4801
:1016E3008CF202120D48B7FC02120D485CFD021287
:1016F3000D48DCFF02120D48D09F03120D488A5794
:1017030000120D486FA003120D487CA003120D4870
:10171300009F03120D48119F03120D48AE9F031241
:101723000D48B69F03120D48649503120D48A49506
:1017330003120D48DB9503120D48739603120D48EF
:1017430018A603120D4826A603120D48FFF801122E
:101753000D4828F901120D4895F901120D48D0F9E9
:1017630001120D48A9FA01120D48D6FA01120D48CB
:10177300DFFA01120D48E8FA01120D4807FB0112C6
:101783000D481EFB01120D4821FB01120D4824FBDD
:1017930001120D48CCFC01120D48D6FC01120D4874
:1017A300E8FC01120D4816FD01120D4826FD011239
:1017B3000D483BFD01120D4845FD01120D4807FE82
:1017C30001120D485BA603120D489A7900120D48C9
:1017D300D47900120D48F47900120D48597B001298
:1017E3000D48767B00120D48E27B00120D48EE7B1C
:1017F30000120D480D7C00120D48777D00120D4834
:10180300D97E00120D48077F00120D48377F001262
:101813000D48427F00120D485D7F00120D487B7F0B
:1018230000120D48CD7F00120D48039803120D4896
:101833002A9803120D48B39803120D481E990312F8
:101843000D48DD9E03120D48DCA103120D48F7A1DC
:1018530003120D483AA203120D486FA203120D485A
:1018630072A203120D48F87F00120D48558D031222
:101873000D48B88E03120D483E8F03120D480780A2
:1018830003120D482D8003120D48688103120D4881
:10189300AE8203120D486CA603120D486FA6031205
:1018A3000D4872A603120D4877A603120D48A9939B
:1018B30003120D48159403120D48929403120D4818
:1018C300F29403120D48589A03120D485D9A0312BD
:1018D3000D488E9A03120D48DF9A03120D482F9B71
:1018E30003120D4876A503120D488AA503120D486D
:1018F300148B03120D48578B03120D48688B031288
:101903000D48A78B03120D48DD8B03120D48138C72
:1019130003120D482B8C03120D48AE8C03120D4895
:10192300DB8C03120D48D48503120D480C86031279
:101933000D485A8603120D48828603120D48DF862E
:1019430003120D48F18603120D480C8703120D484C
:101953002E8703120D483A8703120D489787031207
:101963000D48BB8703120D483E8803120D484B8870
:1019730003120D485C8803120D48FCA403120D48A2
:1019830019A503120D48D4EA02120D4834EC0212D1
:101993000D4841EC02120D485EEC02120D4875EC45
:1019A30002120D488AEC02120D486DED02120D4829
:1019B300EFED02120D4804EE02120D483FEE021243
:1019C3000D4891EE02120D48A5EE02120D48B3EE3A
:1019D30002120D4877A203120D489DA203120D486F
:1019E300C5A203120D488C8F03120D48B38F031247
:1019F3000D48D48F03120D488A8803120D48A3881B
:101A030003120D48AF8803120D48C38803120D4813
:101A1300E78803120D48F38803120D480289031265
:101A23000D48158903120D48758903120D48AF89B6
:101A330003120D48DF8903120D482E8A03120D4845
:101A43007C8A03120D48948A03120D489E8A03125E
:101A53000D48C48A03120D48098B03120D48529E88
:101A630003120D486E9E03120D48D19E03120D48BA
:101A730049A603120D48F1AA02120D4825AB021222
:101A83000D4846AB02120D4859AB02120D4874AB18
:101A930002120D48D6AB02120D480AAC02120D48D1
:101AA30019B002120D4878B102120D48A8B1021202
:101AB3000D4805B202120D481DB302120D4845B37D
:101AC30002120D485AB302120D486AB302120D48AE
:101AD300ABB302120D4800B402120D4810B4021247
:101AE3000D48C99603120D48E49603120D480D974D
:101AF30003120D48279703120D484C9703120D4804
:101B0300729703120D488B9703120D48BA9703126D
:101B13000D48D59703120D4888A003120D48CEA097
:101B230003120D4895F202120D48A5F202120D4858
:101B3300D1F302120D4805F402120D4827F40212E4
:101B43000D484AF402120D4863F402120D489AF448
:101B530002120D480AF502120D4847F502120D480C
:101B630094F502120D48C2F502120D48E2F5021275
:101B73000D48088303120D48BD8303120D48998451
:101B830003120D48298503120D487D8503120D4864
:101B9300699C03120D48D29C03120D48119D031238
:101BA3000D48529D03120D4838F602120D4898F65F
:101BB30002120D4817F702120D48C8F702120D481A
:101BC3007FF802120D48A0F802120D4813F9021211
:101BD3000D4836F902120D4841F902120D4868F911
:101BE30002120D489D2300120D48072400120D48D0
:101BF3005A2400120D48A82400120D48C3240012D1
:101C03000D48F92400120D481A2500120D48262507
:101C130000120D48A42600120D48C22600120D48DA
:101C23002B2700120D483E2700120D484C270012A7
:101C33000D48EE2700120D48F82800120D48122A0D
:101C430000120D48872A00120D48912A00120D48F0
:101C5300FE2A00120D48152B00120D48542B0012BA
:101C63000D48A12B00120D48D02B00120D48062C55
:101C730000120D48252C00120D48432C00120D486C
:101C8300842C00120D486E2D00120D48B42D001245
:101C93000D48DF2D00120D48412E00120D48742E01
:101CA30000120D48AD2E00120D48BB2E00120D4838
:101CB300132F00120D48522F00120D48922F0012BD
:101CC3000D48D62F00120D48F92F00120D4804308D
:101CD30000120D48223000120D48EB3000120D485F
:101CE300F53000120D48343100120D488F310012C7
:101CF3000D48A33100120D48B23200120D48C5320F
:101D030000120D48DC3200120D48F13200120D486A
:101D1300CD3300120D48D83300120D48FF340012A2
:101D23000D481B3500120D48743500120D48B235AD
:101D330000120D48CC3500120D48033600120D4831
:101D4300433800120D48B53800120D482A390012E5
:101D53000D487F3B00120D488F3B00120D48923B0C
:101D630000120D489E3B00120D48B23B00120D4875
:101D7300BA3B00120D48EF3B00120D48B33C001272
:101D83000D48243D00120D488A3D00120D48263EA1
:101D930000120D48BF3E00120D48DE3E00120D48F2
:101DA300813F00120D48B03F00120D48B33F0012AF
:101DB3000D48E23F00120D48F73F00120D48604006
:101DC30000120D48624100120D48424200120D48B4
:101DD300CD4200120D48EE4300120D48A5440012F7
:101DE3000D48DE4400120D480F4500120D484B45C7
:101DF30000120D48254600120D48D74600120D4823
:101E0300694700120D48264800120D48A5480012E4
:101E13000D48D74800120D48164900120D484C4989
:101E230000120D48BBA303120D48B4A403120D48BE
:101E33003DA103120D48A3A503120D4814A40312D8
:101E43000D48D2A503120D48FAA503120D4854A359
:101E530003120D48465700120D489C5600120D48B8
:101E6300C35500120D486B5500120D48075400125C
:101E73000D48545300120D48755200120D488251FB
:101E830000120D48DD5000120D48DF4F00120D48BF
:101E9300874E00120D48564D00120D480C4D00128E
:101EA3000D48AB4C00120D489B4C00120D48754C6D
:101EB30000120D48F24B00120D488D4B00120D48D5
:101EC300984A00120D48444A00120D48F94900127D
:101ED3000D48AE4900120D48F9CD02120D48A0CDB0
:101EE30002120D48DCCB02120D4866CA02120D48DD
:101EF300A2C602120D487FC602120D4858C602122E
:101F03000D4831C602120D48C35700120D486C9D8F
:101F130003120D4821C602120D481AC602120D48BB
:101F2300887900120D48557900120D482279001264
:101F33000D48197900120D480E7900120D480379E6
:101F430000120D48E97800120D486E7800120D4812
:101F53002F7800120D48087000120D4812740012F9
:101F63000D48F37000120D48977000120D48697008
:101F730000120D48ED9F0300000080FBE473000195
:101F830036360101000102010001030100010401D1
:101F9300060605020000070100340801000F0904CA
:101FA30001010D0100FF0E080000170200001901D6
:101FB30000FF1A0100011B0100FE1C0100081D02A5
:101FC30000001F0100012001000121020000230184
:101FD300000F240200002601000127010008280247
:101FE30000FF2A0100072B0102402C0100002D01F4
:101FF30000012E0100012F0100FF30010B1C3108ED
:1020030000003A0100083B01000F2F01000003020A
:102013007102300160021102700201020202020227
:102023008002100261023A004100630273027202ED
:10203300620243020002130238000002000204029B
:10204300120200020002000200020402040237002E
:1020530037003C024402000239000002000265021C
:10206300000235028102000205028202830200029D
:102073000300710030016000110070003102200381
:10208300500480001000610000001400630073001E
:10209300720062004300000013000600000000000D
:1020A300040012000000000000000000040004000F
:1020B300370037003C02440000000000000000002D
:1020C300650000003500810000000500000083006A
:1020D300000001017101010101011101010131013F
:1020E300010101018001100161013B001400630142
:1020F30073017201620143010001130106013D01F5
:102103003500040112010001000100010001040176
:102113000401330133013C01440132013600000163
:102123000001650100013500810100010501820103
:10213300830100010103710301030103010301038F
:10214300010322030203010310030003000300033E
:1021530000030003000300034203000324030603F8
:1021630000030003040312032503230325032303AE
:1021730004030403000300030003440300030003F8
:1021830023030003650321003503810300030503D3
:1021930000030003000336000100060000000F00E7
:1021A30000000000000000000000000003FFFF002B
:1021B300000403FFFF0000FFFF0FF4010005C40448
:1021C3000320000100130B000000000000000003C7
:1021D300010F801CB01C861C8C1CAA1C9E1C981C06
:1021E300B61CBC1CC21CCE1C921C7A1C741C001690
:1021F3000F160D0B150B021102220F320302581D8D
:102203006A1D701D4A1C761D441C501C140AE5D51A
:10221300C5B5A5A59585857565BE1DDC1DE21DC4E7
:102223001DD01DCA1D303016181920231A1C1E304C
:102233000C0E020B040B0A0708000F303017181995
:1022430021301B1D1F3000383C3E363B3B352B43B2
:102253002CA41CC81CD61DD41CDA1CA61D7C1D82F4
:102263001D8E1D881D0204020101010109020005E2
:10227300150D0910080400BE040A0F22FA06E0F542
:1022830008750900750A00750B00227409120D7890
:102293007F04020B8BEE2412FAEF3400FB121D3481
:1022A300E922120D787F03020B8BE0FAA3E0F9EA2F
:1022B30022E024F5C39412221222BF221219028AA9
:1022C3000C8B0D8C0E8D0F22121E189018C3123C0E
:1022D3009F7A147B0022F0A3E0F0022B0E79031AFD
:1022E3001AEFFB121D3A740222E024FFF8A3E03434
:1022F300FFF922122335A2E522122350120D787F13
:1023030008020B8B7F0A020B8B122D69E4F022A3C8
:10231300E08E828F8312231C22F0EE24FF1EEF3403
:10232300FFFF227F05020B8B12232F22EE2410F5D1
:1023330082EF3400F583E022E508123825E509121F
:102343002335227AF97B1812150C740222121E0C03
:10235300740422EE2423F582EF12233522EE240D9A
:10236300F582EF122335640122122371EE22E0FE7F
:10237300A3E0FF22FAEF3400FB79E11219F222F015
:10238300EEFAEFFB22EE240EF582EF122D6922E026
:10239300FCA3E0FD227401022C00C082C08374FE02
:1023A300120E0980077AF97B181223E39018F9E0DB
:1023B3007002A3E070EF9018FBE07002A3E06009E5
:1023C3007AFB7B181223E380ED9018F9E4F0A3F075
:1023D3009018FFF0901900F0901901F07402801E1C
:1023E300121506851882851983EAF0A3EB1223F7E9
:1023F300121D2222122686AA82AB83227411120D89
:1024030078022B0E74F4120A76E9FE2449F582E46D
:102413003422F583E493F508FA7B001214E8EA709A
:1024230001EB6008EA25081233B280287A027B00A8
:102433001214E8EA7001EB6017EE243EF582E434EF
:1024430022F583E4938A828B83F0741AA31227E420
:102453007A007B00022293E9FDEAFC74062DFAEC74
:10246300A2E0501EEA75F00A84ABF0EB6014740A24
:102473002AC39BFAEBC394054004740A2AFA740B2B
:102483002AFAEDC394134004781480027806E82AEC
:10249300F8740928F8E43400F97A0A7B001208A7D3
:1024A300E8F9020D45C082C08390191FE054026011
:1024B3000A121380E96004790180027900022B0E6D
:1024C300C082C08390191FE05402601D9018FFE082
:1024D3007013901902E07002A3E0600D901902E0FE
:1024E3001224F15004790180027900022B0E24108A
:1024F3001229FEA2E722C082C083901901E0C0E046
:1025030090D151E0FCD0E0C39C50051214E8800444
:102513007A007B00022B0EC082C083121D22790039
:10252300022B0EC082C08374FE120E0985188285A9
:10253300198312268E120C01000340264725A1257C
:102543004026C5259018A3E0640F6018121D04E906
:102553007012851882851983122E3B901BC612298F
:10256300F1121F7F9018CBE0C0E085188285198394
:102573001230B3D0E012267D1229F2741412267D94
:10258300FCA3E0FD7AFB7B18121500E5A8FAC2AFA5
:102593009019011226747920121CEC0223DF121CFD
:1025A300F8E985188285198360111229F1740D12D7
:1025B300267DFAA3E0FB12137A80E01229F1741549
:1025C30080BB122A04607685188285198312265FE0
:1025D300C0E085188285198312265AA3A3D0E0127E
:1025E300267D2402F81228C82401FAA3E03400FB54
:1025F3008882898312268E14C394095015122A04E3
:10260300FA1226502467F582E43422F583E4936AB0
:10261300600E12265064087024122A046408701D88
:10262300122A0414122692240AC0E08518828519FE
:10263300831229F3D0E012269204022580851882A2
:10264300851983AA82AB83121D2202259E851882D7
:1026530085198312269A221246BFA3221228D51265
:10266300266622A31228E9E022E5A8FAC2AF901950
:1026730000E004F0EAA2E792AF221226812212269A
:1026830086E022F085188285198322EAF0A3EB12F3
:102693002681F812269A221228EBA3A3A3A3A3E070
:1026A30022C082C083901904E07002A3E0600B9003
:1026B30019041229F1121F7F80027900022B0E7474
:1026C300F7120A76EAFEEBFFEE240D12238B740158
:1026D300F0EE242F122359C0E0122388D0E0F0EE4D
:1026E3002430122359C0E0EE241212238BD0E012BF
:1026F3003B6DC0E0EE241312238BD0E0F0EE242BCD
:1027030012238B120C67EE2422FCEF3400FDEE241F
:102713002D122359F91222E6120D78E97007EEFA09
:10272300EFFB121C3E022E6FC082C083121D04E910
:102733006004792080027901022B0EC082C083EAF3
:1027430012381CE0D2E00222DCC082C08312380FB0
:1027530012236670111227D8400C8A828B83A3E060
:10276300F9121CF2806CEA123817EB12235CA2E612
:1027730050128A828B83A3E0F9901BC81229F112AD
:102783001F7F804E12380F12236670091227D8500C
:1027930004743080368A828B83A3E0641B700474D4
:1027A3002280288A828B83A3E0700F12380F1223B2
:1027B3005C2428F582E43422800D12380F12235C46
:1027C300243EF582E43422F583E4938A828B8312D8
:1027D30027E4022B0EEA240FF582EB122335A2E342
:1027E30022F090191AE0F91214F42274F7120A76FF
:1027F300E9FE901902E07002A3E06041EE70061258
:1028030028CCE48014741B6E7036901902123B2F8F
:10281300E0640570EA1228CCEE1228F2FAA3E0FB7A
:10282300121C2C901902E0240E1224F35003123FC1
:1028330070901902E4F0A3F07910121CEC022E6FD1
:1028430074E96E705C901902E02411F81228C890A4
:1028530019026045E0240E1818181228C8A2E29045
:102863001902E0400C24111228C514F0121B4280F7
:10287300CC240F1228C7C2E71228F2240DF812281D
:10288300C86403700C901902E024101228C5D2E228
:10289300F01228DA121F7F808A1228CF74E90228E7
:1028A3001C741C6E6003022818901902122E3B90B0
:1028B3001BCE1229F1121F7F901902E4F0A3F0023C
:1028C30028400808081229FF229019021228D3224F
:1028D300E0F81228EBA322901902E0FAA3E0FB90A0
:1028E3001BC41228E922E0F8A3E0F583888222F0D2
:1028F300901902E02274F4120A76750A00750B002F
:10290300A2AFE492E0FEC2AF901902E07002A3E02E
:102913006008EEA2E092AF0229CD901BCC1229F100
:10292300121F7FE94410FA9018F9800985080A8577
:10293300090B1229D51229E27002E50960D412238A
:102943003B5A6A70E7780A120DE0AC08AD0912230E
:1029530046120D78901902E508F0A3E5091228F252
:102963001224F14068901900E014F0EEA2E092AF57
:10297300901902E0240E1818A3E03400F9E8FEE9E8
:10298300FF8E828F83E0FA901902E0F8122A0AF987
:10299300121BF0E99018FDF0A3E412382AE0A2E735
:1029A3005018901902E024121229EC121A2E9019D1
:1029B30002E024131229EC121A229019021229F7A9
:1029C300A2E1B3E492E0F9121B2A0222939018FFCA
:1029D3008096E50824FBF582E50934FFF58322E0C0
:1029E300F508A3E0F509E508221229FEF922E0F82B
:1029F3001228EB22E0240F1229FE22F8123B3BE0BF
:102A0300228518828519831228D5A3A3A3E02274F3
:102A1300F7120A76EAFEEBFF121D1C123816EF12AC
:102A230027DE400A122360700590D14F800390D1B6
:102A330050E0F9EEFCEFFD7AF97B18121512E9600C
:102A43002FEEFAEFFB901BCA1229F1121F7FEE241F
:102A53000EF582EF122AF8400812266C121C3880F9
:102A630014EEFAEFFB901BC21229F1121F7F8005AF
:102A730074F1122A7B022E6F8E828F83A31223821C
:102A8300121C2C22C082C083121C38022B0EC0825F
:102A9300C083790090191FE054027007122AF25084
:102AA3000279E890191FE05460700FEA242FF58231
:102AB300EB12235CA2E1500279E88A828B83A3A301
:102AC300A3A3E0C39467400279E8EA242DF582EBDF
:102AD30012235C7012EA242AF582EB12235C70073E
:102AE30079F5121CF28024E970F8121C1A80F6EAB8
:102AF300242FF582EB122335A2E222C082C0837415
:102B03000D8A828B83F012137A8000D083D08202E5
:102B13000D45C082C083E48A828B83F0A3F0122A1E
:102B2300F24018901900E0C0E090D14FE0FCD0E0F3
:102B3300C39C401879F1121CF280D09018FFE0C0BA
:102B4300E090D14FE0FCD0E0C39C50E81233A28068
:102B5300E874F3120A76890CEA2471F582E43422CC
:102B6300F583E493244AFE890A250AFAE43400FB38
:102B73001214E8EA7001EB601E8A828B83A3A3A37D
:102B8300A3E50CF08E08EA2508F8EB3400F98A82F5
:102B93008B83122D5680047A007B00022326C08289
:102BA300C083E4901918F0901919F090190C122BA6
:102BB300C8740290190EF0901915122BC874019065
:102BC30019170222DC74ECF0A3741CF02274F712C0
:102BD3000A7674F1120E097402851882851983F03E
:102BE3007401120FAAE9F060047AFF7BFF740212EA
:102BF3000FAAEAF0A3EB124508740F8000120D78B8
:102C0300022E6F74F7120A7674FE120E09740A8587
:102C13001882851983F07401120FAA1245077402F2
:102C230080DB74F0120A761242C1120F59780879C8
:102C33000C1209087808120DDC7A0F7B190222FCAA
:102C430074F4120A7674CE120E099018A3E0640F7E
:102C53006007742E1234F080237A067B191222CB7C
:102C63001208AF88088909750A00750B00780812E5
:102C73000DDC7A067B19122350120D78743202226E
:102C83009074F7120A76EAFEEBFF7A00122D466083
:102C930007E0640360027AE8EE241712238B122202
:102CA300B45022EA7021EE2417122377EE24221265
:102CB3002D31122D467026EE2419123C8D9018B238
:102CC300122D58802B7AE8EA8E828F83A3F0741733
:102CD3008E828F83F0EEFA121D0A022E6F9018B2C5
:102CE30074FEF0A374FFF0EE2419122D3C121BA204
:102CF300901918E04401C0E0122388D0E0122D5E41
:102D0300740212391424241238F6242212238B124B
:102D13000C67EE2419FCEF3400FD79831222E212D2
:102D23000D78E970B5EEFAEFFB121C3E80ACFAEFBA
:102D33003400FB79501219F222FCEF3400FD7AA91A
:102D43007B1822EE2421122332640222A3A3A3A31D
:102D5300A3A3A3A3A3E8F0A3E9F022F0EE240D12AA
:102D63002D6622F582EF3400F58322C082C083747E
:102D7300F7120E09901919E070327401F0F9121A62
:102D8300EE851882851983AA82AB83121D289018B9
:102D9300B8120C67901918E04401FB7402120FAAD1
:102DA300AC82AD837A0312423A120D78740902247D
:102DB3000174F7120A76122F76700474EBA3F09065
:102DC3001919E0A2E25003C2E2F0E0A2E1500512B9
:102DD3002F878005742A123D19022E6F74F7120A89
:102DE3007674FE120E09122E951230BF8518828555
:102DF30019831230E1E0F508701285188285198372
:102E0300AA82AB8379531219F2124468851882851A
:102E13001983122E3BA908121C68901919E0A2E12C
:102E2300500A8E828F83A3E0F9121C6EE490191866
:102E3300F0901919F0022C21E0FAA3E0FB2274F7B9
:102E4300120A76EAFEEBFF74EB8E828F83A3F09077
:102E53001919E0A2E1500579EB121C6EEEFAEFFBB3
:102E6300121C9E8007EEFAEFFB121D887F01020BF6
:102E73008B74F7120A76122E95E4901918F09019B4
:102E830019F07AFF7BFF8E828F83A3E0F9121C680F
:102E930080DAEAFEEBFF7901121AF47A067B191243
:102EA3001E187A0F7B19121E182274F7120A76EA7B
:102EB300FEEBFF121C9880AD74F7120A7674FF12B2
:102EC3000E09EAFEEBFF7901121AF48E828F83A3B7
:102ED300A3A3A3E06003E4800274EB851882851941
:102EE30083F0E0122FC95003C2E2F0E0A2E15005E3
:102EF300122F878011A2E0500D742A8E828F83F0E7
:102F030074EBA3123D1DEEFAEFFB121C5002239843
:102F130074F7120A76EAFEEBFF901919E0D2E1F09A
:102F23007901121AEEEE240B12238B120C67EE2496
:102F330002EF3400FF0E0E7401C0E0121D2EE9FAF9
:102F4300D0E0FBEEFCEFFD7905121D40022C21744D
:102F5300F7120A76122F76700474EBA3F090191906
:102F6300E0A2E25003C2E2F0E0A2E15003122F8795
:102F7300022E6FEAFEEBFF7901121AF48E828F8321
:102F8300E0642022C2E1123B58E0F9121C6E227465
:102F9300F7120A76EAFEEBFF7901121AF47A067B3E
:102FA300191246ACE06003E4800274EB122FC9509F
:102FB30003C2E2F0E0A2E15003122F87EEFAEFFB27
:102FC300121C50022E6F8E828F83A3F0901919E08A
:102FD300A2E22274F7120A76EAFEEBFF7901121AD3
:102FE300F474EB122FC95003C2E2F0E0A2E15003E4
:102FF300122F87022E6F74F7120A7612300F022EE9
:103003006874F7120A7612300F022E6FEAFEEBFF96
:103013007A067B19121E18EEFAEFFB121CC22274F9
:10302300F7120A7674EF120E09EAFEEBFFEE241292
:10303300122D3C121B90E9605D7409851882851975
:1030430083F07401120FAA74EFF01230BFF8740208
:10305300120FAAE81230E1A3A3E0C0E07404120F38
:10306300AAD0E012382AA3A3A3A3E0640870168EA3
:10307300828F83A3A31230B3A3E0C0E07405120FC1
:10308300AAD0E080067405120FAAE4123B757406F9
:10309300120FAA12309E7411022C00AA82AB831263
:1030A3001D52851882851983AA82AB8312137A2253
:1030B3001230B7221246C3A3A3A3A3221230D01205
:1030C3003C9F88828983E0FCA3E0F9EC22EE240292
:1030D300F8EF3400F9E8FAE9FB8A828B8322F0A344
:1030E300E91237F71246BF22C082C083121D940231
:1030F3002B0EC082C08390193674D5F0A37421F0CF
:103103009019387454F0A37422F0901BD274D5F044
:10311300A37420F0901BD47411F0A37420F09019C1
:10312300227462F0A3741CF090191FE04401022280
:10313300D974F6120A7674FE120E0990191BE07008
:1031430002A3E060077A1B7B19121D22E490192168
:10315300F09006FDE07002A3E0602E800D851882DA
:10316300851983AA82AB83121D2290191AE0F912E2
:1031730014FA8A088B09A808A90985188285198376
:10318300122D58E87001E970D4023E1C74F7120A3C
:1031930076E9FA7B0090191AE0F9121518022E6FDE
:1031A30074F4120A7674F0120E09E9FE8A828B8394
:1031B300E02433F582E43422F583E493C0E0740120
:1031C300120FAAD0E0F0640B700DEE8A828B83A3FA
:1031D300F0121D760232ADE070030232AD640C6072
:1031E3000302329A7404120FAA1234D7EA242EF57A
:1031F30082EB12235CC0E07403120FAAD0E0123BEF
:103203005FA3A3A3A37808120F597406120FAA7819
:1032130008120F688A828B83A3A3A3A3A3A3A3A3E8
:10322300A3123C93740A120FAA122D58EA240EF526
:1032330082EB12235CA2E45003E48010EA2411F52C
:1032430082EB12235CFC9018C5E0C39C8518828531
:103253001983F0E0C0E0740C120FAAD0E0F0EA2466
:1032630014F582EB12235CC0E0740D120FAAD0E0B8
:10327300F0EA2415F582EB12235CC0E0740E120F02
:10328300AAD0E0F0EA2416F582EB12235CC0E074C6
:103293000F120FAAD0E0F07402120FAAEEF074011D
:1032A300120FAAAA82AB8312137A7410022290C05F
:1032B30082C083901921E0700479018002790002B1
:1032C3002B0EC082C083901921E060046402700455
:1032D300790180027900022B0EC082C083901921EC
:1032E300E064037004790180027900022B0E74F606
:1032F300120A7690192112338824D0F582E9341BFF
:10330300F5831235AAE0C2E7F0C333FCE82CF5825B
:10331300E912238EA3E493FEC333FCE433FDEC24D0
:10332300D0F582ED341BF583E07002A3E06005EE77
:10333300901921F08A828B83E0C333FCE433FDE8E8
:103343002CF582E93DF583E493F508C4540FC333A8
:103353002430F582E43419F58312339D7001E9704A
:1033630005121D64801C740F5508C333FCE82CF54B
:1033730082E912339493C0E0740193F583D08212EF
:103383001F7F023E21E0C333F8E433F9E822F582DC
:10339300EB122D69E4228E828F83123C9FE82290E8
:1033A300191AE0F91214F422FB1214DC740222F845
:1033B300EB3400F98A828B83A3A3E8F0A3E9F0E45A
:1033C3008A828B83A3A3A3A3F022C082C083E99044
:1033D300191A0222DC74F6120A7674FE120E09EA36
:1033E300FEEBFFEE54207034803FE5A8FCC2AF90A3
:1033F3001901E014F0ECA2E792AF8A828B831234B6
:10340300C890191D1234D7121D0A85188285198395
:10341300E0641560077A1D7B19121D227AFB7B1865
:10342300121506EA7001EB70C174805FF9E4700154
:10343300E9700580111234DD90191AE0F91214FABB
:10344300EA7001EB70EFEE54106005742D1234F046
:10345300EEA2E0500574241234F0EE5402600574B9
:10346300251234F0EE5404600574261234F0EE5441
:1034730008600574281234F0EE5440600C74011295
:103483000FAAE4F0742C1234F0EE5480600C740133
:10349300120FAAE4F0742F1234F090191BE070029B
:1034A300A3E0601AE5A8FCC2AF90191B122E3B9053
:1034B300191BE4F0A3F0ECA2E792AF1234DD7A001B
:1034C3007B00023E1CE0851882851983F022A3A3AA
:1034D300A3A3A3A3EAF0A3EBF02290191DEAF0A3A0
:1034E300EBF0121D0A7A1D7B19121D222285188208
:1034F300851983F0AA82AB83121D0A22C082C0837E
:1035030090191D123C93EA687002EB6970079019D9
:103513001DE4F0A3F0022B0E74F7120A76EAFEEB19
:10352300FFEE7001EF7003121740A2AFE492E0F5D3
:1035330008C2AF8E828F83E07002A3E0602A123349
:103543009924FBFAE934FFFB90191D122392E86CCE
:103553007002E96D700790191DE4F0A3F08E828F5D
:1035630083E4F0A3F012154EE508A2E092AF022E19
:103573006FC082C0839018B2E064FE7004A3E0645D
:10358300FF70097CA97D18121B96801574028A822C
:103593008B83A3A3A3A3A3A3A3A3F01235A7122DE5
:1035A30058022B0E9018B2123C9F8A828B8322C042
:1035B30082C0839018BCC3E094FEA3E094FF400450
:1035C300790380027902022B0EC082C0838A828B28
:1035D30083A3A3A3A3A3A3A3A3E06402701412353C
:1035E300A7E0687003A3E06970047901800F790094
:1035F300800BEAFCEBFD7AA97B18121B90022B0EC1
:1036030074EA120A768A088B098C108D11741612CB
:103613000FAA1238AD750A008C828D83A3A3A3A3CE
:10362300A3A3A3A3E0F512E9A2E75008750CFF7565
:103633000DFF800A9018B8E0F50CA3E0F50DE9C280
:10364300E7F513EA240EF582EB1222F6EA500B1289
:103653003817EB12238E74088005240F123391124E
:103663003830A2E2EA500712381C74808005123801
:103673001C7410123830A2E45008EA24111233915A
:1036830080119018C5E0C0E0EA2411F582EB122303
:103693008ED0E0123830A2E05003750A20A2E35026
:1036A300067410450AF50A8A828B83A3A3E024FFDC
:1036B300FEA3E034FFFF12380F12235CC39402E031
:1036C3004006141223147403450AF50A851314756E
:1036D3001500740E7814120EAAE515F50B74026525
:1036E3001370149018BD1223139018BCE08E828FB0
:1036F30083F0123806801A7403651370101237FDB5
:103703007CCC7D18EEFAEFFB121BA280E5E513607B
:1037130026E5126014E50E650C7004E50F650D7067
:10372300087440450AF50A800E8E828F83E50D12D8
:10373300383BE50C12231885120C750D00740A78BA
:103743000C120EAAE50D450BF50B74026512701AE7
:10375300851082851183122312851082851183E0DF
:103763008E828F83F0123806801A740365127010EC
:103773001237FDAC10AD11EEFAEFFB121BA280E580
:10378300E512600E8E828F83E50F12383BE50E1231
:103793002318EEF8EFF9E824FF1EE934FFFFE508EC
:1037A300240DF582E50912235C70059018A88003A7
:1037B3009018B4E0FA04F0EA8882898312382AE583
:1037C3000B12383BE50AF0E5082404F8E509340058
:1037D300F9E5082402FAE5093400FBEEFC12390A84
:1037E300FDE02DC39C1237F7EEF0A3EFF079007FD5
:1037F3000E020B8BF08A828B8322EE24F9FEEF34C8
:10380300FFFF22EE24FF1EEF34FFFF22EA240DF513
:1038130082EB22EE240FF58222123825EB122D695A
:1038230022E82410F58222F08E828F8322F0EA248C
:103833000EF582EB1223352212231C8E828F8322F4
:1038430074EE120A76890A8A0C8C088D098B0B7424
:1038530012120FAA1238ADAA0B121BEA8A108B118F
:10386300A810A911E8FEE9FFE87001E96039122305
:1038730088E50B122D5EE50AF0780E120DE0AC0818
:10388300AD09A90C1222E6120D78E9701AE50A12A5
:103893000C010701A3389D389D3812232BD2E5F084
:1038A300EEFAEFFB121C3E022307E0F50EA3E0F550
:1038B3000F2274F7120A76EAFEEBFF7A01122356FF
:1038C30060027A05122388EA122D5E7404123914F9
:1038D30024221238F6242012238B120C67123CAADE
:1038E3001222E0120D78E97007EEFAEFFB121C3E8C
:1038F300022E6F122D6612390EF074018E828F83A1
:10390300A3A3A3A3F0EE228A828B83E08882898318
:1039130022F01230D012391EF0EE221222EC8A82EB
:103923008B83E8F0A3E92274EE120A768A088B09E6
:10393300ECFEEDFF74058A828B83123B6D8A828BCA
:1039430083A3A3F0EA2403123B10E0F510A3E0F5F0
:1039530011EE242412238B780C120F59E510241135
:10396300F582E51112238EE50CF0A3E50DF0A3E536
:103973000EF0A3E50F123B06AA10AB11121B96859E
:103983000A82850B83123EB5FAA3E0FB8882898302
:10399300A3A3A31234D1EE242E122359C0E012386C
:1039A30024E912238ED0E0123B492415123B2A123C
:1039B3003B49240E123B2A123B75850A82850B83F1
:1039C300E02416FAA3E03400FB121D528E828F838B
:1039D300A3A3A3A3A3A3E0C0E0850A82850B83125C
:1039E3003B2FD0E0123B52FAA3E0FB850A82850B02
:1039F3008312339D240BFCE93400FD8A828B83E020
:103A03008C828D83F0A3E4123B64E0F50B8C828DF2
:103A130083E0F0A3E0450B123B5FE0FCA30A0AAB93
:103A230083A2E7E492E0C0E0E8123817E912238E9C
:103A3300D0E0F074075C600478018002780075F0D0
:103A43000374075CA428F8EA28FAEB3400FBE508C2
:103A53002405F8E5093400F912390A123B64850894
:103A6300828509831234D188828983E0F50CF50AB3
:103A73007407550AC333FC7470550CC430E3024415
:103A8300F0F50A3395E0F50B7403780A120EAAE5F4
:103A93000A2CF8E50B3400F9EA28F8EB39F9850824
:103AA30082850983122D4F8E828F83123B1DE02A5C
:103AB300FAA3E03400FBC3EA98EB9940278E828F88
:103AC30083A3A3E0F8850882850983A3A3A3A3A303
:103AD300123B1DA3A3E0C39A28850882850983A30B
:103AE300A3A38016E4850882850983A3A3A3A3A3C4
:103AF300A3A3A3F0850882850983A3A3A3A3A3F0AB
:103B0300022307F0EE2412FCEF3400FD22F50AEB4A
:103B13003400F50B850A82F58322A3A3A3A3E0FA5D
:103B23008E828F83A3A322123B36E422E0240D125C
:103B33003B3622F8123B3B22A3E0123B41223400E6
:103B4300F98882898322F0850A82850B83E0221219
:103B53003B58A3E022F08E828F83A3221237F7A370
:103B6300221237F7A3AA82AB8322F0EE2431122369
:103B73003222F0EE2407FCEF3400FD22C082C08322
:103B83007C0B7D0079001214E2022B0E020D45C05E
:103B930082C0837918121CF2022B0EC082C0838A62
:103BA300828B83E0C3940B5003121D5E022B0EC065
:103BB30082C083791980DE74F7120A76EAFEEBFF7E
:103BC30090191BE07002A3E0601090191B122E3BAA
:103BD300121D6A7A1B7B19121D22EEFAEFFB121DCE
:103BE3001C90191BEEF0A3EFF0022E6F74F7120A6C
:103BF3007674DE120E09EAFEEBFF8E828F83E012EB
:103C03000C94011E1F563C0303163C05563C181624
:103C13003C5F3C7416120FAAE4123CA5740B120FFE
:103C2300AAAA82AB83121BA27413120FAA7403F005
:103C33009018BC123C937402120FAA122D58740AE6
:103C4300120FAA7402123C977414120FAAE8F0A37D
:103C5300E980107416120FAA740180BD7416120F36
:103C6300AA7402F0740B85188285198312382AA36B
:103C7300E0C0E07401120FAAD0E0123B7574171272
:103C83000FAA12309E7422022C00F582EF122D69C6
:103C9300123C9F22F09018B8123C9F22E0F8A3E058
:103CA300F922F0123CAA22EE2417FCEF3400FD2285
:103CB30074F7120A76EAFEEBFF750800EE24201271
:103CC3003D0B7003A3E06960037508E8EE24171247
:103CD300229B6016EE2423F582EF12230CE5087075
:103CE30017EEFAEFFB121D46801B12235660EE906F
:103CF3001942E070E87508E88E828F83A3E508F027
:103D03007419123D19022E6F122D66123C9F9018E2
:103D1300B8E0682274298E828F83122382121D0ACF
:103D230022C082C08374F1120E097402120FAA74A6
:103D330004123B5FE0C0E07403120FAAD0E0F0EA84
:103D43002420F582EB123C90740D120FAA122D5809
:103D5300EA2417FCEB3400FD7404120FAAAA82AB09
:103D630083121B967404120FAAAA82AB83121D340A
:103D7300E96003123E017402120FAAAA82AB8312F6
:103D8300137A740F02240174F6120A7674E8120E81
:103D9300098A088B097402120FAA7403F0EA241229
:103DA300FEEB3400FFEEFCEFFD7404120FAAAA82AF
:103DB300AB83121BA2850882850983A3A31229F171
:103DC300E0C0E0740C120FAAD0E0F0E5082407FC71
:103DD300E5093400FD740D120FAAAA82AB83121DEC
:103DE30052EEFAEFFB121D34E96003123E01740236
:103DF300120FAAAA82AB8312137A7418801D851836
:103E03008285198374FFF0A31223F779531219F2F1
:103E13009018B274FFF0A3F0227402120D787F029F
:103E2300020B8B74F7120A7674D4120E09EAFEEBB6
:103E3300FF8E828F83A3A31228CFE0A2E6501790B0
:103E430018B8123EB5687003A3E06970099019436E
:103E5300E0603C121D94740B120FAAA882A983740C
:103E630003120FAA1243D7742B1234F090189DE05B
:103E730060087408120FAAE0601074058518828523
:103E83001983F0AA82AB8312137A742C022C00904C
:103E930018C1E060C112229870BC9018B8120C6768
:103EA3007B017CA97D187A03790612423C120D78B6
:103EB30080D8123C9FEE242A12233222C082C08370
:103EC30074EF120E097409851882851983F0740141
:103ED300120FAA74EE1245080223FF74F7120A7632
:103EE300E9FFA2AFE492E0F508C2AFEF6003121955
:103EF300E6121980123F70901943E0F9121A0A90E2
:103F030018B8122E3B121A109018BC122E3B121A1C
:103F1300167ACC7B18121A1C7E00EEC333F8E433F6
:103F2300F9123F65E07002A3E06009123F651229B0
:103F3300F1121F7F0EEEC3940740DF121DE8121C1F
:103F4300E6E4901944F0121BE4E4901943F07ABBC1
:103F53007B1879521219F2E508A2E092AF790002B8
:103F63002E6FE82422F582E93419F583229018CBC9
:103F7300E0F9121A2E9018CAE0F9121A2222C0820E
:103F8300C0839019307401F0A37422F09019327435
:103F93005EF0A37422F0901934741CF0A37422F021
:103FA30090191FE4F0A3F012197A022B0E020D45AB
:103FB30074F7120A76E9FE901944E06E70047900F2
:103FC300801AE07015121CFEE9600FEEF9121B1E39
:103FD300E96007EE901944F080E479E2022E6FC0A5
:103FE30082C083901944E06008121B18E4901944BE
:103FF300F0022B0E74F4120A7674078A828B8312F2
:104003004050E08A828B83A3A3124050A3A3E08A8B
:10401300828B83A3A3A312405AA3A37808120F5938
:104023008A828B83A3A3A3A37808120F68E48A82EE
:104033008B83A3A3A3A3A3A3A3A3F0EC2415F582CB
:10404300ED12238E1235AA122D4F02229312405ADB
:10405300A3A3A3A3A3A322F08C828D832274F412BF
:104063000A76EAFEEBFFE490194612414DE0C39451
:1040730004400674E8901946F08E828F83A3A3A3AD
:10408300A3A3A3A3E0C3940F40158E828F83A3A39E
:10409300A3A3A3A3E06403601574E8901946F08E0C
:1040A300828F83A3A3A3A3A3A3E06403700E901939
:1040B3001FE0A2E0400674E8901946F0EEFCEFFD25
:1040C3007A457B19121DB88E828F83A3A3780812B9
:1040D3000F59740A7808120D929019597808120F23
:1040E300688E828F83A3A3A3A3A3A3A3E090195DE8
:1040F30012415A90195EF0740A90195FF09018CB30
:10410300E0901960F0901956122BC8740490195856
:10411300F0901946E07022901947E0600674EA9027
:104123001946F0901947E0F9121A3A74268E828FD5
:1041330083F07904121AE8800774298E828F83F042
:10414300EEFAEFFB121D0A02229312415122123B97
:1041530058A3A3A3A3A322124151A3A3A3E02274B0
:10416300F4120A7674F7120E09EAFEEBFF90194770
:10417300E0703190195FE0640A6029121A4CE9C0BB
:10418300E090195FE0F890194EE028F8A3E03400BE
:10419300F974F528F58274FF39F583D0E0F09019AE
:1041A3004DE004F09019597808120F5974017808FA
:1041B300120D929019597808120F6890195FE00454
:1041C300F0E508A2E04006E0C3941D40D7E0641D7B
:1041D30060557A5F7B1979E11219F2901947E06013
:1041E3000464027009EEFAEFFB121DCA803C7408E6
:1041F300120FAA124230F0901947E0640170067959
:10420300087A80800479077A837508FF7509FF7837
:1042130008120DE07B007402120FAAAC82AD831268
:10422300423C120D788003123D1702228E74021253
:10423300268674FFF0A3227905121D4074022274AE
:10424300F0120A76750801750900750A00750B00EE
:1042530090195FE07808120D207808120F19901951
:10426300497808120E84901947E06403700F1242D4
:10427300C1120F597808790C1209088035750801A5
:10428300750900750A00750B0090195DE078081236
:104293000D2090D1777808120EBD90D18F780C1233
:1042A3000F597808790C120908901947E070031226
:1042B3001A467808120DDC7A507B190222FC9018FA
:1042C300C612228190D18F780C2274F5120A76746B
:1042D300D4120E09EAFEEBFF901947E0640260086E
:1042E300E0640160030243D2E4901946F0740B12B8
:1042F3000FAAA882A9837403120FAA1243D7901995
:104303004DE0C0E090195EE0FAD0E0C39A400302AA
:10431300439C90194E12447690194DE0F50A804162
:10432300850882850983A3A3A3A3A3A3A3A3A3129D
:104333003C937414120FAAE0687003A3E06970132E
:10434300740B120FAAAC82AD83AA08AB09121B909F
:10435300E97046150AE5082421F508E5093400F556
:1043630009E50A70BB7508217509007808120DE08C
:10437300740D120FAAAC82AD8390194DE075F02134
:10438300A4F8A9F090194EE028FAA3E0391233AB50
:10439300120D7890194DE004F090189DE0600E74B2
:1043A30008120FAAE0700690195EE0700D8518825E
:1043B300851983AA82AB8312137A90195EE0600F8A
:1043C30090194DE0FA90195EE06A7003123D17747C
:1043D3002C0222A5E8F0A3E9F0EEFCEFFD8518829C
:1043E300851983AA82AB83121D4C2274F6120A76B6
:1043F30074FE120E09EAFEEBFFEE241A122359642F
:104403000370551223566403704E1244688E828FD4
:1044130083A3A3124476850882F58312447E7950E0
:1044230012445E12447E794B1219F2AA08AB097941
:10443300E112445EA31222AD851882851983122DE1
:1044430059851882851983AA82AB8379531219F28D
:10445300E4901946F0123D17023E1C1219F285082A
:104463008285098322EE2412FAEF3400FB794A1283
:1044730019F222E0F508A3E0F50922E0FAA3E0F936
:10448300EA851882851983F0A3E9F0E5082402F58B
:1044930008E5093400F509851882851983AA82ABDA
:1044A3008322C082C083901946E064E860267A5074
:1044B3007B19121E18121A407904121AF490194724
:1044C300E064037006901946E060097A607B19790D
:1044D300E11219F27A457B19022B09C082C0837459
:1044E300F5120E09EAFCEBFD851882851983AA8271
:1044F300AB83121DB87401120FAA74FC1245087421
:104503000B022401E91223F712137A2274F4120A1C
:1045130076901961E4F0A3F0901963F0A3F090D1C1
:10452300F77808120F59901BDA7808120F6890D1A8
:10453300F77808120F59901BDE7808120F6890194C
:1045430065E4F0A3F002229374F4120A76901965DD
:10455300E4F0A3F0901961E07002A3E0603D9019CC
:10456300611246BBC082C083901BDA7808120F59D0
:10457300D083D0827808120E1F5020124612901951
:10458300611246D1120E1F50099019611246D112C1
:104593000F6890196112461E122D58901963E0702E
:1045A30002A3E0901965602DE07002A3E0601B9008
:1045B30019631246BBC082C0831246CE120F59D074
:1045C30083D0827808120E1F501290196312461E70
:1045D300122D588007E07002A3E0602D1246B8C088
:1045E30082C083901BDA7808120F59D083D0827867
:1045F30008120E1F50131246CE120F59AA08AB0908
:10460300AC0AAD0B121914800312191A0222931269
:1046130019028A088B098C0A8D0B22123C9F901970
:10462300652274F0120A76901965E07002A3E060C7
:10463300751246CE120F5975831B7582DA780812EC
:104643000E1F500D121740901965E07002A3E06031
:10465300551246121246B8780C120F59780C790885
:10466300120F2940411246B8C082C08390D21378FA
:1046730008120F59D083D0827808120E1F500312EC
:10468300174090196512236CFAEFFB1246ACA3A3F3
:10469300A3A3E0F98E828F83A3A3A3A3A3A31229C9
:1046A300F1121F7F80A1022302121E188E828F83B4
:1046B300A3A3A3A3229019651246BF221246C322C5
:1046C300E0F8A3E0F5838882A3A32290196512463C
:1046D300BF78082274F0120A768A088B098C0A8D37
:1046E3000B7410120FAA80248E828F83A3A3C0821F
:1046F300C08390D213780C120F59D083D082780CD8
:10470300120E1F50031217408E828F8312236C7078
:1047130001EF60468E828F83A3A37808120ED01216
:1047230047607002EF6970C08E828F83A3A3C0823B
:10473300C08390D213780C120F59D083D082780C97
:10474300120E1F50A390D213780C120F598E828F22
:1047530083A3A3780C120F6880AE0223029019651D
:10476300123C9FEE682274F0120A76A2AFE492E044
:10477300F508C2AF901963122371901961120C6787
:10478300901BDA780C120F59780C120F08AA0CAB95
:104793000DAC0EAD0F121DFA7402120D7880368E19
:1047A300828F83A3A3C082C083901BDA780C120F7D
:1047B30059D083D082780C120E1F4013901BDA78E5
:1047C3000C120F598E828F83A3A3780C120E4912F9
:1047D3003399FEE9FFEE7001EF70C4901BDAC082DB
:1047E300901BDE780C120F5975831BD082780C1244
:1047F3000E346023901BDE780C120F59901BDA786D
:104803000C120F68901BDA780C120F59AA0CAB0D1F
:10481300AC0EAD0F1218FC121DEEE508A2E092AF2C
:1048230002230274F0120A76EAFEEBFFA2AFE492CF
:10483300E0F50CC2AFECFAEDFB8C828D838008AA05
:104843000EAB0F8A828B831238ADE50E7002E50F33
:1048530060228E828F83A3A3C082C083850E82854C
:104863000F83A3A37808120F59D083D0827808123C
:104873000E1F50CB8A828B83EEF0A3EF12382AE50A
:104883000EF0A3E50F12405A1247637002EF6970EE
:1048930003121DEEE50C8084EEFAEFFB121E0602F6
:1048A300230274F0120A76EAFEEBFF7410120FAAC9
:1048B3007808120F591248CF120EE38E828F83A30A
:1048C300A37808120F687C617D1980CC1222BF780F
:1048D30008790C2274F7120A76ECF8EDF98C828DC4
:1048E300838004A882A9831223928C828D83E5821C
:1048F3007002E5836018EA65827003EB658370E3F9
:10490300122E3B888289831234D779018002790081
:10491300022E6F74F7120A76EAFEEBFFA2AFE4925F
:10492300E0F508C2AF7C617D19121E12E9700B7CA1
:10493300637D19EEFAEFFB121E121247607002EF4D
:10494300697003121DEE02356B74F0120A7690192A
:1049530061E07002A3E0700A901963E07002A3E0C3
:10496300603EE5A8FEC2AF12190E8A088B098C0AB5
:104973008D0B1222BBEEA2E792AF90D177780C1287
:104983000EBD7808790C120F2950117808790C1292
:104993000E5DAA08AB09AC0AAD0B800C7A0180024C
:1049A3007A007B007C007D0002230274F6120A76F3
:1049B300ECFEEDFFEA7001EB601174CF2EF874FB8F
:1049C3003FF9C3E89464E994004004790280248A9F
:1049D300088B097808120DE0750816750900780828
:1049E300120DE07C007D00EEFAEFFB1215C6740495
:1049F300120D7802578574F6120A76ECFEEDFFEA83
:104A03007001EB601174CF2EF874FB3FF9C3E89487
:104A130064E994004004790280248A088B097808A9
:104A2300120DE07508167509007808120DE07C0078
:104A33007D00EEFAEFFB1215C07404120D780257D5
:104A43008574F7120A7674EA120E09EAFEEBFF7414
:104A5300CF2EF874FB3FF9C3E89464E99400400453
:104A63007902802EEEFCEFFD851882851983AA82D8
:104A7300AB83121ED2E9701A7412120FAAE4F0A3C8
:104A8300F0EEFCEFFD851882851983AA82AB8312B1
:104A93001ECC025F6274F6120A7674EA120E097E65
:104AA300007F00740F55C944A0F5C9740F55C9445C
:104AB30050F5C97508007509007808120DE07C16D9
:104AC3007D008F0874312508FA74043400FB121535
:104AD300BA7402120D78E9FA74096A6003024B7919
:104AE3007411120FAAE4F0EF70167414120FAAE4F3
:104AF300F0A3F07412120FAA7432F0A37404803A74
:104B030074312508F874043400F97414120FAAE8F8
:104B1300F0A3E9F074636F700A7412120FAAE4F041
:104B2300A380177414120FAAE02401F8A3E0340041
:104B3300F97412120FAAE8F0A3E9F0851882851917
:104B4300838582088583097808120DE07508167538
:104B530009007808120DE07C007D008F0874312570
:104B630008FA74043400FB1215C07404120D78E9BA
:104B730060097E0A8005740A6A60F70FEFC39464C4
:104B83005003024AA6EEF90259EC74F6120A76743F
:104B9300E7120E09E4851882851983F07401120F58
:104BA300AA7431F0A37404F0851882851983858271
:104BB300088583097808120DE07403120FAAAC82EA
:104BC300AD837405120FAAAA82AB83121E6C740202
:104BD300120D78E9600479018010851882851983A4
:104BE300E060F3C3946550EE790074190259EE74D2
:104BF300F5120A7674EA120E09EAFE7A0075823A11
:104C0300758304740F55C944A0F5C9740F55C9447D
:104C130050F5C9E070248A0AE50A602674FF250A64
:104C2300F9121EA8EAFCEBFD851882851983AA8276
:104C3300AB83121ED2E96013802A0AA3EAC39464E9
:104C430040C1EE90043AF079008019850A08E5081E
:104C5300243AF582E43404F583EEF0E50AC394655F
:104C630040E57901741680027465120D787F0302A2
:104C73000B8BC082C08375823A7583047A64740F88
:104C830055C944A0F5C9740F55C94450F5C9E4F09A
:104C9300A31AEA70E902634C74F6120A76E9243A1D
:104CA300F582E4340402577F74F4120A76EAFEEBC9
:104CB300FFE48E828F83F0F50880090508E508C3B9
:104CC30094645035740F55C944A0F5C9740F55C980
:104CD3004450F5C9A908121EA8C3EA9431EB940401
:104CE300400EA908121EA8C3EA9495EB940440CB86
:104CF300E5086010C39465500B8E828F83E508F03E
:104D0300790080027901026BD074F4120A76EAFE0C
:104D1300EBFF8908750901E9C394644004790280B3
:104D23002F121EA8C3EA9431EB94044021A9081260
:104D33001EA8C3EA9495EB94045013A908121EA865
:104D4300EAFCEBFDEEFAEFFB121ED2E9F509A90925
:104D5300026BD074F3120A76748A120E09EAFEEB20
:104D6300FF8C0A750801750904740F55C944A0F531
:104D7300C9740F55C94450F5C9AC08AD09851882EB
:104D8300851983AA82AB83121E54E9F50C6007A927
:104D93000C7476025ED37411120FAAE0603C74089F
:104DA300120FAAE07034EEFCEFFD8518828519839B
:104DB300AA82AB83121B7EE96401701E7408120F72
:104DC300AAE50AF0AC08AD09851882851983AA8281
:104DD300AB831216FEE9F50C70B5E5082401F5085E
:104DE300E5093400F509C3E508941FE50994045067
:104DF30003024D6C750898750904740F55C944A0D6
:104E0300F5C9740F55C94450F5C9AC08AD097416FA
:104E1300120FAAAA82AB83120FE4E9F50C60030216
:104E23004D927423120FAAE0603D7419120FAAE089
:104E33007035EEFCEFFD741B120FAAAA82AB83122E
:104E43001B7EE9640170207419120FAAE50AF0AC05
:104E530008AD097416120FAAAA82AB83120FEAE9EE
:104E6300F50C6003024D92E5082401F508E50934C9
:104E730000F509C3E50894C5E50994044003024D10
:104E830092024DFD74F2120A7674E8120E09EAFEDC
:104E9300EBFF750831750904EE7001EF70077902B5
:104EA3007418025820851882851983AA82AB83124D
:104EB3001E78E96004791180E7750A008019E50A14
:104EC30070097900121EA88A088B09050AE50AC32E
:104ED30094644003024F85740F55C944A0F5C97407
:104EE3000F55C94450F5C9A90A121EA8C3EA943143
:104EF300EB9404400EA90A121EA8C3EA9495EB94FE
:104F03000440BBE50A601B74FF250AF9121EA8EAD8
:104F1300FCEBFD7402120FAAAA82AB83121ED2E924
:104F23006060EE2414F582EF3400F583E4F0A3F01F
:104F3300851882851983E0FCA3E0FDEEFAEFFB12EE
:104F43001E96EE2411F582EF3400F5837401F0EE22
:104F53002412F582EF3400F583E4F0A3F085188280
:104F6300851983E0FCA3E0FDEEFAEFFB121ECCE90A
:104F73007067851882851983E0FAA3E0FB121EB4DB
:104F83008057851882851983E0F8A3E0F9EE24148D
:104F9300F582EF3400F583E8F0A3E9F08518828504
:104FA3001983E0F8A3E0F97414120FAAE8F0A3E957
:104FB300F07401650A7006AC08AD09800A74161214
:104FC3000FAAE0FCA3E0FD7402120FAAAA82AB832E
:104FD300121ECCE97003024F33024EA374F5120A7A
:104FE3007674E8120E09890A851882851983AC82C2
:104FF300AD837402120FAAAA82AB83121E7EE960EC
:10500300030250D87414120FAAE0FEA3E0FF741336
:10501300120FAAE4F0E50A7044851882851983E02B
:10502300FCA3E0FD7402120FAAAA82AB83121ECC6A
:10503300E970CEEE7001EF70030250D5EEFCEFFD88
:105043007402120FAAAA82AB83121ED2E970B27441
:1050530016120FAAE4F0A3F0EEFCEF8065741612AB
:105063000FAAE0FCA3E0FD7402120FAAAA82AB838D
:10507300121ECCE9705F74FF250AF9851882851921
:1050830083AC82AD837402120FAAAA82AB83121E71
:105093007EE970417414120FAAEEF0A3EFF0850AB3
:1050A3000874FF2508F874FF3400F9E87001E9700B
:1050B3000885188285198380057416120FAAE0FCEF
:1050C300A3E0FD7402120FAAAA82AB83121ECCE9DD
:1050D3007003121EBA7418024C6D74F3120A7674BC
:1050E300EA120E09EAFEEBFF8C088D097423120FF6
:1050F300AAE0F50AA3E0F50BE50A7002E50B7004DC
:1051030079018076750C008009050CE50CC3946465
:1051130050EE740F55C944A0F5C9740F55C94450D6
:10512300F5C9A90C851882851983AA82AB83121E3F
:105133009CE970CC7411120FAAE060CDAC0AAD0BE0
:10514300851882851983AA82AB83121B7EE96401C9
:1051530070B7EE7001EF600F851882851983EEFC3E
:10516300EFFD7416120CE0E5087002E5096009858D
:105173000882850983E50CF079007416025ED37406
:10518300F2120A7674EA120E09EAFEEBFF8C088D1E
:1051930009890D750C00890A7401250AF8E43400A5
:1051A300F9E89465E99400C365D0334005790202B8
:1051B3005272851882851983AA82AB83121E72E903
:1051C3006003025272E50D7013851882851983EE10
:1051D300FCEFFD7416120CE0F90252728508828509
:1051E3000983E0F50AA3E0F50B7412120FAAE0F5A8
:1051F30008A3E0F509C3E5089495E5099404506410
:10520300740F55C944A0F5C9740F55C94450F5C965
:10521300AC08AD09851882851983AA82AB83121E57
:10522300D2E9704B7411120FAAE0603C7414120F90
:10523300AAE065087004A3E06509702C85080A8557
:10524300090B050CE50D650C70030251CC741212A9
:105253000FAAE024CFF8A3E034FBF9C3E89464E990
:105263009400408579018007AA0AAB0B121EC6027F
:10527300581E74F4120A7674EA120E098A088B090E
:105283007E317F04806D7414120FAAE06E7003A345
:10529300E06F604E7414120FAAE07002A3E0604244
:1052A300850882850983EEF0A3EFF0EEFCEFFD8520
:1052B3001882851983AA82AB83121ED2E970737494
:1052C30011120FAAE4F0EEFCEFFD85188285198315
:1052D300AA82AB83121ECC850882850983E0FEA3D4
:1052E300E0FFEE24010EEF3400FFC3EE9495EF943C
:1052F300045059740F55C944A0F5C9740F55C944D6
:1053030050F5C985188285198385820A85830B78B0
:105313000A120DE0750A16750B00780A120DE07C6F
:10532300007D00EEFAEFFB1215C67404120D78E946
:10533300600280187411120FAAE06003025289857B
:105343000882850983EEF0A3EFF079007416026BEF
:10535300CD74F2120A7674EA120E09EAFEEBFF8CA0
:105363000A8D0B8C828D837431F0A37404F075085D
:1053730031F509740F55C944A0F5C9740F55C944D3
:1053830050F5C985188285198385820C85830D782C
:105393000C120DE0750C16750D00780C120DE07CE7
:1053A300007D00AA08AB091215C67404120D78E932
:1053B300704F7411120FAAE0602B7414120FAAE03D
:1053C3007002A3E0701F850A82850B83E508F0A3B2
:1053D300E509F0851882851983EEFCEFFD7416123A
:1053E3000CE0F9801CE5082401F508E5093400F513
:1053F30009C3E5089495E5099404500302537679AB
:105403000102581E74EE120A7674EA120E098A100B
:105413008B11ECFEEDFF7428120FAAE0F50AA3E04E
:10542300F50B750E00E4850A82850B83F0121EAE20
:10543300EEFCEFFD851882851983AA82AB83121EC9
:1054430072E960030255617401850A82850B83F05A
:105453008E828F83E090043AF0851882851983AC9D
:1054630010AD117416120CE08E828F83E0FEA3E060
:10547300FF7412120FAAE07002A3E0700579000214
:1054830055617412120FAAE0F50CA3E0F50D75082F
:105493003B7509048017120FAAE0F50CA3E0F50D84
:1054A300850882850983A3858208858309C3E50C62
:1054B3009495E50D9404400302555F740F55C94458
:1054C300A0F5C9740F55C94450F5C9AC0CAD0D8591
:1054D3001882851983AA82AB83121ED2E96009EE72
:1054E300FAEFFB121EC680767411120FAAE060EF6A
:1054F3007414120FAAE0650C7004A3E0650D70DF4D
:10550300AE0CAF0D050E850882850983EEF074128B
:10551300120FAAE024CFF8A3E034FBF9C3E89464A4
:10552300E9940074125003025499120FAAE0700216
:10553300A3E0701C851882851983AC10AD11741615
:10554300120CE0850A82850B83E0250EF00254805D
:10555300850A82850B83E0250EF08083790174161A
:10556300120D787F0A020B8B74F7120A76E9120C7C
:10557300010002BF557E559955AC558A828B8374C1
:1055830001F0A37404F08C828D83740AF0A3740475
:10559300F07900025F678A828B83740BF0A3740433
:1055A300F08C828D83741480E38A828B837415F06C
:1055B300A37404F08C828D83741E80D0790180D310
:1055C30074F2120A7674EA120E09EAFEEBFF8C08F3
:1055D3008D097424120FAAE0F50CA3E0F50D8C0AD3
:1055E3008D0B80677414120FAAE0650A7004A3E0A0
:1055F300650B604B7414120FAAE07002A3E0603FC6
:105603008E828F83E50AF0A3E50BF0AC0AFD8518C3
:1056130082851983AA82AB83121E54E970787411B0
:10562300120FAAE4F0AC0AAD0B851882851983AA80
:1056330082AB831216FEE9705D85080A85090BE5C6
:105643000A2401F50AE50B3400F50BC3E50C950AB2
:10565300E50D950B403E740F55C944A0F5C9740F71
:1056630055C94450F5C9AC0AAD0B85188285198319
:10567300AA82AB83121E54E9701C7411120FAAE0A4
:1056830060030255E78E828F83E50AF0A3E50BF0F2
:1056930079008002790102581E74F2120A7674EAC4
:1056A300120E09EAFEEBFF8C088D097424120FAA6F
:1056B300E0F8A3E0F97426120FAAE0F50AA3E0F5D7
:1056C3000B880C890DC3E50A950CE50B950D406E0F
:1056D300740F55C944A0F5C9740F55C94450F5C991
:1056E300AC0CAD0D851882851983AA82AB83121E7B
:1056F30054E9704C7411120FAAE0602B7414120F4A
:10570300AAE07002A3E0701F850882850983E50C77
:10571300F0A3E50DF0851882851983EEFCEFFD7487
:1057230016120CE0F98019E50C2401F50CE50D3493
:1057330000F50DC3E50A950CE50B950D5092790123
:1057430002581E74F6120A76ECFEEDFFEA7001EBC6
:105753007004790280248A088B097808120DE07599
:1057630008167509007808120DE07C007D00EEFA3A
:10577300EFFB1215C67404120D788006F583E0FA68
:105783007B047F02020B8B74F6120A76ECFEEDFFAC
:10579300EA7001EB7004790280248A088B09780887
:1057A300120DE07508167509007808120DE07C00EB
:1057B3007D00EEFAEFFB1215C07404120D7880C25F
:1057C30074F7120A7674EA120E09EAFEEBFF741FED
:1057D300120FAAE0F8A3E0F9C3EC9EED9F4007C3C4
:1057E300EE98EF9950047902802EEEFCEFFD8518B8
:1057F30082851983AA82AB83121E54E9701A74122C
:10580300120FAAE4F0A3F0EEFCEFFD8518828519D0
:1058130083AA82AB831216FE025F627416120D789E
:105823007F06020B8B74F0120A7674E6120E098A55
:105833000E8B0F8C0A8D0B742A120FAAE0FEA3E0C5
:10584300FF7508007402120FAAE4F0A3F085188212
:10585300851983F0A3F0851882851983AC82AD8303
:105863007402120FAAAA82AB83121E66E9600302B6
:1058730059B1E48E828F83F0851882851983120CC7
:10588300677404120FAA120C67AC0AAD0B740812EA
:105893000FAAAA82AB83121E5A7404120D78E97000
:1058A300CE74018E828F83F07404120FAAAC0EADF6
:1058B3000F7416120CE0850A82850B83E0F50AA3A8
:1058C300E0F50B7416120FAAE07002A3E0700579DD
:1058D300000259B17416120FAAE0F50CA3E0F50DFE
:1058E300C3E50C9495E50D940440030259AF740F7E
:1058F30055C944A0F5C9740F55C94450F5C9AC0C3A
:10590300AD0D7404120FAAAA82AB83121E54E96070
:1059130021851882851983120C677404120FAAE07B
:10592300FCA3E0FDAA0AAB0B121F087402120D7848
:10593300807C7415120FAAE060D7850C0A850D0BC5
:1059430005087416120FAAC082C0837402120FAA2C
:10595300E0F8A3E0F9D083D082C3E098A3E09940B4
:1059630023851882851983C082C0837416120FAAF7
:10597300E0F8A3E0F9D083D082C3E098A3E0994094
:10598300030258D77416120FAAE07002A3E0600353
:105993000258F17404120FAAAC0EAD0F7416120C58
:1059A300E08E828F83E02508F00258D27901741AC1
:1059B300120D787F08020B8B74F6120A7674E812C4
:1059C3000E098A088B097808120DE07402120FAAD7
:1059D300AC82AD837404120FAAAA82AB83120FB4F4
:1059E3007402120D78741880027416120D7802571F
:1059F3008574F5120A7674E6120E097E0085188204
:105A0300851983E4F0A3F07402120FAAE4F0A3F063
:105A13007402120FAAAC82AD83851882851983AAFA
:105A230082AB83121E66E96003025B618E0A740F08
:105A330055C944A0F5C9740F55C94450F5C9750833
:105A4300007509007808120DE07C607D0074021275
:105A53000FAA850A08E02508FAA3E03400FB121513
:105A6300BA7402120D787409696003025B4C7415F1
:105A7300120FAAE4F0740C120FAAE4F0E50A7011F5
:105A83007418120FAAE4F0A3F08518828519838095
:105A93002E851882851983E02508F8A3E03400F9E0
:105AA3007418120FAAE8F0A3E9F07409650A700AE2
:105AB3007416120FAAE4F0A380177418120FAAE049
:105AC3002401F8A3E03400F97416120FAAE8F0A336
:105AD300E9F07404120FAA858208858309780812F5
:105AE3000DE07508167509007808120DE07C007D3D
:105AF300007404120FAA850A08E02508FAA3E0340B
:105B030000FB1215C07404120D78E960027E0A745A
:105B130004120FAA8582088583097808120DE0759F
