:020000040000FA
:030000000200D229
:03002B000210D9E7
:03004B000214524A
:030053000214791B
:03005B000214612B
:0300630002146D17
:03007B00020F80F1
:100083000214B2C4F5F0E5C75430C4C0E0E5C75468
:10009300CF45F0F5C7E47385C7F053F0CFD0E0C484
:1000A30045F0F5C722D083D082E5C7C45403C0E02E
:1000B300E493C0E0740193C0E0740293C45430F538
:1000C300F0E5C754CF45F0F5C72200000080FB756B
:1000D300D00075814075107F7511E2000200E212B5
:1000E3000184B9000302016EE479137805B80002B4
:1000F3008004F709D8FCE490E27F789979168002AE
:10010300F0A3D8FCD9FA7812902A767A01BA0002C1
:100113008007E493A3F608DAF990F817AA82AB8371
:10012300902A7778FC79068015E493A3AC82AD839B
:100133008A828B83F0A3AA82AB838C828D83D8E9D6
:10014300D9E790E27FAA82AB83902A77780179017D
:100153008015E493A3AC82AD838A828B83F0A3AA38
:1001630082AB838C828D83D8E9D9E77582F075835E
:100173001074001200867582CD758300740012001E
:1001830086790122E066701008A3E066700A08A36E
:10019300E066700408A3E06622C3E09608A3E09635
:1001A30008A3E09608A3E096A2D265D03322C3E762
:1001B300960809E7960809E7960809E79622C3E037
:1001C3009608A3E09608A3E09608A3E09622BB0155
:1001D30002E722C082C08389828A83BB0003E08056
:1001E30002E493D083D08222080808EAC0E0EBC07F
:1001F300E086F0E7A4FA180986F0E7A42AFA1809BA
:1002030086F0E7A42AFA180986F0E7A42AFA1986E1
:10021300F0E7A4FBE5F02AFA190886F0E7A42BFB24
:10022300E5F03AFA190886F0E7A42BFBE5F03AFA71
:1002330018180986F0E7A4C5F02BFBE43AFA19086D
:10024300E7C5F0C6A426F6E5F03BFBE43AFA1886C8
:10025300F0E7A4F6E5F00826F6E43B08F6E43A08EE
:10026300F6D0E0FBD0E0FA22E4CFC0E0E4CEC0E079
:10027300E4CDC0E0E4CCC0E075F020C3E633F6087B
:10028300E633F608E633F608E633F6181818EC33C7
:10029300FCED33FDEE33FEEF33FFC3EC9709ED972F
:1002A30009EE9709EF97191919400FFFEC97FC090D
:1002B300ED97FD09EE97FE191906D5F0BEECF70987
:1002C300EDF709EEF709EFF7191919D0E0FCD0E0C3
:1002D300FDD0E0FED0E0FF22E4C396F608E496F6F4
:1002E30008E496F608E496F622C6F4C608C6F4C6F1
:1002F30008C6F4C608C6F4C6226016080808C6C3B2
:1003030013C618C613C618C613C618C613C6D5E037
:10031300EA227009080808226016181818C6C333A1
:10032300C608C633C608C633C608C633C6D5E0EA10
:1003330022E627F60809E637F60809E637F608093C
:10034300E637F622E026F608A3E036F608A3E03601
:10035300F608A3E036F622E026F008A3E036F0081C
:10036300A3E036F008A3E036F022C3E0C696F60811
:10037300A3E0C696F608A3E0C696F608A3E0C696E1
:10038300F622C3E096F008A3E096F008A3E096F007
:1003930008A3E096F022E056F608A3E056F608A379
:1003A300E056F608A3E056F622E056F008A3E0561E
:1003B300F008A3E056F008A3E056F022E7F6080998
:1003C300E7F60809E7F60809E7F622E0F608A3E0EE
:1003D300F608A3E0F608A3E0F622E6F008A3E6F0A9
:1003E30008A3E6F008A3E6F022CAC0E0E6F0A308FB
:1003F300DAFAD0E0FA22CAC0E0E0A3C582CCC58213
:10040300C583CDC583F0A3C582CCC582C583CDC5C5
:1004130083DAE6D0E0CA22CAC0E0E493A3C582CC63
:10042300C582C583CDC583F0A3C582CCC582C583F0
:10043300CDC583DAE5D0E0CA22C3E498F8E499F99C
:1004430012047D8026C3E49AFAE49BFBE920E7E9E2
:1004530012047DE498F8E499F922C3E498F8E49946
:10046300F912047DE498F8E499F9C3E49AFAE49B59
:10047300FB22EB20E7CFE920E7E0B90010BB00083F
:10048300E88AF084F8AAF022E4FBC8FA22EB70228F
:100493007B10C833C8C933C9335007C39AC3DBF2CF
:1004A30080069A50012ADBEAC833F4C8C933F4C979
:1004B300FA2275F008E4C833C8C933C933C99AC9E5
:1004C3009B5004C92AC93BD5F0ECFBC833F4C8E4FC
:1004D300C9FA22600D08C6A2E713C618C613C6D50B
:1004E300E0F322600C08C6C313C618C613C6D5E0D2
:1004F300F422700422600D18C6C333C608C633C67F
:10050300D5E0F418222510C0A8C2AF40021511F59A
:1005130010D0A822C0D02510C0A8C2AF5002051128
:10052300F510D0A8D0D0222510F582C0A8C2AF40C4
:10053300021511F510D0A8851183222510F582E448
:100543003511F58322E473C0E0E8C0E0E58124FCC3
:10055300F8E6A2E7D0E0F8D0E0222510C582C0E09B
:10056300E51134FFC583C0E0E510C3958224F8C0CC
:10057300A8C2AF858311858210D0A8CEF0A3E52051
:10058300F0A37808E608F0A3DEFAEFF0A3E58124F0
:10059300FAF8E608F0A3E608F0A3E608F0A30808D3
:1005A300E608F0A3E608F0A315811581D0E0FED09C
:1005B300E0F8158115811581E8C0E0EEC0E0222541
:1005C30010C582C0E0E51134FFC583C0E0E510C368
:1005D300958224F9C0A8C2AF858311858210D0A863
:1005E300CEF0A3E520F0A37808E608F0A3DEFAEF47
:1005F300F0A3E58124FBF8E608F0A3E608F0A308DE
:1006030008E608F0A3E608F0A315811581D0E0FE03
:10061300D0E0F815811581E8C0E0EEC0E022851135
:1006230083851082E0A3FEE0A3F5207808E0A3F61B
:1006330008DFFAE0A3FFE0A3C0E0E0A3C0E0E0A38B
:10064300C0E0E0A3C0E0E0A3C0E085A8F0C2AF85AE
:10065300821085831185F0A8D083D08202009A8509
:100663001183851082E0A3FEE0A3F5207808E0A3C0
:10067300F608DFFAE0A3FFE0A3C0E0E0A3C0E0E0F8
:10068300A3C0E0E0A3C0E085A8F0C2AF85821085D7
:10069300831185F0A8D083D08222C0D02510C582D3
:1006A300C0E0E51134FFC583C0E0E510C3958224A3
:1006B300F3C0A8C2AF858311858210D0A8C8F0A368
:1006C300E9F0A3EAF0A3EBF0A37908E709F0A3D8D4
:1006D300FAECF0A3EDF0A3EEF0A3EFF0A3D0E0F07B
:1006E300A3D0E0F0A3D0E0F0A3E520F0A3E5F0F081
:1006F300A322851183851082E0C0E0A3E0F9A3E083
:10070300FAA3E0FBA37808E0F608A3DFFAE0FCA372
:10071300E0FDA3E0FEA3E0FFA3E0C0E0A3E0C0E0B0
:10072300A3E0F5D0A3E0F520A3E0A3F5F0E5A8C28C
:10073300AF858210858311F5A8D082D083D0E0F8ED
:10074300D0E0327404800A74038006740280027459
:1007530001C0E0F40412052AD0E01203EC22740471
:1007630080087403800474028000CCC0E0EDC0E014
:10077300E510C39CCCAD1150011DC0A8C2AF8C10B5
:100783008D11D0A81203F9D0E0FDD0E0FC22D08374
:10079300D082C5F0E493A3C5F0C395F0F5F0E493DC
:1007A300A3C395F04005E5F0048001E475F002A4CD
:1007B3002582F582E5F03583F583E493A3C0E0E475
:1007C30093C0E022D083D082E9C0E0E493A3C38640
:1007D300F0C5F095F0F908E493A386F0C5F095F021
:1007E300700BE493A3C3994005E9048002A3E47565
:1007F300F002A42582F582E5F03583F583D0E0F994
:10080300E493A3C0E0E493C0E022D083D082CCC0C1
:10081300E0E493A360061208371470FAE493A3602C
:10082300061208561470FAD0E0FCE493A3C0E0E487
:1008330093C0E022C0E0E493A3D39C5010E493A3BD
:10084300C39C400AD0E0D0E0D0E002082AA3A3A3CF
:10085300D0E022C0E0E493A36C7009D0E0D0E0D0F4
:10086300E002082AA3A3D0E022EC23F5F0EB5480A6
:100873002345F0C4F5F064207004EB4480FBE5C726
:10088300FC54CF45F0F5C7E48B838A8293F98CC778
:10089300227800800A78018006780480027808C0F4
:1008A30083C082C085C084C09F759F03C3E9943011
:1008B30075F008A444804BF5858A84E8701385108D
:1008C30082851183E0700104F8A3E0700104F980CC
:1008D3000279018C828D8310AF11759201E493A389
:1008E300759200F0A3D8F3D9F18013C2AF759201CA
:1008F300E493A3759200D2AFF0A3D8EFD9EDD09FC4
:10090300D084D085D082D08322C083C082C085C0EA
:1009130084C0C77583F5758257C083C08275850906
:1009230075847575F016780110AF02780075920121
:10093300E0A3759200F0A3D5F0F3E86002D2AFD044
:1009430082D0838B858A84780110AF0278008DADC5
:100953008CAC75C751120973759200E5AE20E7FBA5
:10096300E86002D2AFD0C7D084D085D082D08322B2
:10097300E47375920175AE027A04E0F5AFA3DAFA77
:10098300E5AE20E6FBD9F12274F11205C2EAFEEBD3
:10099300FFEC7001ED60208E828F83A3A3A3A3A33A
:1009A300A3A3A3C082C0838E828F83120F43D083FD
:1009B300D082120F2F40047901807AEE2402F50CC5
:1009C300EF3400F50D120ED18C088D09750A0078ED
:1009D3000812074A850E82850F83E0FCA3E0FD859C
:1009E3000C82850D83120E04120517850E82850F66
:1009F30083120F478E828F83A3A3A3A3A3A3A3A3CF
:100A0300E028F0A3E039F0850C82850D83E028FA15
:100A1300A3E039FBEAF8EBF9850C82850D83E8F056
:100A2300A3E9120F38120EE74009850C82850D8366
:100A3300120DF1790080031205177F080206627414
:100A4300F11205C274FC120508851082851183EA30
:100A5300F0A3EBF0740212053EECF0A3EDF0741377
:100A630012053EE0FEA3E0FF740212053EE07002B1
:100A7300A3E0602FC3EE9401EF120DCA4025EEF8F8
:100A8300EFF9120E09120475EA7001EB7015120BDF
:100A9300D0120E1F120BC4C3EA98EB99A2D265D0F1
:100AA3003340057901020B9E120BA3A2D265D0330A
:100AB3005007E8C39AFEE99BFF120BAFA3A3A3A3BE
:100AC300A3A3A3A3E028F8A3E039F9851082851135
:100AD30083120E30120BCA740212053E120EDC1280
:100AE3000BA34021780812074AEEFCEF120DD21235
:100AF3000517851082851183120DD9A3A3E02EF863
:100B0300A3E03F8058E8C39AF50CE99BF50DEEC3CB
:100B1300950CF50EEF950DF50F780812074AAC0CFE
:100B2300AD0D120DD3120517740212053EE0250C0C
:100B3300F508A3E0350DF509780812074AAC0EADA8
:100B43000F740312053E120BEFFAA3E0FB120DD351
:100B5300120517120BE9250EF8A3E0350FF9120B56
:100B6300E2120BD0A3A3A3A3E02EF0A3E03FF01265
:100B73000BE9F8A3E0F9120BAFC082C083F5838AB7
:100B830082120BC8E82AFAE93BFBD083D082C3E088
:100B93009AA3E09B4003120BE279007404020A3A21
:100BA300EA2EFCEB3FFDC3E89CE99D22120BB32226
:100BB300851082851183E0FAA3E0F5838A82A3A3DB
:100BC30022A3A3A3A3A3A3A3A3120DFE2285108292
:100BD300851183120BDA22120DE1A3A3A3A3221220
:100BE3000BB3120DF122851082851183120BDAA348
:100BF300A3A3A3A3A3E02274F11205C274F6120502
:100C030008851082851183EAF0A3EBF074021205C4
:100C13003EECF0A3EDF0741912053EE0F50EA3E0EF
:100C2300F50F740212053EE07002A3E06049C3E5CC
:100C33000E9401E50F120DCA403D85108285118384
:100C4300E02408F8A3E03400F9740612053E120DFF
:100C5300F1740612053E120E1AFCA3E0FDC3EC94D8
:100C630001ED120DCA4010A80EA90F120E091204AD
:100C730075EA7001EB60057904020DC5C3EC950EAE
:100C8300ED950FA2D265D03350048C0E8D0F120E4A
:100C930014F8A3E0F988088909750A00851082858C
:100CA3001183E0240AFAA3E03400FB740412053E26
:100CB300EAF0A3EBF0740412053E120E2EE0FCA33F
:100CC300E0FD851082851183E02404FAA3E034005B
:100CD300FB740812053EEAF0A3EBF0740812053E1C
:100CE300120DF7EC2AFEED3BFFE8250EFAE9350F6E
:100CF300FBC3EE9AEF9B4020780812074AAC0EAD77
:100D03000F740512053E120E04120517120E142558
:100D13000EF8A3E0350F8066EC250EFAED350FFBD8
:100D2300EAC398FEEB99FFE50EC39EF50CE50F9F12
:100D3300F50D780812074AEEFCEFFD740512053E27
:100D4300120E04120517740412053E120E1AF5084A
:100D5300A3E0F509780812074AAC0CAD0D7405122F
:100D6300053EE02EFAA3E03FFB120DD312051774E4
:100D73000412053E120E1A250CF8A3E0350DF912E4
:100D83000DEA740612053E120DD9C3E0950EF0A3C9
:100D9300E0950FF0740412053E120DD9120E1FC018
:100DA30082C083740812053E120DF7E82AFAE93B64
:100DB300FBD083D082C3E09AA3E09B4003120DEAE9
:100DC3007900740A020A3A9400A2D265D03322FD54
:100DD30012225A740322120DDD22120DE122E0F8D1
:100DE300A3E0F583888222120E28120DF122E8F087
:100DF300A3E9F022120E2E120DFE22E0FAA3E0FB6D
:100E030022120DFE80CA120BB3A3A3A3A3120DFEDD
:100E130022851082851183120DDDE022E0F8A3E024
:100E2300F9120E2822851082851183E0FAA3E0F5DA
:100E3300838A822274F11205C2EAFEEBFFECFAED1B
:100E4300FBEA7001EB6014EE2408F50CEF3400F5B7
:100E53000D850C82F583120F6A50047901806C12A0
:100E63000ED18E828F83120EDC780812074A850E0C
:100E730082850F83E0FCA3E0120DD2120517850EC5
:100E830082850F83120BCC850C82850D83C3E09A78
:100E9300F0A3E09B120F38850C82850D83120F6A35
:100EA3008E828F835007A3A3120DF18015E02AFAD7
:100EB300A3E03BFB8E828F83EAF0A3EBF0120EE7F5
:100EC30040078E828F83120DF17900020A3DEE24D2
:100ED30006F50EEF3400F50F22E0F508A3E0F5095F
:100EE300750A00228E828F83A3A3A3A3E0FCA3E051
:100EF300FDE82CFCE93DFDC3EA9CEB9D22C082C0CA
:100F0300838A828B83A3A3A3A3A3A3A3A3C082C027
:100F1300838A828B83120F43D083D082120F2F4098
:100F230004790180027900D083D08222C3E098A3A0
:100F3300E099020DCCF08E828F83A3A3A3A3A3A376
:100F4300A3A3A3A3E0F8A3E0F922C082C0838A820B
:100F53008B83A3A3A3A3A3A3A3A3120F6A50047910
:100F6300018002790080C0C3E09401A3E0020DCAAE
:100F7300C082C0838A828B83120BC480AAC0E074B0
:100F8300F212069DE58AA2E45011538AEF121D3234
:100F9300E9600812269E7901122680E58AA2E050B4
:100FA30006538AFE1212AEE58AA2E15006538AFD69
:100FB3001212FAC2EB7F010206F574F11205C2EABE
:100FC300FEEBFFA2AFE492E0F50CC2AF8E088F09EF
:100FD300750A00750B0090F590780812035A90F586
:100FE30087E07002A3E070030210AC90F587E0F590
:100FF30008A3E0F509E5082402F8E5093400F988B7
:10100300828983E0FAA3E0FBC3EE9AEF9B8882898F
:10101300834006E4F0A3F08013C3E09EF0A3E09FB7
:10102300F088828983E07002A3E0705F850882857F
:101033000983A3A3A3A3E0FAA3E0FB8508828509A0
:1010430083A3A3A3A3A3A3E0F91222BA85088285ED
:101053000983E0F8A3E0F9E50A7002E50B70059057
:10106300F5878006850A82850B83E8F0A3E9F0857E
:101073000882850983E0F50EA3E0F50FAA08AB0902
:101083001222F0850E08850F09801385080A850949
:101093000B850882850983E0F508A3E0F509E508D7
:1010A3007002E5096003020FF8E50CA2E092AF7F3E
:1010B30008020662C082C08390F58DE0FAA3E0FBCC
:1010C300120FBDD083D08222740269700874026B40
:1010D30070031210B722C0E0C0D0C082C083C2C761
:1010E30090DF60E0D083D082D0D0D0E03243FE04E2
:1010F300C29253F3BF43FD40C28679FF1222CC5301
:10110300BEFBE5BEA2E650FA0078F8790100E824B8
:10111300FF18E934FFF9E87001E970F175C68074CE
:101123008065C670FA43BE0443F7017810868208CF
:101133008683800374CDF01212157400958274E0D7
:10114300958340F07582FF7583008004A88276CD75
:10115300E581F508121215E5089582E4958340ECC4
:1011630079001223AA12266E7A007B00122350758F
:101173000800750900780812074E7C087D007A0183
:101183007B0012235674021205177508967509F52C
:10119300780812074E750808750900780812074E7B
:1011A3007C007D007A017B00122362740412051710
:1011B30090F59BE0640260031225AE90F59CE0FA83
:1011C300C3941B5006EAC3940B50031225AE750853
:1011D300C67509FD780812074E750802750900786F
:1011E3000812074E7C007D007A0C7B021223627486
:1011F30004120517122542121516121CCC1222D204
:1012030079FF1222C679021223AA1222D87A007B0E
:101213000022E58224FFF582E58334FFF583C322B0
:101223008001001212557001EB70F722EA7001EB96
:10123300601FEAF8EBF97AE87B030012125570019C
:10124300EB70F7E824FF18E934FFF9E87001E9705F
:10125300E522EA24FF1AEB34FFFBEA2274F81205B5
:10126300C27AEC79131225C07A0279021225C09052
:10127300F662E0FA90F663E0F91225C07AF4790198
:101283001225C07A0079001225C07E037A00790006
:101293001225C01EEE70F57E097A0079001225C072
:1012A3001EEE70F579067F0102066274F81205C21C
:1012B300A2AFE492E0FEC2AF7A567BF7120F00E9C9
:1012C300600F740190F763F0EEA2E092AF790280B1
:1012D3002479067A6C7BF61225BA7C6C7DF67A56F5
:1012E3007BF712098BE9700690F66A121350EEA28F
:1012F300E092AF790380AF74F81205C2A2AFE49213
:10130300E0FEC2AF7A4A7BF7120F4DE96018740111
:1013130090F762F090F66612135012125FEEA2E09D
:1013230092AF790180247C6C7DF67A4A7BF7120EAA
:1013330037E9700F90F66812135079067A6C7BF6D2
:101343001225C6EEA2E092AF79040212A9E02401AD
:10135300F0A3E03400F02274F31205C2A2AFE492CA
:10136300E0F50AC2AF90F66AC3E0940CA3E09400E0
:10137300A2D265D033400A7A567BF7120F4DE9604B
:101383000D7A567BF7120F00E970030214237A5685
:101393007BF7120F738A088B09740A2508FAE43560
:1013A30009FB12228A8A0C8B0DAE0CAF0DEE700175
:1013B300EF606D74E38E828F83F07404A3A3F08EC9
:1013C300828F83A3A3A3E508F090F774E0F8A3E06A
:1013D300F98E828F83A3A3A3A3E8F0A3E9F090F788
:1013E30074121350780812074EEE240AFCEF3400EF
:1013F300FD7A567BF7120BFA740212051790FDFF64
:10140300E064FF6009EEFAEFFBE0F912229690F632
:101413006AE4F0A3F090F763E060051212AEE4F023
:10142300E50AA2E092AF7F06020662C082C0831281
:10143300144012135A12244CD083D08222C082C08B
:101443008390F791E07003122704D083D08222C0E7
:10145300E074F212069D1226F87F010206F5C0E041
:1014630074F212069D1226FE80EFC0E074F212069B
:101473009D12270480E3C0E074F212069DE59EFAF4
:10148300E5C35A54206005122818801EE5C35A5438
:1014930040601790DF07E0FA90F7C3E0C39AA2D247
:1014A30065D0335002EAF075C3A37F010206F5C08D
:1014B300E074F212069DE591FAA2E0C0D0E5E9A23C
:1014C300E092F012054A158182F0500875E9FE1288
:1014D30028548037E5E95A5402600875E9FD12285B
:1014E3005A8028E5E95A5440600CC2AF5391BFD2E9
:1014F300AF12296E8015E5E95A5420600E12294473
:1015030075E9DF90DF62E0A2E240F2759B0075E9C6
:10151300FF809774F81205C2121C2A121B5E790110
:1015230012153BE9FE79FF1222CCEEF98005740116
:101533001205177F0102066274F81205C274FF12C6
:101543000508121C1EE9FEE4851082851183F0AAAA
:1015530082AB837956121C427A967BF579E2121C90
:101563004290F815E07002A3E0601290F815E0FADB
:10157300A3E0FB1222F090F815E4F0A3F0EEF9805B
:10158300ADC082C08374E269700B7C967DF5122234
:101593006079008003121C3C0216E374F81205C242
:1015A3008908EAFEEBFF74E26508700BEEFCEFFDC1
:1015B3007A967BF5122260EEFAEFFBA908121C4221
:1015C300021536C082C083EA24161215D6121B6494
:1015D3000216E1F582EB1215E722EA2413F582EBFA
:1015E3001215E7221217ABE4F02274F51205C2EAD2
:1015F300FEEBFF8E828F8378081203CE90F811786A
:10160300081203DD90F815E07002A3E0600579FC91
:101613000216D58E828F83A3A3A3A3E0FA74036A71
:1016230070030216B8EE2413F508EF3400F509EA47
:1016330070437A1B7B001222EA8A0A8B0BA80AA941
:101643000B90F815E8F0A3E9F0E87001E97004796C
:101653001A807F7C1B7D00790012226690F815E0CA
:10166300240BF8A3E03400F9850882850983E8F0A8
:10167300A3E9F080408E828F83A3A3A3A3A3A3A394
:10168300E0603275F021A4FAABF01222EA850882F9
:10169300850983EAF0A3EBF0850882850983E0F8E6
:1016A300A3E0F990F815E8F0A3E9F090F815E070DD
:1016B30002A3E0609AEE2410F582EF1215D98E8210
:1016C3008F83A3A3A3A3A3A3F0EEFAEFFB121C90B3
:1016D30079007F04020662C082C083121C24790051
:1016E300D083D08222C082C0831215DD121B6A8090
:1016F300ED74F11205C28A0C8B0DEA241BF50EEB77
:101703003400F50F7B007A00850E82F583E0F91231
:101713001ADA8A088B09AE08AF09EE7001EF60731D
:10172300850C08850D09750A00780812074A7C1094
:101733007D00EE2422FAEF3400FB12225A740312C6
:101743000517850E82850F83E08E828F83A3A3A363
:10175300A3F0E50C241CF582E50D1217ABE0F508A8
:10176300A3E0F509780812074A850E82850F83E006
:10177300FC7D008E828F83A3A3E0FAA3E0FB1222F9
:101783005A7403120517EE241F12179D121AD479E7
:10179300008002791A7F08020662F582EF1215E7CC
:1017A300EEFAEFFB22F582EB3400F583221200A858
:1017B30045BE031200A864BE031200A8F7BE0312BD
:1017C30000A8C1ED011200A86DF0011200A88EF06F
:1017D300011200A80BF1011200A8D0F1011200A818
:1017E300D8F1011200A8FFF1011200A808F20112BA
:1017F30000A80BF2011200A839F2011200A8A3F20B
:10180300011200A83CF4011200A8FAF4011200A886
:101813003CF5011200A81DF6011200A820F60112E2
:1018230000A83EF6011200A8EDF7011200A84EF839
:10183300011200A8CEF8011200A8E8C8031200A8FC
:1018430026C9031200A8A8C2031200A82FC30312BB
:1018530000A84EC3031200A879C3031200A8EBC368
:10186300031200A851F0021200A86AF0021200A8A5
:10187300BAF0021200A864F1021200A8A6F1021243
:1018830000A830F2021200A861F2021200A8A4F22A
:10189300021200A80DF4021200A8BAF5021200A861
:1018A300EAA4031200A82EA6031200A8F9A70312A4
:1018B30000A802A8031200A80BA8031200A814A8EA
:1018C300031200A822A8031200A82BA8031200A841
:1018D30098FD031200A82C8B031200A84A8D031253
:1018E30000A8968E031200A84C8F031200A8B3B968
:1018F300011200A8DEB9011200A82ABC011200A837
:101903006CBC011200A811BD011200A81FBD011279
:1019130000A85ABD011200A875BD011200A8E0BEBF
:10192300011200A831C1011200A8B8C2011200A817
:1019330055C3011200A824C4011200A842C7011212
:1019430000A8E0C7011200A81AC8011200A8A3F654
:10195300021200A8B1F6021200A8DAF6021200A8D9
:10196300FCF6021200A87BF9021200A8C1F90212C8
:1019730000A82FFA021200A806FB021200A83BFBE4
:10198300021200A892FB021200A8D9FB021200A8BF
:1019930029FC021200A881FC021200A80CAA011261
:1019A30000A83DAB011200A8CCAB011200A8EFAC1C
:1019B300011200A8D7AE011200A867AF011200A858
:1019C3005BB0011200A8D6B0011200A829B1011220
:1019D30000A8B3B2011200A8C3B2011200A8D0B28A
:1019E300011200A8F4B2011200A8FCB2011200A86F
:1019F3001AB3011200A82DB4011200A887B4011272
:101A030000A8DCB4011200A823B5011200A82FB569
:101A1300011200A86DB5011200A864B6011200A856
:101A230043B7011200A8E6B7011200A888B8011253
:101A330000A8ACB8011200A8D5B8011200A8F3B8E9
:101A4300011200A837B9011200A83AB9011200A87F
:101A530062B9011200A88BB9011200A8EAFD0312B2
:101A630000A812FE031200A853CC021200A898CCBF
:101A7300021200A8FFCC021200A850CD021200A847
:101A830089CD021200A8AACD021200A8B4CD021279
:101A930000A8CCCE021200A8F1CE021200A873CF88
:101AA300021200A886CF021200A898CF021200A843
:101AB3003AD0021200A82FD1021200A83BD2021280
:101AC30000A8CDD2021200A8D7D2021200A841D397
:101AD300021200A852D3021200A89BD3021200A83C
:101AE300EDE9021200A81DEA021200A84DEA021253
:101AF30000A87CEA021200A8B5EA021200A814EBBF
:101B0300021200A82FEC021200A879EC021200A81E
:101B1300A8EC021200A818ED021200A840ED021270
:101B230000A86CED021200A87AED021200A8E8EDFD
:101B3300021200A827EE021200A869EE021200A802
:101B4300A6EE021200A8C9EE021200A8D4EE0212F9
:101B530000A8F2EE021200A8D0EF021200A8E3EFF1
:101B6300021200A825F0021200A83EF0021200A8FB
:101B7300AC94031200A8E994031200A8FF94031283
:101B830000A81196031200A82896031200A83C96F9
:101B9300031200A8D696031200A82B97031200A8DD
:101BA300F397031200A8FF97031200A8078B0212F2
:101BB30000A83C8B021200A8568B021200A89A8B35
:101BC300021200A8EE8D021200A8718E021200A864
:101BD300118F021200A86E91021200A87D910212C9
:101BE30000A88091021200A88891021200A8A59172
:101BF300021200A8B791021200A8E991021200A8EC
:101C0300AE92021200A81F93021200A88A93021236
:101C130000A82C94021200A8EA94021200A81895B6
:101C2300021200A8B795021200A8C395021200A8D9
:101C3300D2BB031200A8F9BB031200A820BC0312F5
:101C430000A890BC031200A83BFD031200A84BFDA3
:101C5300031200A84EFD031200A87FFD031200A883
:101C6300B085031200A83586031200A83487031237
:101C730000A81E88031200A8B888031200A8F589DB
:101C8300031200A8AF8A031200A8EF8A031200A868
:101C9300218B031200A8869D031200A8629E0312E3
:101CA30000A8C59E031200A8609F031200A820A0ED
:101CB300031200A899A0031200A8D4A0031200A83D
:101CC30019A1031200A868FA031200A81BC4021288
:101CD30000A829C4021200A8A5C4021200A8C0C407
:101CE300021200A80FC5021200A822C7021200A800
:101CF300B0C8021200A880CB021200A8B7CB021210
:101D030000A8E9CB021200A82CCC021200A8F8FB11
:101D1300031200A8C6C4031200A8E8C4031200A853
:101D23002BC6031200A883C6031200A8ABC6031276
:101D330000A8D3C6031200A8DAC6031200A82A9982
:101D4300031200A88299031200A8F599031200A8B0
:101D5300949B031200A8FA9B031200A89C9C0312F5
:101D630000A8709D031200A8CCB2021200A8EFB223
:101D7300021200A801B3021200A8A6B3021200A81F
:101D8300ECB5021200A878B6021200A89DB902129F
:101D930000A86ABA021200A8DCBA021200A8E6BAC6
:101DA300021200A8F1BA021200A806BB021200A890
:101DB3000FBB021200A844BB021200A8008002124B
:101DC30000A80780021200A81380021200A83E8018
:101DD300021200A86580021200A80087021200A860
:101DE300AB88021200A89A8A021200A8F88A02128B
:101DF30000A876AB031200A8B3AB031200A8F8AB9C
:101E0300031200A851AC031200A8D3AC031200A81C
:101E1300EBAC031200A82BAD031200A869AD0312AB
:101E230000A8E1AD031200A83DD6011200A89CD67C
:101E3300011200A807D7011200A89EDA011200A818
:101E4300E7DA011200A860DB011200A8F0DB01123F
:101E530000A820DC011200A850DC011200A87FDCDE
:101E6300011200A8B7DC011200A8D8DC011200A8F7
:101E7300F7DC011200A87EDD011200A8F9DD0112D2
:101E830000A805DE011200A8ABE0011200A8BAE029
:101E9300011200A8D1E0011200A8DEE0011200A89F
:101EA30002E1011200A83CE1011200A85DE1011268
:101EB30000A875E1011200A893E1011200A89FE1B7
:101EC300011200A8BAC8011200A8FAC8011200A89A
:101ED3002CC9011200A873C9011200A885C90112F7
:101EE30000A897C9011200A8A5C9011200A8B3C987
:101EF300011200A8D6C9011200A801CA011200A844
:101F030066CA011200A8E3CA011200A80BCB011292
:101F130000A8A1CB011200A8C4CB011200A845CC94
:101F2300011200A8C1CC011200A8E8CC011200A83C
:101F330028CD011200A86ACD011200A88FCD01128D
:101F430000A8BBCD011200A8C9CD011200A827CE5D
:101F5300011200A894CF011200A878D0011200A8A2
:101F6300AAD0011200A8EAD0011200A81DD10112C3
:101F730000A8C4D1011200A800D2011200A88CD27B
:101F8300011200A87AD3011200A81AD4011200A8E2
:101F930029D4011200A854D5011200A8F0D50112CA
:101FA30000A8D05F011200A8E75F011200A8EE5F4E
:101FB300011200A82560011200A84860011200A8C0
:101FC300A160011200A8E961011200A829620112AF
:101FD30000A81263011200A88864011200A82165F9
:101FE300011200A86866011200A82E67011200A85A
:101FF3006C69011200A8076B011200A8256B01127E
:1020030000A84C6B011200A8876B011200A8D76BC4
:10201300011200A8306C011200A84F6C011200A835
:10202300E86C011200A8466D011200A8A96D011207
:1020330000A8D16D011200A8EA6D011200A81E6E5E
:10204300011200A87C70011200A82571011200A8DA
:102053009D71011200A84372011200A8D4720112EB
:1020630000A8C577011200A87679011200A87D792E
:10207300011200A8097A011200A8327A011200A8FD
:10208300B97B011200A83F7C011200A8497C011210
:1020930000A8537C011200A86A7C011200A8D27C1C
:1020A300011200A80C7D011200A8CE7D011200A828
:1020B300B57E011200A8307F011200A8707F0112C3
:1020C30000A8FF7F011200A83D80011200A86680CE
:1020D300011200A82581011200A8DF81011200A8C6
:1020E3005983011200A88183011200A860840112A0
:1020F30000A89584011200A8DD85011200A821869D
:10210300011200A84887011200A8C899011200A86B
:10211300689A011200A815A0011200A80FA80112C5
:1021230000A800A9011200A878A9011200A88AA991
:10213300011200A899A9011200A857E2011200A8F0
:102143000AE3011200A8BEE7011200A872EA011215
:1021530000A80AEB011200A81EEB011200A83CEB39
:10216300011200A888EB011200A830EC011200A8AC
:102173003CA0021200A848A0021200A854A0021218
:1021830000A861A0021200A87BA0021200A8C6A0AA
:10219300021200A86AA1021200A893A3021200A8C7
:1021A300D1A3021200A813A4021200A841A4021290
:1021B30000A8BBA4021200A8E5A4021200A882A5ED
:1021C300021200A8DAA7021200A8E4A7021200A8CC
:1021D300EEA7021200A82DA8021200A819A9021244
:1021E30000A84DA9021200A85FA9021200A8DDA948
:1021F300021200A8F8A9021200A879FE031200A88F
:102203005FB1031200A873B1031200A87EB10312D9
:1022130000A8AAB1031200A8F2B1031200A838B2B1
:10222300031200A84FB2031200A872B2031200A84F
:102233007CB2031200A893B2031200A8AAB203123D
:1022430000A8F1B2031200A844B3031200A8ECB330
:10225300031200A875BB021200A87FBB021200A8DC
:10226300C5BB021200A8E4BB021200A801BC021203
:1022730000A80BBC021200A8D6BC021200A897BF8C
:10228300021200A8D5BF021200A8DEBF021200A8E6
:1022930036C0021200A861C0021200A8C8C0021210
:1022A30000A831C1021200A878C1021200A8F6C129
:1022B300021200A86AC2021200A8C1C2021200A838
:1022C300F3C2021200A825C3021200A835C30212EA
:1022D30000A845C3021200A864C3021200A8E5CAFD
:1022E300031200A84FCB031200A874CB031200A85B
:1022F30085CC031200A8E487011200A88589011286
:1023030000A8C089011200A87C8B011200A8128CBE
:10231300011200A88A8D011200A8D38D011200A812
:10232300B48E011200A8338F011200A8AD8F0112E1
:1023330000A8F48F011200A84390011200A8839013
:10234300011200A8C791011200A82993011200A845
:102353004195011200A84E95011200A8AD950112F6
:1023630000A86F99011200A8AFFF031200A854B987
:10237300031200A88EB9031200A82ABA031200A8F8
:102383006BBA031200A8D7BA031200A815BB031235
:1023930000A84BBB031200A882BB031200A894BB86
:1023A300031200A8BABB031200A8ECF1031200A8A1
:1023B30080F2031200A89BF2031200A8E6F20312B4
:1023C30000A8F1F2031200A888F3031200A8A4F3F3
:1023D300031200A809B4031200A87CB4031200A8D6
:1023E3004DB5031200A8FBB5031200A8E5F80112CE
:1023F30000A84EF9011200A84CFA011200A86BFACA
:10240300011200A812FB011200A875FB011200A81B
:102413008AFB011200A8ACFB011200A81FFC0112E9
:1024230000A832FC011200A8F1FC011200A808FD6B
:10243300011200A8BAFD011200A8E8FD011200A8CC
:102443000FFE011200A84CFF011200A8FBFE0312AD
:1024530000A80FFF031200A824FF031200A802AA7A
:10246300021200A86FAA021200A80BAB021200A866
:1024730078AB021200A85EAC021200A8BFAD021234
:1024830000A8DAAD021200A824AE021200A85AAEC8
:10249300021200A8B7AE021200A8C8AE021200A82A
:1024A3004BAF021200A860AF021200A86BAF02127A
:1024B30000A881AF021200A8BBB0021200A8FDB0B1
:1024C300021200A826B1021200A888B1021200A8C5
:1024D3009FB1021200A8A2B1021200A814B2021204
:1024E30000A831B2021200A856B2021200A8BAB272
:1024F300021200A8B6E2021200A8C4E2021200A867
:102503007DE3021200A8CFE3021200A832E4021214
:1025130000A876E4021200A8F68F031200A89D908B
:10252300031200A84E91031200A80792031200A8F9
:102533008892031200A86093031200A8C5FF031238
:1025430000A8ABAE031200A882B0031200A8EEB03D
:10255300031200A8EDFC021200A805FE021200A857
:10256300A4FF021200A8BEF3031200A8D6F30312BD
:1025730000A8E3F3031200A80CF4031200A858F414
:10258300031200A860F4031200A872F5031200A856
:10259300C8CE031200A80DCF031200A812CF031256
:1025A30000A855CF031200A8B0CF031200A894FFD0
:1025B300031200A856DB021200A8CADB021200A80D
:1025C30061DC021200A8B5DC021200A83CDD021295
:1025D30000A867DD021200A8A1DD021200A8C9DD70
:1025E300021200A821DE021200A841DE021200A896
:1025F3004CDE021200A868DE021200A8C2DE02123C
:1026030000A809DF021200A820DF021200A8B1DF30
:10261300021200A8ECDF021200A8F5DF021200A8E4
:1026230008E0021200A813E0021200A826E002123A
:1026330000A828E0021200A846E0021200A856E013
:10264300021200A8EEE1021200A8F8E1021200A8AB
:102653003BE2021200A84AE2021200A886E202123A
:1026630000A8A8E2021200A887F5031200A892F5B9
:10267300031200A8AFF5031200A89FF6031200A8E7
:1026830015F7031200A81FF7031200A82FF7031270
:1026930000A866F8031200A87CF8031200A8C2F889
:1026A300031200A8FBF8031200A8F4CF031200A83A
:1026B300F9CF031200A80080031200A8DA800312E6
:1026C30000A86A81031200A80982031200A83882B5
:1026D300031200A8AF82031200A8EC82031200A821
:1026E3006E83031200A8BC83031200A8598403124B
:1026F30000A88D84031200A8B184031200A80F85DB
:10270300031200A87185031200A8AFB6031200A834
:102713002BB7031200A8D5B7031200A89BB8031266
:1027230000A8C5B8031200A8D7B8031200A822B99D
:10273300031200A836B9031200A8D495021200A808
:102743009A96021200A8B296021200A8C09602122C
:1027530000A8D396021200A8F096021200A81497BC
:10276300021200A88397021200A81F98021200A861
:102773006898021200A82D99021200A84F9902121C
:1027830000A88799021200A8C39A021200A82B9BE3
:10279300021200A8569B021200A88C9C021200A8E9
:1027A300E29C021200A8539D021200A8639D02122C
:1027B30000A8A19D021200A8AC9D021200A8D89DFA
:1027C300021200A8399E021200A84C9E021200A811
:1027D300989E021200A8BE9E021200A809A002122F
:1027E30000A81BA0021200A827A0021200A8DBCC9D
:1027F300031200A817CD031200A82ACD031200A8C4
:102803004DCD031200A87ECD031200A8BBCD031249
:1028130000A812CE031200A84ECE031200A806F0A1
:10282300031200A83DF0031200A84FF0031200A802
:102833006BF0031200A8AFF0031200A8B8F0031264
:1028430000A806F1031200A827F1031200A8B7F1AC
:10285300031200A8BDF1031200A8CAF1031200A8D5
:1028630030FF031200A84DFF031200A879C0031222
:1028730000A80BC1031200A818C1031200A820C1AD
:10288300031200A868C1031200A898C1031200A88C
:10289300C0C1031200A825C2031200A854C2031228
:1028A30000A87FC2031200A890C2031200A887FFEA
:1028B300011200A8AFFF011200A8C5FF011200A872
:1028C300E1C6031200A8FAC6031200A806C7031242
:1028D30000A81AC7031200A83DC7031200A849C7DE
:1028E300031200A858C7031200A86BC7031200A85D
:1028F300A0C7031200A8DAC7031200A8FFC7031278
:1029030000A842C8031200A86BC8031200A883C81A
:10291300031200A88DC8031200A89EC8031200A8C2
:10292300E2C8031200A8EFD3021200A817D40212C0
:1029330000A82AD4021200A83DD4021200A853D43E
:10294300021200A8ACD4021200A8E6D4021200A816
:10295300EAD7021200A808D9021200A83AD9021233
:1029630000A89AD9021200A866DA021200A88EDA29
:10297300021200A8A3DA021200A8B3DA021200A816
:10298300E8DA021200A83DDB021200A84DF7031299
:1029930000A868F7031200A888F7031200A89CF7A1
:1029A300031200A8BCF7031200A8DDF7031200A866
:1029B300F5F7031200A824F8031200A83FF8031246
:1029C30000A8ACFC031200A8E2FC031200A834A880
:1029D300031200A83BA8031200A825A9031200A80C
:1029E30057A9031200A879A9031200A8ACA90312DE
:1029F30000A8BEA9031200A8EAA9031200A84DAAC1
:102A0300031200A88AAA031200A8D4AA031200A8DA
:102A130005AB031200A825AB031200A837FB031272
:102A230000A849FB031200A8F5FB031200A86CF9E8
:102A3300031200A8C2F9031200A805FA031200A8A2
:102A430046FA031200A862A1031200A8ADA1031263
:102A530000A8E5A4031200A865FF031200A82FFE37
:102A6300031200A8AFFF021200A8BFFE031200A8C2
:102A7300DCFF0101FFFFFFFFFFFFFFFF300000004E
:102A8300DC1BDC1BDC1BDC1BA41A9E1ADC1BC13009
:102A930000000000E73100006A327832453300005D
:102AA3000000000000000000000000000C00000017
:102AB3000C0069006E006E67006F006100616900C1
:102AC300616E00616E6700616F00656900656E008D
:102AD300656E670069616E0069616F006965006911
:102AE3006E00696E67007500650068610068616962
:102AF3000068616E0068616E670068616F006865F9
:102B03000068656E0068656E6700686900686F6ECF
:102B13006700686F7500687500687561690068759E
:102B2300616E006875616E67006875690068756E2F
:102B33000068756F006F6E67006F750075616E00DA
:102B4300756900756E00756F0069750072007561B7
:102B5300007561690075616E670069610069616E86
:102B63006700696F6E6700756500760068756100C0
:102B73003452485288520C535C5368538C53D85385
:102B8300245428546054A85408555455B055B85586
:102B9300FC5534566C56F4564057445748576C57B7
:102BA300A457E0577058127A00009F020000FFFFFD
:102BB300FF0080FFFF0001000000CAB1BCE400C8B1
:102BC300D5C6DA00C9E8D6C3CDEAB3C900D2F4C189
:102BD300BF000102C6B4D2F400D3A2CEC400CAFD22
:102BE300D7D600B1EAB5E30030610305D5FDD4DAE9
:102BF300C7D0BBBB00CEDED0C5BAC5001C010000E8
:102C03004D656E75204E6F646520494420496E639F
:102C13006F72726563742100D5FDD4DABFAABBFA63
:102C23002E2E2E00D5FDD4DAB9D8BBFA2E2E2E00C7
:102C3300CBD1CBF7CDF8C2E72E2E2E00D5FDD4DABB
:102C4300BAF4BDD02E2E2E00D5FDD4DACDA8BBB05C
:102C530000C0B4B5E700B8F6CEB4BDD3B5E7BBB09A
:102C630000D0C2D0C5CFA200B2E9BFB400C8A1CF83
:102C7300FB00B7A2CBCDD0C5CFA22E2E2E00CDA860
:102C8300D1B6C2BCD2D1C2FA00D0D5C3FBCAE4C804
:102C9300EBD2D1C2FA00CAE4C8EBBAC5C2EB00C892
:102CA300ABB2BFC9BEB3FD00CEB4BDD3C0B4B5E7AC
:102CB3003F00D2D1BDD3C0B4B5E73F00D2D1B2A655
:102CC300B5E7BBB03F00C8B7C8CF00C9E8D6C3CD8E
:102CD300EAB3C900D2D1C9BEB3FD00BDF1CCECCA81
:102CE300C700CEDED0C5BAC500D2EEC8D5BFC6BCBC
:102CF300BC00BFAA20CBF800C7EBB0B42ABCFC00D1
:102D0300CFC8B0B4BFAACBF8BCFC00D4D9B0B42AA6
:102D1300BCFC00B9A620C4DC00CDA8D1B6C2BC005F
:102D2300BBF9D5BE3A000405CDA8D1B6C2BC00B6E6
:102D3300CCD0C5CFA200CDA8BBB0BCC7C2BC00C914
:102D4300E8D6C300B8BDBCD3B9A6C4DC00CCE1CA85
:102D5300BED2F4C9E8D6C300CAB1BCE4C9E8D6C33D
:102D630000B1B3B9E2C9E8D6C300D7D4B6AFBCFC4F
:102D7300C5CCCBF800BBD6B8B4B3F6B3A7C9E8D675
:102D8300C300C9E8D6C3C6B5B5C000C9E8D6C3BB3E
:102D9300F9D5BE00CAD5BCFECFE400D0B4D0C5CFB0
:102DA300A200CEB4BDD3C0B4B5E700D2D1BDD3C069
:102DB300B4B5E700D2D1B2A6B5E7BBB000C9BEB384
:102DC300FDBCC7C2BC00CAB1BCE400C1E5C9F9C9B6
:102DD300E8D6C300D0C5CFA2CCE1CABEC9F900C1B1
:102DE300E5C9F9D2F4C1BF00D5F1B6AFCCE1CABE93
:102DF30000B9D8003130C3EB003230C3EB003330BD
:102E0300C3EB00C8D5C6DA00B1BEBBFABAC5C2EB84
:102E130000B5B1C7B0C6B5B5C000BBF9D5BEBAC51C
:102E230000C8EDBCFEB0E6B1BE3A00BFAA00B2E9ED
:102E3300BFB400C9BEB3FD00D4F6BCD300BBD8B841
:102E4300B400C8ABB2BFC9BEB3FD00B9A620C4DC91
:102E530000B1B3B9E2CAB1BCE4004D656E75204E52
:102E63006F646520494420496E636F7272656374B1
:102E73002100CDA8D1B6C2BCCEAABFD5002900CDB2
:102E8300A8BBB0BCC7C2BCCEAABFD500B4E6B4A22F
:102E930000B7B5BBD800BBD6B8B4C4ACC8CFC9E87B
:102EA300D6C33F00D2F4C1BF00C9E8D6C3CDEAB34D
:102EB300C900CAD5BCFECFE4CEAABFD500B6CCCFDD
:102EC300FBCFA2CAE4C8EBD2D1C2FA00C9BEB3FD9C
:102ED300B4CBD0C5CFA23F00C8B7C8CF00C8A1CFDD
:102EE300FB00D5FDD4DAC9BEB3FD2E2E2E00D2EEE3
:102EF300C8D5BFC6BCBC00C9BEB3FDC8ABB2BFD04A
:102F0300C5CFA23F00CDA8D1B6C2BCD2D1C2FA0070
:102F13003F00CEDE003131303952433200C7EBCAB5
:102F2300E4C8EBC6B5B5C03A00B7C7B7A8B5C4C6C1
:102F3300B5B5C000C7EBCAE4C8EBBBF9D5BEBAC58B
:102F43003A00B7C7B7A8B5C4BBF9D5BEBAC5000127
:102F5300000005000000000A0000001B0000000B39
:102F6300000000F100000078000000B80B0000B57D
:102F7300E7B3D8B5E7C1BFB5CD00B7A2CBCDD0C5B8
:102F8300CFA22E2E2E00D0C5CFA2B7A2CBCDCAA7DB
:102F9300B0DC00726563763A006572723A0001A68E
:102FA3001BF4187426B6176424402110210730003F
:102FB3001027000000E1F50557E5E8030000FF33A3
:102FC30000000030C80700640000001F0000000973
:102FD3003D0000EAFFFFFF090000000000090000B8
:102FE300000000D0070100010000000001FF7F0086
:102FF300000080FFFF010100BAF500000002400855
:1030030000005000000000F6F5DC0014001400B8C6
:1030130001020A000800000506071E02051E03F44C
:1030230001803EFFFF4E6F20457869742041646440
:10303300726573732000C1E5C9F93100C1E5C9F9AF
:103043003200C1E5C9F93300C1E5C9F93400010211
:1030530004081020408004004080C0FFFF010404E6
:103063000404010100000C00020502000002060036
:1030730005150D0910080400383C3E363B3B352B43
:10308300432C303016181920231A1C1E30303017E9
:10309300181921301B1D1F30FE1A2E1B041B0A1B7F
:1030A300281B1C1B161B341B3A1B401B4C1B101BE1
:1030B300F81AF21A221B461B7E1C521B581B0300D4
:1030C30071003001600011007000310220035004D0
:1030D30080001000610000001400630073007200A0
:1030E300620043000000130006000000000004001B
:1030F300120000000000000000000400040037007C
:1031030037003C024400000000000000000065009E
:10311300000035008100000005000000830000006E
:1031230001017101010101011101010131010101DC
:1031330001018001100161013B001400630173016F
:103143007201620143010001130106013D013500D3
:103153000401120100010001000100010401040146
:10316300330133013C014401320136000001000107
:103173006501000135008101000105018201830120
:1031830000010302710230016002110270020102A8
:10319300020202028002100261023A00410063024D
:1031A3007302720262024302000213023800000239
:1031B30000020402120200020002000200020402E2
:1031C3000402370037003C024402000239000002C7
:1031D300000265020002350281020002050282023A
:1031E30083020002010371030103010301030103CD
:1031F300010322030203010310030003000300037E
:103203000003000300030003420300032403060337
:1032130000030003040312032503230325032303ED
:103223000403040300030003000344030003000337
:103233002303000365032100350381030003050312
:1032430000030003000300034948424D18172505F6
:103253000200011916181616152303000C0E020B93
:10326300040B0A0708000FDC1BEE1BF41BC81AFA39
:103273001BC21ACE1A4E1C001C061C121C0C1C3638
:10328300000100060000000F000000000000000025
:10329300000000000003FFFF00000403FFFF000025
:1032A300FFFF0FF4010005C4040320000100000B1D
:1032B3000000000000000000030100013636010198
:1032C30000010201000103010001040106060502D9
:1032D3000000070100340801000F090401010D017A
:1032E30000FF0E08000017020000190100FF1A0179
:1032F30000011B0100051C0100081D0200001F0145
:10330300000120010001210200002301000F24021B
:1033130000002601000127010308280200FF2A01FB
:1033230000072B0102402C0100002D0100012E019A
:1033330000012F0100FF30010B1C310800003A018E
:103343000008661C841C8A1C6C1C781C721CB0A2AE
:10335300B0A100B0A5B0A7B0A6B0A3B0A4B0A8B068
:10336300A9B0ABB0AAB0ACB0AEB0AFB0AD00B0B224
:10337300B0B1B0B0B0B3B0B6B0B4B0B8B0B7B0B528
:1033830000B0B9B0BAB0BB00B0BCB0BDB0BEB0BF46
:10339300B0C0B0C1B0C2B0C4B0C300B0CBB0CDB048
:1033A300C8B0C7B0C9B0C5B0CCB0C6B0CAB0CEB053
:1033B300CFB0D1B0D0B0D3B0D6B0D5B0D400B0D7A1
:1033C300B0D9B0DBB0D8B0DAB0DCB0DDB0DE00B07D
:1033D300E2B0E0B0E3B0E4B0DFB0E1B0E5B0E6B056
:1033E300ECB0EBB0E9B0E7B0E8B0EDB0EA00B0EEB6
:1033F300B0EFB0F0B0F3B0F1B0F2B0F6B0F8B0F4B3
:10340300B0F9B0F5B0F700B0FCB0FAB0FBB0FDB165
:10341300A2B1A6B1A5B1A3B1A4B1A8B1A7B1AAB1F4
:10342300ABB1A9B1ACB0FEB1A1C6D900B1B0B1ADD9
:10343300B1AFB1AEB1B1B1B4B1B7B1B8B1B3B1B568
:10344300B1B6B1BBB1B9B1BAB1B200B1BCB1BEB1E1
:10345300BDB1BFBABB00B1C0B1C1B1C2B1C3B1C587
:10346300B1C400B1C6B1C7B1C8B1CBB1CAB1C9B15A
:10347300D2B1D8B1CFB1D5B1D3B1D1B1DDB1D0B122
:10348300D6B1D4B1CDB1D7B1CCB1CEB1DAB1DCB113
:10349300DB00B1DFB1E0B1DEB1E1B1E2B1E5B1E34F
:1034A300B1E4B1E9B1E6B1E7B1E800B1EBB1EAB13A
:1034B300ECB1ED00B1EFB1EEB1F0B1F100B1F6B1A5
:1034C300F2B1F3B1F5B1F4B1F700B1F9B1F8B1FB71
:1034D300B1FCB1FAB1FEB1FDB2A2B2A100B2A6B283
:1034E300A8B2A3B2A7B2B1B2A4B2A5B2AEB2B5B2FA
:1034F300AFB2B4B2AAB2ACB2B0B2A9B2B3B2ABB2C9
:10350300ADB2B2B2B700B2B9B2B8B2B6B2BBB2BC26
:10351300B2BDB2C0B2BFB2BAB2BE00B2C100B2C293
:10352300B2C5B2C4B2C6B2C3B2C9B2CAB2C7B2C8D4
:10353300B2CBB2CC00B2CEB2CDB2D0B2CFB2D1B256
:10354300D2B2D300B2D6B2D7B2D4B2D5B2D800B2C7
:10355300D9B2DAB2DCB2DBB2DD00B2E1B2E0B2DEA4
:10356300B2E2B2DF00B2E3B2E4D4F800B2E6B2E50D
:10357300B2E9B2E7B2E8B2EBB2ECB2EAB2EDB2EF63
:10358300B2EEC9B200B2F0B2F1B2F200B2F4B2F3E9
:10359300B2F7B2F6B2F8B2F5B2FAB2F9B2FBB2FCD4
:1035A30000B2FDB2FEB3A6B3A2B3A5B3A3B3A7B350
:1035B300A1B3A8B3A9B3ABB3AA00B3ADB3AEB3ACD5
:1035C300B3B2B3AFB3B0B3B1B3B3B3B4B4C200B374
:1035D300B5B3B6B3B9B3B8B3B7B3BA00B3BBB3BE3D
:1035E300B3BCB3C0B3C1B3BDB3C2B3BFB3C4B3C33E
:1035F30000B3C6B3C5B3C9B3CAB3D0B3CFB3C7B3AC
:10360300CBB3CDB3CCB3CEB3C8B3D1B3D2B3D30062
:10361300B3D4B3D5B3DAB3D8B3DBB3D9B3D6B3DF4B
:10362300B3DEB3DDB3DCB3E2B3E0B3E3B3E100B3E2
:10363300E4B3E5B3E6B3E7B3E800B3E9B3F0B3F15A
:10364300B3EBB3EEB3EDB3EFB3EAB3ECB3F3B3F26F
:10365300B3F400B3F6B3F5B3FDB3F8B3FCB3FAB305
:10366300FBB3F7B3F9B4A1B4A2B3FEB4A6B4A4B444
:10367300A5B4A3D0F300B4A700B4A8B4A9B4ABB461
:10368300ACB4AAB4ADB4AE00B4B3B4AFB4B0B4B2D6
:10369300B4B400B4B5B4B6B4B9B4B7B4B800B4BA3A
:1036A300B4BBB4BFB4BDB4BEB4BCB4C000B4C100F9
:1036B300B4C3B4CAB4C4B4C9B4C8B4C7B4C5B4C633
:1036C300B4CBB4CEB4CCB4CD00B4D1B4D3B4D2B4AF
:1036D300D0B4CFB4D400B4D500B4D6B4D9B4D7B42D
:1036E300D800B4DAB4DCB4DB00B4DEB4DFB4DDB4E8
:1036F300E0B4E3B4E1B4E2B4E400B4E5B4E6B4E7BF
:1037030000B4EAB4E8B4E9B4ECB4EBB4ED00B4EE5D
:10371300B4EFB4F0B4F1B4F2B4F300B4F4B4F5B468
:10372300F6B4FAB4F8B4FDB5A1B4F9B4FBB4FCB47F
:10373300FEB4F700B5A4B5A5B5A3B5A2B5A6B5A8C3
:10374300B5A7B5A9B5ABB5AEB5AFB5ACB5ADB5B06D
:10375300B5AA00B5B1B5B2B5B3B5B4B5B500B5B694
:10376300B5BCB5BAB5B9B5B7B5BBB5B8B5BDB5BFD9
:10377300B5C1B5C0B5BE00B5C3B5C2B5C400B5C605
:10378300B5C7B5C5B5C8B5CBB5CAB5C900B5CDB50F
:10379300CCB5CEB5D2B5CFB5D0B5D3B5D1B5D5B5FA
:1037A300D7B5D6B5D8B5DCB5DBB5DDB5DAB5DEB59D
:1037B300D900B5E0B5E1B5DFB5E4B5E3B5E2B5E70A
:1037C300B5E8B5E9B5EAB5E6B5EBB5EDB5ECB5EEFB
:1037D300B5E500B5F3B5F0B5F2B5EFB5F1B5F5B5AF
:1037E300F6B5F400B5F9B5F8B5FCB5FDB5FEB5FA17
:1037F300B5FB00B6A1B6A3B6A2B6A4B6A5B6A6B647
:10380300A9B6A8B6A700B6AA00B6ABB6ACB6ADB615
:10381300AEB6AFB6B3B6B1B6B2B6B0B6B400B6BC18
:10382300B6B5B6B7B6B6B6B8B6B9B6BAB6BB00B6DD
:10383300BDB6BEB6C1B6BFB6C0B6C2B6C4B6C3B6D1
:10384300CAB6C5B6C7B6C8B6C9B6C600B6CBB6CC37
:10385300B6CEB6CFB6D0B6CD00B6D1B6D3B6D4B603
:10386300D200B6D6B6D8B6D5B6D7B6DCB6DBB6D99F
:10387300B6DD00B6E0B6DFB6E1B6DEB6E4B6E2B674
:10388300E3B6E7B6E9B6E6B6E8B6E500B6EFB6EDF9
:10389300B6F0B6EBB6ECB6EAB6EEB6F2B6F3B6F100
:1038A300B6F6B6F5B6F400B6F700B6F9B6F8B6FB59
:1038B300B6FAB6FDB6FCB6FEB7A100B7A2B7A6B777
:1038C300A5B7A3B7A7B7A4B7A8B7A900B7ABB7ACB9
:1038D300B7ADB7AAB7B2B7AFB7B0B7B3B7AEB7B1B3
:1038E300B7B4B7B5B7B8B7BAB7B9B7B6B7B700B71C
:1038F300BDB7BBB7BCB7C0B7C1B7BFB7BEB7C2B719
:10390300C3B7C4B7C500B7C9B7C7B7C8B7C6B7CA7F
:10391300B7CBB7CCB7CDB7CFB7D0B7CEB7D100B74A
:10392300D6B7D4B7D7B7D2B7D5B7D3B7D8B7DAB72F
:10393300D9B7DBB7DDB7DCB7DEB7DFB7E000B7E198
:10394300B7E7B7E3B7E2B7E8B7E5B7E9B7E6B7E490
:10395300B7EBB7EAB7ECB7EDB7EFB7EE00B7F000E8
:10396300B7F100B7F2B7F4B7F5B7F3B8A5B7FCB73B
:10397300F6B7F7B7FEB7FDB7FAB8A1B8A2B7FBB869
:10398300A4B7F9B8A3B7F8B8A7B8A6B8AEB8ABB898
:10399300A9B8AAB8A8B8ADB8AFB8B8B8BCB8B6B8E3
:1039A300BEB8BAB8BDB8C0B8B7B8B4B8B0B8B1B893
:1039B300B5B8BBB8B3B8BFB8B9B8B200B8C2B8C12C
:1039C30000B8C3B8C4B8C6B8C7B8C8B8C500B8C982
:1039D300B8CAB8CBB8CEB8CCB8CDB8D1B8CFB8D2B6
:1039E300B8D0B8D300B8D4B8D5B8DAB8D9B8D8B83D
:1039F300D7B8D6B8DBB8DC00B8DEB8E1B8DFB8E0DA
:103A0300B8DDB8E2B8E3B8E5B8E4B8E600B8EAB8B8
:103A1300EDB8E7B8ECB8EBB8EEB8E9B8E8B8F3B886
:103A2300EFB8F1B8F0B8F4B8F6B8F7B8F5BFA90035
:103A3300B8F800B8F9B8FA00B8FCB8FDB8FBB8FE9E
:103A4300B9A1B9A2B9A300B9A4B9ADB9ABB9A6B923
:103A5300A5B9A9B9ACB9A7B9AAB9A8B9AEB9AFB94B
:103A6300B0B9B2B9B100B9B4B9B5B9B3B9B7B9B6A8
:103A7300B9B9B9BAB9B8B9BB00B9C0B9BEB9C3B954
:103A8300C2B9C1B9BDB9BCB9BFB9C5B9C8B9C9B95A
:103A9300C7B9C6B9C4B9CCB9CAB9CBB9CD00B9CFC6
:103AA300B9CEB9D0B9D1B9D2B9D300B9D4B9D5B98E
:103AB300D600B9D8B9DBB9D9B9DAB9D7B9DDB9DC28
:103AC300B9E1B9DFB9E0B9DE00B9E2B9E3B9E400BD
:103AD300B9E9B9E7B9EAB9E6B9EBB9E8B9E5B9ECD7
:103AE300B9EEB9EFB9EDB9F4B9F1B9F3B9F0B9F287
:103AF30000B9F5B9F6B9F700B9F9B9F8B9FAB9FBEC
:103B0300B9FCB9FD00B8F2B9FE00BAA2BAA1BAA3D2
:103B1300BAA5BAA7BAA6BAA400BAA8BAA9BAACBA3F
:103B2300AABAAFBAADBAAEBAABBAB1BAB0BABABA48
:103B3300B9BAB5BAB7BAB4BAB8BAB6BAB3BAB200C0
:103B4300BABCBABDD0D000BAC1BAC0BABFBABEBA45
:103B5300C3BAC2BAC5BAC6BAC400BAC7BAC8BACC1D
:103B6300BACFBACEBACDBAD3BAD2BACBBAC9BAD40B
:103B7300BAD0BACABAD8BAD6BAD5BAD700BADABAA4
:103B8300D900BADBBADCBADDBADE00BAE0BADFBA12
:103B9300E3BAE1BAE200BAE4BAE5BAE6BAEBBAECE0
:103BA300BAEABAE9BAE7BAE800BAEEBAEDBAEFBAD6
:103BB300F0BAF3BAF1BAF200BAF5BAF4BAF6BBA1A5
:103BC300BAFCBAFABAF8BAFEBAF9BAF7BAFDBAFB4E
:103BD300BBA2BBA3BBA5BBA7BBA4BBA600BBA8BB87
:103BE300AABBA9BBACBBABBBAFBBAEBBADBBB00051
:103BF300BBB3BBB2BBB4BBB1BBB500BBB6BBB9BBFC
:103C0300B7BBB8BBBABBC3BBC2BBBDBBBBBBC1BBF2
:103C1300BCBBC0BBBEBBBF00BBC4BBC5BBCABBCB6D
:103C2300BBC6BBCCBBCDBBC8BBC7BBC9BBD0BBCE64
:103C3300BBD1BBCF00BBD2BBD6BBD3BBD4BBD5BBE5
:103C4300D8BBD7BBDABBDCBBE3BBE1BBE4BBE6BBA6
:103C5300E5BBE2BBDFBBDEBBE0BBDDBBD9BBDB004F
:103C6300BBE8BBE7BBE9BBEBBBEABBEC00BBEDBB13
:103C7300EEBBF0BBEFBBF2BBF5BBF1BBF6BBF3BBDB
:103C8300F400BCA5BBF7BCA2BBF8BBFABCA1BCA6A5
:103C9300BCA3BCA7BBFDBBF9BCA8BCA9BBFBBBFEBB
:103CA300BBFCBCA4BCB0BCAABCB3BCB6BCB4BCAB70
:103CB300BCB1BCB2BCACBCAFBCB5BCADBCAEBCB89B
:103CC300BCBABCB7BCB9BCC6BCC7BCBFBCCDBCCB03
:103CD300BCC9BCBCBCCABCC1BCBEBCC8BCC3BCCCDC
:103CE300BCC5BCC4BCC2BCC0BCBBBCBDBDE500BC88
:103CF300D3BCD0BCD1BCCFBCD2BCCEBCD4BCD5BC55
:103D0300D7BCD6BCD8BCDBBCDDBCDCBCD9BCDEBC00
:103D1300DAD0AE00BCE9BCE2BCE1BCDFBCE4BCE78A
:103D2300BCE8BCE6BCE0BCE3BCEABCE5BCF0BCF36D
:103D3300BCEDBCEBBCF1BCF5BCF4BCECBCEFBCF221
:103D4300BCEEBCFBBCFEBDA8BDA4BDA3BCF6BCFAC7
:103D5300BDA1BDA7BDA2BDA5BDA6BCF9BCF8BCFC59
:103D6300BCFD00BDADBDAABDABBDACBDA9BDAEBD67
:103D7300B2BDB1BDB0BDAFBDB3BDB5BDB400BDBB7C
:103D8300BDBCBDBFBDBDBDBEBDBABDB7BDB9BDB672
:103D9300BDB8BDC7BDC6BDCABDC8BDC3BDC5BDC217
:103DA300BDC1BDCBBDC9BDD0BDCEBDCFBDCCBDD1C9
:103DB300BDCDBEF5BDC000BDD7BDD4BDD3BDD5BD42
:103DC300D2BDD6BDDABDD9BDDCBDE0BDE1BDDDBD33
:103DD300DEBDD8BDDFBDE3BDE2BDE9BDE4BDE6BDEB
:103DE300ECBDE7BDEABDEBBDE800BDEDBDF1BDEF48
:103DF300BDF0BDF2BDEEBDF3BDF6BDF4BDF7BDF53F
:103E0300BEA1BEA2BDFCBDF8BDFABDFEBDFDBDFB9E
:103E1300BDF900BEA9BEADBEA5BEA3BEAABEA7BEC8
:103E2300A6BEACBEA4BEABBEA8BEAEBEB1BEB0BE47
:103E3300AFBEBBBEB6BEB7BEBABEB9BEB4BEB8BED9
:103E4300B3BEB2BEB500BEBCBEBD00BEC0BEBFBE2B
:103E5300BEBEC5BEC3BEC4BEC1BEC2BEC6BEC9BE53
:103E6300CABECCBECEBEC7BEC8BECDBECB00BED3BF
:103E7300BED0BED1BED4BED2BECFBED6BDDBBED5B4
:103E8300BED7BEDABED9BED8BEE4BEDEBEDCBEDF60
:103E9300BEE6BEE3BEE7BEE5BEDDBEE0BEE2BEDB20
:103EA300BEE100BEEABEE8BEE9BEEDBEEBBEEEBEBD
:103EB300EC00BEEFBEF6BEF7BEF1BEF8BEF3BEF237
:103EC300BEF4BEF000BEFCBEFDBEF9BEFBBEFABF33
:103ED300A1BFA4BEFEBFA3BFA5BFA200BFA7BFA62D
:103EE300BFA800BFAABFABBFADBFAEBFAC00BCF79E
:103EF300BFAFBFB1BFB0BFB2BFB3BFB400BFB5BFE9
:103F0300B6BFB7BFB8BFBABFB9BFBB00BFBCBFBDA9
:103F1300BFBEBFBF00BFC0BFC1BFC2BFC6BFC3BF5D
:103F2300C5BFC4BFC7BFC8BFC9BFCABFCBBFCCBF54
:103F3300CDBFCE00BFCFBFD1BFD2BFD000BFD4BF94
:103F4300D300BFD5BFD7BFD6BFD800BFD9BFDABF55
:103F5300DBBFDC00BFDDBFDEBFDFBFE0BFE2BFE32F
:103F6300BFE100BFE4BFE5BFE6BFE8BFE700BFE9CD
:103F7300BFECBFEBBFEA00BFEDBFEE00BFEFBFF08A
:103F8300BFF1BFF6BFF5BFF3BFF2BFF400BFF7BF8A
:103F9300F9BFF8BFFABFFCBFFBBFFDBFFEC0A2C0A5
:103FA300A3C0A100C0A4C0A5C0A6C0A700C0A9C04B
:103FB300A8C0ABC0AA00C0ACC0ADC0B2C0AEC0B058
:103FC300C0AFC0B100C0B4C0B3C0B500C0BCC0B9BD
:103FD300C0B8C0B7C0BBC0B6C0BEC0BDC0BAC0C009
:103FE300C0BFC0C2C0C1C0C3C0C400C0C9C0C7C075
:103FF300C8C0C5C0C6C0CAC0CB00C0CCC0CDC0CE2F
:10400300C0CFC0D0C0D1C0D4C0D3C0D200C0D6C0EE
:10401300D5C1CB00C0D7C0D8C0DDC0DAC0D9C0DCA1
:10402300C0DFC0E1C0E0C0DBC0DE00C0E2C0E3C06F
:10403300E400C0E5C0E6C0EAC0EBC0F2C0E7C0ECF4
:10404300C1A7C0E8C0E9C0F1C0EEC0EFC1A8C0ED90
:10405300C0F0C1A6C0FAC0F7C1A2C0F4C0F6C0FB4D
:10406300C0F8C1A4C0FDC1A5C0FEC0F3C0F5C0F92E
:10407300C1A3C0FCC1A100C1ACC1B1C1AFC1B0C13A
:10408300ABC1AAC1AEC1ADC1B2C1B3C1B7C1B6C1A3
:10409300B5C1B400C1A9C1BCC1B9C1BAC1B8C1BB22
:1040A300C1BDC1C1C1C2C1BEC1C0C1BF00C1CAC1BE
:1040B300C9C1C6C1C4C1C5C1C8C1CEC1C3C1C7C1BD
:1040C300CDC1CFC1CC00C1D0C1D3C1D2C1D4C1D124
:1040D30000C1DAC1D6C1D9C1DCC1D5C1D8C1D7C1EC
:1040E300DBC1DDC1DFC1DEC1E000C1E6C1E9C1EB77
:1040F300C1E1C1E8C1E5C1EAC1E7C1E2C1E3C1E48D
:10410300C1ECC1EEC1ED00C1EFC1F5C1F7C1F4C10E
:10411300F0C1F2C1F3C1F1C1F6C1F8C1F900C1FAAE
:10412300C1FCC1FDC1FBC2A1C1FEC2A4C2A2C2A304
:1041330000C2A6C2A5C2A7C2A8C2AAC2A900C2B68B
:10414300C2ACC2AEC2ABC2AFC2ADC2B1C2B2C2B0E8
:10415300C2B3C2BDC2BCC2B8C2B9C2BBC2B5C2B788
:10416300C2BEC2BAC2B400C2CFC2CDC2CEC2D0C2D6
:10417300D1C2D200C2D3C2D400C2D5C2D8C2D7C220
:10418300D9C2DAC2D6C2DB00C2DEC2DCC2DFC2E001
:10419300C2E1C2E2C2DDC2E3C2E5C2E7C2E6C2E4F3
:1041A30000C2CBC2BFC2C0C2C2C2C3C2C1C2C5C2A7
:1041B300C6C2C4C2C9C2C7C2CAC2CCC2C800C2E84E
:1041C300C2E9C2EDC2EAC2EBC2ECC2EEC2F0C2EF78
:1041D30000C2F1C2F2C2F5C2F3C2F4C2F600C2F9E0
:1041E300C2F8C2F7C2FAC2FCC3A1C2FDC2FEC2FB3F
:1041F30000C3A6C3A2C3A4C3A3C3A7C3A500C3A8E4
:10420300C3ABC3ACC3A9C3AAC3AEC3ADC3AFC3B02F
:10421300C3B3C3B1C3B200C3B400C3BBC3B6C3B556
:10422300C3BCC3B7C3BDC3BAC3B8C3B9C3BFC3C099
:10423300C3BEC3C3C3C1C3C4C3C200C3C5C3C6C310
:10424300C700C3C8C3CBC3CAC3CDC3C9C3CCC3CFC1
:10425300C3CE00C3D6C3D4C3D5C3D1C3D3C3D2C380
:10426300D7C3D0C3DAC3D9C3D8C3DCC3DDC3DB0030
:10427300C3DFC3E0C3DEC3E2C3E3C3E4C3E1C3E517
:10428300C3E600C3E7C3E8C3E9C3EBC3ECC3EAC3B4
:10429300EEC3ED00C3F0C3EF00C3F1C3F3C3F2C336
:1042A300F6C3F5C3F400C3FBC3F7C3F9C3FAC3F8FA
:1042B300C3FC00C3FD00BAD1C3FEC4A1C4A3C4A4FC
:1042C300C4A6C4A5C4A2C4A7C4A8C4A9C4ADC4B089
:1042D300C4AAC4AFC4AEC4ABC4AC00C4B2C4B1C4FA
:1042E300B300C4B8C4B6C4B5C4B7C4B4C4BEC4BFB1
:1042F300C4C1C4BCC4B9C4BBC4C0C4BDC4BAC4C2B1
:1043030000C4C3C4C4C4C7C4C9C4C8C4C6C4C500E4
:10431300C4CBC4CCC4CAC4CEC4CD00C4D0C4CFC4DF
:10432300D100C4D200C4D3C4D5C4D4C4D6C4D70026
:10433300C4D800C4DAC4D900C4DB00C4DC00C4DDC3
:10434300C4E1C4E0C4DFC4DEC4E3C4E2C4E6C4E43D
:10435300C4E7C4E500C4E9C4EAC4EDC4ECC4EBC4D7
:10436300EEC4E800C4EFC4F000C4F1C4F200C4F327
:10437300C4F9C4F4C4F6C4F7C4F8C4F500C4FA001D
:10438300C4FEC5A1C4FCC4FBC4FDC5A200C5A3C52E
:10439300A4C5A6C5A500C5A9C5A8C5A7C5AA00C526
:1043A300ABC5ACC5AD00C5AF00C5B1C5B000C5B2A6
:1043B300C5B5C5B3C5B400C5AE00C5B600C5B7C560
:1043C300B9C5B8C5BBC5BCC5BAC5BD00C5BFC5BEAB
:1043D300C5C0B0D2C5C3C5C1C5C200C5C4C5C7C564
:1043E300C5C5C6C5C9C5C800C5CBC5CAC5CCC5CD1D
:1043F300C5D0C5D1C5CEC5CF00C5D2C5D3C5D4C5DB
:10440300D5C5D600C5D7C5D9C5D8C5DAC5DBC5DC82
:10441300C5DD00C5DEC5DFC5E3C5E0C5E2C5E1C551
:10442300E6C5E5C5E400C5E7C5E800C5EAC5E9C5D5
:10443300EBC5F3C5EDC5EFC5F0C5EEC5F4C5ECC5D9
:10444300F1C5F2C5F5C5F600B1D9C5FAC5F7C5FB87
:10445300C5F8C5FCC5F9C6A4C5FEC6A3C6A1C5FD5E
:10446300C6A2C6A5C6A6C6A8C6A7C6A900C6ACC688
:10447300ABC6AAC6AD00C6AFC6AEC6B0C6B100C60F
:10448300B2C6B300C6B4C6B6C6B5C6B7C6B800C6CC
:10449300B9C6BDC6C0C6BEC6BAC6BBC6C1C6BFC600
:1044A300BC00C6C2C6C3C6C4C6C5C6C8C6C6C6C97E
:1044B300C6C700C6CA00B8ACC6CDC6CBC6CCC6CE2E
:1044C300C6D0C6CFC6D1C6D3C6D4C6D2C6D6C6D525
:1044D300C6D7C6D800C6DFC6E3C6DEC6E2C6E0C698
:1044E300DCC6DDC6DAC6DBC6E1C6EEC6EBC6E4C68D
:1044F300E6C6E7C6EDC6EAC6E9C6E8C6EFC6E5C640
:10450300ECC6F2C6F3C6F1C6F4C6F0C6F8C6FDC6DD
:10451300F9C6FAC6FBC6FCC6F5C6F6C6F700C6FE64
:10452300C7A1C7A200C7A7C7AAC7A4C7A8C7A5C7CB
:10453300A3C7A6C7ABC7A9C7B0C7AEC7AFC7ACC7EA
:10454300B1C7ADC7B3C7B2C7B4C7B7C7B5C7B6C797
:10455300B800C7BAC7BCC7B9C7BBC7BFC7BDC7BE0B
:10456300C7C000C7C4C7C3C7C2C7C1C7C7C7C8C7B7
:10457300C5C7C6C7C9C7CEC7CDC7CFC7CCC7CBC7AB
:10458300CA00C7D0C7D1C7D2C7D3C7D400C7D7C7FC
:10459300D6C7D5C7DBC7D8C7D9C7DDC7DAC7DCC716
:1045A300DEC7DF00C7E0C7E2C7E1C7E3C7E4C7E58B
:1045B300C7E9C7E7C7E8C7E6C7EAC7EBC7EC00C761
:1045C300EEC7ED00C7F0C7F1C7EFC7F4C7F3C7F6EF
:1045D300C7F5C7F200C7F8C7FAC7FDC7FCC7F9C7D5
:1045E300FBC7F7C7FEC8A1C8A2C8A3C8A5C8A40033
:1045F300C8A6C8ABC8A8C8AAC8ADC8ACC8A9C8A72C
:10460300C8AEC8B0C8AF00C8B2C8B1C8B3C8B4C890
:10461300B8C8B7C8B5C8B600C8B9C8BA00C8BBC817
:10462300BCC8BDC8BE00C8BFC8C2C8C0C8C1C8C313
:1046330000C8C4C8C5C8C600C8C7C8C800C8CBC856
:10464300CAC8C9C8CCC8D0C8CFC8CEC8D2C8D1C8B8
:10465300CD00C8D3C8D400C8D500C8D6C8DEC8D7D3
:10466300C8D9C8DDC8DCC8D8C8DBC8DAC8DF00C809
:10467300E1C8E0C8E200C8E7C8E3C8E5C8E6C8E4A3
:10468300C8EAC8E9C8E8C8EBC8EC00C8EEC8ED0042
:10469300C8EFC8F1C8F000C8F2C8F300C8F4C8F501
:1046A30000C8F6C8F7C8F800C8FBC8F9C8FAC8FCC0
:1046B30000C8FDC8FEC9A1C9A200C9A3C9A4C9A550
:1046C30000C9A6C9A7C9A8C9A900C9ABC9ACC9AAC9
:1046D30000C9AD00C9AE00C9B1C9B3C9B4C9B0C935
:1046E300AFC9B5C9B6C9B7CFC300C9B8C9B900C93D
:1046F300BDC9BEC9BCC9C0C9BAC9BFC9C1C9C2C97C
:10470300C7C9BBC9C8C9C6C9C9C9C3C9C5C9C4D52D
:10471300A400C9CBC9CCC9CAC9D1C9CEC9CDC9CFD7
:10472300C9D000C9D3C9D2C9D5C9D4C9D7C9D6C973
:10473300D8C9D9C9DBC9DCC9DA00C9DDC9DEC9E01A
:10474300C9DFC9E1C9E8C9E7C9E4C9E6C9E2C9E5FE
:10475300C9E300C9EAC9ECC9EDC9EBC9F0C9EFC99E
:10476300E9C9EEC9F1C9F2C9F3C9F4C9F6C9F5C972
:10477300F8C9F7CAB200C9FDC9FAC9F9C9FCCAA484
:10478300C9FBC9FECAA1CAA5CAA2CAA300B3D7CA94
:10479300ACCAA7CAA6CAADCAABCAA9CAA8CAAACA7A
:1047A300AECAAFCAB1CAB6CAB5CAB0CAB4CAB3CA26
:1047B300B7CAB8CAB9CABCCABBCABACABFCACFCABF
:1047C300C0CACBCAD0CABECABDCAC2CACCCAC6CA6C
:1047D300D3CAD4CACECAD2CAD1CAC3CAC7CAC1CA23
:1047E300CACAC5CACDCAC8CAC4CAC9CBC600CAD5F3
:1047F300CAD6CAD8CAD7CAD9CADCCADECADBCADA99
:10480300CADD00CAE9CAE3CAE5CAE0CAE2CAE1CA24
:10481300E7CAE8CAE6CAE4CADFCAEBCAEACAECCA0C
:10482300EECAF2CAF0CAF3CAF1CAEDCAEFCAF5CAB0
:10483300F9CAF8CAF6CAF7CAFACBA1CAFCCAFDCAB2
:10484300FBCAFECAF400CBA2CBA300CBA5CBA4CB5F
:10485300A6CBA700CBA9CBA800CBABCBAACBAC00F4
:10486300CBADCBAECBB0CBAF00CBB1CBB3CBB4CB1B
:10487300B200CBB5CBB8CBB7CBB600CBBFCBBECB9F
:10488300BDCBBCCBB9CBBBCBBACBC0CBC8CBC4CBDA
:10489300C2CBC5CBC7CBC3CBC100CBC9CBCBCBCA58
:1048A300CBCFCBCECBD0CBCDCBCC00CBD4CBD1CB02
:1048B300D2CBD300CBD5CBD6CBD7CBDFCBE0CBD8AA
:1048C300CBD9CBDACBDCCBDDCBDB00CBE1CBE2CB83
:1048D300E300CBE4CBE7CBE5CBE6CBE8CBEACBEE0F
:1048E300CBECCBE9CBEDCBEB00CBEFCBF0CBF100BB
:1048F300CBF4CBF3CBF2CBF5CBF9CBF7CBF6CBF8B1
:1049030000CBFDCBFBCBFCCBFACBFECCA1CCA2CC1A
:10491300A4CCA300CCA5CCA8CCA7CCA6CCABCCADC7
:10492300CCACCCA9CCAA00CCAECCB0CCAFCCB2CC66
:10493300B1CCB3CCB8CCB5CCB7CCB6CCB4CCB9CC69
:10494300BBCCBACCBECCBFCCBDCCBC00CCC0CCC6DF
:10495300CCC3CCC4CCC1CCC2CCC5CCC7CCC8CCCACC
:10496300CCC9CCCCCCCB00CCCECCD0CCCDCCCFCC4A
:10497300D3CCD2CCD5CCD4CCD1CCD6CCD700CCD8FC
:1049830000CCDBCCDACCDCCCD900CCDECCDDCCE08B
:10499300CCDFCCE4CCE1CCE2CCE3CCE5CCEBCCEA91
:1049A300CCE9CCE8CCE6CCE700CCECCCEDCCEFCC3E
:1049B300F1CCF0CCEECCF3CCF200B5F7CCF4CCF5E3
:1049C300CCF6CCF7CCF800CCF9CCFACCFB00CCFC81
:1049D300CDA1CCFDCCFECDA2CDA4CDA5CDA3CDA69E
:1049E300CDA700CDA8CDACCDAECDA9CDADCDAFCDAE
:1049F300AACDABCDB3CDB1CDB0CDB2CDB400CDB595
:104A0300CDB7CDB6CDB800CDB9CDBACDBBCDBCCD2C
:104A1300BDCDBFCDBECDC0CDC1CDC2CDC300CDC4F4
:104A2300CDC500CDC6CDC7CDC8CDCBCDC9CDCA0070
:104A3300B6DACDCCCDCDCDCE00CDD0CDCFCDD1CD71
:104A4300D4CDD3CDD5CDD2CDD7CDD6CDD8CDD9001C
:104A5300CDDBCDDECDDACDDDCDDCCDDFCDE000CDE0
:104A6300E1CDE200CDE4CDE5CDE3CDE8CDEACDE681
:104A7300CDE7CDE9CDF0CDECCDEDCDF1CDEFCDEE64
:104A8300CDEBCDF2CDF300CDF4CDF6CDF5CDF8CD14
:104A9300F9CDF7CDFDCDFCCDFACDFB00CEA3CDFEF8
:104AA300CEA2CEA1CEAACEA4CEA7CEA5CEA6CEA868
:104AB300CEA9CEACCEABCEB0CEB1CEB2CEB3CEAD10
:104AC300CEAFCEAECEC0CEB4CEBBCEB6CEB7CEB8C2
:104AD300CEBECEBDCEB9CEBCCEB5CEBFCEBA00CE45
:104AE300C2CEC1CEC4CEC6CEC5CEC3CEC7CEC9CE2E
:104AF300C8CECA00CECCCECBCECD00CECECED0CE7D
:104B0300D1CECFCED2CED6CED4CED5CED300CEDA62
:104B1300CEDBCED8CED7CEDDCEDCCED9CEDECEE345
:104B2300CEE2CEE1CEDFCEE0CEE5CEE7CEE9CEEBF0
:104B3300CEE4CEEACEE6CEE8CEF0CEF1CEECCEEFAA
:104B4300CEF3CEF2CEEECEED00CFA6CFABCEF7CEE8
:104B5300FCCFA3CEF4CEF6CEF9CFA2CEFECFA4CF18
:104B6300A7CFA9CEF8CEFACFACCFA1CFAACEFDCF97
:104B7300A8CEF5CEFBCFA5CFB0CFAFCFAECFB1CFC1
:104B8300ADCFB4CFB2CFB7CFB5CFB8CFB600CFBAD2
:104B9300CFB9CFBBCFC0CFBFCFC1CFBECFBDCFBCAF
:104BA300CFC2CFC5CFC400CFB3CFC9CFC8CFCBCF30
:104BB300C6CFC7CFCACFD0CFD2CFCDCFCCCFD1CF17
:104BC300CFCFCECFD3CFD4CFD5CFD8CFD6CFDFCFC4
:104BD300DECFDCCFDDCFDACFDBCFD7CFD900CFE746
:104BE300CFE0CFE3CFE1CFE6CFE4CFE5CFE2CFEA2B
:104BF300CFE9CFE8CFEDCFECCFEBCFF2CFEFCFEED6
:104C0300CFF3CFF1CFF000CFFCCFFBCFF4CFF5CF75
:104C1300FACFF6CFF9CFFDD0A1CFFED0A2D0A4CF4B
:104C2300F8D0A7D0A3D0A6D0A500D0A9D0A8D0AA49
:104C3300D0ABD0ADD0B0D0B2D0B1D0B3D0AFD0AC78
:104C4300D0B4D0B9D0BAD0B6D0BCD0B5D0BBD0B820
:104C5300D0B700D0C4D0C3D0BED0C1D0C0D0BFD095
:104C6300C2D0BDD0C5D0C600D0CBD0C7D0CAD0C962
:104C7300D0C8D0CCD0CFD0CED0CDD0D1D0D3D0D53A
:104C8300D0D2D0D400D0D7D0D6D0D9D0DAD0D8D0C3
:104C9300DBD0DC00CBDED0DDD0DED0DFD0E0D0E374
:104CA300D0E5D0E4D0E2D0E100D0E7D0EBD0E9D03A
:104CB300EAD0E8D0E6D0ECD0EDD0F1D0F2D0F0D00D
:104CC300F4D0F7D0F8D0EFD0F6D0F5D0EED3F5008E
:104CD300D0F9D0FBD0FAD0FED0FCD0FDD1A1D1A227
:104CE300D1A4D1A300CFF7D1A5D1A6D1A8D1A7D163
:104CF300A9D1AA00D1ABD1ACD1B0D1B2D1AED1B18F
:104D0300D1AFD1ADD1B5D1B6D1B4D1B8D1B7D1B37B
:104D130000D1BED1B9D1BDD1BAD1BBD1BCD1C0D1E3
:104D2300BFD1C1D1C2D1C4D1C3D1C6D1C5D1C7D1DD
:104D3300C800D1CAD1CCD1CDD1C9D1CBD1D3D1CF58
:104D4300D1D4D1D2D1D8D1D7D1D0D1CED1D6D1D13E
:104D5300D1D5D1D9D1DCD1DAD1DBD1DDD1E1D1E5E6
:104D6300D1E2D1E4D1E7D1DED1E9D1E8D1DFD1E697
:104D7300D1E3D1E000D1EBD1EAD1EDD1ECD1EFD148
:104D8300F2D1F4D1EED1F0D1F1D1F3D1F6D1F8D102
:104D9300F5D1F7D1F9D1FA00BDC4D1FDD1FCD1FBD6
:104DA300D2A2D2A6D2A4D2A5D2A1D2A3D1FED2A7F7
:104DB300D2A8D2A9D2AAD2ABD4BF00D2ACD2ADD2A0
:104DC300AFD2AED2B2D2B1D2B0D2B5D2B6D2B7D2BE
:104DD300B3D2B9D2B4D2BAD2B800D2BBD2C1D2C242
:104DE300D2BDD2C0D2BFD2BCD2BED2C7D2C4D2CA25
:104DF300D2CBD2CCD2C8D2C6D2C5D2C3D2C9D2CDDD
:104E0300D2D2D2D1D2D4D2D3D2CFD2D0D2CED2E573
:104E1300D2DAD2E4D2D5D2E9D2E0D2D9D2ECD2DB03
:104E2300D2D6D2EBD2D8D2D7D2EFD2E8D2DFD2E6E3
:104E3300D2EAD2EED2DDD2E2D2E7D2DED2E1D2E3BF
:104E4300D2EDD2DC00D2F2D2F5D2F6D2F0D2F1D248
:104E5300F4D2F3D2F7D2FAD2F9D2F8D2FCD2FDD2FD
:104E6300FBD2FED3A100D3A6D3A2D3A4D3A7D3A3AB
:104E7300D3A5D3ADD3AFD3ABD3A8D3A9D3AAD3AC44
:104E8300D3AED3B1D3B0D3B3D3B200D3B400D3B67C
:104E9300D3B5D3B8D3B9D3BAD3B7D3C0D3BDD3BEA5
:104EA300D3C2D3BFD3C1D3BCD3BBD3C300D3C5D326
:104EB300C7D3C4D3C6D3C8D3C9D3CCD3CAD3CDD312
:104EC300CBD3CED3D1D3D0D3CFD3D6D3D2D3D7D3BF
:104ED300D3D3D5D3D400D3D8D3D9D3E5D3DAD3E836
:104EE300D3E0D3DBD3E3D3E1D3E9D3E6D3E7D3E40E
:104EF300D3E2D3DED3DCD3DDD3DFD3EBD3EED3ECFA
:104F0300D3F0D3EAD3EDD3EFD3F1D4A6D3F3D3FDC8
:104F1300D3F4D3FCD3F8D4A1D4A4D3F2D3FBD3F7E3
:104F2300D4A2D3F9D4A3D3F6D3FAD3FED4A500D411
:104F3300A9D4A7D4A8D4AAD4B1D4B0D4ABD4ADD473
:104F4300B2D4ACD4AED4B5D4B4D4B3D4AFD4B6D431
:104F5300B7D4B9D4BAD4B800D4BBD4BCD4C2D4C0A7
:104F6300D4C3D4C4D4BED4C1D4BD00D4C6D4C8D44D
:104F7300C7D4C5D4CAD4C9D4D0D4CBD4CED4CDD439
:104F8300CFD4CC00D4D1D4D3D4D2D5A600D4D6D4C4
:104F9300D5D4D4D4D7D4D8D4D9D4DAD7D000D4DB89
:104FA300D4DCD4DDD4DE00D4DFD4E0D4E100D4E219
:104FB300D4E3D4E4D4E7D4E6D4E9D4E8D4E5D4EE16
:104FC300D4EDD4ECD4EBD4EFD4EA00D4F2D4F1D4BE
:104FD300F3D4F000D4F400D4F500D4F6D4F7D4F924
:104FE30000D4FBD4FCD4FAD4FDD4FED5A2D5A1D5EC
:104FF300A3D5A7D5A9D5A8D5A5D7F500D5ABD5AA4F
:10500300D5ACB5D4D5ADD5AED5AF00D5B4D5B1D526
:10501300B3D5B2D5B0D5B6D5B9D5B5D5B8D5B7D53D
:10502300BCD5BDD5BBD5BED5C0D5BFD5BA00B3A4FD
:10503300D5C5D5C2D5C3D5C4D5C1D5C7D5C6D5C9A0
:10504300D5CCD5CAD5C8D5CDD5CBD5CFD5CE00D522
:10505300D0D5D1D5D2D5D3D5D9D5D7D5D4D5D5D506
:10506300D6D5D8D7A600D5DAD5DBD5DCD5DDD5DEC8
:10507300D5DFD5E0D5E2D5E3D5E1D7C500D5EAD56F
:10508300EBD5ECD5E4D5E6D5E8D5E5D5E7D5E9D537
:10509300EFD5EDD5EED5F3D5F1D5F2D5F0D6A10008
:1050A300D5F9D5F7D5FAD5F5D5F8D5F6D5F4D5FC98
:1050B300D5FBD5FDD6A4D6A3D5FED6A200D6AED6B3
:1050C300A7D6ADD6A5D6A8D6A6D6AAD6AFD6ABD6E2
:1050D300ACD6A9D6B4D6B6D6B1D6B5D6B0D6B2D696
:1050E300B3D6B9D6BBD6BCD6B7D6BDD6B8D6BAD644
:1050F300C1D6BED6C6D6C4D6CED6CBD6CAD6C5D6CC
:10510300BFD6C8D6C2D6C0D6CCD6CFD6C7D6CDD6B4
:10511300C9D6C300D6D0D6D2D6D5D6D1D6D3D6D437
:10512300D6D7D6D6D6D9D6DAD6D800D6DDD6DBD6DC
:10513300DFD6DCD6DED6E0D6E1D6E2D6E3D6E4D6B9
:10514300E6D6E7D6E5D6E800D6ECD6EFD6EAD6E93A
:10515300D6EED6EDD6EBD6F1D6F2D6F0D6F7D6F418
:10516300D6F3D6F6D6F5D7A1D6FAD7A2D6FCD7A4CE
:10517300D6F9D7A3D6F8D6FBD6FED6FD00D7A50021
:10518300D7A700D7A8D7A9D7AAD7ABD7AD00D7B190
:10519300D7AFD7AED7B0D7B3D7B4B4B1D7B200D7A0
:1051A300B7D7B5D7B6D7B9D7BAD7B800D7BBD7BC57
:1051B30000D7BFD7BED7BDD7C0D7C6D7C2D7C7D7EB
:1051C300C3D7C4D7C100D7CED7C8D7C9D7CBD7CABF
:1051D300D7CDD7CCD7D1D7D3D7CFD7D2D7D6D7D48C
:1051E300D7D500D7DAD7DBD7D8D7D9D7D7D7DCD716
:1051F300DD00D7DED7DFD7E0D7E100D7E2D7E3D7AB
:10520300E4D7E5D7E7D7E8D7E9D7E600D7ACD7EBBC
:10521300D7EA00D7ECD7EED7EFD7ED00D7F0D7F129
:1052230000D7F2D7F3D7F4D7F7D7F8D7F9D7F600E3
:1052330000B5E3513355F8563357F8713359F884B1
:10524300335CF88B335EF89E3360F8C13363F8D276
:105253003366F8F1336AF80A346DF82F3470F84E78
:105263003473F8593455F8663477F895347BF8AECF
:10527300347FF8B73482F8C03485F8CD345CF8E075
:105283003489F809355EF81E3560F8213563F8383E
:105293003566F847356AF852358BF85D3573F8682B
:1052A300358DF86F3590F8883594F88F3598F8A4D4
:1052B300359DF8BD35A1F8D235A4F8DF35A8F8F44B
:1052C30035ADF81336B0F83236B5F83D36B9F85681
:1052D30036BCF87936C1F87C36C6F88B36CCF896EE
:1052E30036D0F8A136D4F8B03655F8B336D8F8CC62
:1052F30036DCF8D93689F8DC36DFF8E536E3F8EC46
:1053030036E6F8FD36E9F804375EF8113760F81E23
:105313003763F8373766F856376AF861378BF87AA8
:105323003773F8813755F8903777F8B5377BF8D668
:10533300377FF8E73785F8F637ECF80938D8F80CF3
:1053430038DCF8213889F83238DFF84F38E3F85C75
:1053530038E6F86538E9F87638B5E38F3857F8AAB0
:1053630038EFF8AD385EF8BE3863F8CF3866F8F238
:10537300386DF8093970F8223973F841395CF860EF
:1053830039DCF8633989F866395EF8BF3960F8C4E7
:105393003963F8D13966F8E8396AF8FB398BF810C4
:1053A3003A6DF8333A70F8363A73F83B3AD8F84A1C
:1053B3003ADCF8693A89F87C3AF1F8A13AF4F8AEA4
:1053C3003ADFF8B53AF8F8CC3AE3F8D33AE6F8F42A
:1053D3003AE9F8FB3A5EF8083B60F80D3B63F81CCA
:1053E3003B66F8433B6AF84A3B8BF85D3B6DF880BC
:1053F3003B70F8853B73F88E3BD8F8993BDCF8ACEF
:105403003B89F8BB3BF1F8E03BF4F8F33BDFF8FEF4
:105413003BF8F81B3CE3F8383CE6F8633CE9F870EA
:105423003CB5E3335255F8853CFDF8F23C77F81769
:105433003D00F9663D7BF8813D7FF8BA3D82F8ED8A
:105443003D85F8163E05F9493EECF84E3E89F87164
:105453003EDFF8A63E0AF9B53EE6F8C83E5EF8DF41
:105463003E60F8E63E63F8F13E66F8003F6AF80FE7
:105473003F8BF8183F70F8373F73F8403FD8F84533
:105483003FDCF84E3F89F8573FF1F8663FF4F87177
:105493003FDFF87A3FF8F87F3FE3F8903FE6F8A75D
:1054A3003FE9F8B03F5EF8B93F60F8C83F63F8CF13
:1054B3003F66F8EE3F6AF8FD3F8BF810406DF81732
:1054C3004073F82E4055F8354077F87A4000F99745
:1054D300407BF8B0407FF8C94082F8D44085F8EDAE
:1054E30040ECF80A41D8F82141DCF8344189F8410D
:1054F30041DFF86A410AF97741E6F87C41E9F88B24
:10550300410DF9A4415EF8C14160F8D44163F8E16B
:105513004166F8F4416AF801428BF81A426DF81DAE
:105523004270F83E4273F8454255F8564277F87395
:10553300427BF886427FF8974282F89C4285F8A91D
:1055430042ECF8B6425CF8B942DCF8DE4289F8E591
:10555300425EF8044360F8134363F81E4366F8257C
:10556300436AF828438BF833436DF8364370F83BAE
:105573004373F83E4355F8414377F8584300F967BE
:10558300437BF86C437FF8714382F8804385F8834B
:1055930043ECF89043D8F8994389F8A243DFF8A97C
:1055A300430AF9AC43E9F8B1430DF9BA43B5E3BD96
:1055B3004389F8C0435EF8CF4360F8DE4363F8EBFA
:1055C3004366F8FC436AF807446DF8164470F829FB
:1055D3004473F82E4455F84B4477F870447BF879BC
:1055E300447FF8824482F8874485F892445CF8A5A6
:1055F30044DCF8B64489F8B94455F8D844FDF82199
:105603004577F8284500F955457BF866457FF885C9
:105613004582F8904585F8A74505F9C245ECF8C7DA
:105623004589F8D845DFF8F3450AF90A46E6F81B39
:105633004663F8204666F829466AF834468BF83BF9
:105643004670F8404673F8554655F85A46D8F85D03
:1056530046DCF8724689F87946DFF88E46E3F8931C
:1056630046E6F89A46E9F89F465EF8A44660F8AB2A
:105673004663F8B44666F8BD466AF8C4468BF8CD6F
:105683004670F8D44673F8D7468DF8DA4690F8EDAD
:105693004694F8F24698F815479DF82647A1F83D39
:1056A30047A4F85647A8F87947ADF89047B5F8F1FD
:1056B30047B9F806480FF94948BCF84E48C1F857AE
:1056C30048C6F85C48CCF86348D0F86C48D4F87501
:1056D3004855F87E48D8F89D48DCF8AE4889F8B7B5
:1056E30048DFF8CE48E3F8D548E6F8EC48E9F8F3A4
:1056F300485EF8044960F8174963F82A4966F84F89
:10570300496AF86A498BF8814973F8844955F88DD9
:105713004977F8AC497BF8BD497FF8CA4985F8D188
:1057230049D8F8E649DCF8014A89F80A4ADFF82142
:105733004AE3F8264AE6F8334AE9F83C4AB5E33344
:1057430052B5E333525EF8534A60F8624A63F8672E
:105753004A66F88A4A6DF89F4A70F8E24A73F8F786
:105763004A5CF8FE4A89F8114B55F84C4BFDF89109
:105773004B77F8AA4B00F9E14B7BF80A4C7FF82DE5
:105783004C82F8564C85F86B4C05F9884CECF8972D
:105793004C89F8AC4CDFF8D34C0AF9E84CE6F8F73F
:1057A3004C5EF8144D63F8354D66F8784D6AF89BF6
:1057B3004D8BF8BE4D55F8DD4D82F8484E85F8699E
:1057C3004E5CF88E4ED8F8914EDCF8B04E89F8D97D
:1057D3004EDFF8324F0AF95B4FE6F86E4F5EF887FB
:1057E3004F60F8904F63F8A14F66F8AA4F6AF8B17B
:1057F3004F8BF8CE4F6DF8D74F70F8DA4F73F8DD53
:105803004F8DF8E44F90F8FF4F94F80E5098F8310D
:10581300509DF85250A1F86950A4F88050A8F8A3FD
:1058230050ADF8C050B0F81751B5F82E51B9F84B38
:10583300510FF98051BCF88351C1F88651C6F891D4
:1058430051CCF8A251D0F8AF51D4F8B45155F8C99E
:1058530051D8F8E651DCF8F55189F8FE51DFF80F1D
:1058630052E3F81652E6F81F52E9F82452B5E3332F
:10587300522C2E212228293B3A252B2D2F230000A1
:105883000000000000000000000001000000000014
:105893000000E21E00000200000000000000E81EFD
:1058A30000000300000000000000EE1E00000400E2
:1058B30000000000000000000000050000000000E0
:1058C3000000F41EFA1E0600000000000000001F86
:1058D300061F07000000000000000C1F121F080035
:1058E300000000000000181F1E1F09000000000038
:1058F3000000241F2A1F0A00000000000000361FBA
:105903003C1F0B00000000000000000000000C0022
:10591300000000000000421F00000D000000000016
:1059230000000000301F0E00000000000000000017
:1059330000000F0000000000000000000000100045
:10594300000000000000481F541F11000000000069
:1059530000005A1F601F12000000000000005A1FC1
:10596300661F130000000000000000000000140088
:10597300000000000000721F00001500000000007E
:105983000000781F7E1F16000000000000000000CA
:1059930000001700000000000000000000001800D5
:1059A3000000000000008C1D921D19000000000083
:1059B3000000741D7A1D1A00000000000000801D05
:1059C300861D1B00000000000000841F8A1F1C00AE
:1059D300000000000000901F961FCBFAD2FAD9FAFC
:1059E300E2FAE7FAF0FAFBFA04FB0DFB18FB25FBDE
:1059F3002EFB37FB3EFB45FB4EFB57FB60FB45FB9A
:105A03004EFB57FB69FB6EFB77FB82FB8BFB94FB27
:105A130097FB9CFBA1FBA6FBABFBB4FBBDFBC4FB51
:105A230094FBCEFBD1FBD6FBDBFBE0FBD6FBE5FB1C
:105A33001EEEFB1C1F05DD59CC1FFC1F1FCBFA1EDE
:105A430024000000DE1FE41F20D2FA1E2802F559AD
:105A5300CC1FD81F21D9FA1E2F04F959CC1FD81FE8
:105A630022E2FA1E3307E7590220082023E7FA1E31
:105A73000005195ADA20E02024CBFA1F2503275A00
:105A8300CC1FAA2025CBFA2400000000B020B620AA
:105A930026CBFA2400000000BC20C22027CBFA2426
:105AA30000000000000000002837FB200000000079
:105AB3003E204420293EFB202B000000562062207C
:105AC3002A000028000000007A2080202BD2FA2828
:105AD3002C032D5A68206E202C00002800000000A3
:105AE30086208C202D0000280000000092209820A2
:105AF3002E000028000000009E20A4202F45FB213B
:105B030000000000EA1FF01F304EFB2100000000E0
:105B1300EA1FF01F3157FB2100000000EA1FF01FAE
:105B23003260FB210003015ACC1FF61F33F0FA2227
