:020000040800F2
:1000000048390020292D0008312D0008332D000823
:10001000352D0008372D0008392D0008000000009C
:100020000000000000000000000000003B2D000860
:100030003D2D0008000000003F2D0008D1350008CC
:10004000432D0008432D0008432D0008113E0008F1
:10005000432D0008432D0008F93200080F33000833
:10006000432D00082D330008432D0008432D0008C0
:10007000432D0008432D0008432D0008432D0008A0
:10008000432D0008432D0008432D0008432D000890
:10009000432D0008432D0008432D00084B33000872
:1000A000432D0008432D0008432D0008432D000870
:1000B000432D0008432D0008432D0008432D000860
:1000C000432D0008432D0008432D0008432D000850
:1000D000432D00083B710008432D0008432D000804
:1000E000432D0008432D0008432D0008432D000830
:1000F000432D0008DFF80CD009F056FB00480047FC
:100100001103000848390020EFF3108072B67047E1
:1001100080F3108870470000704710B500BF08F0EA
:10012000ADFA01215E4805F02FF80128F7D010BD87
:100130002DE9F041002700F02DF9054600F0A8FA5E
:10014000044615F4803F2DD008F048FC207878B99B
:1001500008F09EFF0A2190FBF1F201FB1200C7B2EA
:10016000002F02DD384603F068FE00F0FDFC19E0C8
:10017000207802280DD108F08BFF0A2190FBF1F2C4
:1001800001FB1200C7B200F0EFFC002008F056FCA3
:1001900008E02078012805D1022000F02EF9022085
:1001A00000F014F915F0020F13D001F0F1F902205C
:1001B00000F023F9A07F05280BD1227894F91E10B6
:1001C00038A008F066FE2678304601F08CFB00204F
:1001D000A07715F4801F05D000F056FB4FF4801077
:1001E00000F00BF915F4805F06D001F08AFB0820BF
:1001F0006070400200F001F9BDE8F08110B5002008
:1002000008F0E8F9052008F0CBF9052140F6411087
:1002100008F044F910BD70B5002500F039FA044625
:10022000207858B94FF4803000F0D0F84FF47A7548
:1002300029464FF4803000F035F916E02078022886
:1002400009D1C00300F0C2F8642529464FF480307C
:1002500000F028F909E04FF4803000F0B7F84FF4CF
:100260007A714FF4805000F01DF970BD18A008F0AD
:1002700010FE0224204601F036FB062001218140B9
:1002800042094FF0E02303EB8202C2F8001100BFE5
:1002900005E003F099F900F085F9FFF749FFF8E769
:1002A000000402404C6F7374506F6C6C5061636B50
:1002B000436F756E74203D2025642054646F61493E
:1002C0006E73744D6F6465203D2025640A00000044
:1002D0000A2F2A2A2A2A2A2A2A2A2A2A2A2A2A2A99
:1002E0002A2A2A2A2A2A2A2A206D61696E207374F2
:1002F000617274202A2A2A2A2A2A2A2A2A2A2A2A9F
:100300002A2A2A2A2A2A2A2A2A2A2F0A0000000010
:1003100010B508F089FD062001218140064A4309F5
:1003200042F8231000BF02F04FFE03F057F9FFF729
:100330009DFF002010BD000080E100E0014600208C
:1003400006E0012282400A4200D003E0421CD0B203
:100350002028F6DB00BF704770B5044624B1E043A7
:10036000401C2040A04201D0002070BDFFF7CCFE11
:100370000646C2480068044206D0C0480068604093
:10038000BE490860012500E000253046FFF7C0FEA9
:100390002846EAE770B5FFF7B7FE0546B748046898
:1003A0000020B64908602846FFF7B2FE204670BD1F
:1003B00010B54FF4C071B24808F095FE0020B14965
:1003C0000860AE490860B049087010BD70B50446B9
:1003D00024B1E043401C2040A04201D0002070BD69
:1003E000FFF792FE0546A54800682043A349086030
:1003F0002846FFF78DFE0120F1E770B5044624B1D1
:10040000E043401C2040A04201D0002070BDFFF717
:100410007BFE054699480068A04398490860284635
:10042000FFF776FE0120F1E72DE9F04105460E4683
:1004300026B92846FFF7CAFFBDE8F08145B1E84379
:10044000401C2840A84203D16FF00040864201D3EF
:100450000020F1E72846FFF771FF0446202C01DB5E
:100460000020E9E7FFF750FE074604EB440084490B
:1004700001EB8000406820B983480078401C824925
:100480000870002004EB44017D4A42F8210004EB8F
:100490004400114601EB800046603846FFF738FE05
:1004A0000120C9E72DE9F04105460E464DB1E8436C
:1004B000401C2840A84204D11EB16FF00040864283
:1004C00002D30020BDE8F0812846FFF737FF04463D
:1004D000202C01DB0020F5E7FFF716FE074604EBB2
:1004E0004400674901EB8000406880B966480078A5
:1004F000401C65490870002004EB4401604A42F842
:10050000210004EB4400114601EB8000466004EB3F
:1005100044005B4901EB800086605A48006828432C
:10052000584908603846FFF7F3FD0120CAE770B567
:10053000044624B1E043401C2040A04201D00020EA
:1005400070BD2046FFF7FAFE0546202D01DB002096
:10055000F6E7FFF7D9FD064605EB4500484901EBF4
:100560008000406820B148480078401E4649087025
:10057000002005EB4501424A42F8210005EB450108
:1005800002EB810148603F480068A0433D49086094
:100590003A480068A043394908603046FFF7B8FD83
:1005A0000120CDE72DE9F0414FF0FF3037490860D9
:1005B0003248006808B10020086003F019F80546C9
:1005C000002651E006EB46002D4901EB8004FFF7C1
:1005D0009BFD8046606818B94046FFF799FD41E0F1
:1005E000206810B960682844206020682F1A6FF0D6
:1005F0000040874222D20020244908600120B040F8
:100600001E49096808431D4908600120B0401D4982
:100610000968084203D0A068284420601EE000203A
:100620002060606018480078002803DD16480078D4
:10063000401E00E00020144908700FE013480068D5
:1006400060B12068401B11490968884202D90F48EF
:10065000006801E02068401B0C4908604046FFF735
:1006600057FD00BF701CC6B2202EABDBBDE8F08189
:1006700010B5FFF797FF0548006810BD080000207F
:100680003806002004000020100000200C0000208C
:10069000FA487047FA487047FA4870477047FA4876
:1006A0007047FA487047FA4870477047704770477C
:1006B0002DE9F04786B0054600274FF00308BA46FB
:1006C0000020049005900390029081460026FFF7D9
:1006D000DFFF04462878022836D16888052801D132
:1006E000052701E0022700BF00BF022F2CD104A87C
:1006F00007F0C0FB9DF810009DF8111000EB0120E1
:100700009DF8121000EB01409DF8131000EB0166FC
:100710009DF814000021C4E904012069C4E9041013
:10072000D4E90420921940F10000C4E9042068884B
:10073000208608206070A7700220A07669880022B9
:1007400004F1950007F025FB94F89F8094F8A2002F
:100750004FEA002994F8A30048441FFA80F9B4F83E
:100760009C000390B4F89A000290BDF80C0003902E
:10077000BDF8080002909E20005D282803D09E202E
:10078000005D66280AD19E20005D4B460090BDF8B2
:100790000820BDF80C10BFA008F07BFB9E20005D78
:1007A00028280ED1B8F1010F02D0B8F1020F08D1FC
:1007B0000020BD490870BD4908700220FFF706FE01
:1007C00018E007F051FFB948007818B9002008F088
:1007D00035F90CE008F05CFC0A2190FBF1F201FB1A
:1007E0001200143000F0FF0A504608F027F90120EB
:1007F000AD49087006B0BDE8F08770B50024FFF77A
:100800004EFF054600BF08E0C4EBC402291D01EB02
:1008100082001C2108F067FC641C322CF4DB0020F1
:10082000288070BD2DE9F041044600250027B4F86A
:100830004872FFF734FF064694F84E02012801D0B3
:10084000BDE8F081FFF7D9FF002512E0C5EBC50335
:1008500004F1180202EB8301C5EBC503321D02EB64
:1008600083004FF4147208F025FC3088401C30805F
:100870006D1CBD42EADB4FF48050FFF7A7FD204618
:1008800001F040FC00BFDBE770B50025FFF704FF77
:100890000446207B022803D1204601F0FDFF15E02D
:1008A000207B012803D1204601F0C3FF0EE0227B0C
:1008B00061897F4808F0EDFA01207C490870022028
:1008C000FFF79BFD0220FFF781FD70BD002515E0BD
:1008D00005EB850000EB4510764901EB001090F820
:1008E0004E02012808D105EB850101EB4511714A43
:1008F00002EB0110FFF796FF681CC5B2052DE7DB80
:1009000000BFE2E710B50022037813B941F21112DB
:1009100004E00378022B01D141F2111235231A545D
:10092000140A36231C54412380F8323090F83230B8
:1009300009B1202400E00024234380F832308824C9
:1009400033231C5400F132030489A0F83740C488D3
:10095000A0F8394010BDF0B504460E4617461D46B6
:100960003B20075506F10B00E08529462046FFF79E
:10097000C9FF012D02D1022084F82801F0BD70B515
:1009800004460D460026E08D002204F1320107F0F6
:10099000DEF9E08D002107F0EDF92DB146A008F059
:1009A00078FA284607F0B2FF94F8280130B14FA03A
:1009B00008F06FFA41F2883008F069F894F82811CD
:1009C0002943C8B207F0AAFF18B154A008F061FA91
:1009D0000126304670BD10B55621294808F083FB2A
:1009E00010BD2DE9FC4706468846914600240025A7
:1009F000A246FFF74FFE07463078022801D0BDE837
:100A0000FC87C24697F85050002D00DCF7E7AAF1AA
:100A1000010106F13B00455400240FE007EB840080
:100A200090F9020037F82410CDE90010F3882A4627
:100A3000214646A008F02DFA601CC4B2AC42EDDBA2
:100A400029A008F026FA00240AE00AEB840106F146
:100A50003B00084407EB840109680160601CC4B2D4
:100A6000AC42F2DB97F85100142801DBFFF7B3FF2B
:100A700008EB850089F8000000BFC0E7B807002038
:100A800072090020E8080020BC000020C8090020EE
:100A9000F80800202564202D3E20256420256420B0
:100AA0002564200A0000000012000020130000202E
:100AB000C49D0008780B002054646F61496E737404
:100AC00053656E64546167506F6F6C5061636B6502
:100AD00074206477745F73657464656C61796564B0
:100AE00074727874696D65200A00000054646F6147
:100AF000496E737453656E64546167506F6F6C50C8
:100B000061636B6574206477745F73657472787465
:100B1000696D656F7574200A0000000054646F6190
:100B2000496E737453656E64546167506F6F6C5097
:100B300061636B6574206477745F7374617274743D
:100B400078206572726F720A000000005B25645D98
:100B50005B25645D205B25645D5B25645D207273AD
:100B60007369202569200A0038B5FFF791FD044616
:100B70000020009002F039FD0546E078012803D1FD
:100B8000012184F83C1005E0E078022802D102211E
:100B900084F83C106089010A84F83D10A17A84F839
:100BA0003E10A088401CA080A088010A84F83F1055
:100BB000217984F840102179342001554FF6FF70D7
:100BC00020810F2000906A460F212046FFF709FF81
:100BD000002328229DF800102046FFF7BCFE0021CC
:100BE0002046FFF7CCFE38B1A188FEA008F051F9ED
:100BF000A088401EA0800BE02078022802D10820A7
:100C0000607005E0A288E1882B46FDA008F041F95C
:100C1000022007F0EFFD38BD2DE9F0478AB000BF94
:100C2000FFF736FD82460AF5887007F0E4F8BAF857
:100C30001A0108F066FCCDE90601BAF81C0108F0BB
:100C400060FC04460D4622462B462046294608F005
:100C500072FB06460F4600224FF08243DDE9060193
:100C600008F069FB32463B46CDE9000108F0D5FBB0
:100C7000CDE9020108F0FAFF80460022E64B08F0B9
:100C80005AFBE64AE64BCDE9040108F04EFBCDE9FC
:100C90000801DDE9080108F061FC40B28AF81D0096
:100CA0000AB0BDE8F08738B5FFF7F2FC0446DD482E
:100CB0000021016041608160C160FFF7ADFFB4F8C1
:100CC0009C00009094F8A200050294F8A300284428
:100CD00085B2BDF80000D34948810846058194F8E3
:100CE0009F000873CF4AD4E90410C2E90010607F66
:100CF0001146887338BD70B50A4600210023AC2424
:100D0000235C245C82F85040B0F89C40A2F8544028
:100D100000BF0BE002EB81050F2404EB810600F11C
:100D20009E04344424682C604C1CE1B29942F1DBEF
:100D300070BD70B504460D46002694F851605622E9
:100D40002946204608F0B6F9701C84F8510070BDA1
:100D500070B596B006460C4615465821684608F010
:100D6000C2F969463046FFF7C6FF2B21694304EB01
:100D700041006946FFF7DDFF16B070BDF0B597B0D2
:100D800007460C4616460025582101A808F0ABF985
:100D900001A93846FFF7AFFF052E1ADB01250DE04C
:100DA0002B226A4304EB42016A1E2B235A4304EBB5
:100DB0004200562208F07EF9681CC5B2052DEFDB13
:100DC00001A904F5AC70FFF7B4FF012184F8A91163
:100DD0000BE02B21714304EB410001A9FFF7A9FFB0
:100DE00094F8AE01401C84F8AE0117B0F0BD10B508
:100DF00003460C460021FFF756FC0246002111E095
:100E000001EB410032F81000984209D101EB41009A
:100E100002EB40004088A04201D1012010BD05E056
:100E2000481CC1B292F878008842E9DC00BF00207B
:100E3000F4E710B502460021FFF735FC034692F8AF
:100E4000500083F87800002116E032F8210001EB11
:100E5000410423F81400B2F8540001EB410403EB01
:100E60004404608002EB8100807801EB410403EBD5
:100E700044042071481CC1B293F878008842E4DC35
:100E800010BD10B596B000245821684608F02BF923
:100E9000654890F8AE41601E08D42B225043624A48
:100EA00002EB40015622684608F004F94FF4D8716D
:100EB0005D4808F018F9601E0BD4562269465A485E
:100EC00008F0F8F80020584981F85100012081F815
:100ED000AE0116B010BD2DE9F047A8B004460027BA
:100EE00000250026A846AA46FFF7DDFB81467C21A7
:100EF00009A808F0F8F87A22494609A808F0DAF8B3
:100F00009DF89C0008BB94F850008DF89C0000BF31
:100F100017E034F8270007EB470109AA22F811006F
:100F2000B4F8540007EB470102EB4101488004EBA1
:100F30008700807807EB470102EB41010871781CBC
:100F4000C7B29DF89C00B842E3DC002534E10026DE
:100F500027E14FF0000AD0461BE12B20684304EB49
:100F6000400030F8260008EB480109AA32F81110B9
:100F700088427DD108EB480009A901EB400090F9B7
:100F8000040008EB480132F8111008EB480209ABE5
:100F900003EB420252882B236B4304EB430303EB26
:100FA000860393F90230CDE90532CDE907102B20F5
:100FB000684304EB400030F826002B21694304EB22
:100FC0004101B1F854109DF89C20CDE90182CDE992
:100FD00003102B20684304EB400090F85000009071
:100FE00024E0000074646F6120626C696E6B207392
:100FF000656E64206661696C202564200A0000002B
:1010000074646F6120626C696E6B202564202C25EE
:10101000642C2025640A000000002440AE47E17AD9
:1010200014EE5C40E8080020C809002094F8AE21C6
:1010300033462946F9A007F02CFF4FF0010A2B2078
:10104000684304EB400000EB860090F9020008EBD7
:10105000480109AA02EB410191F90410401A002845
:1010600019DD2B20684304EB400000EB860000E014
:1010700011E0807808EB480102EB410108712B2058
:10108000684304EB4000B0F8540008EB480102EB61
:101090004101488082E0BAF1010F75D02B206843EE
:1010A00004EB400000EB8600807800B96DE09DF80D
:1010B0009D00401CC0B28DF89D009DF89C00142836
:1010C0002EDA2B20684304EB400030F826009DF810
:1010D0009C1001EB410109AA22F811002B20684362
:1010E00004EB4000B0F854009DF89C1001EB410166
:1010F00002EB410148802B20684304EB400000EBE9
:10110000860080789DF89C1001EB410102EB4101C3
:1011100008719DF89C00401CC0B28DF89C0033E023
:101120009DF89C0014282FDB012710E0781E00EBAF
:10113000400009A901EB400007EB470109AA02EBB7
:1011400041010A68026089888180781CC7B29DF8D5
:101150009C00B842EADC2B20684304EB400030F8E6
:101160002600ADF896002B20684304EB4000B0F851
:101170005410ADF898102B20684304EB400000EBAE
:10118000860081788DF89A1000BF08F1010000F008
:10119000FF089DF89C0040453FF7DFAE00BF701C84
:1011A000C6B22B20684304EB400090F85000B042D8
:1011B0003FF7CFAE681CC5B294F8AE01A8423FF726
:1011C000C6AE0998C9F80000BDF82800A9F80400C7
:1011D00099F87900052804DBFFF753FE002089F811
:1011E000790028B0BDE8F08710B5044694F8AE0148
:1011F000012803D12046FFF71CFE06E094F8AE015B
:10120000012802DD2046FFF766FE10BD2DE9F84FEC
:10121000064600250027A846A946AA46AB46FFF782
:1012200040FA044696F89FB0B6F89C00009096F8F5
:10123000AC90BBF1020F01D0BDE8F88FB9F1000FFF
:1012400000DCF9E700250EE02B20684304EB4000AA
:10125000B0F85400BDF80010884202D1A8464FF003
:10126000010A681CC5B294F8AE01A842ECDC7B48C8
:101270000078052190FBF1F201FB120098B90025DE
:101280000DE02B20684304EB400090F851102B2018
:10129000684304EB400080F85210681CC5B294F813
:1012A000AE01A842EDDC6D480078401C6B49087027
:1012B000BAF1010F05D1424621463046FFF748FDFD
:1012C00005E094F8AE2121463046FFF757FD002592
:1012D00029E02B20684304EB400090F851102B20AC
:1012E000684304EB400090F85200081A19D1681CBA
:1012F000C7B20DE02B227A4304EB42017A1E2B2366
:101300005A4304EB4200562207F0D4FE781CC7B2C1
:1013100094F8AE01B842EDDC94F8AE01401E84F8BA
:10132000AE01681CC5B294F8AE01A842D1DC2046DB
:10133000FFF75AFF00BF7FE7494800210160416085
:101340008160C1607047F8B5FFF7A2F90446002537
:10135000FFF7F2FFFFF7A0F90546FFF75DFCB4F8D1
:101360009C00009094F8A200060294F8A300304478
:1013700086B2BDF8000068812E8194F89F00287322
:10138000D4E90401C5E90001607FA87394F91D3018
:101390003246BDF8001033A007F07BFD2046FFF772
:1013A00035FFF8BDF0B505460B4614460022002671
:1013B0000027FFF76FF90146002207E031F822000D
:1013C000984201D116460127501CC2B291F8500034
:1013D0009042F3DC91F85100401C81F85100012F3C
:1013E00005D160B201EB860C8CF8020060E091F848
:1013F000500014283CDAA1F8545091F8500021F81C
:10140000203060B291F850C001EB8C0C8CF80200D7
:1014100091F85000401C81F8500049E0693A5B2582
:10142000645D5B25645D205B25645D5B25645D20F8
:101430005B25645D5B25645D205B25645D5B2564E5
:101440005D72737369202569205B25645D5B25648B
:101450005D727373692025690A0000001400002082
:10146000E808002025642025642025690A00000082
:1014700091F8500014281BDB01220AE0501E01EBFA
:10148000800001EB820CDCF800C0C0F800C0501CEA
:10149000C2B291F850009042F0DCA1F85450A1F88B
:1014A0004C304FFA84FC81F84EC0142081F8500073
:1014B000F0BD2DE9F8434FF00008FFF7E9F80446C6
:1014C00094F89F7094F8A000060294F8A1003044AC
:1014D00086B2012F03D1A6F50850223801D0BDE80D
:1014E000F883FFF799FBE588B4F89C00009094F925
:1014F0001D804246BDF800102846FFF753FF00BF8D
:10150000EDE710B5FFF7C4F8044641F21110608111
:10151000608906F0E6FCE08806F0EBFC04F132009E
:10152000E188A4F83910002007F088F8012020761F
:1015300007F050F801202076207E07F068F80020A0
:1015400007F0A5FA002007F079FA10BD70B5002564
:10155000FFF79EF80446182006F0AAFC207818B978
:1015600042F22220608104E0207810B941F211108B
:101570006081608906F0B5FC04F13200E188A4F8CE
:101580003910207E07F043F8052007F009F870BDF8
:101590002DE9F041002500260027A846FFF778F83E
:1015A000044625786678A7789E2010F8048016B146
:1015B000082E3DD10FE025B1012D06D0022D07D117
:1015C00000E000BFFFF7C2FF03E0FFF79AFF00E073
:1015D00000BF00BF33E0022F1DD1B8F1280F17D193
:1015E000012D0ED1FFF7AFFE08206070632104F1DA
:1015F000950007F078FD2805FEF7E8FE0020A077AB
:1016000003E0022D01D1FFF754FF1420607000E0C9
:1016100000BF00BF0AE0FDA007F03BFC002007F080
:101620000DFAA07F401C40B2A07700BF00BF06E0CB
:10163000FBA007F02EFC002007F000FA00BF00BF5F
:10164000BDE8F08170B500F073FB00F007FC06F018
:1016500034F904462146F8A007F01BFCFE488442FA
:101660000BD000F005FC06F028F90446FA48844245
:1016700001D0801770BD07F0B2FA00F059FB40F6B8
:10168000070006F020F905462946F4A007F001FC02
:10169000022007F0AFF815B14FF0FF30EAE7012163
:1016A000F64807F02FFA012007F03EFA00F0DBFBC6
:1016B0000020DFE77FB5044600260325C4EBC40005
:1016C000EF49085CEF4981F82000C4EBC400EC4905
:1016D00008444178EB4880F82110C4EBC400E84985
:1016E00008440179E74880F82210C4EBC400E449BB
:1016F00008444179E34880F82310C4EBC400E04972
:101700000844C178DF4880F82410C4EBC400DC49E9
:101710000844C178DB4880F82510C4EBC400D849E0
:1017200008448179D74880F82610C4EBC400D44916
:1017300008448178D34880F82710002180F82810C9
:1017400041F241014185002180F82C1000200090D9
:10175000019002900390CB4B20330FCB8DE80F000C
:101760002946684606F0B0F9C4EBC400C449085CD9
:1017700000EB4000C44911F82000C24981F8FC0088
:101780000A4692F8201092F8210006F049F9064620
:101790000EB1701C0FD1C4EBC400B949085C00EB5A
:1017A0004000B94901EB8000001DB64991F82110B5
:1017B000491E50F82160B549B248C0F800110146F1
:1017C00091F82C0006F0D0FEAE48FC3006F01AF975
:1017D00015F0020F0AD1AB4890F82100401EAC4929
:1017E00031F81000A749A1F8F80016E0A54991F8D2
:1017F000210006F0A4FA4010A249A1F8F80008461A
:10180000B0F8F80048B9084690F82100401EA049F9
:1018100031F810009B49A1F8F8009A49B1F8F80096
:1018200006F013F99749B1F8F80006F004F9954865
:10183000B0F8F81097A007F02CFB7FBD70B50446F8
:1018400003254FF498718F4807F04DFC8D490C70BB
:10185000002048700220887042F21770C880002073
:1018600088800021874A1161516111460877887686
:1018700000211046C1760020114608764877C885B9
:10188000088681F828010CB9012502E0022C00D15C
:10189000022542F222207B494881012C01D14010CF
:1018A00048817849CD708249824806F0D9FE012CE2
:1018B00000D000BF70BD10B57A217F4807F013FC3F
:1018C00010BD10B50446012C08D100F035FCFFF71F
:1018D000D8FAFFF7F0FFFFF72FFD03E0022C01D14C
:1018E000FFF779F810BD10B504462046FFF7A6FFB4
:1018F0000020FFF7DFFE2046FFF7E3FFFEF78BFC3B
:1019000010BD2DE9F04FCDB00024A046A246002620
:101910000025A146A346FEF7C2FE0590059805885E
:10192000002D02DC4DB0BDE8F08F0826C6EBC600E6
:10193000042101EB800B36E00AFB06F01FFA80F968
:101940000AF101001FFA80FA4C464FF0000813E03C
:10195000C4EBC403059A121D02EB8301C8EBC80354
:1019600007AA02EB83001C2207F0A4FB601C84B2D0
:1019700008F101001FFA80F809EB0600A04201DD22
:10198000AC42E5DBABF1040082B206AB0A211F20BA
:1019900001F0B4F9BDF8201000235A4606A801F062
:1019A00075F9A81B85B2B542C6DC05B9BAE70AFBD2
:1019B00006F01FFA80F94C464FF0000815E009EBDD
:1019C0000402C2EBC203059A121D02EB8301C8EBAD
:1019D000C80307AA02EB83001C2207F06BFB601C04
:1019E00084B208F101001FFA80F8AC42E7DBC5EBD6
:1019F000C500042101EB80001FFA80FBABF104005D
:101A000082B206AB0A211F2058E000006F7468659F
:101A1000722044774576656E74547970650A0000CB
:101A20006F746865722054646F61496E7374537487
:101A30006174650A000000007533324465764944DC
:101A4000203D20256420447731303030496E697460
:101A500020313131310A00003001CADE7265737500
:101A60006C74203D20256420447731303030496E3D
:101A7000697420323232320A0000000080D0020045
:101A800018000020B8070020609D0008751F1F7512
:101A9000C09D0008753136416E74656E6E61547874
:101AA00044656C6179203D202564200A0000000017
:101AB000B1060008AB060008F808002001F01EF986
:101AC000BDF8201000235A4606A801F0DFF8FEF703
:101AD00094FEFEF7E8FD0746002415E004EB440001
:101AE00037F81000BDF81C1088420BD104EB4400FD
:101AF00007EB40000179C4EBC40207A800EB8200A9
:101B0000817605E0601C84B297F87800A042E5DC9D
:101B100000BF00242CE0C4EBC40107A800EB810047
:101B2000C088C4EBC40207A901EB820191F91A1025
:101B3000C4EBC40307AA02EB8302527EC4EBC40CBD
:101B400007AB03EB8C035B88CDE90032CDE90210D3
:101B5000C4EBC40107A830F82130C4EBC40100EB8A
:101B600081008288294604A007F093F9601C84B2A2
:101B7000AC42D0DB00BFD5E625642025642C25646B
:101B80002C25642C25642C25692025640A0000007E
:101B90000020704710B500BF0221614804F016FF15
:101BA0000028F9D000215E4804F08CFE002010BD12
:101BB0002DE9F04105460E461746984600241021AF
:101BC000584803F0FBFA00BF0EE0315D544804F0C2
:101BD000C6FE00BF0121524804F0F8FE0028F9D0EB
:101BE0004F4804F0B9FE641CAC42EEDB00240FE069
:101BF00018F804104A4804F0B2FE00BF012148481A
:101C000004F0E4FE0028F9D0454804F0A5FE641C69
:101C1000BC42EDD31021434803F0CEFA0020BDE8CA
:101C2000F0812DE9F04105460E46174698460024FE
:101C300010213C4803F0C2FA00BF0EE0315D384885
:101C400004F08DFE00BF0121354804F0BFFE0028DE
:101C5000F9D0334804F080FE641CAC42EEDB002473
:101C600010E000212E4804F07AFE00BF01212C482C
:101C700004F0ACFE0028F9D0294804F06DFE08F805
:101C80000400641CBC42ECD31021264803F094FAF3
:101C90000020BDE8F0812DE9F04104460F461546CD
:101CA0000026B0462FB14FF400611F4803F084FABC
:101CB0000BE0012C04D1287810F0030F00D0A046CF
:101CC0004FF40061184803F079FA4FF48051164838
:101CD00003F074FA00260EE0A95D144804F03FFEFC
:101CE00000BF0121114804F071FE0028F9D00F480F
:101CF00004F032FE761CA642EED34FF400610A488F
:101D000003F05CFA4FF48051074803F055FAB8F13C
:101D1000000F02D0022001F09CFCBDE8F081000021
:101D20000030014000000240000402400038004042
:101D30001CB54FF48070009001208DF80400032042
:101D40008DF805006946524803F0BCF94FF48071E4
:101D50004F4803F033FA4FF48070009003208DF861
:101D600004008DF805006946494803F0ABF91CBD35
:101D700010B586B00446474804F0E0FC0020ADF8FA
:101D800004004FF48270ADF806000020ADF80800A2
:101D9000ADF80A00ADF80C004FF40070ADF80E007D
:101DA000ADF810400020ADF812000720ADF8140087
:101DB00001A9384804F0E8FC0121364804F082FD0E
:101DC00006B010BD0EB50121080703F065FD012026
:101DD00003F02BFB012003F039FD002003F036FD5A
:101DE000012003F042FC00BF492003F0EBFB002878
:101DF000FAD04FF4803003F005FD012003F022FDFE
:101E000003F0FCFD4FF4801002F04AFC4FF4801008
:101E1000019000208DF8080008208DF809000120AD
:101E20008DF80A0001A802F0CAFB03208DF800001B
:101E300000208DF801008DF8020001208DF80300CC
:101E4000684602F0A6F8002004F078F9002004F0BB
:101E50008AF90121880304F0E5FB0EBD10B51820B6
:101E6000FFF786FF10BD10B50820FFF781FF10BDFA
:101E700010B51021064803F0A1F9012001F0DDFFA3
:101E80001021034803F098F9072001F0D6FF10BD98
:101E900000000240003001400FB430B5DDE90B45D1
:101EA000DDE905321B1BAA4108D3DDE90723A21A8D
:101EB00075EB030202D32046294613E0DDE9053223
:101EC0001B1BAA4104D2DDE90501CDE9054509E066
:101ED000DDE90732E31A75EB020203D2DDE90701FF
:101EE000CDE9074530BC5DF814FB2DE9FF5F88B0F4
:101EF000DDE916BA00BF00BF9DF82C00012802D012
:101F00000CB0BDE8F09FBDF82800BBF80810401ADF
:101F100001287DD1DBF80000069000230698DBF84D
:101F2000041059185841CDE9061006A80BC8099AA3
:101F3000181A62EB0102401E42F1FF02CDE90402D1
:101F40004FF0FF32FF23059907F070F8904699464D
:101F500044464D46FE4800EB4A10806958B9FC489B
:101F600000EB4A10C0E902450021F94A02EB4A128F
:101F700011605160BBE0F64800EB4A10806901280F
:101F800023D1F34800EB4A10D0E90210091BA84105
:101F90000FD2EF4800EB4A11D1E90201EC4A02EB03
:101FA0004A12C2E90401EA4800EB4A10C0E90245BE
:101FB00004E0E74800EB4A10C0E904450021E44A88
:101FC00002EB4A121160516091E0E14800EB4A10C7
:101FD0008069022844DBDE4800EB4A1080696628ED
:101FE0003EDADB4800EB4A13CDE90445D3E904208F
:101FF000D3E9061301AC0BC40092D54800EB4A1C90
:102000009CE80F00FFF748FF06460F46D04800E067
:1020100076E000EB4A108069801EC317CC4901EBC3
:102020004A12D2E900C2A0FB0C1E03FB0CE300FB2A
:10203000023089197841CDE90210C54800EB4A10F9
:102040008069401EC11702460B46CDE90401DDE957
:10205000020106F0EBFFBE4A02EB4A1203C246E061
:10206000BB4800EB4A108069662840D1B84800EBB5
:102070004A11D1E90201201A75EB010037D2B448A8
:1020800000EB4A10D0E90410091BA8412FD2B04838
:1020900000EB4A108069801EC317AD4901EB4A125C
:1020A000D2E900C2A0FB0C1E03FB0CE300FB0230D4
:1020B00009196841CDE90210A54800EB4A10806972
:1020C000401EC11702460B46CDE90401DDE90201BD
:1020D00006F0ACFF9E4A02EB4A1203C29C4800EB9A
:1020E0004A108069401E9A4901EB4A11886198485C
:1020F00000EB4A108069401C954901EB4A11886148
:1021000000BFFDE670B50446002500BF09E0C5EB41
:10211000C50204F1180101EB82001C2106F0E3FF67
:102120006D1C142DF3DB0020E06020616061A4F8D9
:10213000480284F84E0270BD10B5002400BF0BE0C9
:1021400004EB840101EB4411824A02EB01104FF4CD
:10215000147106F0C8FF641C052CF1D310BD2DE9E5
:10216000F05F81460C464FF0000A00BF00BFFEF74B
:102170008FFA8346B4F848A2BAF1000F38D199F823
:102180000C00022834D1256800236168591845EBFA
:1021900003060D467048D0E90010594058400143ED
:1021A00014D1B9F808002189401A01280ED1D9E9C3
:1021B0000010491B60EB06004F1E40F1FF015A1E44
:1021C000FF23384606F032FF63480CC0B4F84A02D9
:1021D000401CA4F84A02B9F80A006081D9F804004A
:1021E0002060D9F800006060B9F80800208175E02F
:1021F000206810B96068002870D099F80C00012898
:102200006CD1BAF1140F69DA00BF6068001CB4F831
:10221000480200F10100A4F84802B9F80A10CAEB1C
:10222000CA0204F1180020F822106189CAEBCA0220
:1022300000EB82004180BBF80610CAEBCA0204F131
:10224000180000EB82008180CAEBCA0204F1180179
:1022500001EB8201D9F804008860CAEBCA0204F1DC
:10226000180101EB8201D9F80000C860B9F8081024
:10227000CAEBCA0204F1180000EB8200C18099F891
:102280000F10CAEBCA0204F1180000EB82000176BD
:1022900099F80D10CAEBCA0204F1180000EB820095
:1022A000417699F80E10CAEBCA0204F1180000EB4F
:1022B00082008176CAEBCA0204F1180000EB8200AA
:1022C00021680161CAEBCA0204F1180000EB820028
:1022D000616841614FF0010084F84E024FF0010047
:1022E0001E490870BDE8F09F2DE9F74F8EB081467A
:1022F0000C464FF0000B00BF00BFFEF7C9F90B9072
:10230000B4F848B2BBF1000F49D199F80C0002288B
:1023100045D120680C9000230C98616859185841E9
:10232000CDE90C100C48D0E9001059405840014349
:1023300023D1B9F808002189401A01281DD1D9E913
:102340000030DDE90C219A1A60EB0100521E07E013
:1023500020170020780B00205800002013000020D8
:1023600040F1FF00CDE908204FF0FF32FF23DDE907
:10237000080106F05BFEFE480CC0B4F84A02401C9F
:10238000A4F84A02B9F80A006081D9F80400206074
:10239000D9F800006060B9F8080020812BE22068BD
:1023A00010B96068002874D099F80C00012870D129
:1023B000BBF1140F6DDA20680C9000230C98616853
:1023C00059185841CDE90C10D9E90030DDE90C125B
:1023D000591A60EB0200491E40F1FF004FF0FF3236
:1023E000FF23CDE908100846099906F01FFE15469F
:1023F0001E46B4F84802401CA4F84802B9F80A1076
:10240000CBEBCB0204F1180020F822106189CBEB52
:10241000CB0200EB820041800B98C188CBEBCB0252
:1024200004F1180000EB82008180CBEBCB0104F1BA
:10243000180000EB81008660CBEBCB0104F11800A3
:1024400000EB8100C560B9F80810CBEBCB0204F1BA
:10245000180000EB8200C18099F80F10CBEBCB0283
:1024600004F1180000EB8200017699F80D10CBEB17
:10247000CB0204F1180000EB8200417699F80E10AF
:10248000CBEBCB0204F1180000EB82008176B2E1C5
:10249000FFE7BBF1010FFADB99F80C000228F6D137
:1024A000B9F80810A182B9F80A10E182D9F804003D
:1024B000E060D9F800002061B4F84A02401CA4F89A
:1024C0004A02B9F808002189401A01287ED1206803
:1024D0000C9000230C98616859185841CDE90C10F4
:1024E000D9E90032DDE90C01B3EB000C62EB01002D
:1024F0004FF0FF311CEB010140F1FF004FF0FF32C4
:10250000FF23CDE908100846099906F08FFD15460E
:102510001E462F46B0464FF0000A84E095491098B9
:1025200001EB4010806914280FDACAEBCA0104F1EC
:10253000180000EB8100C0F81080CAEBCA0104F15A
:10254000180000EB8100476163E08A49109801EBB5
:1025500040104068CAEBCA0204F1180101EB820185
:1025600008618449109801EB40100068CAEBCA0268
:1025700004F1180101EB82014861CAEBCA0104F1C0
:10258000180000EB810080680C900022CAEBCA039F
:1025900004F1180101EB83010C98C96851185041EE
:1025A000CDE90C10DDE90C0106F0B8FFCDE906011C
:1025B0003846414606F0B2FFCDE902016D49109858
:1025C00001EB4010D0E90021104600E037E006F0B2
:1025D000A5FFCDE90001DDE9022306F01EFFCDE9EC
:1025E0000401DDE9062306F0A6FECDE9080106F0A8
:1025F000D4FF05460E46CAEBCA0204F1180000EBF0
:1026000082008660CAEBCA0204F1180101EB820164
:10261000CD600121CAEBCA0204F1180000EB820070
:1026200041760AF1010ADA45FFF678AF012084F815
:102630004E02D4E90412E06884E80700DBE0B9F850
:1026400008002189401A02287DD120680C900023BF
:102650000C98616859185841CDE90C10D9E900323D
:10266000DDE90C01B3EB000C62EB01004FF0FF332E
:102670001CEB030240F1FF00CDE908201A46FF23BE
:10268000DDE9080106F0D2FC15461E462F46B0468D
:102690004FF0000A89E03749109801EB401080693B
:1026A00014280FDACAEBCA0104F1180000EB81000C
:1026B000C0F81080CAEBCA0104F1180000EB8100D9
:1026C000476168E02B49109801EB40104068CAEB65
:1026D000CA0204F1180101EB820108612549109832
:1026E00001EB40100068CAEBCA0204F1180101EBCB
:1026F00082014861CAEBCA0104F1180000EB8100B5
:1027000080680C900022CAEBCA0304F1180101EBA7
:1027100083010C98C96851185041CDE90C10DDE9CE
:102720000C0106F0FBFECDE906013846414606F0F5
:10273000F5FECDE902010F49109801EB4010D0E9F8
:102740000021104600E03CE006F0E8FECDE9000183
:10275000DDE9022306F061FECDE90401DDE906238F
:1027600006F0E9FDCDE9080106F017FF054603E094
:1027700058000020201700200E46CAEBCA0204F1C0
:10278000180000EB82008660CAEBCA0204F118014F
:1027900001EB8201CD600221CAEBCA0204F11800EC
:1027A00000EB820041760AF1010ADA45FFF673AFC9
:1027B000012084F84E02D4E90412E06884E807009E
:1027C00019E0B4F84802401EC0EBC00104F1180043
:1027D00000EB8100C0880090B4F84832A28A2189B9
:1027E00066A006F056FBD4E90412E06884E807000E
:1027F0002046FFF787FC01206549087011B0BDE84D
:10280000F08F10B502460021012000BF0DE001EB62
:10281000810303EB41135F4C04EB03135B89548981
:10282000A34201D1002002E0491C0529EFDB00BFD3
:1028300010BD70B5054600240023D5E900105940AD
:102840005840014327D000BF22E004EB840000EB96
:102850004410504901EB00104089B8B104EB8402E8
:1028600002EB44120B4603EB021251896889FEF712
:10287000BEFA58B104EB840000EB4410454A02EB69
:10288000001122462846FFF72FFD03E0601CC4B26A
:10289000052CDADB00BF70BD2DE9F04107460025AD
:1028A0006C1E00264FF000083846FFF7AAFF00F024
:1028B000FF08B8F1010F35D100BF0BE005EB850033
:1028C00000EB4510334901EB0010408908B92C4654
:1028D00002E06D1C052DF1DB00BF601C01D1BDE8DD
:1028E000F08104EB840101EB44112A4A02EB011050
:1028F0004FF4147106F0F7FB04EB840000EB441076
:10290000244A02EB001122463846FFF7EDFC3889D5
:1029100004EB840101EB44111E4A02EB0111A1F802
:102920004C0228E0B8F1000F22D100260EE006EBA1
:10293000860000EB4610174901EB001040897989A9
:10294000884201D1344603E0701CC6B2052EEEDB8E
:1029500000BF601C00D1C2E704EB840000EB441010
:102960000C4A02EB001122463846FFF7BDFC02E09C
:10297000094806F08EFA00BFB1E70000206E6F74C0
:102980002025642C25642C25642C25640A00000075
:1029900013000020780B0020089E000810B50246A6
:1029A000002000210AE042FA01F303F00103C1F123
:1029B0000704A3400343D8B200BF491C0829F2DB37
:1029C00010BD10B5044600BF0221594803F0FEFFB8
:1029D0000028F9D02146564803F0C1FF00BF01216D
:1029E000534803F0F3FF0028F9D0514803F0B4FF37
:1029F000C0B210BD70B505460C464FF480514D482D
:102A000002F0DCFB4FF480514A4802F0D5FB284627
:102A1000FFF7D7FF2046FFF7D4FF4FF4805145481A
:102A200002F0CCFB70BD10B5CA210020FFF7E2FF19
:102A30002B210120FFF7DEFF00210220FFF7DAFF44
:102A400020210320FFF7D6FF10210420FFF7D2FF3B
:102A500096210520FFF7CEFF96210620FFF7CAFF3B
:102A60002B210720FFF7C6FF00210820FFF7C2FF38
:102A700000210920FFF7BEFF00211020FFF7BAFF59
:102A800000211120FFF7B6FF00211220FFF7B2FF4F
:102A900000211320FFF7AEFF10BD1FB500208DF8F9
:102AA0000C008DF80F004FF40070029002A922482C
:102AB00002F008FB0921002003F0EFFF00208DF851
:102AC000040008208DF8050001208DF80600400262
:102AD0000090684601F073FD1FBD1CB54FF4806087
:102AE000009000208DF804008DF807006946124818
:102AF00002F0E8FA4FF48050009001208DF80400B5
:102B000000208DF8060003208DF8050000208DF8C8
:102B100007006946074802F0D5FA1CBD10B5FFF75B
:102B2000BCFFFFF7DAFFFFF77EFF00F0B0FE10BD3D
:102B300000380040000402400000024070B5044626
:102B40000D46002604B105B970BD00260CE0A15D5C
:102B50006C4804F0D8F900BF40216A4804F083FAB9
:102B60000128F9D1701CC6B2AE42F0DB00BFEBE722
:102B700070B50C460D0A8571C1710025057245724C
:102B80004D2505704125457000BF857825F07005FD
:102B90008570857845F03005857000BF00BF857869
:102BA00025F008058570857845F00805857000BF1B
:102BB00000BF857825F007058570857802F0070647
:102BC0003543857000BF00BF857825F0800585708E
:102BD000857845F08005857000BF012A03D11D0A64
:102BE000057143710BE0484D2D882D0A0571464D46
:102BF0002D784571444D2D886D1C434E358070BD38
:102C000030B54FF6FF740370012545704180848014
:102C1000C28030BD2DE9F05F81460D4617461C4647
:102C2000DDF828B04FF00008C246012F05D02A4633
:102C3000494604F1140006F03DFA032F01D1722534
:102C400002E0012F00D1002505F10A001FFA80F8EB
:102C50004FEA1820A07284F80B80264605F1120175
:102C60004FF6FF72B01C06F0C5F91FFA80FA4FEA62
:102C70001A21344605F114003154401C06F800A016
:102C800008F10C00ABF80000BDE8F09FF0B5D3B040
:102C900005460F4614461E46002052901CB1B4F55E
:102CA000007F00DC4DB900BF2246294617A006F080
:102CB000F0F800BF002053B0F0BD4FF4A07102A89F
:102CC00006F011FA05232246394605A8FFF798FFBA
:102CD0003246214602A8FFF74BFF52A802AB32460C
:102CE000214600902846FFF795FFBDF8481102A83D
:102CF000FFF724FFBDF84801C0B2DCE71870597037
:102D00005A80704700380140600000204275696CAD
:102D100064204661696C6564207062756620255880
:102D2000206C656E25640A00064880470648004707
:102D3000FEE7FEE7FEE7FEE7FEE7FEE7FEE7FEE76B
:102D4000FEE7FEE7ED730008F500000800B589B066
:102D50000121480202F08FFD0220019003208DF82E
:102D6000080000208DF80B0001208DF8090001A952
:102D70004F4802F0A7F91020019001208DF80800BB
:102D800000208DF80A008DF80B0001208DF8090055
:102D900001A9484802F096F903A801F09AF9002029
:102DA00003908DF8100001208DF81100002005908F
:102DB000079001208DF8200003A93F4801F064F935
:102DC0000023012211463C4801F0E7F910213A485E
:102DD00001F0B9F901224FF44031374801F0AAF966
:102DE0000021354801F090F909B000BD10B510215F
:102DF000304802F0E1F9012002F034FC00BF21204C
:102E000002F0E0FB0028FAD001212B4801F07CF908
:102E100000BF4021284801F09FFB0028F9D0264838
:102E200001F067FA00BF0221234801F095FB00285A
:102E3000F9D010BD10B500211F4801F065F9002040
:102E400002F010FC10BD10B5FFF7D0FF1A4801F0DA
:102E50008CFA0446FFF7EEFF204610BD2DE9F0473F
:102E600005460026284606F047FB8146134906F032
:102E700045F98046124906F077F9074606F05AFBF5
:102E800085B200240CE040F28D400F2101FB1400BC
:102E9000A84203DCC4F15400C6B203E0601CC4B213
:102EA000142CF0DB00BF06B942263046BDE8F0879F
:102EB00000000240000402400024014000401C4584
:102EC00000F07F451CB50220009000208DF8040022
:102ED00001208DF8050002208DF807006946494859
:102EE00002F0F0F80121084603F0D7FD00F039FDAB
:102EF0001CBD1CB5022001F0D3FB02200090002075
:102F00008DF8040008208DF8050001208DF80600DA
:102F1000684601F054FB1CBD1CB502200090002047
:102F20008DF8040008208DF8050000208DF80600BB
:102F3000684601F044FB1CBD1FB501200290002033
:102F40008DF80C008DF80F0002A92E4802F0BAF897
:102F50000021012003F0A1FD0120009000208DF848
:102F6000040008208DF8050001208DF80600684651
:102F700001F025FB1FBD08B50F208DF801008DF86D
:102F8000020001208DF8030028208DF8000068461B
:102F900000F0FFFF17208DF80000684600F0F9FFF1
:102FA00009208DF80000684600F0F3FF01208DF83D
:102FB00001008DF802008DF8030007208DF8000055
:102FC000684600F0E6FF08BD10B500F0A0FA00F07A
:102FD000A8FA00F0D3F800F05BF800F06BFB00F00B
:102FE00013F8FFF7B3FEFFF76DFF00F0EDFBFFF7FF
:102FF00095FDFFF7C0FFFFF79FFF00F085FBFEF791
:1030000021FB10BD000402401FB500208DF80C000C
:103010008DF80F000820029002A91C4802F052F817
:103020004020029002A9194802F04CF80321012027
:1030300003F033FD0621012003F02FFD00208DF861
:10304000040008208DF8050001208DF806000820F6
:103050000090684601F0B3FA40200090684601F005
:10306000AEFA1FBD10B500244021084802F08CF8CC
:1030700010B144F0020406E00821044802F084F88C
:1030800008B144F00104204610BD000000040240D5
:1030900000B587B007220221364802F09CF80722CB
:1030A0000321344802F097F826208DF818000120FB
:1030B0008DF8190000208DF81A0001208DF81B00F2
:1030C00006A800F066FF0820049003208DF8150084
:1030D00000208DF814008DF8170004A9254801F090
:1030E000F1FF0420049003208DF8150002208DF8D4
:1030F000140000208DF8160004A91E4801F0E2FF1C
:103100004FF4E13000900020ADF80600ADF8080063
:10311000ADF80400ADF80C000C20ADF80A006946CB
:10312000154803F040FE0121134803F0C1FE402181
:10313000114803F0A5FF07B000BD70B504460D4669
:10314000E1B20D4803F0DFFE00BF40210A4803F062
:103150008AFF0028F9D00A2C0AD10D21064803F075
:10316000D2FE00BF4021044803F07DFF0028F9D0C3
:10317000204670BD00000240004400401CB5012103
:10318000072002F067FB1020009001208DF804005A
:1031900003208DF805006946544801F093FF102183
:1031A000524802F00BF81021504802F005F84FF495
:1031B0008050009001208DF8040003208DF8050058
:1031C00069464A4801F07EFF4FF48051474801F0BC
:1031D000F5FF4FF40040009001208DF8040003201B
:1031E0008DF805006946414801F06CFF4FF400413D
:1031F0003E4801F0E3FF4FF48060009001208DF81D
:10320000040003208DF805006946394801F05AFF93
:103210004FF48061364801F0D1FF4FF480613448AB
:1032200001F0CAFF4FF40050009001208DF8040017
:1032300003208DF8050069462E4801F043FF4FF446
:1032400000512C4801F0B8FF4FF4007000900120AD
:103250008DF8040003208DF805006946244801F02C
:1032600031FF4FF40071224801F0A8FF1CBD1CB5CE
:103270004FF48050009001208DF8040003208DF859
:1032800005006946194801F01DFF4FF480511748A9
:1032900001F092FF1CBD10B54FF48051134801F0AE
:1032A0008DFF10BD10B54FF48051104801F084FF20
:1032B00010BD10B501210D4801F080FF142000F071
:1032C000C8F90121094801F077FF10BD10B54FF48E
:1032D0008051064801F072FF142000F0BAF94FF453
:1032E0008051024801F068FF10BD0000000002405C
:1032F000000402400008024010B5012001F0C5F9A9
:1033000020B1FCF70AFF012001F0CAF910BD10B589
:10331000022001F0BAF940B10120DE490870C00373
:10332000FDF754F8022001F0BBF910BD10B50820DC
:1033300001F0ABF940B10120D64908701020FDF72B
:1033400045F8082001F0ACF910BD10B5402001F09F
:103350009CF940B10120CF4908701020FDF736F8E4
:10336000402001F09DF94FF4007001F08EF930B16A
:103370002020FDF72BF84FF4007001F091F910BDFB
:1033800010B500214FF0006000F039FE4FF4E0600E
:1033900000F0FAFD10BD10B50121084602F05AFAFE
:1033A0000121022002F056FA0121042002F052FA13
:1033B0000121480402F070FA0121880302F05BFA4F
:1033C0000121080302F057FA0121880302F064FA90
:1033D0000121084602F04FFA10BD2DE9F0470546DD
:1033E00000260027B0460024A14601F085FB01F02D
:1033F000B7FD044635B914F0010F0AD000BF4FF0F5
:10340000010906E0012D04D114F0010F01D11026AD
:10341000A946B9F1000F17D014F0020F01D0002710
:1034200000E0202714F0040F02D04FF0000801E064
:103430004FF0400800BF42463946304601F018FDC3
:103440000428F8D101F06EFB01F065FBBDE8F087C0
:10345000704710B501F06DF901F04EFB01F091FDE0
:1034600038B100BFAA2001F039FC0428FAD101F0DC
:1034700059FB10BD10B5012002F0FEF800BF41203D
:1034800002F0A0F80028FAD00120FFF7A6FF45F2CD
:10349000555001F0D3FE062001F0D3FE40F6FF7038
:1034A00001F0D2FE01F0D3FE01F0D6FE10BD7FB5D3
:1034B000684602F02BF94FF47A710198B0FBF1F4F1
:1034C0002146B1F1807F00D31DE021F07F40401EF6
:1034D0004FF0E022506150170F22002807DA13073F
:1034E0001E0E6D4B00F00F052D1F5E5503E01307F8
:1034F0001D0E6A4B1D5400BF00204FF0E02290616A
:103500000720106100BF042000F091FD7FBD10B5C1
:10351000FFF736FFFFF7CBFFFFF7ACFF00F082FCB1
:1035200010BD10B5FFF737FF00F0D3FA10BD1CB582
:1035300000215B4803F0C6F900214FF4805002F0EF
:103540009AF90021574803F0B3FC00214FF40030F2
:1035500002F0A2F901208DF8040003208DF8050087
:1035600000208DF8060002208DF8070001034E4868
:1035700001F024FE4FF400714C4801F01DFE1021B3
:103580004A4801F01BFE1CBD10B50121080302F0E2
:1035900072F90121424803F095F90121480402F033
:1035A0007BF901213F4803F083FC4FF400513E4872
:1035B00001F002FE4FF400713C4801F0FFFD1021C4
:1035C0003A4801F0F9FD10BD10B501F040FE10BD04
:1035D00037480068401C364908607047002034496D
:1035E000086070473249086070473148006870478A
:1035F0002F48006870472E49096801442C4A116021
:1036000070472B4A11684FF0E02252694FF0E023D7
:103610009B69D21A4FF0E0235B69B2FBF3F25018BA
:103620007047234A11684FF0E02252694FF0E023BF
:103630009B69D21A4FF47A735A434FF0E0235B69C7
:10364000B2FBF3F201EB4103C3EBC11302EBC30086
:1036500070472DE9F04104462746FFF7D2FF0646A2
:1036600006E0FFF7CEFF851BBD4201D3BDE8F08128
:10367000F7E72DE9F04104462746FFF7D2FF06465B
:1036800006E0FFF7CEFF851BBD4201D3BDE8F08108
:10369000F7E700000000002018ED00E000E400E083
:1036A0000030014000440040000802400004024095
:1036B000640000201CB54FF40060009001208DF8DC
:1036C000040000208DF8060002208DF8070001207C
:1036D0008DF8050069460B4801F0F4FC4FF40061D9
:1036E000084801F069FD1CBD10B54FF400610548A4
:1036F00001F064FD10BD10B54FF40061014801F008
:103700005BFD10BD0000024000B587B005221146E8
:10371000644801F060FD05220621624801F05BFD6E
:10372000052207215F4801F056FD02208DF80400B4
:1037300000208DF8060002208DF8070003208DF888
:103740000500202000906946564801F0BBFC40204F
:1037500000906946534801F0B5FC8020009069460E
:10376000504801F0AFFC504802F0E8FF0020ADF8EF
:1037700008004FF48270ADF80A000020ADF80C008C
:10378000ADF80E00ADF810004FF40070ADF8120067
:10379000464800684649884203D91820ADF814000D
:1037A00002E01820ADF814000020ADF81600072044
:1037B000ADF8180002A93C4802F0E6FF01213A48A2
:1037C00003F080F807B000BD00B587B005220D21D9
:1037D000384801F000FD05220F21364801F0FBFCBE
:1037E00005220E21334801F0F6FC02208DF804007A
:1037F00000208DF8060002208DF8070003208DF8C8
:1038000005004FF40050009069462A4801F05AFC28
:103810004FF4004000906946264801F053FC4FF4F5
:10382000804000906946234801F04CFC224802F099
:1038300085FF0020ADF808004FF48270ADF80A0053
:103840000020ADF80C00ADF80E00ADF810004FF4FC
:103850000070ADF81200154800681549884203D978
:103860000820ADF8140002E00020ADF8140000209C
:10387000ADF816000720ADF8180002A90E4802F0B6
:1038800083FF01210C4803F01DF807B000BD10B5FF
:103890000021094803F016F800214FF4804001F0A0
:1038A000FBFF10BD000002400030014084000020FA
:1038B00000366E01000402400038004070B5044636
:1038C0000D467C48007808B1FF2070BD2A4621468D
:1038D000382000F06DFA0020F7E710B5044675486F
:1038E000007808B1FF2010BD2146382000F072FAA0
:1038F000C0B2F8E710B52A20FFF7EFFF40F001044F
:1039000021462A20FFF7DAFF10BD10B52A20FFF765
:10391000E4FF044624F0010421462A20FFF7CEFFED
:1039200010BD70B50024002500BF0D21382000F027
:1039300051FAC4B21A2C08D02A2C06D03A2C04D042
:103940002846691CCDB20528EFDB1A2C05D02A2C9D
:1039500003D03A2C01D0012000E000205549087026
:1039600070BD10B5FFF7DDFF5248007800B110BD03
:10397000FFF7CBFF6A222A21382000F019FA1F2214
:103980002B21382000F014FA5A222C21382000F084
:103990000FFA2C222D21382000F00AFA2C222E2199
:1039A000382000F005FAB8221521382000F000FA7E
:1039B00008221721382000F0FBF9032218213820B3
:1039C00000F0F6F91F221D21382000F0F1F9112234
:1039D0001F21382000F0ECF900220E21382000F0E1
:1039E000E7F910220F21382000F0E2F91120FFF74B
:1039F00074FF044644F0400422461121382000F0B0
:103A0000D7F91320FFF769FF044604F03F0400BF15
:103A100044F0400444F0800422461321382000F092
:103A2000C7F91C20FFF759FF044604F0F80400BF53
:103A300044F0010422461321382000F0B9F9142083
:103A4000FFF74BFF044604F0070444F03804224615
:103A50001421382000F0ACF91420FFF73EFF044693
:103A600004F0F80444F0010422461421382000F048
:103A70009FF92D20FFF731FF044644F01004224641
:103A80002D21382000F094F92E20FFF726FF044660
:103A900004F0EF0444F0100422462E21382000F0F8
:103AA00087F905221221382000F082F9FFF722FF62
:103AB00000BF5CE76800002008B5009004E09DF8B6
:103AC0000010491EC9B200919DF800100029F6D1DE
:103AD00008BD1CB54FF48060009001208DF80400F3
:103AE00003208DF8050000208DF8060001208DF8D8
:103AF00007006946C54801F0E5FA4FF40060009000
:103B000001208DF8040003208DF8050000208DF8B9
:103B1000060001208DF807006946BC4801F0D2FA82
:103B20004FF40061B94801F047FB4FF48061B7489A
:103B300001F042FB1CBD1CB54FF40061B34801F01D
:103B40003BFB00BF4FF40060009001208DF80400A3
:103B500003208DF8050000208DF8060001208DF867
:103B600007006946A94801F0ADFA00BF4FF4806133
:103B7000A64801F021FB0120FFF79EFF4FF40061F2
:103B8000A24801F01BFB4FF48061A04801F016FB36
:103B90000120FFF791FF1CBD1CB54FF400619B484D
:103BA00001F00CFB00BF4FF40060009001208DF885
:103BB000040003208DF8050000208DF80600012088
:103BC0008DF807006946914801F07CFA00BF4FF478
:103BD00080618E4801F0F0FA0120FFF76DFF4FF48D
:103BE00000618A4801F0E8FA0120FFF765FF1CBD7B
:103BF0001CB504462CB94FF40061844801F0DEFA8C
:103C000004E04FF40061814801F0D6FA00BF4FF4A0
:103C10000060009001208DF8040003208DF805005D
:103C200000208DF8060001208DF8070069467748CE
:103C300001F048FA00BF4FF48061744801F0BCFA0B
:103C40000120FFF739FF4FF48061704801F0B6FAA8
:103C50000120FFF731FF1CBD7CB5064600BF4FF4C5
:103C60000060009001208DF8040003208DF805000D
:103C700000208DF8060001208DF807006946634892
:103C800001F020FA00BF002421E006FA04F010F051
:103C9000800F05D04FF400615C4801F08DFA04E01C
:103CA0004FF40061594801F089FA4FF48061574898
:103CB00001F082FA0120FFF7FFFE4FF480615348C4
:103CC00001F07CFA0120FFF7F7FE601CC4B2082C5B
:103CD000DBDB4FF400614D4801F06EFA00BF4FF49A
:103CE0000060009000208DF8040003208DF805008E
:103CF00001208DF8060000208DF807006946434832
:103D000001F0E0F900BF4FF48061404801F054FA3F
:103D10000120FFF7D1FE4FF400613C4801F034FA76
:103D2000012801D1002500E001254FF480613748CA
:103D300001F044FA28467CBD7CB5002500BF4FF455
:103D40000060009000208DF8040003208DF805002D
:103D500001208DF8060000208DF8070069462B48E9
:103D600001F0B0F900BF002419E04FF4806127484A
:103D700001F024FA0120FFF79FFE4FF480612348F1
:103D800001F01AFA0120FFF797FE6806050E4FF4BE
:103D900000611E4801F0F8F90543601CC4B2082C0C
:103DA000E3DB4FF48061194801F008FA28467CBD36
:103DB00070B504460D461646FFF7BDFE2046FFF7D8
:103DC0004BFF2846FFF748FF3046FFF745FFFFF758
:103DD000E3FE70BD70B504460D46FFF7ACFE20460D
:103DE000FFF73AFF2846FFF737FFFFF7A4FE44F03E
:103DF0000100FFF731FFFFF79FFF06460020FFF7A6
:103E0000F7FEFFF7C9FE304670BD00000004024017
:103E100010B54FF4801000F043FC4FF4804002F0E6
:103E200078FC10BD10B50121080701F035FD002018
:103E300001F068FAFDF7C6FF10BD70B50546FFF743
:103E4000C3FBE80300094FF47A71B0FBF1F4B4F559
:103E5000803F01D34FF6FF7404B970BD4FF480105A
:103E600000F01EFC4FF4804002F053FC002002F0F2
:103E70008AF9204602F077F9012002F084F9012145
:103E8000084601F02BFB002002F07DF900BF012065
:103E900001F091FB00BF00BF312001F093FB00282F
:103EA000FAD0012001F0F3FB00BF392001F08AFBBA
:103EB0000028FAD0032001F0FAFB00BF01F001FC5A
:103EC0000C28FBD100BFFFF7F2FAFFF77DFB00BF24
:103ED000C3E770B505462C460E2C00DC70BD0E3CC9
:103EE00004F014FAFCF718F9FFF721FB44F6206000
:103EF000844218DD06E044F62060FFF79EFFA4F53B
:103F00009C44203C44F62060844203DB1B4800783C
:103F10000028F0D00E2C09DD1848007830B9204672
:103F2000FFF78BFF02E02046FFF787FFFFF72CFB30
:103F300004F10E00FFF75FFB00BFCFE710B50446AA
:103F40002046FFF77AFF10BDFCF7DEF800BFBFF395
:103F50004F8F0B48006800F4E0600A490843001DD9
:103F600007490860BFF34F8F00BF00BFFEE710B5E1
:103F700004462046FFF7ADFF10BD00000000002002
:103F80000CED00E00000FA0533490143334A1160AB
:103F9000704770B5002100230F22C47824B32F4C42
:103FA000246804F4E064C4F5E064C4F30721C1F1BB
:103FB0000404E3B20A4144789C40E1B2847814409E
:103FC00021430C07210E264C05786155047804F036
:103FD0001F050124AC4005786D114FF0E02606EB7B
:103FE0008505C5F8004109E0047804F01F040125A7
:103FF000A5401C4C0678761144F8265070BD1A4A2C
:104000000A400243154B1B1F1A60704739B1134A0F
:10401000121D12680243114B1B1D1A6006E00F4A65
:10402000121D126882430D4B1B1D1A607047042835
:1040300008D14FF0E021096941F004014FF0E0227E
:10404000116107E04FF0E021096921F004014FF010
:10405000E0221161704700000000FA050CED00E05D
:1040600000E400E080E100E080FFFF1F10B504469F
:10407000FE48844207D10121401501F02FFC0021A8
:10408000601501F02BFC10BD30B502460020002366
:104090005068F74C20400D790C6844EA0524204311
:1040A00050609068F34C2040D1E903542C438D6854
:1040B0002C434D7944EA450420439060106B20F076
:1040C000F8700C7D641EE4B2234340EA0350106391
:1040D00030BD002101600171417181604FF040717C
:1040E000C160002101610121017570470146002076
:1040F000E14A106820F440300A681043DE4A10603C
:10410000704700210160704721B1826842F00102CE
:10411000826003E0826822F001028260704721B170
:10412000826842F00402826003E0826822F00402A6
:10413000826070471AB143680B43436002E04368F2
:104140008B43436070470A460021816821F0F001EB
:104150001143816070470A4600214168C74B1940EE
:104160001143416070478162C26270470A46002174
:10417000416821F01F0111434160704730B1BE49D1
:10418000096841F40001BC4A116005E0BA490968B8
:1041900021F40001B84A11607047F0B504460D469D
:1041A000002000211D2D11DDE06DA5F11E0606EB9E
:1041B0004607072606FA07F18843A5F11E0606EB17
:1041C000460603FA06F10843E06534E0132D11DDDD
:1041D000E068A5F1140606EB4607072606FA07F184
:1041E0008843A5F1140606EB460603FA06F10843D8
:1041F000E06020E0092D11DD2069A5F10A0606EB3B
:104200004607072606FA07F18843A5F10A0606EBDA
:10421000460603FA06F1084320610CE0606905EBED
:104220004507072606FA07F1884305EB450603FA1A
:1042300006F108436061072A0FDA206C561E06EB70
:1042400086071F2606FA07F18843561E06EB8606E8
:1042500005FA06F1084320644AE00D2A0FDAE06B04
:10426000D61F06EB86071F2606FA07F18843D61FDE
:1042700006EB860605FA06F10843E06338E0132AE8
:1042800011DAA06BA2F10D0606EB86071F2606FACF
:1042900007F18843A2F10D0606EB860605FA06F142
:1042A0000843A06324E0192A11DA606BA2F1130617
:1042B00006EB86071F2606FA07F18843A2F11306CC
:1042C00006EB860605FA06F10843606310E0206BF2
:1042D000A2F1190606EB86071F2606FA07F18843A6
:1042E000A2F1190606EB860605FA06F108432063DB
:1042F000F0BD816841F08041816070470146002037
:104300008A6812F0804F01D0012000E00020704741
:1043100021B1826842F48062826003E0826822F404
:1043200080628260704721B1826842F0020282603E
:1043300003E0826822F002028260704710B50A46EC
:1043400000210023416821F46041531E41EA4331BA
:10435000416010BD21B1426842F40062426003E056
:10436000426822F40062426070470146886D80B264
:10437000704721B1826842F48072826003E08268F3
:1043800022F480728260704721B1826842F4007228
:10439000826003E0826822F4007282607047F0B5A8
:1043A000044615460020002200261D2911DDE06D7F
:1043B000A1F11E0707EB470C072707FA0CF2904301
:1043C000A1F11E0707EB470703FA07F21043E06568
:1043D00034E0132911DDE068A1F1140707EB470C65
:1043E000072707FA0CF29043A1F1140707EB4707E0
:1043F00003FA07F21043E06020E0092911DD20698B
:10440000A1F10A0707EB470C072707FA0CF29043C4
:10441000A1F10A0707EB470703FA07F210432061EF
:104420000CE0606901EB410C072707FA0CF290439E
:1044300001EB410703FA07F210436061606CC0F3BF
:104440000156EF1C06F1010CA7EB0C0707EB870CDC
:104450001F2707FA0CF29043EF1C06F1010CA7EBA3
:104460000C0707EB870701FA07F209E00024014077
:10447000FFFEFFFCFDF7FFC004270140FFFD3FFFEB
:1044800010436064F0BD10B50A4600210023416C62
:1044900021F44011531E41EA0351416410BD08B597
:1044A000002300930090009B0B440093009B1A6034
:1044B00008BD0A460021816821F470211143816002
:1044C00070470A460021816821F440111143816040
:1044D0007047816841F48001816070470146002087
:1044E0008A6812F4800F01D0012000E0002070479C
:1044F00021B1426842F48062426003E0426822F4E3
:1045000080624260704721B1426842F4805242604A
:1045100003E0426822F480524260704708B50246C8
:1045200000200090009201F13000009B18440090A0
:104530000098006880B208BD10B50B460021D9B2C2
:10454000012404FA01F11AB144680C43446002E00A
:1045500044688C43446010BD0246002013680B423F
:1045600001D0012000E000207047CA43026070477C
:1045700070B502460020002300240B0A556801266E
:104580008E4005EA060415681D4202D00CB10120D8
:1045900000E0002070BD00220A12D3430360704780
:1045A000002041490860091D0860091D0860091DB7
:1045B00008606FF07F403C4914310860704700216B
:1045C00039498279002A3AD00A46126803689A4328
:1045D0000B461A600A1D126803689A430B1D1A6085
:1045E000027911440A6803681A430A602E4A0832A5
:1045F000126803689A432C4B08331A601A1D12681C
:1046000003689A43284B0C331A604279102A0ED162
:104610001A1F126803681A43234B08331A601A1DC5
:10462000126803681A43204B0C331A600DE01E49D0
:10463000427911440A6803681A430A6005E0027966
:1046400011440A6803689A430A60704700210160B8
:1046500001710C21417100218171704712491031A3
:1046600009680143104A103211607047014600206A
:104670000D4A143212680A4201D0012000E00020E5
:104680007047094914310860704701460020064A06
:10469000143212680A4201D0012000E00020704765
:1046A00001491431086070470004014001460020B0
:1046B000FE4A106820F0010008431060704730B1D6
:1046C000FA49096841F00201F84A116005E0F7492A
:1046D000096821F00201F54A1160704730B1F349D1
:1046E000096841F00401F14A116005E0EF490968E9
:1046F00021F00401ED4A1160704730B1EB490968BF
:1047000041F00801E94A116005E0E849096821F033
:104710000801E64A11607047E448001D006810F087
:10472000010F05D0E248E1490C310860E14808601A
:10473000704700B5DD48001D006810F0020F07D07B
:10474000FFF7EAFFDC48D94910310860DB48086010
:1047500000BDD648001D006840F00200D349091D85
:10476000086070470420D1491831096811F0010F21
:1047700001D0012010E0CD491831096811F4807F83
:1047800001D0022008E0C9491831096811F4F05F2E
:1047900001D0032000E00420704708B50246042041
:1047A0000090FFF7DFFF009003E0FFF7DBFF0090D2
:1047B000521E9DF80000012801D1002AF5D10AB946
:1047C000052000909DF8000008BD30B50446042582
:1047D0006803FFF7E2FF0546042D1FD1B348001D13
:1047E000006840F40070B149091D0860084600687F
:1047F00040F008000860002020606803FFF7CDFF4C
:104800000546AA48001D006820F00800A749091DB8
:1048100008600846006820F400700860284630BD33
:1048200070B504460D4604267003FFF7B6FF064632
:10483000042E04D125604003FFF7AFFF0646304643
:1048400070BD9A48001D006840F001009749091D9D
:104850000860704740B19549091D096841F48071AD
:10486000924A121D116007E09049091D096821F460
:1048700080718E4A121D1160704730B504460425C0
:104880006803FFF78AFF0546042D01D10020207040
:10489000284630BD30B5044604256803FFF77DFF88
:1048A0000546042D01D100202080284630BD30B5BA
:1048B000044604256803FFF770FF0546042D01D167
:1048C00000202060284630BD70B504460D46042601
:1048D0007003FFF762FF0646042E0CD17348001DDB
:1048E000006820F480707149091D0860256070031C
:1048F000FFF753FF0646304670BD2DE9F0410446F0
:104900000D46042600274FF000087003FFF745FF0F
:104910000646042E24D16548001D006820F48070EE
:104920006249091D08602DB125707003FFF735FF3E
:10493000064615E024F00308D8F80070A007C10E61
:10494000FF2000FA01F827EA080724F00300FFF728
:10495000AEFF064624F003003946FFF7B5FF0646D2
:104960003046BDE8F0812DE9F04104460D460426AD
:1049700000274FF000087003FFF70FFF0646042ED4
:1049800032D14A48001D006820F480704749091D53
:1049900008602DB125807003FFF7FFFE064623E077
:1049A00004F00300032817D024F00308D8F800709F
:1049B000A007C10E4FF6FF7000FA01F827EA0807BA
:1049C00024F00300FFF773FF064624F00300394686
:1049D000FFF77AFF064607E000212046FFF78DFF2C
:1049E0000021601CFFF789FF3046BDE8F0812DE90A
:1049F000F04104460D46042600274FF000087003DE
:104A0000FFF7CBFE0646042E1CD12DB125704003C6
:104A1000FFF7C3FE064615E024F00308D8F800703F
:104A2000A007C10EFF2000FA01F827EA080724F0CA
:104A30000300FFF73CFF064624F003003946FFF76A
:104A400043FF06463046BDE8F0812DE9F0410446BB
:104A50000D46042600274FF000087003FFF79DFE67
:104A60000646042E34D12DB125804003FFF795FE74
:104A700006462DE004F00300032821D024F00308AB
:104A8000D8F80070A007C10E4FF6FF7000FA01F8C9
:104A900027EA080724F00300FFF709FF064624F081
:104AA00003003946FFF710FF064611E0003C0240C4
:104AB000EFCDAB8905040302BFAE9D8C1615141310
:104AC00000212046FFF719FF0021601CFFF715FFAA
:104AD0003046BDE8F08170B504460D4604267003EB
:104AE000FFF75BFE0646042E04D125604003FFF766
:104AF00054FE0646304670BD00B5FE48006810F012
:104B0000040F07D0FFF708FEFB48FA491031086090
:104B1000FA48086000BDF748006840F00400F54915
:104B200008607047F348006840F48020F14908604D
:104B300070472DE9F04704460F46002500264FF048
:104B40000408A946AA464FF40040FFF726FE804617
:104B5000B8F1040F31D1AFB1E9488068204385B284
:104B6000E748C06840EA144086B2E84345EA004995
:104B7000E348C0F80890F04346EA004AE048C0F82D
:104B80000CA015E0DE48806880B220EA0405DC480D
:104B9000C068E14300EA1146E84345EA0049D848C5
:104BA000C0F80890F04346EA004AD548C0F80CA087
:104BB0004FF40040FFF7F1FD80464046BDE8F08726
:104BC0002DE9F04704460F46002500264FF0040863
:104BD000A946AA464FF40040FFF7DFFD8046B8F132
:104BE000040F31D1AFB1C6480069204385B2C44833
:104BF000406940EA144086B2E84345EA0049C048AB
:104C0000C0F81090F04346EA004ABD48C0F814A02E
:104C100015E0BB48006980B220EA0405B848406945
:104C2000E14300EA1146E84345EA0049B448C0F8C8
:104C30001090F04346EA004AB148C0F814A04FF47F
:104C40000040FFF7AAFD80464046BDE8F0872DE909
:104C5000F04704460F46002500264FF00408A946F9
:104C6000AA464FF40040FFF798FD8046B8F1040FC4
:104C700031D1AFB1A2488069204385B2A048C06954
:104C800040EA144086B2E84345EA00499C48C0F82F
:104C90001890F04346EA004A9948C0F81CA015E075
:104CA0009748806980B220EA04059548C069E143CD
:104CB00000EA1146E84345EA00499148C0F81890D7
:104CC000F04346EA004A8E48C0F81CA04FF400406A
:104CD000FFF763FD80464046BDE8F087F0B5044627
:104CE0000425002600276803FFF757FD0546E0432B
:104CF000C6B244EA0647042D01D1814807604FF44B
:104D00000040FFF74AFD05462846F0BD2DE9F04773
:104D100004460F46002500264FF00408A946AA467F
:104D20004FF40040FFF739FD8046B8F1040F31D150
:104D3000B7B17348806880B220EA04057048C06843
:104D4000E14300EA1146E84345EA00496C48C0F8EF
:104D50000890F04346EA004A6948C0F80CA014E005
:104D600067488068204385B26548C06840EA1440BF
:104D700086B2E84345EA00496148C0F80890F0432C
:104D800046EA004A5E48C0F80CA04FF40040FFF726
:104D900004FD80464046BDE8F0872DE9F047044613
:104DA0000F46002500264FF00408A946AA464FF4F6
:104DB0000040FFF7F2FC8046B8F1040F31D1B7B1E3
:104DC0004F48006980B220EA04054D484069E1433C
:104DD00000EA1146E84345EA00494948C0F8109006
:104DE000F04346EA004A4648C0F814A014E044489C
:104DF0000069204385B24248406940EA144086B2C7
:104E0000E84345EA00493E48C0F81090F04346EABE
:104E1000004A3B48C0F814A04FF40040FFF7BDFC27
:104E200080464046BDE8F0872DE9F043044604255E
:104E300000274FF000084FF0000900266803FFF735
:104E4000ACFC05462E4890F8009044EA0906F04371
:104E500087B246EA0748042D02D12948C0F80080ED
:104E60004FF40040FFF799FC05462846BDE8F08363
:104E70002DE9F04304460D46164604274FF000087E
:104E80004FF000091B4818300068C0F3034944EA9A
:104E90000500304340EA0900C0434FEA004844EAB5
:104EA0000500304340EA090040EA08087803FFF7AC
:104EB00074FC0746042F02D11148C0F804804FF457
:104EC0000040FFF76AFC07463846BDE8F083F0B5BE
:104ED000044604250026002706481830006800F420
:104EE0007000070C44EA0700C043060444EA0700C8
:104EF000064307E0043C0240C8D9EAFB27262524E4
:104F00000000F81F6803FFF748FC0546042D01D197
:104F1000394846604FF40040FFF73FFC05462846FD
:104F2000F0BDF0B50446042500260027334800688C
:104F3000C0F3064744EA0700C043060444EA0700FA
:104F400006436803FFF729FC0546042D01D12A48D2
:104F500046604FF40040FFF720FC05462846F0BDB0
:104F600026480068C0F3075070472448001D0068B9
:104F700070472248643000687047204868300068F5
:104F8000704700201D490968C9B2AA2901D0012033
:104F900000E00020704700200021184A126802F447
:104FA000807109B1012000E00020704713480068BB
:104FB000C0F30340704739B1104A183A12680243EF
:104FC0000E4B183B1A6006E00C4A183A12688243EE
:104FD0000A4B183B1A60704701460020074A121F0F
:104FE00012680A4201D0012000E000207047034906
:104FF000091F0860704700000000F81F1C3C0240B9
:1050000010B504468548844208D10121084600F0C5
:1050100054FC0021012000F050FC52E08048844202
:1050200008D10121022000F048FC0021022000F0FC
:1050300044FC46E07B48844208D10121042000F072
:105040003CFC0021042000F038FC3AE07648844221
:1050500008D10121082000F030FC0021082000F0D8
:105060002CFC2EE07148844208D10121102000F070
:1050700024FC0021102000F020FC22E06C48844237
:1050800008D10121402000F018FC0021402000F050
:1050900014FC16E06748844208D10121802000F00A
:1050A0000CFC0021802000F008FC0AE062488442E9
:1050B00007D10121202000F000FC0021202000F079
:1050C000FCFB10BDF0B50A4600210023002400BF00
:1050D0003DE0012505FA01F3156805EA03049C4249
:1050E00034D105684F000326BE40B54305601579ED
:1050F0004E00B5400668354305601579012D02D094
:105100001579022D16D185684F000326BE40B543A0
:10511000856055794E00B540866835438560858841
:1051200001268E40B5438580858896798E40B6B23B
:1051300035438580C5684F000326BE40B543C56032
:10514000D5794E00B540C6683543C560491C102965
:10515000BFD3F0BD4FF6FF710160002101714171B5
:105160008171C171704708B54FF480320092009A86
:105170000A430092009AC261C161009AC261C26989
:105180000092C269009208BD02460020138A0B42B9
:1051900001D0012000E0002070470146088A7047D6
:1051A00002460020938A0B4201D0012000E000203B
:1051B00070470146888A7047018370474183704772
:1051C0000AB1018300E04183704781827047828A7F
:1051D0004A4082827047F0B5002300244D07ED0E4F
:1051E00002FA05F3CE1000F1200555F826504E07BF
:1051F000F70E0F26BE40B543CF1000F1200646F84B
:105200002750CE1000F1200555F8265045EA03043A
:10521000CE1000F1200545F82640F0BD0000024008
:105220000004024000080240000C0240001002404E
:1052300000180240001C0240001402400E490860A1
:1052400070470D49486070470B49886070474AF6BF
:10525000AA200949086070474CF6CC40064908600E
:10526000704701460020044AD2680A4201D001205A
:1052700000E00020704700000030004010B5012120
:10528000480200F03CFB00214FF4007000F037FBB7
:1052900010BD00BF5B48006810F0200FFAD07047C7
:1052A00000B501465748001F006820F07F70554A3E
:1052B000121F1060D1E900021043524A121F1268F7
:1052C0001043504A121F1060FFF7E3FF4D480838A3
:1052D000006820F07E004B4A083A1060D1E90202D3
:1052E00010430A691043474A083A12681043454A76
:1052F000083A106000BD0021016041608160C1601A
:105300000161704740490860704740490860704734
:105310003D49C86170473B49091F096821F0700188
:10532000384A121F11601146096801431160704725
:105330003449091F096821F46071324A121F116053
:10534000114609680143116070472E4A121F126806
:1053500022F478322B4B1B1F1A601A46126840EA5F
:1053600001031A43274B1B1F1A6070472549091F69
:10537000096821F4E051234A121F1160114609689F
:105380000143116070471F4A0C3242F820107047E9
:1053900001201F490860704739B11A4A121F12686C
:1053A0000243184B1B1F1A6006E0164A121F1268B0
:1053B0008243144B1B1F1A60704701460020114A9C
:1053C00012680A4201D0012000E0002070470D4918
:1053D000091D08607047014600200A4A12680A4207
:1053E00001D0012000E00020064A121F12680A4284
:1053F00002D008B1012000E0002070470149091DDA
:105400000860704708240040008004428080044205
:105410000881044210B50121080700F070FA00214C
:105420004FF0805000F06BFA10BD4D490862704794
:10543000014600204B4A106820F0E000084310604D
:10544000704747490861704708B500220092444AF6
:10545000A03202440092009A116008BD404988625F
:1054600070473F4948627047014600203D4A106836
:1054700020F4C050084320F00C023A4B1A607047E9
:1054800058B13849096841F00101364A11601146A6
:10549000096841F4804111600AE03249096821F449
:1054A0008041304A11601146096821F00101116004
:1054B000704710B5024600202A4B186820F0030000
:1054C00010431860284B1B6823F00403264C23600C
:1054D000012901D130BF00E020BF10BD10B5024648
:1054E0000020204B186820F00300104318601E4B6A
:1054F0001B6843F004031C4C2360012901D130BF19
:1055000000E020BF184B1B6823F00403164C2360F7
:1055100010BD1448006840F00400124908600846B5
:10552000006840F0020008600F48006840F0040086
:105530000D49086000BF00BF30BF70470146002022
:10554000084A52680A4201D0012000E0002070475A
:105550000449096841EA8001024A1160704700006D
:1055600000000E420070004010ED00E0F9480068B5
:1055700040F48070F7490860F64808300068F64942
:105580000840F44908310860F2480068F3490840CF
:10559000F04908600846006820F480200860ED4863
:1055A0000830006820F47D00EA49083108600020D6
:1055B000091D086070470021E64A921C11701146CF
:1055C0000870704710B501460022002300204A11E0
:1055D000012A02D1DF4C236802E0DE4C3434236818
:1055E00001F01F02012494401C4201D0012000E080
:1055F000002010BD38B5002000900024002500BF19
:105600003120FFF7DFFF05460098401C009000980E
:10561000B0F5A06F01D0002DF2D03120FFF7D2FFFE
:1056200008B1012400E00024204638BDC949C91D45
:105630000870704701460020C64A121D106820F409
:105640006040084310607047C549086270470146D2
:105650000020C04A121D106820F4F85040EA0120D2
:1056600010607047BE49086070470021B94A353262
:105670001170114608707047BA490860704710B53C
:1056800041EA02030343B34C0A34237010BDB4490A
:1056900008667047B24908677047B2492C31086004
:1056A000704740EA0102AB4B0B331A70704701465A
:1056B0000020A84A0832106820F003000843106058
:1056C0007047A4480830006800F00C00704701469D
:1056D0000020A04A0832106820F0F0000843106053
:1056E0007047014600209B4A0832106820F4E060B1
:1056F00008431060704701460020964A083210683F
:1057000020F4605040EAC10010607047F0B50021FD
:10571000002200230026002400258E4F08373F6812
:1057200007F00C0131B1042912D0082913D00C293B
:1057300037D113E0874F3F1D3F68C7F342356F1CD9
:105740004FF0010C0CFA07FC4FEACC37076036E04B
:10575000854F076033E0854F076030E07D4F0837A5
:105760003F6807F470127B4F08373F6807F4400327
:105770007F4F07EB92473A78012707EB9353754F1A
:1057800008373F6807F480362EB9774F5743B7FB89
:10579000F3F7076004E0754F5743B7FBF3F7076073
:1057A0000DE06C4F3F1D3F68C7F342356F1C4FF053
:1057B000010C0CFA07FC4FEACC37076000BF00BFB2
:1057C000644F08373F6807F0F0010909694F7C5CB6
:1057D0000768E74047605F4F08373F6807F4E061BC
:1057E000090A644F7C5C4768E7408760594F083777
:1057F0003F6807F46051C90A5E4F7C5C4768E74028
:10580000C760F0BD002100F44032B2F5403F08D13E
:10581000504A116821F0C04100F0C04211434D4A86
:1058200011604C4A3432126822F44032494B34330E
:105830001A601A46126800F440331A43454B343359
:105840001A607047474958310860704745495C31D4
:105850000860704739B13F4A1C32126802433D4B21
:105860001C331A6006E03B4A1C3212688243394BF3
:105870001C331A60704739B1364A2032126802432D
:10588000344B20331A6006E0324A203212688243D9
:10589000304B20331A60704739B12E4A24321268D7
:1058A00002432C4B24331A6006E02A4A2432126841
:1058B0008243284B24331A60704739B1254A10328D
:1058C00012680243234B10331A6006E0214A10325B
:1058D000126882431F4B10331A60704739B11D4A5A
:1058E0001432126802431B4B14331A6006E0194A43
:1058F000143212688243174B14331A60704739B15F
:10590000144A183212680243124B18331A6006E028
:10591000104A1832126882430E4B18331A607047CF
:1059200039B10C4A2832126802430A4B28331A60F4
:1059300006E0084A283212688243064B28331A6070
:105940007047C9B1034A2C3212680243014B2C3311
:105950001A6016E0003802400CC0FF88FEFFFEEE21
:1059600000004742800647420024F400001BB700B5
:1059700069000020720000201F4A126882431E4BFB
:105980001A60704739B11C4A121D126802431A4B43
:105990001B1D1A6006E0184A121D12688243164B3E
:1059A0001B1D1A60704739B1134A1F3A127802431F
:1059B000114B1F3B1A7006E00F4A1F3A12788243C0
:1059C0000D4B1F3B1A7070470B480830006840F0C1
:1059D0008070094908310860704701460020064A76
:1059E000203A12680A4201D0012000E000207047EE
:1059F00001491E39087070472C38024008B5002252
:105A0000009200200021CA22F94B1A6053221A602A
:105A1000F74A183A126822F0A002F54B183B1A60B8
:105A200000BFF34A183A126802F02001009A521C93
:105A30000092009AB2F5004F01D00029F1D0EC4A53
:105A4000183A126812F0200F01D0012000E0002067
:105A5000FF22E74B1A6008BD08B500220092002023
:105A60000021E34A183A126812F0400F1CD1421E7E
:105A7000DF4B183B1A6000BFDD4A183A126802F08B
:105A80004001009A521C0092009AB2F5005F01D0CA
:105A90000029F1D0D64A183A126812F0400F01D00E
:105AA000012002E0002000E0012008BD38B5002000
:105AB000009000240025CA20CD49086053200860CA
:105AC000FFF7CAFF00B952E00020C9492439086035
:105AD00042F20110091D0860081D006800F007006F
