:020000040800F2
:10000000305300200D9000080F9000081190000858
:1000100013900008159000081790000800000000D9
:10002000000000000000000000000000199000081F
:100030001B900008000000001D900008699900084E
:10004000219000082190000821900008A9A1000833
:10005000219000082190000891960008A7960008BA
:1000600021900008C5960008219000082190000802
:10007000219000082190000821900008219000089C
:10008000219000082190000821900008219000088C
:10009000219000082190000821900008E3960008B4
:1000A000219000082190000821900008219000086C
:1000B000219000082190000821900008219000085C
:1000C000219000082190000821900008219000084C
:1000D00021900008DBDE0008219000082190000834
:1000E000219000082190000821900008219000082C
:1000F00021900008DFF80CD010F044FA00480047C7
:100100004B21000830530020EFF3108072B6704787
:1001100080F310887047000010B504460AF0C6FC52
:10012000FC480AF08EFDFB4804800AF054FD10BD27
:1001300001200021F74A1188012909D0052907D09B
:10014000F54A1188012901D0052902D1084600E0AD
:1001500008467047F14909680143F04A1160704749
:10016000EE4909688143ED4A1160704710B54FF4BC
:100170008051EB480BF0ECF94FF40050FFF7EAFF29
:1001800014214FF4005002F089F810BD10B54FF45F
:100190000041E3480BF0DCF94FF48040FFF7DAFF51
:1001A00014214FF4804002F079F810BD10B500BF63
:1001B0000FF092F80121DB480BF0B0F90128F7D0DD
:1001C00010BD2DE9F05F4FF0000AD346D648007805
:1001D0004FF4FA7191FBF0F1D4480088801E90FB37
:1001E000F1F201FB120060BB08F099FF83460BF1AE
:1001F0003C000FF0E9FF80464FF03332CC4B0FF05C
:1002000066FF06460022CB4B0FF048FE044610F076
:100210004CF81FFA80FABAF5967F13DDBAF5BE7F67
:1002200006DAC548407940F00100C349487105E04D
:10023000C148407920F00100BF494871504607F09D
:10024000E0F804E0B9480088401EB8490880BDE8DD
:10025000F09F10B504464FF40041B1480BF076F919
:100260004FF48051AE480BF071F908F0E8FF2CB95B
:1002700009F00DFC0020B149087017E0AF4A117871
:1002800001EBD1725210A1EB420252B9AB4A107885
:10029000C21700EB92729210A0EB82020AB109F031
:1002A000F6FBA6480078401CA449087010BD10B5A4
:1002B000A348007898B9A048007801280FD19E483B
:1002C0008079401C9C49887108468079022809DBA6
:1002D00007F034F84FF496709749488102E0002007
:1002E00095498871944803788279954801789548B2
:1002F0000FF02FFC10BD10B500200EF0A3FF05205D
:100300000EF085FF052140F641100EF0FEFE10BDF7
:100310001CB50620012181408B4A430942F8231075
:1003200000BF07F015FA102007F032FA06F017FEAA
:100330000446864884421AD0102179480BF008F907
:10034000012007F0E2FA102175480BF0FFF80720B2
:1003500007F0DBFA322007F0D8FA06F000FE044678
:100360007A48844201D080171CBD0FF098FA07F03C
:10037000EFF906F0D1FD082007F00AFA06F0EFFDCC
:1003800004467248844201D08017EDE77048007837
:100390008DF800006E48C0788DF801006C484078F8
:1003A0008DF802006A4840798DF805006848807928
:1003B0008DF80600664880788DF80300644800795F
:1003C0008DF80400684606F0CEFDFFF794FF062086
:1003D000012181404209920002F1E022C2F800119D
:1003E00000BF60B2C0E710B5FFF7D0FE08F01FFFF6
:1003F000C821402001F052FF10BD00B50020554932
:1004000008704FF48070FFF7A5FE00BD10B5002402
:100410004948447906F06EFF04464FF4003001F07D
:1004200026FF01204C4908705CBB4A4801780078DF
:10043000401C484A10700A2908DC4FF4FA714FF446
:10044000807001F02BFFFFF7CEFF45E0FFF78EFE37
:1004500008F0F5FE09F01BFB4FF4807001F0A1FFDE
:100460004FF47A714FF4003001F018FF06F05AFF94
:100470000020384908703849087001203749087051
:100480002AE0344801780078401C324A107006296E
:1004900008DA4FF4FA714FF4807001F0FFFEFFF7B5
:1004A000A2FF19E0FFF762FE08F0C9FE09F0EFFABB
:1004B00006F038FF4FF4807001F073FF4FF47A714B
:1004C0004FF4003001F0EAFE002022490870224972
:1004D000087001202149087010BD10B516484079F8
:1004E00000F00800E0B3FFF77EFF14490878C11759
:1004F00000EB91718910A0EB810109B909F0C0FAF4
:100500004FF4FA714FF4007001F0C8FE0120124957
:1005100008702BE0F00F080802FF010850000020CF
:1005200000000240000402405E0000208C00002019
:10053000333307400000F03FE82300208E00002006
:10054000720000208811010880E100E03001CADE5D
:1005500000000020550000205F0000204600002021
:10056000FFE70020FB490870FFF773FE10BD10B5D0
:10057000002408F041FF04000DD1F64908704FF443
:10058000003001F00EFF4FF47A714FF4003001F0AB
:1005900085FE002010BD04F0010088B30120ED4964
:1005A0000870400401F0FDFE4FF47A714FF4003002
:1005B00001F074FEE84800780A280DDAE648007871
:1005C000401CE54908700020E4490870C82110204B
:1005D00001F064FE0220DDE70020DF490870DD49FC
:1005E0000870DF48407940F00400DD4948714FF45D
:1005F000807001F025FE012006F04BFF0120C9E7C5
:10060000FFE704F00200002856D0D6480078012801
:1006100052D1D348407900F0080000284CD0012086
:10062000CC490870400401F0BCFE4FF47A714FF4DD
:10063000003001F033FEC848007805280DDAC648BE
:100640000078401CC44908700020C4490870C821C3
:10065000102001F023FE02209CE708F0F0FD0020AE
:10066000BD490870BF490870BD48407900F00800D6
:1006700080B1BB48407940F01000B949487104F09E
:1006800071FAB9494FF4806001F008FE4FF4007030
:1006900001F087FE4FF4003001F083FE4FF47A71D1
:1006A0004FF4003001F0FAFD0020AA490870012043
:1006B000AA49087000206DE700BF6BE770B5AB4832
:1006C000007818B1AAA00FF044FA70BD0C2009F010
:1006D000D0FAAA494870054609F0EFFA88B1A8484F
:1006E0000188A8A00FF035FA0120A0490870002069
:1006F000A34908809A48407920F0800098494871C1
:10070000E3E70C2009F0B5FA9C49487000209749AE
:1007100008709348407940F0800091494871162054
:1007200009F0A7FA954988701E2009F0A2FA9349AA
:10073000C870012009F09DFA90490871032009F062
:1007400098FA8E494871102009F093FA04468B48B4
:10075000007997490979884205DB884800799449EE
:100760000979401A04E09248007984490979401ACD
:10077000042812DC814840798D494979884205DB9B
:100780007E4840798A494979401A04E0884840798E
:100790007A494979401A042806DD7148407940F0C9
:1007A00020006F49487116E07448C07800F040009E
:1007B00020B97248807800F0800030B168484079F4
:1007C00040F020006649487105E06548407920F016
:1007D000200063494871764868490A6802608A883F
:1007E00082808979817104F0040048B104F04000EE
:1007F00030B95B48407940F040005949487105E004
:100800005748407920F04000554948715448407994
:1008100000F0200040B10020594908806549087067
:1008200001206549087010E055480088634909882F
:10083000884205DA52480088401C5149088004E08B
:1008400000205D49087008F020FD00BF3DE710B5AD
:1008500006F0E6FDE8B142484078012806D10520BF
:1008600003F0D1FB05205649087009E03C48407868
:10087000052805D1012003F0C6FB0120504908706E
:1008800006F05CFD4FA00FF064F94D480078FFF7CB
:1008900043FC10BD10B5002406F0EEFD04463048C0
:1008A0000389027821464E480FF053F92C4800780E
:1008B00078B14CB92748007830B906F03FFD4FF4C5
:1008C00096702749488113E094B1012001F0AFFFF1
:1008D0000EE006F0F4FD434908700846007838B190
:1008E000012001F0A4FF01201D4908703E49087055
:1008F00010BD0146002000220EE080EA010303F053
:1009000001032BB180F01800401040F0800000E09F
:1009100040104910531CDAB2082AEEDB70472DE96B
:10092000F0474FF0000909F02FF8304908803048AF
:10093000007868B92E480078401C2D4908702B4873
:1009400000882C49088000202B49088000265FE0A1
:1009500054E000005F000020550000204600002009
:10096000E823002062000020C02709009600002034
:10097000696E76616C69640A000000003F00002027
:100980004A00002020753136436172644D6F7469EE
:100990006F6E436E74203D202564204D4D413834E8
:1009A00035785F43686970436865636B0A0A0000C5
:1009B0008F0000206C000020540000204800002020
:1009C0005E0000202D2D6368616E6765206465768A
:1009D00074797065206F6B212D2D20210A00000095
:1009E000CC1101087F000020720000209800002038
:1009F000750000207C00002078000020FA48008864
:100A0000FA490988401A86B2F7480088F7490880F1
:100A1000012E05DD0120F64908700020F549088007
:100A20004FF48061F4480AF079FD074607F00100B1
:100A300050B1EF480078C0F1100101208840ED4925
:100A400009880843EB490880E9480078401CE849D8
:100A50000870FFF79BFB08F0EAFB1421402001F02F
:100A60001DFCE3480078112838D100254FF000081C
:100A70000020DF490870DF480088050ADD4890F84B
:100A800000802846FFF735FF044600BFA0451CD173
:100A9000D8480088C8B1D9480088854215D1D548C2
:100AA00005800120D6490870D648407940F0020000
:100AB000D4494871202001F0C3FB022006F0E9FC74
:100AC000CC480188D0A00FF044F84FF47A714FF46D
:100AD000003001F0E3FBC948058000BFBDE8F087A6
:100AE00010B500BF03F0F9FC0120CE490870CE48D4
:100AF0000068CE490968441ACD480078C0EB001060
:100B000000EB8000C821C1EB0010A0420DD2BD480F
:100B10000089401CBB490881C3480068C34908607C
:100B2000C4480088401CC34908800020B54948815A
:100B3000C860FFF7C3FD0020BF49087010BD2DE954
:100B4000F04105460E4617464FF00008002417E016
:100B5000BA4830F8340088B1B84830F83400A842B8
:100B60000CD1B64820F8345000EBC4004680B3489E
:100B700000EBC40087804FF0010803E0601CC4B2A2
:100B80000A2CE5DB00BFB8F1000F1CD1002417E0F0
:100B9000AA4830F8340088B9A84820F8345000EB4F
:100BA000C4004680A54800EBC4008780A4480078B4
:100BB000401CA34908704FF0010803E0601CC4B258
:100BC0000A2CE5DB00BF9E4800780A2807DB4FF4BB
:100BD000802001F04CFB4FF4802001F031FBBDE898
:100BE000F08170B505460E4605B106B970BD00240A
:100BF0000CE0295D93480DF056F800BF4021914864
:100C00000DF001F90128F9D1601CC4B2B442F0DB47
:100C100000BFEBE72DE9F05F05468B461646984688
:100C200015B1B6F5007F09DD00BF3246294686A022
:100C30000EF08FFF00BF0020BDE8F09F2C4604F1AE
:100C40000C0705203870012078708648008878806D
:100C500005F0B3FD012808D18348007828B9814800
:100C60000088A0F51C501038788000207E4908705C
:100C70007E480088B880FE804D2020704120607042
:100C800000BFA07820F07000A070A07840F0300085
:100C9000A07000BF00BFA07820F00800A070A0786E
:100CA00040F00800A07000BF00BFA07820F007004F
:100CB000A070A07808F007010843A07000BF00BF33
:100CC000A07820F08000A070A07840F08000A07094
:100CD00000BFB8F1010F07D165480088000A2071F4
:100CE0006348007860710BE062480088000A207158
:100CF0006048007860715F480088401C5D4908804A
:100D000058480088000AA07156480078E071002019
:100D1000207260725EB1BBF1000F08D0B8F1010F14
:100D200005D03246594605F114000FF023F8B8F10A
:100D3000030F01D1722603E0B8F1010F00D10026A4
:100D400006F10A001FFA80F94FEA1920A07284F810
:100D50000B9006F1120081B24FF6FF72A81C0EF044
:100D6000A9FF82464FEA1A2106F114002954401CBB
:100D700005F800A009F10C0081B23F48FFF731FFF0
:100D800009F10C00C0B257E770B501203649087070
:100D90003A4D2C1D20206880092068701F20287083
:100DA0003248008860802F48008820801820E07139
:100DB000042020710320607131480078A071304810
:100DC0000078401C2E49087018222EA104F108005A
:100DD0000EF0D0FF6888001D82B200232946264805
:100DE000FFF718FF70BD0000980000207C00002075
:100DF0007500002078000020000002407A000020EA
:100E000076000020E82300202D2D6578636974208A
:100E1000736563757373202021202564202D2D2098
:100E2000210A0000700000206800002084000020DB
:100E30005E0000208C0000207F0000206C08002055
:100E40004C000020003801404275696C6420466106
:100E5000696C65642070627566202558206C656E2B
:100E600025640A006E00002080000020560000204B
:100E70005C0000205A0000203C0D00203C0B0020AC
:100E8000580000204D535353352E302D3137303418
:100E90005F52656C65617365303931370000000061
:100EA0002DE9F041D2B00027B8461F208DF804008C
:100EB00002208DF80500F848067862E007EB87000D
:100EC0004FF6FF7101EA40084446002540E0F34830
:100ED00000EB0410018802A800EB05100180EF4828
:100EE00000EB0410418802A800EB05104180EB489C
:100EF00000EB0410416802A800EB05104160E748D0
:100F000000EB0410816802A800EB05108160E34843
:100F100000EB0410017B02A800EB05100173DF4811
:100F200000EB0410417B02A800EB05104173DB4885
:100F300000EB0410817B02A800EB051081730021F7
:100F400002A800EB0510C173601C84B2681C85B256
:100F500008F10A00844203DACF4800788442B6DB05
:100F6000781C87B2A020ADF80600BDF80600001D71
:100F700082B2002301A9CA48FFF74CFEA6F10A007D
:100F800086B20A2E9ADC16B952B0BDE8F08107EBA2
:100F900087004FF6FF7101EA40084446002540E013
:100FA000BE4800EB0410018802A800EB0510018088
:100FB000BA4800EB0410418802A800EB05104180FC
:100FC000B64800EB0410416802A800EB0510416030
:100FD000B24800EB0410816802A800EB05108160A4
:100FE000AE4800EB0410017B02A800EB0510017372
:100FF000AA4800EB0410417B02A800EB05104173E6
:10100000A64800EB0410817B02A800EB0510817359
:10101000002102A800EB0510C173601C84B2681C9B
:1010200085B29D4800788442BADB4FF6FF7000EA33
:101030000610ADF80600BDF80600001D82B20023C0
:1010400001A99748FFF7E6FD00BF9DE77CB5044680
:101050000D4616461F208DF8000003208DF8010074
:10106000ADF804408DF80660E8B28DF80700042062
:10107000ADF80200BDF80200001D82B200236946EF
:101080008748FFF7C7FD7CBD10B502460021002050
:10109000012A52D1834B93F83C30002B4CDD00BF2A
:1010A0001CE0002013E0804B33F811307D4C34F805
:1010B0001040A34209D100237A4C24F81030234673
:1010C00093F83C305B1E84F83C30431CD8B2754B1F
:1010D00093F83C308B42E6DC4B1CD9B2724B93F850
:1010E0003C308B42DDDC002101201EE001E0431C8E
:1010F000D8B26C4B33F81030002BF8D0694B33F872
:10110000113043B9674B33F81030664C24F8113076
:10111000002324F8103001E0431CD8B2614B33F8AF
:101120001030002BF8D04B1CD9B21E2801DA012355
:1011300000E00023002BD9D153E0022A51D15A4BB1
:1011400093F83C30002B4CDD00211CE0002013E024
:10115000554B33F81130534C34F81040A34209D1A9
:101160000023514C24F81030234693F83C305B1E8A
:1011700084F83C30431CD8B24B4B93F83C308B4244
:10118000E6DC4B1CD9B2474B93F83C308B42DDDC9C
:10119000002101201EE001E0431CD8B2424B33F88D
:1011A0001030002BF8D0404B33F8113043B93E4B90
:1011B00033F810303C4C24F81130002324F8103060
:1011C00001E0431CD8B2384B33F81030002BF8D074
:1011D0004B1CD9B21E2801DA012300E00023002BAA
:1011E000D9D110BDF8B506460C4604B9F8BD204665
:1011F00004EBD071C1F347070022FF21BDF80000C6
:1012000001F033FC00250CE0022000FB05600088A3
:10121000009001220021BDF8000001F026FC681CAE
:10122000C5B2BD42F0DB4FF4806001F0BAF81F494F
:101230004FF4806001F032F800BFD7E72DE9F34F9B
:1012400085B08346002003900BF1140506981828FA
:101250000AD200BF6B782A7815A006990EF079FCA7
:1012600000BF07B0BDE8F08F28781F2800D0F8E74E
:10127000281D0490687807283FD006DC042831D068
:10128000052823D0062826D126E00B287ED08228E8
:1012900038D08328F7D1E5E061000020BC080020A9
:1012A0003C0D0020680E0020A60E0020C02709007B
:1012B00065727230206C656E203D25642070743D2F
:1012C000257820203B6D743D25640A000122FF2112
:1012D000002001F0CAFBE3E00022FF21104601F0EC
:1012E000C4FBDDE06888022806DD049800880290CF
:1012F000BDF8080001F0C9FCD2E04FF4805000F0C6
:101300009FFFCDE02F463E1D7088F749098888422F
:1013100004D070884FF6FF7188427CD178880A2803
:1013200079D37888083881B24FF6FF7206F1080049
:101330000EF0C0FC0190F188019881426CD1788850
:10134000083880B2009006F1080477E004F1020842
:10135000207801282ED160783C2865DAE348B8F877
:101360000010018000884FF6FF7188420FD10820DD
:1013700001F0E9F8102001F0EEF83E21DC480EF013
:1013800012FD0020DA4981F83C004DE06DE01820A4
:1013900001F0E1F862784146D4480EF0EBFC607849
:1013A00000EBD0714910D14A82F83C100120FFF7C0
:1013B0006BFE39E0207802282FD160783C2833DAA0
:1013C000CB48B8F80010018000884FF6FF718842C2
:1013D0000ED1102001F0B7F8082001F0BCF83E2132
:1013E000C2480EF0E0FC0020C04981F83C001BE040
:1013F000182001F0B0F862784146BD480EF0BAFC02
:10140000607800EBD0714910B94A82F83C10022094
:10141000FFF73AFE08E024E016E02078032803D125
:1014200061784046FFF7DEFE6078801C0099081A5C
:1014300080B20090607800EB080400BF6078801CE8
:101440000099884282D906E000BFF188A9A0019ADC
:101450000EF07FFB00BFAC494FF4006000F01EFFB0
:1014600000BF1DE0FFF790FC1AE0A9464D4609F1C8
:10147000040AB9F80200012800DDF2E69AF800201B
:10148000B9F80210A1A00EF064FB9AF8000001F078
:101490009CF805F092F9012801D101F0EBF800BFAA
:1014A00000BF00BFDDE6002000BF19E000219F4A19
:1014B00002EB001211809D4A02EB001251809B4A00
:1014C00002EB00125160994A02EB00129160974AB8
:1014D00002EB00125173954A02EB00121173401C8B
:1014E0002828E3DB0021924A1170704770B59148BB
:1014F000007800282DDD8F4800780A2829DC8E4CE2
:10150000251D082060701F2020708A480078C000C8
:101510006080002009E005EBC001884A02EBC002B0
:1015200013680B6052684A60401C824909788842FF
:10153000F1DB6088001D82B200237F498048FFF7FD
:1015400069FB50217D480EF02EFC0020794908707F
:1015500002E000207749087070BD02460B4600216A
:10156000634890F83C0028B9604890F83C0008B9FE
:1015700000207047012B10D1002108E05C4830F8B2
:101580001100904201D10120F3E7481CC1B2584834
:1015900090F83C008842F1DC11E0052B0FD10021CE
:1015A00008E0524830F81100904201D10120E0E7F4
:1015B000481CC1B24D4890F83C008842F1DC002044
:1015C000D7E710B53E214A480EF0EDFB3E214748D3
:1015D0000EF0E9FB0020464981F83C00434981F8C0
:1015E0003C0010BD10B5502154480EF0DCFB10BD7E
:1015F00010B505F049FF04465248C068B0F5C87FF1
:1016000002D814F1640F06DA1921082000F046FE12
:1016100001204D490870012010BD2DE9F04387B02D
:10162000002500263227A846002405F09DFE064628
:1016300000200DF00CFF45480078002851D1FEF73E
:1016400008FE43480078052802DC4248007818B1BB
:1016500040480078012845D13D480078401C3C496D
:101660000870BEB937480078A0B93B480078012817
:1016700002D14FF4966505E037480078052801D17E
:1016800041F270752F484089B0F5967F01D12D4801
:1016900045899DE0FEF70BFE022E00DA052608F0D4
:1016A00073F9814603F0F2FBA9EB00082B480078A0
:1016B000A0B9A8EB060414F5805F01D9C4F1FF348A
:1016C0002048418904F10B00814205D91D48408919
:1016D000001BA0F10B0567E0002565E0A8EB060400
:1016E00054E0BCE076E000006E000020A60E002072
:1016F000680E0020435243206661696C65642025B2
:10170000642025640A00000020BF02002D2D2D2D2D
:1017100072657620706F7765722064617461203D18
:101720002564207C202564200A000000BC080020DD
:10173000610000204C0000203C0B00206C080020C1
:101740003C0D0020E82300207E0000205F000020E8
:101750006C000020540000205E00002046000020A5
:10176000F7480078012806D1F648408900F59660D0
:10177000F44948810AE0F2480078052806D1F1488A
:10178000408941F270710844EE494881ED48418931
:1017900004F10B008142E3D3EA484089001BA0F129
:1017A0000B050020E8490870E5480078012805D1BC
:1017B000B5F5FA6F02DB40F27E4509E0E0480078BB
:1017C000052805D141F65830854201DB41F20C7500
:1017D000322706E00020DD490870DD4D05F0AEFD42
:1017E00050270020DB490870D5480078052800D133
:1017F00046270F2D04DD284608F085FD04F00FF87C
:1018000005F065FE8146D1480078D3490978D34A6E
:101810001288CDE90229CDE90410D1480188C948D0
:10182000408933464246CDE900012946CD480EF0B5
:1018300090F9C448407900F0010028B14FF400410C
:10184000C94809F085FE04E04FF48051C64809F00C
:101850007FFE0A214FF4804000F020FD1CE040F2A2
:101860001457C2A00EF075F9FEF721FD0120B6490C
:101870000870192008F047FD03F0D1FFB148008936
:10188000BF490988401A012802DB0020B1490870CD
:10189000AC480089BA49088008F076F8B949086070
:1018A0000846006805F0A3FD39464FF4003000F00B
:1018B000F5FC022000F0C4FCB34800880A281FDBB6
:1018C000B2480078E0B9FEF723FD401C80B900BFA4
:1018D000BFF34F8FAE48006800F4E060AD490843A5
:1018E000001DAB490860BFF34F8F00BF00BFFEE78C
:1018F0000020A549088093490870A7A00EF029F997
:10190000A1480088401CA04908808E48007858B142
:10191000A748007840B9A7F11401082000F0BEFCE8
:10192000012000F084FF09E08648007830B9791F73
:10193000082000F0B3FC002000F079FF04F069FFFC
:1019400007B0BDE8F083F8B5002600F05DFC044662
:1019500004F4004070B18248018896A00EF0F9F8B6
:1019600007F0A6FC01207C49087000207C49088013
:10197000FEF7A4FE04F4801000283FD099480078B8
:101980001E283BDC98480088B0F5DC7F36DC0DF083
:101990004FFE04F012FF03281ED10EF0D9F90A21E0
:1019A00090FBF1F201FB1200C6B2002E02DD3046C0
:1019B00008F00FFC03F025FA8A480078401C89499A
:1019C0000870084600781F2818D101208749C8816F
:1019D000C00500F035FC11E004F0EFFE052807D14A
:1019E00003F00FFA80480088401C7F49088005E01A
:1019F000022000F03CFC022000F022FC04F4001065
:101A000040B106F01EF9022000F01AFC4FF400105D
:101A100000F02DFC04F4800040B106F0C1FD4FF44D
:101A2000805000F024FC022000F00AFC04F40000C6
:101A300040B16E48C089012804D103F0C9FC0220DE
:101A400000F0FEFB04F48050A8B10DF0F1FD07F0AA
:101A5000F3FD04F0B2FE022805D1FFF721FAFFF7EB
:101A600022FD07F07DFF00200DF038FE0022134616
:101A7000104602F047FF04F4803000285ED007F0E3
:101A800083FF404908600DF0D3FD3E48006805F033
:101A9000AEFC00205649087056480078C82190FBDB
:101AA000F1F201FB1200534908700846007801F07A
:101AB00054FF054602F0D0FA032D31D07DB300204B
:101AC0004B490870012D01D0042D06D1032000F0F0
:101AD000D1FD002005F06CFC13E0022D11D1684609
:101AE00002F0A4F805462946BDF80000FFF735FDD1
:101AF00008B105F090FC012000F0BCFD012005F0CC
:101B000057FC05F0F1FB00221346104602F0FAFEE6
:101B1000022000F0ACFB022000F092FB71E0FFE736
:101B2000032D69D1002005F043FC4FF4805000F0F4
:101B30009EFB4FF4805000F083FB62E067E05BE0C7
:101B40005E000020E8230020460000206C000020FA
:101B5000C0D4010072000020540000204800002082
:101B60004A00002038110108000002402068656C1E
:101B700070206E6F7420736C656570200A00000021
:101B800088000020680000208A0000207F000020DC
:101B90000CED00E00000FA052D2D2D2D2D2D2D2D05
:101BA00072657365742D2D2D2D2D202D210A0000B9
:101BB0005F00002020753136436172644D6F746997
:101BC0006F6E436E74203D202564204556454E546B
:101BD0005F4D4D4138343532515F4556454E540ABC
:101BE0000A000000C1010020C201002010240020D2
:101BF000700000206000002000BFC2A00DF0A9FF0F
:101C000000BFCA480078401CC849087000BF04F0F3
:101C1000020090B1C648007805F063FC04F0CDFDE9
:101C2000032803D004F0C9FD012806D1C04800787C
:101C3000012802D10020BE49087004F0100068B1EC
:101C4000FEF795FC0546012D07D10DF0F1FC0120B2
:101C500000F0EDFD0120B749087000BF04F020003E
:101C600080B1B5480078012801D0FEF758FEB2488F
:101C70000078012806D1B148008803F062F80020FE
:101C8000AD49087004F0400010B10120FEF7E1FA00
:101C900004F4807068B1FEF7B9FB05F02BFB40B986
:101CA000A4480078012804D102F0A3FFA4A00DF0FD
:101CB00050FF04F4007038B305F025FB054635B13C
:101CC000A4480078012802D1FEF707FC1BE08DB97B
:101CD00005F019FB07469F48027839469EA00DF093
:101CE00038FF01209B490870002092490870FEF7D8
:101CF000B0FA08E005F007FB074696480278394637
:101D00009BA00DF026FF00BF04F4806040B19E4808
:101D1000407920F010009C49487101208D490870DD
:101D200004F4006008B1FFF74CFC04F4005020B14B
:101D30004FF48051954809F009FC04F4804048B103
:101D40004FF40041914809F001FC4FF480518F4855
:101D500009F0FCFBF8BD38B5044600F077FC0546F9
:101D60008B48B0F80300009095F8CE02A073287855
:101D7000022810D1BDF800002080854800896080CD
:101D80008348407960738248407820738048C068F7
:101D900060600020A06038BD70B504F011FD00281F
:101DA00026D00024002501207A4908707A4800785E
:101DB000002803DD78480078451E00E0002505F086
:101DC00089FA044600207549088004F0F6FC0328CF
:101DD0000DD14FF4003000F0E4FA4FF4003000F081
:101DE0002FFA69482246C1686DA00DF0B2FE00BF0F
:101DF00070BD10B574A00DF0ACFE10BD7EA00DF04E
:101E0000A8FE04F0DAFC032806D186480068012801
:101E100002D1052004F0CEFCFEF76DFA4FF400412C
:101E20005A4809F093FB4FF48051584809F08EFB53
:101E3000FFF7D8FBFFF7C5FB03F0BCFA04F0BDFCCD
:101E400003280AD14FF4801000F0FAF94FF47A71A8
:101E50004FF4801000F060FA0CE004F0AEFC0528AE
:101E600008D14FF4801000F0EBF92D214FF48010D1
:101E700000F052FA04F0A1FC022806D10A21400425
:101E800000F00CFA01F036FF2BE001202849087021
:101E9000022000F0D5F904F090FC032804D146217B
:101EA0004FF4003000F0FAF904F087FC03280AD15F
:101EB000FEF73EF95C4908700846007802F0A3F886
:101EC00005F03CFA0DE004F078FC012809D102F09D
:101ED000C3F80A214FF4802000F0E0F9012000F05F
:101EE000C9FB0DE005F05CFA012805D1022000F0E5
:101EF000BEF9022000F0A4F900F08EFAFFF723FDEE
:101F0000F0E70000202A2A2A2A2A204572726F3A16
:101F100020736C6F746D736774797065206572726D
:101F20006F212A2A2A2A2A200A2000006000002085
:101F3000700000205F000020760000207800002064
:101F400062656761696E2073656E642068656C7098
:101F500020210A0062000020312D726574726561D3
:101F600074203A202564207C202564210A0000008A
:101F7000322D72657472656174203A202564207C6C
:101F8000202564210A000000E82300200000024010
:101F9000FC23002072000020610000208A00002045
:101FA0000A2D2D2D2D2D2D2D2D2D2D2D2D646973CB
:101FB000743D20256420636D20203B2073657120D3
:101FC0003D202564200A00000A202A2A2A2A2A2ADB
:101FD0002A2A2A2A2A2A2A2A206D61696E207374E5
:101FE000617274203131312A2A2A2A2A2A2A2A2A7D
:101FF0002A2A2A2A0A0000000A202A2A2A2A2A2A09
:102000002A2A2A2A2A2A2A2A206D61696E207374B4
:102010006172742A2A2A2A2A2A2A2A2A2A2A2A2A57
:102020000A000000E80000205E0000207CB51820B7
:1020300005F0AEFB04F093FF04464A4A21464AA04D
:102040000DF087FD474884421AD010214E4809F010
:102050007FFA012005F059FC10214B4809F076FA6F
:10206000072005F052FC322005F04FFC04F077FF0A
:1020700004463C48844201D080177CBD0DF00FFC23
:1020800005F066FB04F024FE0546002D02DA4FF051
:10209000FF30F2E7082005F07BFB04F060FF044608
:1020A0003048844201D08017E7E73848006804F0E0
:1020B00081FB00203649086008460068C0EBC0007C
:1020C0003449085C8DF8000031480068C0EBC0005E
:1020D0000844C0788DF801002D480068C0EBC000AE
:1020E000084440788DF8020029480068C0EBC00021
:1020F000084440798DF8050025480068C0EBC00011
:10210000084480798DF8060021480068C0EBC000C3
:10211000084480788DF803001D480068C0EBC000BB
:10212000084400798DF80400684604F01CFF4FF461
:10213000FA7005F03DF80020174905F051F82146E6
:1021400016A00DF006FD204697E710B507F008F938
:102150000DF0CAFC03200D490860FFF74FFE002078
:1021600010BD00003001CADE6465764944203D2080
:102170002564204457545F4445564943455F4944CC
:10218000203D2025640A000000000240E4000020F9
:10219000E00000209C00002000001440726574756F
:1021A000726E206465764944203D202564200A0033
:1021B0000146002006E0012282400A4002B103E00D
:1021C000421CD0B22028F6DB00BF704770B5044631
:1021D00024B1E043401C2040A04201D0002070BD4B
:1021E000FDF792FF0646C2480068204030B1C04863
:1021F00000686040BE490860012500E000253046C7
:10220000FDF786FF2846EAE770B5FDF77DFF054636
:10221000B74804680020B64908602846FDF778FFF3
:10222000204670BD10B54FF4C071B2480DF0BBFD33
:102230000020B1490860AE490860B049087010BD7F
:1022400070B5044624B1E043401C2040A04201D0B8
:10225000002070BDFDF758FF0546A54800682043E3
:10226000A34908602846FDF753FF0120F1E770B548
:10227000044624B1E043401C2040A04201D000208D
:1022800070BDFDF741FF054699480068A043984995
:1022900008602846FDF73CFF0120F1E72DE9F041F9
:1022A00005460E4626B92846FFF7CAFFBDE8F0816D
:1022B00045B1E843401C2840A84203D16FF00040DC
:1022C000864201D30020F1E72846FFF771FF04465C
:1022D000202C01DB0020E9E7FDF716FF074604EBA1
:1022E0004400844901EB8000406820B983480078AD
:1022F000401C82490870002004EB44017D4A42F8EA
:10230000210004EB4400114601EB80004660384692
:10231000FDF7FEFE0120C9E72DE9F04105460E4616
:102320004DB1E843401C2840A84204D11EB16FF0D3
:102330000040864202D30020BDE8F0812846FFF726
:1023400037FF0446202C01DB0020F5E7FDF7DCFE1B
:10235000074604EB4400674901EB8000406880B900
:1023600066480078401C65490870002004EB440171
:10237000604A42F8210004EB4400114601EB800062
:10238000466004EB44005B4901EB800086605A48DC
:1023900000682843584908603846FDF7B9FE012017
:1023A000CAE770B5044624B1E043401C2040A04277
:1023B00001D0002070BD2046FFF7FAFE0546202D13
:1023C00001DB0020F6E7FDF79FFE064605EB450022
:1023D000484901EB8000406820B148480078401E21
:1023E00046490870002005EB4501424A42F82100A9
:1023F00005EB450102EB810148603F480068A043BE
:102400003D4908603A480068A043394908603046B1
:10241000FDF77EFE0120CDE72DE9F0414FF0FF30C2
:10242000374908603248006808B10020086007F0AA
:10243000ABFA0546002651E006EB46002D4901EBBC
:102440008004FDF761FE8046606818B94046FDF7DC
:102450005FFE41E0206810B9606828442060206871
:102460002F1A6FF00040874222D2002024490860D2
:102470000120B0401E49096808431D490860012039
:10248000B0401D490968084018B1A0682844206080
:102490001EE000202060606018480078002803DDFE
:1024A00016480078401E00E00020144908700FE034
:1024B0001348006860B12068401B114909688842D0
:1024C00002D90F48006801E02068401B0C490860F1
:1024D0004046FDF71DFE00BF701CC6B2202EABDBD0
:1024E000BDE8F08110B5FFF797FF0548006810BD03
:1024F000F0000020E40E0020EC000020F800002096
:10250000F400002070B505460E466C68F748006878
:10251000844206D02146F6A00DF01BFB0020F649B0
:102520000860F248046070BD10B500244FF480517B
:10253000F24808F0F3FF044614B107F076F801E022
:1025400007F07AF810BDEE4991F8C4120143EC4A45
:1025500082F8C4127047EA4991F8C4128143E84AEC
:1025600082F8C41270470146E54A92F8C42202EA92
:102570000100E34A92F8C4228A43E14B83F8C42263
:1025800070470146002201F0080020B101F0100060
:1025900008B10020704701F0080048B1D9484078E0
:1025A000052810D10120D64B83F8CC0201220AE085
:1025B00001F0100038B1D3484078012803D1D04B46
:1025C00083F8CC0201221046E4E70146012903D139
:1025D000CD48CE4A106037E0022903D1CC48CB4A1F
:1025E000106031E0032903D1CA48C84A10602BE0CB
:1025F000042903D1C848C54A106025E0052903D144
:10260000C648C24A10601FE0062903D1C448BF4A29
:10261000106019E0072903D1C248BC4A106013E0DA
:10262000082903D1C048B94A10600DE0092903D137
:10263000BE48B64A106007E00A2903D1BC48B34A35
:10264000106001E0002070470120FCE7AC487047B3
:102650000021B848018844F62960704710B50CF095
:10266000E7FF4FF40030FFF702FE0421C803FFF735
:1026700015FE10BD2DE9F04105460024032700BFDB
:10268000A8465B2060439E4901EBC00080F814809F
:1026900039465B2262439A4B03EBC20202F11400FB
:1026A0000CF050F805EB4500A34911F820105B2011
:1026B0006043934A02EBC00080F824105B20604323
:1026C00002EBC000017D01200BF0E8FF06460EB1D1
:1026D000701C28B905EB4500974901EB800046685E
:1026E0005B206043864901EBC00090F82000012880
:1026F00005D15B20604301EBC00086620DE0F0B2C3
:1027000040EA002141EA004141EA00625B21614365
:102710007B4B03EBC1018A6200BF5B2060437849B9
:1027200011F83000032813D1012D07D17F495B2018
:102730006043734A02EBC000816211E0032D0FD1A8
:102740007B495B2060436E4A02EBC000816207E078
:102750006E4801685B206043694A02EBC0008162F9
:102760005B216143664A02EBC10191F820000CF045
:1027700032FD5B216143624A02EBC10101F1240099
:102780000BF07EFF07F00200D0B96C4801885B2097
:1027900060435B4A02EBC000A0F81C115B2161435F
:1027A00002EBC101B1F81C010BF08DFF5B2161430D
:1027B000534A02EBC101B1F81C010BF07AFF2BE088
:1027C00001200CF0FAF841105B2060434C4A02EB08
:1027D000C000A0F81C115B206043114601EBC00053
:1027E000B0F81C01C0B9554801885B20604302EB7A
:1027F000C000A0F81C115B21614302EBC101B1F8DC
:102800001C010BF060FF5B2161433D4A02EBC101FB
:10281000B1F81C010BF04DFF5B206043384901EB20
:10282000C000B0F81C0146490880BDE8F08170B5D1
:102830000546012D04D1FFF71DFF4CF6CC4405E001
:1028400025B90320FFF716FF4DF6DD5420460CF0A6
:1028500095F970BD78B502460B460024009400201F
:10286000FEE000EB800404EBC004364D15F8344064
:10287000012C3AD100EB800404EBC00405EBC40446
:102880002479012C31D100EB800404EBC00405EB6A
:10289000C404B4F807400094BDF80040944276D1D7
:1028A000012B51D100211DE000EB800404EBC0049A
:1028B000244D05EBC404241D01EB810504EB8504C4
:1028C000647944F0080500EB800404EBC0041D4E5D
:1028D00006EBC404241D01EB810604EB860465713C
:1028E0004C1CE1B20529DFDB50E051E08C010020F7
:1028F0002D2D256420000000C401002000000240AE
:1029000068100020E823002075848475B001002041
:10291000758585757587877575898975758B8B75CF
:10292000758D8D75758F8F7575919175759595757B
:102930007599997500FF01086C0B0108CC0B010813
:10294000800100204013002000211DE000EB8004E6
:1029500004EBC004FE4D05EBC404241D01EB81050E
:1029600004EB8504647924F0080500EB800404EB93
:10297000C004F74E06EBC404241D01EB810604EBF2
:10298000860465714C1CE1B20529DFDB78BD65E08A
:1029900000EB800404EBC004ED4D15F83440052C29
:1029A0005CD1002158E000EB800404EBC004E84D4A
:1029B00005EBC404241D01EB810514F82540012C0E
:1029C00048D100EB800404EBC004E14D05EBC404E6
:1029D000B4F807400094BDF8004094423AD1012B6E
:1029E0001BD100EB800404EBC00405EBC404241DE0
:1029F00001EB810504EB8504647944F0080500EBE4
:102A0000800404EBC004D24E06EBC404241D01EB89
:102A1000810604EB860465711BE000EB800404EB87
:102A2000C004CB4D05EBC404241D01EB810504EB70
:102A30008504647924F0080500EB800404EBC004ED
:102A4000C34E06EBC404241D01EB810604EB86048F
:102A500065719BE74C1CE1B20529A4DB441CE0B284
:102A60002828FFF6FEAE00BF90E72DE9F041804632
:102A70000E46154600240027012D30D1FF2E0DD122
:102A80006621B4480DF08FF9FF20B249087001208B
:102A9000FFF759FD0620FFF75EFD1EE0AD48007808
:102AA000FF2802D10020AB490870AA4800783228DC
:102AB00009DAA8480178801C20F81180801E00786F
:102AC000401CA449087029464046FFF7C3FE042075
:102AD000FFF739FD0320FFF73EFDBDE8F0813DBB68
:102AE000FF2E25D1002400E0641C322CFCDB0020EA
:102AF000984908700220FFF726FD0520FFF72BFDFF
:102B0000002413E000270EE0F72104EB840000EB23
:102B1000C4008F4A02EBC000001D07EB870200EBE8
:102B2000820041717F1C052FEEDB641C282CE9DB41
:102B300000BFD2E7024692F8C43202F5E470435473
:102B400008467047F0B502460B46002600240025D3
:102B50000021814890F8C40200F0010008B1FF2074
:102B6000F0BD7D4890F8C40200F0020008B10020DA
:102B7000F6E7022B17D1282092FBF0F0C6B22820EE
:102B800092FBF0F700FB1720C4B204EB840000EBCB
:102B9000C4006F4F07EBC000001D06EB860700EB7B
:102BA0008700457901E06D4845796B4890F8C4028B
:102BB00000F0040098B100210DE06648801C30F858
:102BC0001100674F3F88B84203D145F00805FF2048
:102BD000C6E7481CC1B25F4800788842EDDC00209F
:102BE000BEE7F0B5034600BF00BF282791FBF7F70B
:102BF000FDB2282791FBF7FC07FB1C17FEB206EB82
:102C0000860707EBC607DFF848C10CEBC7073F1D77
:102C100005EB850C07EB8C077C784F4F97F8C47257
:102C20001770012C17D14F4F97F83C70002F12DD11
:102C300000200AE04B4F37F810709F4203D11778FD
:102C400047F010071770471CF8B2464F97F83C70D2
:102C50008742EFDC18E0052C16D1434F97F83C7003
:102C6000002F11DD00200AE03F4F37F810709F421F
:102C700003D1177847F008071770471CF8B23A4F8E
:102C800097F83C708742EFDCF0BD70B50246002338
:102C9000314C2478022C5AD1002087E000EB8004CC
:102CA00004EBC0042A4D15F83440012C2DD100EB63
:102CB000800404EBC00405EBC4042479012C24D166
:102CC000934222D100211DE000EB800404EBC004FC
:102CD0001F4D05EBC404241D01EB810504EB8504A5
:102CE000647924F0040500EB800404EBC004184E62
:102CF00006EBC404241D01EB810604EB8604657118
:102D00004C1CE1B20529DFDB4EE000EB800404EB54
:102D1000C0040F4D15F83440052C45D1002141E089
:102D200000EB800404EBC004094D05EBC404241D32
:102D300001EB810514F82540012C31D1934203D0D9
:102D40004FF6FF74A2422BD100EB80040EE031E07D
:102D5000401300208023002068100020E82300207A
:102D600096010020680E0020A60E002004EBC0048F
:102D7000FD4D05EBC404241D01EB810504EB850426
:102D8000647924F0040500EB800404EBC004F64EE3
:102D900006EBC404241D01EB810604EB8604657177
:102DA0004C1CE1B20529BBDB441CE0B22828FFF62D
:102DB00075AF11E0ED4C2478012C0DD1EC4C24883A
:102DC000944203D04FF6FF74A24205D1E84CA47898
:102DD00024F00404E64DAC7070BD2DE9F84F0546B3
:102DE0000B46002400260022002791469246CDF88B
:102DF00000A04FF0040C614682E001F1010A4FF09F
:102E0000140B9AFBFBFE0BFB1EAA0AF0FF0803EB58
:102E1000010A4FF0280B9AFBFBFE0BFB1EAA0AF0DF
:102E2000FF0203EB010A9AFBFBFA0AF0FF0702EB31
:102E3000820A0AEBC20ADFF830B31BF83AA0BAF1F3
:102E4000000F21D104F1010A0AF0FF04012C0BD17B
:102E500007EB870A02EBCA0A4FF0C80B9AFBFBFE8E
:102E60000BFB1EAA85F800A0022C45D107EB870AB0
:102E700002EBCA0A4FF0C80B9AFBFBFE0BFB1EAA23
:102E80000AF0FF00BDE8F88F02EB820A0AEBC20AE3
:102E9000DFF8D4B21BF83AA0BAF1060F2CD1B8F182
:102EA000000F29D002EB820A0AEBC20A0BEBCA0A16
:102EB0009AF804A0BAF1030F1ED106F1010A0AF034
:102EC000FF06012E0AD103EB010A4FF0C80B9AFB53
:102ED000FBFE0BFB1EAA0AF0FF090DE0022E0BD130
:102EE00003EB010A4FF0C80B9AFBFBFE0BFB1EAA7B
:102EF0000AF0FF0ACDF800A001F1010A0AF0FF0173
:102F00000CF1280A8A45BFF678AF1CB985F8009005
:102F1000009802E0012C00D1484600BFB2E72DE93D
:102F2000FC4F07460A460024A04600218A46CDF8F9
:102F300004A0CDF800A04D1E00264FF0FF0A87F830
:102F400000A04FF004090023D8E04FF0280A92FBBC
:102F5000FAFA9A444FF0050B9AFBFBFE0BFB1EA6F8
:102F6000CC46C2E002EB0C0A4FF0280B9AFBFBFEAA
:102F70000BFB1EAA0AF0FF0102EB0C0A9AFBFBFAFC
:102F80009A444FF0050B9AFBFBFE0BFB1EA601EBD0
:102F9000810A0AEBC10ADFF8D0B11BF83AA0BAF1F6
:102FA000050F08D001EB810A0AEBC10A1BF83AA011
:102FB000BAF1000F56D101EB810A0AEBC10ADFF822
:102FC000A8B11BF83AA0BAF1050F30D101EB810A84
:102FD0000AEBC10A0BEBCA0A0AF1040A06EB860BDC
:102FE0001AF82BA0BAF1000F21D104F1010A0AF05E
:102FF000FF04012C0BD106EB860A01EBCA0A4FF045
:10300000C80B9AFBFBFE0BFB1EAA87F800A0022C44
:1030100067D106EB860A01EBCA0A4FF0C80B9AFB90
:10302000FBFE0BFB1EAA0AF0FF00BDE8FC8F01EBC4
:10303000810A0AEBC10ADFF830B11BF83AA0BAF1F5
:10304000000F4ED105F1010ABAF1000F49D106EB8C
:10305000860A01EBCA0A4FF0C80B9AFBFBFE0BFB7A
:103060001EA53EE001EB810A0AEBC10ADFF8F8B0C9
:103070001BF83AA0BAF1060F33D1022C31DA01EB7A
:10308000810A0AEBC10A0BEBCA0A0AF1040A06EB31
:10309000860B1AF82BA0BAF1030F22D108F1010A0E
:1030A0000AF0FF08B8F1010F0CD102EB030A4FF050
:1030B000C80B9AFBFBFE0BFB1EAA0AF0FF0ACDF819
:1030C00004A00EE0B8F1020F0BD102EB030A4FF09F
:1030D000C80B9AFBFBFE0BFB1EAA0AF0FF0ACDF8F9
:1030E00000A00CF1010A0AF0FF0C09F1280AE245E0
:1030F0003FF738AF03F1010A0AF0FF03052BFFF693
:1031000024AF9CB9002D05DADDF804A087F800A0F3
:10311000009812E03D7005F1280A4FF0C80B9AFBA9
:10312000FBFE0BFB1EAA0AF0FF0006E0012C04D1F7
:10313000002D01DA009800E0E8B200BF75E72DE944
:10314000F84705460E46144600220021FF27884610
:1031500000238C46E8B28DF80000280A8DF80100A3
:10316000012E57D100BF52E040130020681000200C
:10317000B601002001EB810000EBC100DFF82095D3
:1031800019F83000012840D101EB810000EBC100AB
:1031900009EBC000C0799DF80090484535D101EB9E
:1031A000810000EBC100DFF8F89409EBC000007A61
:1031B0009DF80190484528D10B4602E003F1280014
:1031C00083B2A342FADBD8B24FF0C80990FBF9FAF8
:1031D00009FB1A00C7B24FF00008002210E001EB13
:1031E000810000EBC100DFF8B89409EBC000001DBE
:1031F00002EB820900EB890080F80680501CC2B205
:10320000052AECDB3846BDE8F887481CC1B22829FE
:10321000B0DB8AE0052E7DD1002283E002EB820044
:1032200000EBC200DFF8789419F83000052807D0C9
:1032300002EB820000EBC20019F8300000286FD1C9
:1032400000216BE002EB820000EBC200DFF850943B
:1032500009EBC000001D01EB810900EB8900C0787B
:103260009DF80090484557D102EB820000EBC20068
:10327000DFF82C9409EBC000001D01EB810900EB85
:10328000890000799DF80190484545D101EB810006
:1032900002EBC000C7B207F1C800001B4FF0C8091D
:1032A00090FBF9FA09FB1A0083B2FE4890F8B502C8
:1032B000C830001B90FBF9FA09FB1A001FFA80FCCA
:1032C0004FF0000901EB810000EBC100DFF8D0A353
:1032D0000AEBC000001D02EB820A00EB8A0080F8B6
:1032E0000690634501DD642B01DC38468BE74FF027
:1032F000020901EB810000EBC100DFF8A4A30AEB97
:10330000C000001D02EB820A00EB8A0080F80690E4
:10331000FF2078E709E003E0481CC1B2052991DBF2
:10332000501CC2B2282AFFF679AF38466BE7F0B5D9
:10333000024600BF00BF0021282592FBF5F5EBB245
:10334000282592FBF5F605FB1625E8B200EB800573
:1033500005EBC005D24E16F83540012C22D100BF36
:103360001DE000EB800505EBC005CD4E06EBC50565
:103370002D1D01EB810605EB86056D7945F00806EC
:1033800000EB800505EBC005C54F07EBC5052D1DFE
:1033900001EB810705EB87056E714D1CE9B205292C
:1033A000DFDB1DE0052C1BD100EB800505EBC00524
:1033B000BB4E06EBC5052D1D03EB830605EB86050D
:1033C0006D7945F0080600EB800505EBC005B44FAC
:1033D00007EBC5052D1D03EB830705EB87056E7114
:1033E000F0BD70B5B04C24784CBB02F1C804641A2F
:1033F000A4B2C82594FBF5F605FB1644A3B2012B35
:1034000005DDC3EB0314C0EB4404A74D6C81012B15
:1034100001DDFF2A77D1A44C6478012C02D101F19F
:10342000280305E0A04C6478052C01D101F1C80304
:10343000C3EB0314C0EB44049B4D6C8163E09A4CD6
:103440002478012C5FD1984CA1706478012C38D17C
:10345000FF2A17D0914204D1C0F59664924D6C8139
:1034600051E002F1C804641AA4B2C82594FBF5F631
:1034700005FB1644A3B2C3EB0314C0EB44048A4D0E
:103480006C8140E0FF2A3ED1002401F1C805874E3F
:103490003678AD1BACB2282594FBF5F605FB164536
:1034A000ACB224B9C0F596657F4E758108E0C4EBD7
:1034B00004154FF49666A6EB45052D1A7A4E7581D4
:1034C00021E0794C6478052C1DD141F27074241AE6
:1034D000754D6C81FF2A16D1002401F1C805734E89
:1034E0003678AD1BACB2C82594FBF5F605FB164546
:1034F000ACB2C4EB041541F27076A6EB45052D1A6B
:10350000694E758100BF70BDF3B5024600230020EF
:10351000002492F8B612012902D192F8B44207E0D1
:1035200092F8B612052902D192F8B54200E0FCBD2E
:10353000282194FBF1F1CBB2282194FBF1F501FB9A
:103540001541C8B292F8B61201296AD100EB800584
:1035500005EBC005524E06F8351000215EE001264D
:1035600000EB800505EBC0054D4F07EBC5052D1D94
:1035700001EB810705F8276000EB800505EBC0052E
:10358000474F07EBC5052D1D01EB810705EB8705AF
:103590006E70002600EB800505EBC005404F07EB81
:1035A000C5052D1D01EB810705EB8705AE7101EB0C
:1035B000810500EBC505C82695FBF6F706FB1755F8
:1035C000EEB200EB800505EBC005354F07EBC505F6
:1035D0002D1D01EB810705EB8705AE7040F28F468C
:1035E00000EB800505EBC0052D4F07EBC5052D1D34
:1035F00001EB810705EB87056E8100EB800505EB8C
:10360000C005274E06EBC5052D1D01EB810605EB18
:103610008605BDF80460A5F80360491C05299EDBFA
:1036200078E092F8B612052974D100EB800505EB1D
:10363000C0051B4E06F8351000EB800101EBC00100
:10364000354605EBC1014978491C00EB800505EBC7
:10365000C00506EBC5056970012500EB800101EB93
:10366000C00106EBC101091D03EB830601F82650DA
:10367000052500EB800101EBC001094E06EBC101FD
:10368000091D03EB830601EB86014D7000EB800101
:1036900001EBC001024D05EBC101091D08E000006E
:1036A0004013002068100020E8230020A90100201A
:1036B00003EB830501EB85018C70002500EB800195
:1036C00001EBC001F74E06EBC101091D03EB8306B8
:1036D00001EB86018D7141F24F7500EB800101EB2A
:1036E000C001F04E06EBC101091D03EB830601EB9F
:1036F00086014D8100EB800101EBC001E94D05EB36
:10370000C101091D03EB830501EB8501BDF80450E0
:10371000A1F8035000BF0AE770B50246002001EB94
:10372000810404EBC104DF4D05EBC404241D02EB4E
:10373000820504EB85046378052B7DD101EB8104C0
:1037400004EBC104D74D05EBC4046478002C0FDDF5
:1037500001EB810404EBC10405EBC4046478641E2E
:1037600001EB810505EBC105CE4E06EBC5056C707E
:1037700001EB810404EBC104CA4D05EBC404647879
:103780003CB9002401EB810505EBC105C54E06F8E7
:103790003540002501EB810404EBC104C14E06EB6A
:1037A000C404241D02EB820604EB8604657101EB60
:1037B000810404EBC104BB4E06EBC404241D02EBE0
:1037C000820604F8265001EB810404EBC104B54ED7
:1037D00006EBC404241D02EB820604EB8604A571EB
:1037E00001EB810404EBC104AE4E06EBC404241DBE
:1037F00002EB820604EB8604258101EB810404EBD5
:10380000C104A84E06EBC404241D02EB820604EB9F
:103810008604257101EB810404EBC104A14E06EB83
:10382000C404241D02EB820604EB8604E57001EB60
:10383000810404EBC10400E016E09A4E06EBC404D8
:10384000241D02EB820604EB8604658101EB8104F2
:1038500004EBC104934E06EBC404241D02EB820664
:1038600004EB8604A57077E0012B75D1002401EBF1
:10387000810505EBC1058B4E06F83540002069E057
:10388000002501EB810404EBC104864E06EBC40461
:10389000241D00EB800604F8265001EB810404EBA4
:1038A000C104804E06EBC404241D00EB800604EB2B
:1038B0008604657101EB810404EBC104794E06EBCB
:1038C000C404241D00EB800604EB8604A57101EB03
:1038D000810404EBC104734E06EBC404241D00EB09
:1038E000800604EB8604258101EB810404EBC1040E
:1038F0006C4E06EBC404241D00EB800604EB86042A
:10390000257101EB810404EBC104664E06EBC4048F
:10391000241D00EB800604EB8604E57001EB8104B6
:1039200004EBC1045F4E06EBC404241D00EB8006CB
:1039300004EB8604658101EB810404EBC104594E5C
:1039400006EBC404241D00EB800604EB8604A5707E
:10395000441CE0B2052893DB70BD2DE9F04780469A
:10396000002500BF00BF00274F4880F8B282282002
:1039700098FBF0F0C6B2282098FBF0F100FB118014
:10398000C4B2494880F8CA4280F8CB6204EB840094
:1039900000EBC400434901EBC000001D06EB8601AB
:1039A00000EB810090F801A004EB840000EBC40060
:1039B0003C4901EBC000001D06EB860110F8210018
:1039C00001284ED1BAF1050F0DD104EB840000EBB4
:1039D000C400344901EBC000001D06EB860100EB7A
:1039E0008100877937E0BAF1010F34D100251DE05D
:1039F00004EB840000EBC4002A4901EBC000001D69
:103A000005EB850100EB81008079B8420CDD04EB09
:103A1000840000EBC400234901EBC000001D05EB4E
:103A2000850100EB81008779681CC5B2052DDFDBBD
:103A300000250EE004EB840000EBC400194901EB03
:103A4000C000001D05EB850100EB81008771681C3B
:103A5000C5B2052DEEDB022F03DB21463046FFF712
:103A60005BFE04EB840000EBC4000E4901EBC000D8
:103A7000001D06EB860110F82190B9F1000F09D066
:103A8000B9F1010F09D0B9F1020F08D0B9F1030F54
:103A90000ED10BE00120BDE8F0870220FBE70320F8
:103AA000F9E7000040130020681000200420F2E72E
:103AB0000020F0E7F0B5044600BF00BF282094FBCB
:103AC000F0F0C1B2282094FBF0F600FB1640C2B221
:103AD00002EB820000EBC200FC4E06EBC000001DB2
:103AE00001EB810600EB86004578052D23D10020EF
:103AF000F74E307002EB820000EBC200F34E06EB93
:103B0000C000001D01EB810600EB86000089401C0F
:103B100083B202EB820000EBC200EC4E06EBC00069
:103B2000001D01EB810600EB8600C06810B3012088
:103B3000E74E307021E0012D1DD159B902EB820012
:103B400000EBC200E14E06EBC000B0F85C00401C88
:103B500083B212E002EB820000EBC200DB4E06EB08
:103B6000C000001D4E1E06EB860600EB8600008995
:103B7000401C83B201E00020F0BD012602EB820070
:103B800000EBC200D14F07EBC000001D01EB810725
:103B900000F82760002602EB820000EBC200CB4F4A
:103BA00007EBC000001D01EB810700EB8700C6603A
:103BB00002EB820000EBC200C44E06EBC000001D09
:103BC00001EB810600EB86008079401CC6B202EB57
:103BD000820000EBC200BD4F07EBC000001D01EBEF
:103BE000810700EB870086711846C5E718B50146C6
:103BF00000BF00BF282091FBF0F0C2B2282091FB4B
:103C0000F0F400FB1410C3B203EB830000EBC3001D
:103C1000AE4C04EBC000001D02EB820400EB8400FC
:103C2000B0F803000090BDF8000018BD11B500BF4A
:103C300000BF00BFA74B93F8CB2293F8CA1201EB49
:103C4000810303EBC103A14C04EBC3031B1D02EB77
:103C5000820403EB8403587801EB810303EBC10377
:103C60009A4C04EBC303B3F80730ADF8003018BD2D
:103C70002DE9FC470746884614461D460026B146F6
:103C8000B2460022944B384641460CF0AEF9CDE9DD
:103C900000010CF00AFB8246282094FBF0F0C6B22B
:103CA000282094FBF0F100FB114000F0FF0975B9EA
:103CB00009EB890000EBC900844901EBC000001D3D
:103CC00006EB860100EB8100C0F80CA00FE0012D8F
:103CD0000DD109EB890000EBC9007C4901EBC00064
:103CE000001D06EB860100EB8100C0F810A001204A
:103CF000BDE8FC8770B500208DE0002400EB800556
:103D000005EBC005714E06F8354000EB800505EB6C
:103D1000C00506EBC5056C70002179E001EB81045C
:103D200000EBC402002500EB800404EBC004674EE6
:103D300006EBC404241D01EB810604F8265000EBB9
:103D4000800404EBC004614E06EBC404241D01EBA7
:103D5000810604EB8604A27000EB800404EBC0042F
:103D60005A4E06EBC404241D01EB810604EB8604C5
:103D7000258100EB800404EBC004544E06EBC40420
:103D8000241D01EB810604EB8604A57100EB800481
:103D900004EBC0044D4E06EBC404241D01EB810668
:103DA00004EB8604257100EB800404EBC004474E4D
:103DB00006EBC404241D01EB810604EB8604E570C8
:103DC00000EB800404EBC004404E06EBC404241D49
:103DD00001EB810604EB8604E56000EB800404EB54
:103DE000C0043A4E06EBC404241D01EB810604EB2B
:103DF0008604256100EB800404EBC004334E06EB1F
:103E0000C404241D01EB810604EB86046571491C82
:103E1000052983DB401C2828FFF66FAF1423002000
:103E20007EE0441C94FBF3F503FB15449CBB062485
:103E300000EB800505EBC005244E06F8354005244F
:103E400000EB800505EBC00506EBC5056C70002195
:103E50001EE001EB810400EBC402022500EB8004AC
:103E600004EBC004194E06EBC404241D01EB8106CB
:103E700004F8265000EB800404EBC004134E06EB5C
:103E8000C404241D01EB810604EB8604A270491CC6
:103E90000529DEDB43E0FFE7441F0A2594FBF5F626
:103EA00005FB1644DCBB062400EB800505EBC005D2
:103EB000064E06F83540052400EB800505EBC005ED
:103EC00006EBC5056C70002127E0000040130020C0
:103ED000A7010020681000200000594001EB810478
:103EE00000EBC402032500EB800404EBC004FE4E8B
:103EF00006EBC404241D01EB810604F8265000EBF8
:103F0000800404EBC004F84E06EBC404241D01EB4E
:103F1000810604EB8604A270491C0529DEDB401CE7
:103F20002828FFF67EAF70BD18B50346EF48B0F8FD
:103F300003000090EE4890F8CE029873EC480078A9
:103F400002281CD1BDF800001880E848008958807C
:103F5000E64840795873E54840781873012A07D13C
:103F6000E2480089401E5880E2480068586002E03C
:103F7000DE48C068586000209860012018BDDC4809
:103F8000007801283DD10888BDF80040A04218D132
:103F9000D64800894C88A04213D1BDF800000880A3
:103FA000D24800894880D14840794873CF4840784A
:103FB0000873CE48C0684860CC480069886000201B
:103FC000DCE70888BDF80040A04204D1C74800895A
:103FD0004C88A04215D0BDF800001880C348008965
:103FE0005880C24840795873C04840781873BF4819
:103FF000C068C14C20445860BC48006998600120EA
:10400000BCE70120BAE710B504460020BB490870A0
:10401000012C05D10120487040F27E40488107E024
:10402000052C05D10520B549487041F23E70488104
:104030000020B24988700021B0480171C170002091
:10404000AE490881887148710846437802788179C1
:10405000ABA00BF07EFD10BD0020A44988700021AC
:10406000A2480171C1700020A0490881887148717F
:10407000C86008619E4981F8CE0270472DE9F04181
:104080000C460025002200BF0023418F90F8CA7221
:1040900007EB870C0CEBC707DFF84CC20CEBC7072C
:1040A0003F1D90F8CBC20CEB8C0C07EB8C077E7895
:1040B000012E5BD190F8CB723F1D4FF0050C97FBA2
:1040C000FCF80CFB1877BBB290F8CA7207EB870CB0
:1040D0000CEBC707DFF810C20CEBC7073F1D03EB63
:1040E000830C07EB8C07FD6890F8CA7207EB870C0E
:1040F0000CEBC707DFF8F0C10CEBC7073F1D03EB64
:10410000830C07EB8C073A891DB911B18F1A012F67
:1041100002D08F1A012F5ED04F1E1FFA87FC90F835
:10412000CA7207EB870808EBC707DFF8BC8108EB0A
:10413000C7073F1D03EB830807EB8807A7F808C0F4
:1041400090F8CA7207EB870C0CEBC707DFF898C131
:104150000CEBC7073F1D03EB830C07EB8C07FC60E0
:10416000644F3C600127C0F8347234E0052E32D130
:1041700090F8CA7207EB870C0CEBC707DFF868C131
:104180000CEBC7073F1D90F8CBC20CEB8C0C07EB78
:104190008C07FD6890F8CA7207EB870C0CEBC70719
:1041A000DFF844C10CEBC7073F1D90F8CBC20CEB06
:1041B0008C0C07EB8C073A895D4F3F781FB911B122
:1041C0008F1A012F02D08F1A012F04D0494F3C6063
:1041D0000127C0F83472BDE8F081454981F8CD026D
:1041E000704738B50446002000904448B0F80300FA
:1041F0000090BDF80000A04207D10120FFF7EDFFBD
:104200004FF40030FEF71CF802E00020FFF7E5FF56
:1042100038BD0020474908808870C87070472DE974
:10422000F04F87B0824600BF4FF0000B0020069091
:10423000DAF800B09AF8040040B2069058460BF045
:10424000D4FF06460F4606980BF0BEFF80460022BC
:10425000394B0BF0CAFE0022374BCDE900010BF0C1
:10426000C4FE32463B46CDE902010BF017FE334A4D
:10427000334BCDE904010BF0B8FE04460D46204651
:10428000294607B0BDE8F08F2DE9F0478AB0824695
:1042900000BF0AF5D8700AF0ECFBBAF8BA010BF0CF
:1042A000A4FFCDE90601BAF8BC010BF09EFF04465D
:1042B0000D4622462B46204629460BF096FE064622
:1042C0000F4600224FF08243DDE906010BF08DFE20
:1042D00032463B46CDE900010BF0F9FECDE9020183
:1042E0000CF0D2FB80462DE040130020FC23002080
:1042F00068100020A001002020A10700E823002072
:1043000075384C6F73744E756D203D2025642062A6
:104310003155736564203D202564207538446576E9
:1043200069636554797065203D2025640A000000AA
:10433000A7010020B60100200000F040FA48CE3B63
:104340001835B13D0022FE4B0BF04FFEFD4AFE4BEF
:10435000CDE904010BF043FECDE90801DDE90801D8
:104360000BF084FF40B28AF8CE020AB0BDE8F087B5
:104370002DE9F04F97B0824600BF00BF00BF00BFDD
:104380004FF0000B0AF5D8700AF073FBBAF8B201CF
:104390000BF02BFF04460D46BAF8B6010BF025FFD3
:1043A00006460F46BAF8B8010BF01FFF8046894653
:1043B000BAF8BC010BF019FFCDE91201DDE91223B7
:1043C000104619460BF011FE42464B46CDE90A0154
:1043D000404649460BF009FE32463B46CDE9060110
:1043E000304639460BF001FE22462B46CDE902014C
:1043F000204629460BF0F9FDCDE90001DDE9022355
:104400000BF04CFDCDE90401DDE906230BF046FD80
:10441000CDE90801DDE90A230BF059FECDE90C01D5
:104420000CF032FB0022C64BCDE90E010BF0DDFD96
:10443000C44AC54BCDE910010BF0D1FDCDE9140103
:10444000DDE914010BF012FF0FFA80FB584617B09C
:10445000BDE8F08F70B506460D463046FFF714FFF5
:1044600096F9CE42B948C078401CB849C87014F1DA
:104470005C0F0ADB08460088A84201D1032070BD0A
:10448000B248847005800020F9E7B048C078012860
:1044900004D1AE48847005800120F0E7AB48008865
:1044A000A8420ED1A94890F90200A04201DAA7481B
:1044B0008470A6480079012801D10220DFE701209D
:1044C000DDE7A24890F90200A04204DA9F48847018
:1044D00005800120D3E70220D1E700209B49088016
:1044E0008870C87008719A4981F8D002994908709B
:1044F00070472DE9F05F04460D46974A974B2046DA
:1045000029460BF0E4FD80460022954B0BF0DFFDC1
:1045100082468B46504659460BF0E0FE06460F4653
:1045200030463946BDE8F09F2DE9F04704460D4678
:1045300000BF204629460BF065FE0646864A874B9B
:104540000BF053FD8046894640464946BDE8F0875A
:104550002DE9FC5F82460AF59C76C0CE7F20D6F11D
:10456000FF31B84102DA361E67F5807730463946AA
:10457000FFF7DAFF00227B4BCDE900010BF035FDA0
:10458000804689464FF09852774B404649460BF09B
:104590002CFD04460D460022744B204629460BF0A4
:1045A000C9FE06D30022724B204629460BF0DAFEE4
:1045B00001D2BDE8FC9F204629460BF0EBFE834666
:1045C0009AF815209AF81400594609F063FD22461E
:1045D0002B46CDE900010BF005FD04460D4625F004
:1045E0000045644A30C200BFE3E72DE9F04F87B0D1
:1045F0008246DAF83491DAF830817F20D8F1FF3141
:1046000070EB090004DA0022B8EB020869F5807942
:1046100040464946FFF788FF0022524BCDE9020190
:104620000BF0E3FCCDE904014FF098524E4BDDE96D
:1046300004010BF0DAFC04460D4600224B4B2046E9
:1046400029460BF077FE06D30022494B2046294627
:104650000BF088FE02D207B0BDE8F08F2046294655
:104660000BF098FE83469AF815209AF814005946E4
:1046700009F010FD22462B46CDE902010BF0B2FCF9
:1046800004460D4625F000453B4830C022462B46E7
:10469000DAF890B15846DAF894110BF0FFFB0AF5FE
:1046A000C87203C2DAF89801401CCAF89801DAF817
:1046B00098010BF089FDCDE9020102460B46DAF8BC
:1046C00090B15846DAF894C161460BF000FD0646F9
:1046D0000F462A4AC0C2DAF89C11481CCAF89C014D
:1046E0000AF5A87000EBC10230C2DAF89C01082874
:1046F00002D10020CAF89C01DAF8A00108284CD1A8
:1047000000200290039083460EE00AF5A87000EBAB
:10471000CB0103C9CDE90001DDE902230BF0BEFBAB
:10472000CDE902010BF1010BDAF8A0015845ECDCF0
:10473000DAF8A0010BF048FD02460B4620E000002D
:1047400000002440AE47E17A14EE5C40BA0100203C
:1047500068100020AA010020FA48CE3B1835B13D70
:1047600080842E410000D03F19DDB1410000E0BF40
:104770000088D34058010020400100205001002053
:10478000CDE90001DDE902010BF0A1FCCDE9020158
:10479000FE4ADDE9020103C204E0DAF8A001401C90
:1047A000CAF8A00100BF56E70278022A11D1426878
:1047B0000B2A02D042680D2A05D1DD233F22135473
:1047C000402213542FE0CC233F2213544022135491
:1047D00029E00278032A1ED14268022A0ED04268DC
:1047E000032A0BD042680E2A08D04268112A05D04D
:1047F0004268142A02D04268132A05D1EE233F22D0
:104800001354402213540EE0CA233F221354DE23D4
:104810004022135407E00278012A04D1CC233F221E
:10482000135440221354412280F83C2090F83C203D
:1048300009B1202300E000231A4380F83C2088239C
:104840003D22135490F8B2323E2213540278022AC9
:1048500006D100F13C02CE4B1B88A0F841301FE08E
:104860000278032A02D00278012A19D100F13C0211
:10487000B0F8AA32A0F841300278032A10D1426879
:104880000E2A08D04268112A05D04268132A02D0A5
:104890004268142A04D1FF234122135442221354A4
:1048A00000F13C02BB4B1B88A0F84330704710B5A9
:1048B00000215B224A43B84C04EBC20282F89A0200
:1048C00010BD2DE9F04104460D4617461E4684F8FA
:1048D000C87135B12A4604F5E47104F145000BF0C6
:1048E00049FA05F10B00A4F8040131462046FFF710
:1048F0005BFF012E02D1022084F87A0284F87B62E9
:10490000BDE8F0812DE9F041064614461D4636B15A
:10491000200A40EA056738460AF025FE00BF9E4897
:104920000078012804D1FF22002108460AF099FEF0
:1049300030460AF0ADFEBDE8F0812DE9F0410446B5
:104940000D460026B4F80401002204F13C010AF0EF
:104950003CF8B4F8040100210AF04AF855B194F883
:104960002C010206D4F8281142EA112738460AF031
:10497000FAFD00BF94F87A0218B141F288300AF0CB
:10498000ADFE94F87A122943C8B20AF0F4FD00B1E2
:1049900001263046BDE8F08100B5A7B080227F49EE
:1049A00001A80BF0E7F9182002F0F2FE0AF077FFF9
:1049B00002208DF88C0009208DF891008DF8900070
:1049C00002208DF88D0000208DF8930028208DF8AE
:1049D0008E0003208DF88F0001208DF892000020BA
:1049E0008DF89800032123A809F0ACFE9DF88C00F7
:1049F00000EB40006A4911F820008DF884009DF812
:104A00008C0000EB400001EB8000001D9DF88D1034
:104A1000491E50F82100229021A809F031FE4FF4E0
:104A200080500AF0B6FF002201A97F2009F0CDFFD7
:104A300000217F2009F0DCFF00200AF09CFD00200F
:104A400027B000BD7CB502250126182002F0A0FE8B
:104A50000AF025FF05EB4500514911F820008DF8BB
:104A6000000005EB450001EB8000001D711E50F8B1
:104A700021000190684609F003FE28460AF041FF34
:104A8000002403E0E0B209F029FE641C1F2CF9DDCC
:104A90007CBD38B5002541F2AA1000900AF0C8FD8F
:104AA0003D4C002140F2C91001553E4841794FF478
:104AB000E57001553B48417840F2CB10015539482B
:104AC0000089010A4FF4E67001553648017A40F238
:104AD000CD10015594F8C60270B104F5E470B4F835
:104AE000C812A4F8CE11BDF80010A4F8D01100200F
:104AF00084F8C6020A250DE094F8C60250B94FF6B4
:104B0000FF70A4F8C80204F5E470B4F8C812A4F861
:104B1000CE11082513206060002328222946204654
:104B2000FFF7CFFE1320E06000212046FFF705FFCE
:104B300010B1002020610AE01A4801891AA00BF088
:104B400008F8022002F0E1FE00200AF0C7FD38BD9F
:104B500010B51448007820B90320FDF78BFDFFF74E
:104B600098FF10BD70B500250B4C0AF061FD1420B4
:104B700060600C48417940F2C910015500232B2296
:104B800002212046FFF79DFE142019E04801002075
:104B9000960100206E00002068100020A01201087D
:104BA0006C0B0108E823002074646F61203A2075C3
:104BB00031365365714E756D3D2564210A00000044
:104BC000E06000212046FFF7B8FE60B100BFFEA004
:104BD0000AF0BFFF00BF681CC5B2032D08DA03202E
:104BE00002F093FE04E00620606000200AF076FDEB
:104BF00070BD70B50025F94C00BF0AF019FD0E20FC
:104C00006060F748417940F2C91001550023232222
:104C100002212046FFF755FE002084F850020E20A6
:104C2000E06000212046FFF788FE60B100BFEDA0E4
:104C30000AF08FFF00BF681CC5B2032D0BDA0320FA
:104C400002F063FED9E700250620606001202061A4
:104C500000200AF043FD70BD70B50446002500BF7A
:104C60000AF0E6FCE448817840F2C91001550F20B3
:104C700060600023242202212046FFF722FE00204C
:104C800084F850020F20E060012002F03EFE002177
:104C90002046FFF752FE60B100BFD8A00AF059FFCE
:104CA00000BF681CC5B2032D07DA032002F02DFEF9
:104CB000D6E7002500200AF011FD70BD2DE9F04176
:104CC000804698F87A0220BB00BF98F83800C8B137
:104CD000D8F85812D8F8080140180446D8F80C0043
:104CE0000B280FD10022CA4BD8F870623046D8F892
:104CF00074120BF037FB05D20420D8F86012A1FB28
:104D0000000100194FF0000213461046FFF7FAFDAC
:104D100002E0002088F87A02002088F8380098F82D
:104D2000000030B1D8F80C00052802D00120C8F8E6
:104D300010000820C8F8040000200AF0CFFCBDE8ED
:104D4000F08170B50546A54C0AF072FCA448417983
:104D500040F2C9100155401C055511206060002328
:104D6000262203212046FFF7ACFD002084F85002E4
:104D70001120E06000212046FFF7DFFD18B120463A
:104D8000FFF79CFF09E000BFA2A00AF0E2FE00BF0F
:104D90000620606000200AF0A1FC70BD10B58F4CA9
:104DA0000AF046FC8E48417940F2C91001550023B3
:104DB000272201212046FFF784FD002084F85002BD
:104DC0001220E06000212046FFF7B7FD40B100BF90
:104DD00096A00AF0BEFE00BF2046FFF76FFF05E079
:104DE0000620606041F658300AF078FC10BD10B51E
:104DF00094A00AF0AEFE10BD10B5A1A00AF0A9FE65
:104E000010BD38B5FDF722FC044694F8D20220B953
:104E1000002140F2C910015507E094F8D2020128A0
:104E200003D1012140F2C9100155608F401C6087F9
:104E3000608F010A4FF4E570015594F83A10401C58
:104E4000015594F83A103E2001554FF6FF70A4F832
:104E5000D40200232D2206212046FFF732FD002137
:104E60002046FFF76AFD10B1608F401E6087608F9B
:104E70000090B4F8A81291480388914802789148AC
:104E80000AF067FE02200AF0E2FA38BD5349D1F871
:104E9000C00270472DE9F04704464FF00009002694
:104EA000B24694F8B272282097FBF0F100FB117023
:104EB000C6B2282097FBF0F000F0FF0A0AF0B8FB1A
:104EC00004F05FFD0246FFF7E1FFA2EB0008B8F136
:104ED000000F01DB404601E0C8F10000C5B27A488E
:104EE0000570C5F11E000A280CDC032140F2C91030
:104EF0000155C5F11E00032835DC00200AF0EEFB49
:104F0000BDE8F087002140F2C910015506EB86008C
:104F100000EBC6006D4911F83000052804D10221CC
:104F200040F2C91001551EE006EB860000EBC600FA
:104F3000664911F83000062815D106EB860000EB13
:104F4000C60001EBC000001D0AEB8A0110F8210029
:104F5000032804D1002140F2C910015503E00221C9
:104F600040F2C91001554FF4E5700555394604F576
:104F70002D70FDF732FF40F2CB110855394604F28F
:104F8000B520FDF7CCFF4FF4E6710855052120460A
:104F9000FDF7D0FD81464FF6FF704D490880002394
:104FA000072209F101012046FFF78BFC002084F85D
:104FB00050020B20E06000212046FFF7BEFC08B144
:104FC00000BF87E08FE00000726574726561742035
:104FD00061636B206661696C21200A006810002003
:104FE000E823002061736B2068656C70206661693E
:104FF0006C21200A00000000B601002068656C707A
:105000002072657370206661696C21200A000000BF
:1050100000C0624065786369742073656E642073B4
:1050200065636375737320210A00000074786578E6
:105030006369745F61636B5F73656E642066616949
:105040006C2000000A202A2A2A2A2A2A2A2A2A2A06
:105050002A2A2A2A20626F61726420696E6974208C
:1050600054646F6153746174696F6E546573743105
:105070002A2A2A2A2A2A2A2A2A2A2A2A2A0A000004
:105080000A202A2A2A2A2A2A2A2A2A2A2A2A2A2AAA
:1050900020626F61726420696E69742054646F616C
:1050A00053746174696F6E54657374322A2A2A2AA4
:1050B0002A2A2A2A2A2A2A2A2A0A0000C201002089
:1050C000C1010020101201089D01002040130020A2
:1050D00096010020F9A00AF03CFD00BF0B206060A3
:1050E0000020206107E0062060600120206142F27C
:1050F00010700AF0F3FA00BF02E710B5044603206F
:10510000FDF7B8FA2046FFF7C5FE10BD10B50446FE
:1051100004F037FCEA490860EA48417940F2C910D6
:105120000155E84841784FF4E570015500232022ED
:1051300003212046FFF7C5FB062060600C20E060DD
:1051400000212046FFF7F9FB88B100BFAFF218102D
:105150000AF0FFFC00BF0021C4F80811C4F80C11CC
:10516000002084F838002046FFF7A8FD10E094F9ED
:10517000CE12D5480278D5A00AF0EBFC062060607C
:105180000C20E0600120206141F658300AF0A6FAB8
:1051900010BD70B504460D4600260AF049FA2821D4
:1051A00040F2C9100155D24801784FF4E57001551D
:1051B00004F5E470B4F84011A4F8CB11FF2D13D11D
:1051C00094F8B602052805D194F8B51240F2CD1036
:1051D00001550CE094F8B602012808D194F8B412F5
:1051E00040F2CD10015502E040F2CD1005550626E3
:1051F0000023222231462046FFF763FB002084F87B
:1052000050020D20E06000212046FFF796FB20B100
:105210000D2060600020206107E006206060012012
:10522000206141F658300AF059FA70BD2DE9F0417D
:1052300004460027002500260AF0FAF904F0A1FB35
:10524000AC490860FFF722FEAA4909680A1A002A39
:1052500001DB104600E050420646207802282ED19D
:10526000142E11DD94F8CC02012808D194F8CA124A
:1052700094F8CB02FEF750FA002084F8CC022046C6
:10528000FFF73BFFBDE8F08100209B4908709B4879
:105290000078012810D194F8B202FEF7A7FC9849D3
:1052A000088094F8B202FEF705FC0546A4F8BA524D
:1052B00000209249087007E0B4F8BA5204E0207860
:1052C000032801D17F480589C5F3072140F2CB109F
:1052D0000155401C05552078022816D1012084F87C
:1052E0005002217894F8B202FDF72CFC40F2C9116B
:1052F0000855481C065594F8B21204F2CD128048A5
:105300000088FDF76EFC062711E0207803280ED1F7
:105310006C48417940F2C91001556A4841784FF410
:10532000E57001556749C968C4F8CD110A27022004
:1053300060600023212239462046FFF7C2FA02208E
:10534000E06000212046FFF7F8FA48B100BF6DA0E9
:105350000AF0FFFB00BF02206060002020610AE02D
:1053600001206B490870062060600120206141F631
:1053700058300AF0B3F900BF84E710B5044651482D
:10538000C1686448027864A00AF0E3FBB4F8AA029A
:1053900042F210710844A4F8AA022046FFF746FF23
:1053A0005C480078002804DD5A480078401E5949BE
:1053B000087010BD10B5102160480AF0F4FC42F2EC
:1053C00011705E490880401C8880401C088110BD17
:1053D00070B5FDF73BF9054658488489601E57496A
:1053E00001EB8000428856480378214655480AF070
:1053F000B0FB601E514901EB80004088012815D1A7
:10540000032C0DDBFFF7D6FF00204C49C8814C4927
:1054100008704D4908804FF40000FCF728FF70BD6C
:10542000464830F82400A5F8AA0203E04348008863
:10543000A5F8AA022846FFF7F9FE00BFEFE738B546
:10544000044600250AF0F4F804F09BFA3F4908608E
:105450001C48417940F2C9100155207801287BD0C1
:1054600041F2AA1000901748008939490988401A6A
:10547000012803D126480078012802D100203549AF
:10548000086000202249087032490968C4F8CA112E
:1054900004F5E4700B490989A4F8CE1194F8C5020B
:1054A00058B104F5E470B4F8C812A4F8D011BDF8EE
:1054B0000010A4F8D2110C255DE04EE0734E2000E0
:1054C00068010020E8230020AA01002073656E64B3
:1054D00020696E697420202D2D72737369203D251B
:1054E000692020737461747573203D2564200A005F
:1054F0009D0100206001002088010020890100201A
:105500009601002020706F6C6C206661696C200031
:10551000A6010020A80100206D5F64697374616EAC
:105520006365203D2564096E65775F746F665F690A
:105530006E203D202564090A000000001024002090
:10554000C10100205C120108C2010020700100208E
:10555000A4010020A001002011E094F8C50250B978
:105560004FF6FF70A4F8C80204F5E470B4F8C8124E
:10557000A4F8D0110A250020F949086000E00225AE
:1055800004F13C00B4F84011A4F8411000231022AB
:1055900029462046FFF795F9062060600420E06068
:1055A00001212046FFF7C9F980B100BFEDA00AF044
:1055B000D0FA00BF0021C4F80811C4F80C11002073
:1055C00084F838002046FFF779FB0BE0002084F8D0
:1055D000C5020120206141F658300AF07FF8012011
:1055E00002F093F938BD7CB5044604F0CAF90646CA
:1055F0000AF01EF840F2CD104FF48671D4F808215D
:10560000C4F8C921095D0155401D4FF48A71D4F8D1
:105610001021C4F8CE21095D0155D34AD4F82811D0
:105620001140D4F82C01C0B2CDE90010B4F81C012F
:10563000DDE90032C01842F10001CDE90001DDE9E9
:105640000010C0B2CDE9001040F2D7100099C4F8A4
:10565000D3119DF80410015504F13C00B4F8401139
:10566000A4F8411003206060002329221021204665
:10567000FFF727F901212046FFF75FF958B1002114
:10568000C4F80811C4F80C1102206060A06000206A
:1056900009F04BFD7CBD062060600320E06041F610
:1056A00058300AF01BF801202061207803280BD025
:1056B00004F067F90546022002F027F9AB480068BC
:1056C000281AAA49086008E02078032805D1A8A074
:1056D0000AF03FFA0120C4F8300200BFDAE710B543
:1056E0000446AA49C968C4F8C91100232A22052121
:1056F0002046FFF7E6F800212046FFF71EF9E8B143
:1057000000BFA3A00AF025FA00BF0021C4F80811C9
:10571000C4F80C11C4F82811C4F82C1194F87802BC
:10572000401C84F8780294F87802032802DA0520F5
:10573000606016E02046FFF7C1FA12E001209849A8
:105740000870062060600520E06094F87802401C34
:1057500084F878020021C4F82811C4F82C11022022
:10576000206110BD10B504468EA00AF0F2F90120A8
:1057700095490870002095490870182009F0E5F94E
:10578000B4F8220209F0FAF99148008809F0FEF90C
:105790008F4801888FA00AF0DCF98D480088A4F8B2
:1057A000A80204F13C008A490988A4F843100B20A0
:1057B000606094F88D0209F062FD052009F027FD74
:1057C00010BD10B504464DF6DD50A4F82202804805
:1057D0000088A4F8A802182009F0B7F9B4F822024A
:1057E00009F0CCF97A48008809F0D0F904F13C00BE
:1057F00077490988A4F84310002084F8380009F09C
:1058000055FD012084F88D0294F88D0209F037FDD2
:10581000002009F063FF2046FFF750FA10BD00B5E5
:10582000ADF57B7D4FF47A7101A809F091FC401C25
:1058300020B900BF6BA00AF08CF900BF10216E48A0
:1058400005F086FE012002F060F810216A4805F09C
:105850007DFE012002F059F8022009F0F8FD6748AA
:10586000008808F026FF002009F05FFC0121644851
:1058700009F08EFF0DF57B7D00BD70B504460E4628
:1058800004F07FF805462078032812D1E068032849
:1058900002D1FCF7E3FE70BDE068052819D1594834
:1058A0000068291A58A00AF054F90120C4F83002FF
:1058B000F1E7E0680B2803D100204349087008E0B5
:1058C000E068022805D104F5847003C804F58472E9
:1058D00003C22046FFF7F2F900BFDCE702460020D2
:1058E00002290DD1102A05D0202A02D02A2A04D15B
:1058F00001E000BF00BF012001E0002000BF93E0F5
:10590000032915D1262A0DD004DC202A07D0232A0A
:105910000BD106E02A2A03D02B2A06D103E000BFD0
:1059200000BF00BF00BF002001E0012000BF7BE0FE
:10593000012978D1292A0DD006DC212A09D0232A71
:1059400009D0262A6CD107E02B2A06D02C2A67D151
:1059500004E000BF00BF00BF00BF00BF012061E046
:10596000A0010020524E200000FEFFFF8401002015
:1059700072616E676520746F207375625F73746106
:1059800074696F6E206F766572210000E823002035
:105990002D7265706F7274206661696C2000000062
:1059A000A60100202A2A2A2A2A2A2A2A2A2A205418
:1059B0004147202A2A2A2A2A2A2A2A2A2A2A2A2A1D
:1059C0002A2A200A000000008801002080230020ED
:1059D0006E000020092041444452203D20256420CF
:1059E0000A0000004641494C454420746F2057414D
:1059F0004B452055500A0000000002408001002065
:105A0000804002006C010020726576465F73656E0F
:105A1000645265705F593D256420200003E0FFE774
:105A2000002000BF00E000207047F049C1F8AC0240
:105A300070472DE9F34F95B00446606802280AD0FC
:105A400008280FD00B2802D0152871D107E0204676
:105A5000FFF720FAD4E32046FFF7E8FBFAE7FFF769
:105A6000B7FCF7E7169800287BD0022804D004285A
:105A700078D0062877D1C4E304F19F054FF00009E0
:105A8000B5F807001390B5F80500129095F8099045
:105A9000AE78BDF84C00A4F8400121784846FFF7E5
:105AA0001DFF58B9002009F019FE002213461046C8
:105AB000FEF728FF002017B0BDE8F08F4846B9F187
:105AC000250F70D010DC21286ED006DC07286CD0A2
:105AD00010286BD020286AD1FDE1222868D0232825
