:020000001428C2
:10000800803120001708F101F1071608F001F00708
:100018007414003096000030970091139915090068
:100028008801442821009913783099041908FC396B
:1000380002389900E03023008C0521001D102200B1
:10004800981321000C121F3023008C0022000C167C
:100058002D28721C30283128372822000C160E3023
:10006800210097003C2822000C1213302100970031
:100078000130F2070030F33D63002D282D281428A5
:0E008800F001F101F201F301F401200016284D
:020000040001F9
:04000E00BCC9FFDA90
:00000001FF
