:020000040800F2
:100000005833002071460008794600087B460008F6
:100010007D4600087F460008814600080000000079
:1000200000000000000000000000000083460008FF
:10003000854600080000000087460008414D000882
:100040008B4600088B4600088B460008295500089F
:100050008B4600088B460008694A00087F4A000862
:100060008B4600089D4A00088B4600088B46000816
:100070008B4600088B4600088B4600088B4600081C
:100080008B4600088B4600088B4600088B4600080C
:100090008B4600088B4600088B460008BB4A0008C8
:1000A0008B4600088B4600088B4600088B460008EC
:1000B0008B4600088B4600088B4600088B460008DC
:1000C0008B4600088B4600088B4600088B460008CC
:1000D0008B4600081F8300088B4600088B460008EB
:1000E0008B4600088B4600088B4600088B460008AC
:1000F0008B460008DFF80CD00AF090FC004800475F
:100100002109000858330020EFF3108072B67047C1
:1001100080F31088704700000120FE49088870476E
:1001200010B500BF09F012FC0121FB4806F01EF9D2
:100130000128F7D010BD704770B505460E4605B1D1
:1001400006B970BD00240CE0295DF44807F0CDFF2E
:1001500000BF4021F14808F078F80128F9D1601C6F
:10016000C4B2B442F0DB00BFEBE72DE9F05F054617
:100170008B4616461F4615B1B6F5007F09DD00BF58
:1001800032462946E6A009F0E2FF00BF0020BDE8A4
:10019000F09F2C4604F10C08052088F8000001208F
:1001A00088F80100E5480088A8F80200E4480088C3
:1001B000A8F80400A8F806604D2020704120607067
:1001C00000BFA07820F07000A070A07840F0300050
:1001D000A07000BF00BFA07820F00800A070A07839
:1001E00040F00800A07000BF00BFA07820F007001A
:1001F000A070A07807F007010843A07000BF00BFFF
:10020000A07820F08000A070A07840F08000A0705E
:1002100000BF012F07D1CB480088000A2071C948D0
:10022000007860710BE0C8480088000A2071C64859
:1002300000786071C4480088401CC3490880C348E6
:100240000088000AA071C1480078E0710020207287
:10025000607256B1BBF1000F07D0012F05D03246B6
:10026000594605F114000AF070F8032F01D17226E7
:1002700002E0012F00D1002606F10A001FFA80F9E2
:100280004FEA1920A07284F80B9006F1120081B297
:100290004FF6FF72A81C0AF00BF882464FEA1A21AB
:1002A00006F114002954401C05F800A009F10C00C7
:1002B00081B2A748FFF740FF09F10C00C0B266E722
:1002C0002DE9F74191B00C461546B4F8008294F838
:1002D0000202012802D014B0BDE8F0811F208DF881
:1002E000000002208DF80100B8F1010F28DB1FFA91
:1002F00088F0ADF82000182204F110010DF106007D
:100300000AF023F82020ADF802008C480188ADF8EF
:100310000A100120ADF80400BDF80200001D82B2F1
:10032000002369468A48FFF720FF0646002E03DABD
:1003300088A009F00CFF50E08CA009F008FF4CE009
:10034000002712E007EB470304F1100202EBC301A0
:10035000119A12883A4402EB4203119A083202EBD6
:10036000C300182209F0F1FF7F1C4745EADB119812
:1003700000884044119908802868401C2860119822
:10038000028881A0296809F0E2FE119800880028FF
:1003900002DA2868012820DB2020ADF802002022A4
:1003A00011A901A809F0D1FFBDF80200001D82B219
:1003B000002369466648FFF7D8FE0646002E03DA9A
:1003C00064A009F0C4FE02E076A009F0C0FE20217E
:1003D000119809F0D3FF00202860204603F078FF31
:1003E00000BF78E710B500F03DFB044604F4803010
:1003F000002825D009F056FC00BF71A009F0A7FE27
:1004000000BF02F0B3FC022807D100BF74A009F0BE
:100410009EFE00BF02F011FA0FE074480078012838
:1004200002D17349087002E000207149087002206F
:1004300000F04BFB022000F031FB00206B490870FC
:1004400004F0020090B16A48007803F0D9FB02F092
:100450008DFC032803D002F089FC012806D16448F2
:100460000078012802D100206149087010BD10B544
:10047000002009F021FA052009F003FA052140F6D1
:10048000411009F07CF910BDF0B5ADF66C2D0020DF
:100490000B90002500274FF40041564805F07EFFE1
:1004A0004FF48051534805F079FFFFF7E0FF20211A
:1004B00002A809F063FF02F059FC0746022F07D19A
:1004C000C00300F0EBFA9621F80300F053FB03E0C1
:1004D0004FF4803000F0E2FA2CE103F020FB012819
:1004E00005D1022000F0F1FA022000F0D7FA04F062
:1004F00023FC00F0BFFBFFF775FF02F03AFC002879
:10050000EAD003F05AFBCDE90C0103F04EFBADF845
:10051000380071E002FF0108000402400038014089
:100520004275696C64204661696C6564207062750F
:1005300066202558206C656E25640A002400002082
:10054000160000201C0000201A00002014000020CB
:10055000B80300202D2D2D2D2D2D2D2D2D2D736526
:100560006E64206661696C0A000000002A2A312D41
:100570002D2D2D2D2D2D2D73656E642073756363C8
:100580006573730A000000002A74696D6573203D6D
:100590002564202D2D2D207061636B2E6E203D254E
:1005A000640A00002A2A322D2D2D2D2D2D2D2D737C
:1005B000656E6420737563636573730A00000000E1
:1005C0002D2D2D2D2D2D2D2D2D2D2D2D2D2D2D2D5B
:1005D0002D2D2D2D2D2D2D2D2D2D2D2D0A000000F5
:1005E0002073656E6420706F6C6C0A00260000201A
:1005F000270000200000024003F0FDFA8DF83C00C7
:1006000003F0F3FAADF83A009DF83C30BDF838201D
:10061000BDF83A1048A009F09AFD9DF83C00012869
:1006200054D10CA80FC803F0F4FF0646002E27D1C2
:1006300005EB851110AA02EBC1004FF4027109F01D
:100640009DFE05EB851010A901EBC000B0F800225B
:10065000294646A009F07BFD05EB851010A901EBAA
:10066000C000CDE900050CA80FC803F04EFEBDF890
:100670004022BDF84A1042A009F069FD6D1C3EE021
:10068000012E1FD1002400E0641CAC4209DA04EB07
:10069000841010A901EBC0004089BDF83A108842CF
:1006A000F2D1AC4202DD0DF66C2DF0BD04EB8410EE
:1006B00010A901EBC000CDE900040CA80FC803F09D
:1006C00024FE1CE038A009F042FD18E0002D16DDE4
:1006D0000023DDE90C105940584001430FD000249D
:1006E0000BE004EB841010A901EBC000CDE900047D
:1006F0000CA80FC803F009FE641CAC42F1DB002417
:1007000016E004EB841010A901EBC00090F802027F
:1007100001280CD1294633A009F019FD04EB8410FF
:1007200010AA02EBC0010BAA02A8FFF7C9FD641CC6
:10073000AC42E6DBD1E600000A20726563764361D5
:10074000726449443D202564203B20203B73657141
:100750006E756D3D2025643B20737065656474790A
:1007600070653D202564200A000000006D73675FFE
:100770006172725B25645D2E6E3D202564200A0047
:100780007072655F717569636B2E63617264696411
:1007900020203D25642C206D73675F6172722E6E80
:1007A0003D2564200A000000746865206368656365
:1007B0006B5F7374616E646172644944206172722C
:1007C0006179207761732066756C6C202C67657485
:1007D00020612077726F6E67206D656E6265722092
:1007E0000A000000202D2D2D2D2D2D2D2D2D2D20FD
:1007F0006B3D2564202D2D2D2D2D2D2D2D2D2D2DB9
:10080000200A00007CB5182003F080FB02F0EBFE0C
:100810000446664884421AD01021654805F0C0FDA0
:10082000012003F022FC1021614805F0B7FD0720EC
:1008300003F01BFC322003F018FC02F0D4FE044647
:100840005A48844201D080177CBD09F029FB03F08F
:100850003DFB5848006802F086FA02F04DFD05465F
:10086000002D02DA4FF0FF30EEE7082003F04EFBD8
:1008700002F0B9FE04464D48844201D08017E3E7F8
:100880004C48006802F06FFA4B48006802F07DFAAD
:1008900000204A49086008460068C0EBC00048498B
:1008A000085C8DF8000045480068C0EBC0000844B3
:1008B000C0788DF8010041480068C0EBC0000844D2
:1008C00040788DF802003D480068C0EBC000084445
:1008D00040798DF8050039480068C0EBC000084435
:1008E00080798DF8060035480068C0EBC0000844E8
:1008F00080788DF8030031480068C0EBC0000844E0
:1009000000798DF80400684602F071FE4FF4FA7029
:1009100003F020F800202B4903F038F8204693E735
:1009200010B5002403F038FF09F0DCFB0320214957
:10093000086008460068022806D101201E490860A8
:100940000846006802F021FA0620012181401E4A73
:10095000430942F8231000BF00BF1CA009F0F7FBB9
:1009600000BF03F0B3FAFFF74DFF401C68B900BFAA
:1009700021A009F0ECFB00BF06E004F052F804F0FF
:100980005FF8C82003F071FBF7E7062001218140E2
:100990004209920002F1E022C2F8001100BF04F007
:1009A000D5F9FFF771FD002010BD00003001CADE4F
:1009B00000000240340000203800002030000020F9
:1009C0003C0000200000144080E100E00A202A2AB8
:1009D0002A2A2A2A2A2A2A2A2A2A2A2A206D6169C8
:1009E0006E2073746172742A2A2A2A2A2A2A2A2AD1
:1009F0002A2A2A2A0A000000496E69742064773185
:100A0000303030206572726F720A0000014600209B
:100A100006E0012282400A4002B103E0421CD0B24B
:100A20002028F6DB00BF704770B5044624B1E043D0
:100A3000401C2040A04201D0002070BDFFF764FBA5
:100A40000646C2480068204030B1C0480068604097
:100A5000BE490860012500E000253046FFF758FB3D
:100A60002846EAE770B5FFF74FFB0546B74804682C
:100A70000020B64908602846FFF74AFB204670BDB3
:100A800010B54FF4C071B24809F078FC0020B149AC
:100A90000860AE490860B049087010BD70B50446E2
:100AA00024B1E043401C2040A04201D0002070BD92
:100AB000FFF72AFB0546A54800682043A3490860C4
:100AC0002846FFF725FB0120F1E770B5044624B165
:100AD000E043401C2040A04201D0002070BDFFF741
:100AE00013FB054699480068A043984908602846CA
:100AF000FFF70EFB0120F1E72DE9F04105460E4618
:100B000026B92846FFF7CAFFBDE8F08145B1E843A2
:100B1000401C2840A84203D16FF00040864201D318
:100B20000020F1E72846FFF771FF0446202C01DB87
:100B30000020E9E7FFF7E8FA074604EB44008449A0
:100B400001EB8000406820B983480078401C82494E
:100B50000870002004EB44017D4A42F8210004EBB8
:100B60004400114601EB800046603846FFF7D0FA9A
:100B70000120C9E72DE9F04105460E464DB1E84395
:100B8000401C2840A84204D11EB16FF000408642AC
:100B900002D30020BDE8F0812846FFF737FF044666
:100BA000202C01DB0020F5E7FFF7AEFA074604EB47
:100BB0004400674901EB8000406880B966480078CE
:100BC000401C65490870002004EB4401604A42F86B
:100BD000210004EB4400114601EB8000466004EB69
:100BE00044005B4901EB800086605A480068284356
:100BF000584908603846FFF78BFA0120CAE770B5FC
:100C0000044624B1E043401C2040A04201D0002013
:100C100070BD2046FFF7FAFE0546202D01DB0020BF
:100C2000F6E7FFF771FA064605EB4500484901EB88
:100C30008000406820B148480078401E464908704E
:100C4000002005EB4501424A42F8210005EB450131
:100C500002EB810148603F480068A0433D490860BD
:100C60003A480068A043394908603046FFF750FA17
:100C70000120CDE72DE9F0414FF0FF303749086002
:100C80003248006808B10020086004F069F80546A1
:100C9000002651E006EB46002D4901EB8004FFF7EA
:100CA00033FA8046606818B94046FFF731FA41E0F0
:100CB000206810B960682844206020682F1A6FF0FF
:100CC0000040874222D20020244908600120B04021
:100CD0001E49096808431D4908600120B0401D49AC
:100CE0000968084018B1A068284420601EE0002070
:100CF0002060606018480078002803DD16480078FE
:100D0000401E00E00020144908700FE013480068FE
:100D100060B12068401B11490968884202D90F4818
:100D2000006801E02068401B0C4908604046FFF75E
:100D3000EFF900BF701CC6B2202EABDBBDE8F0811E
:100D400010B5FFF797FF0548006810BD8000002030
:100D5000B80500207C0000208800002084000020CE
:100D600070B505460E466C68FC480068844206D0A3
:100D70002146FBA009F0EBF90020FB490860F74889
:100D8000046070BD0120F94981F89C027047002081
:100D9000F64981F89C027047F44991F89C020021C1
:100DA000F24A82F89C1270470020F1490888704787
:100DB00010B54FF40030FFF788FE0A214FF40030E1
:100DC000FFF79AFE10BD704778B502460B46002427
:100DD00000940020BEE0C0EBC00404EB4404E54DE9
:100DE00015F83440012C55D1C0EBC00404EB440489
:100DF00005EBC404247A012C4CD1C0EBC00404EBF5
:100E0000440405EBC404B4F80B400094BDF8004062
:100E100094427DD1012B1ED1002119E0C0EBC0040A
:100E200004EB4404D34D05EBC404083404EB411433
:100E3000647944F00805C0EBC00404EB4404CD4ED3
:100E400006EBC404083404EB411465714C1CE1B298
:100E50000529E3DB1DE0002119E0C0EBC00404EB31
:100E60004404C44D05EBC404083404EB4114647914
:100E700024F00805C0EBC00404EB4404BD4E06EBAF
:100E8000C404083404EB411465714C1CE1B205291B
:100E9000E3DB78BDC0EBC00404EB4404B54D15F8AA
:100EA0003440052C54D1002150E0C0EBC00404EBC9
:100EB0004404B04D05EBC404083404EB4114247819
:100EC000012C41D1C0EBC00404EB440405EBC40485
:100ED000B4F80B400094BDF80040944234D1012B8B
:100EE00019D1C0EBC00404EB440405EBC40408347E
:100EF00004EB4114647944F00805C0EBC00404EB32
:100F000044049C4E06EBC404083404EB411400E096
:100F10001EE0657117E0C0EBC00404EB4404954D7E
:100F200005EBC404083404EB4114647924F008058B
:100F3000C0EBC00404EB44048E4E06EBC40408343A
:100F400004EB41146571A4E74C1CE1B20529ACDB4C
:100F5000441CE0B21928FFF63EAF00BF99E72DE927
:100F6000F04106460F46904600240025B8F1010FD7
:100F700030D1FF2F09D166217F4809F0FFF9FF200A
:100F80007D490870FFF7FEFE23E07B480078FF28CC
:100F900002D1002078490870002408E07648801CBF
:100FA00030F81400B04201D1BDE8F081641C7248F1
:100FB0000078A042F2DC70480078401C6E4908704E
:100FC00008460178801C20F8116041463046FFF742
:100FD000FBFEE9E76848007800B9E5E7FF2F1FD17D
:100FE0006621654809F0CAF9002063490870FFF7D7
:100FF000CEFE002411E000250CE0F721C4EBC40074
:1010000000EB40005B4A02EBC000083000EB4510EB
:1010100041716D1C052DF0DB641C192CEBDB31E0FC
:1010200000242BE05448801C30F81400B04224D136
:10103000254607E05048801C691C30F8111020F844
:1010400015106D1C4C480078401EA842F2DC4A483E
:101050000078022807DB002247480078801E4649B6
:10106000891C21F8102044480078401E424908702D
:1010700041463046FFF7A8FE96E7641C3E480078DC
:10108000A042CFDC00BF8FE730B50346002200242A
:101090003948027803F5D6704254FF2A10D000BFB9
:1010A0000CE003F5D6704D1C05443348801C00EB62
:1010B000440000882880881CC1B2641C9442F0DB84
:1010C000084630BD70B5024600250024002327489D
:1010D00090F89C02012801D1FF2070BD022915D192
:1010E000192092FBF0F0C5B2192092FBF0F600FB3C
:1010F0001620C4B2C4EBC40000EB40001D4E06EB4A
:10110000C000083000EB4510437901E01B484379EB
:1011100003F0080008B1FF20DFE70020DDE770B52D
:1011200002460023114C2478022C7DD1002082E05D
:10113000C0EBC00404EB44040E4D15F83440012C00
:101140003BD1C0EBC00404EB440405EBC404247A97
:10115000012C32D1934230D100212BE02401002018
:101160002D2D2564200000005801002038070020A4
:1011700000FF0108E009002070100020D8100020B6
:10118000C0EBC00404EB4404F94D05EBC40408347F
:1011900004EB4114647924F00405C0EBC00404EBB3
:1011A0004404F34E06EBC404083404EB41146571A7
:1011B0004C1CE1B20529E3DB3BE0C0EBC00404EBCF
:1011C0004404EB4D15F83440052C32D100212EE0BB
:1011D000C0EBC00404EB4404E54D05EBC404083443
:1011E00004EB41142478012C1DD1934203D04FF617
:1011F000FF74A24217D1C0EBC00404EB4404DC4DE1
:1012000005EBC404083404EB4114647924F00405AC
:10121000C0EBC00404EB4404D54E06EBC404083410
:1012200004EB4114657100E009E04C1CE1B20529B2
:10123000CEDB441CE0B21928FFF67AAF11E0CD4CAA
:101240002478012C0DD1CC4C2488944203D04FF645
:10125000FF74A24205D1C84CA47824F00404C64D02
:10126000AC7070BDF0B502460C4600230026192074
:1012700094FBF0F0C6B201214DE0481C0C2790FB16
:10128000F7FC07FB1C00C5B26018192790FBF7FCA0
:1012900007FB1C00C3B233B9701C052790FBF7FC99
:1012A00007FB1C00C6B2C3EBC30000EB4000B04F0D
:1012B00017F8300098B906EBC60000EB061018448A
:1012C0007D2790FBF7FC07FB1C001070107819308D
:1012D00090FBF7FC07FB1C0010700120F0BDC3EB76
:1012E000C30000EB4000A24F17F83000062810D1D1
:1012F0007DB1C3EBC30000EB400007EBC000007AF8
:10130000032806D160187D2790FBF7FC07FB1C0023
:101310001070481CC1B21929AFDD0020DEE72DE9AD
:10132000F04303460F4600214E1E00220024AEE08B
:10133000192097FBF0F020444FF0050890FBF8F9D6
:1013400008FB190201259CE0042C04D1192D02D1BF
:10135000FF20187098E078194FF0190890FBF8F901
:1013600008FB1900C1B231B9501C4FF0050890FBC1
:10137000F8F908FB1902C1EBC10000EB4000DFF8EF
:10138000F08118F83000052801D1012000E000208C
:10139000C1EBC10808EB4808DFF8D49119F8388090
:1013A000B8F1000F02D14FF0010801E04FF0000842
:1013B00040EA0800F0B3C1EBC10000EB4000DFF8E9
:1013C000B08118F83000052819D1C1EBC10000EB3D
:1013D000400008EBC000083000EB4210007870B904
:1013E00002EBC20000EB021008444FF07D0890FBB6
:1013F000F8F908FB190018700120BDE8F083C1EB73
:10140000C10000EB4000DFF8688118F83000B0BB85
:10141000701CA0BB02EBC20000EB021008444FF0AE
:101420007D0890FBF8F908FB190606F1190090FBFE
:10143000F8F900E002E008FB190620E0C1EBC1006A
:1014400000EB4000DFF8288118F83000062816D19C
:10145000C1EBC10000EB400008EBC000083000EB1E
:101460004210007803280AD102EBC20000EB021000
:1014700008444FF07D0890FBF8F908FB190C681C34
:10148000C5B2192D7FF760AF00BF601CC4B2052C38
:10149000FFF64EAF002E02DB1E700220ADE783F890
:1014A00000C00020A9E7F8B503460C461646002206
:1014B0000021FF200025DFB28DF800701F0A8DF893
:1014C0000170012C5AD100BF4EE0C1EBC10707EB00
:1014D0004707DFF89CC01CF83770012F42D1C1EBE1
:1014E000C10707EB47070CEBC707FF7A9DF800C061
:1014F000674537D1C1EBC10707EB4707DFF870C07D
:101500000CEBC7073F7B9DF801C067452AD1084611
:1015100002E000F11907F8B2B042FADB7D2790FB38
:10152000F7FC07FB1C07F8B2C1EBC10707EB470745
:10153000DFF83CC00CEBC707BD7B002D11DD00229E
:101540000DE0C1EBC10707EB4707DFF824C00CEB48
:10155000C707083707EB4217BD71571CFAB2052AB7
:10156000EFDBF8BD4F1CF9B21929AEDB43E00000F8
:10157000E00900203807002036010020052C3AD170
:10158000002236E0C2EBC20707EB4707DFF88CC446
:101590001CF83770052F2AD1002126E0C2EBC207C4
:1015A00007EB4707DFF874C40CEBC707083707EBF6
:1015B0004117FF789DF800C0674515D1C2EBC207FF
:1015C00007EB4707DFF854C40CEBC707083707EBF6
:1015D00041173F799DF801C0674505D101EBC1076F
:1015E00007EB01171744F8B2BBE70529D6DB571CF8
:1015F000FAB2192AC6DB00BFB3E7F0B5024600BF56
:1016000000BF0021192592FBF5F5EBB2192592FBDD
:10161000F5F605FB1625E8B2C0EBC00505EB450560
:10162000FE4E16F83540012C1ED100BF19E0C0EB6C
:10163000C00505EB4505F94E06EBC505083505EB7C
:1016400041156D7945F00806C0EBC00505EB450571
:10165000F24F07EBC505083505EB41156E714D1CC2
:10166000E9B20529E3DB19E0052C17D1C0EBC00571
:1016700005EB4505E94E06EBC505083505EB4315B9
:101680006D7945F00806C0EBC00505EB4505E34F55
:1016900007EBC505083505EB43156E71F0BD70B558
:1016A000DF4C247834BB02F17D04641A641E7D256E
:1016B00094FBF5F605FB1644A3B203EB8304C0EBE1
:1016C000C404D74D6C818A4201D0FF2A63D1D44C27
:1016D0006478012C02D140F2712304E0D04C64788C
:1016E000052C00D17D2303EB8304C0EBC404CC4D57
:1016F0006C8150E0CA4C2478012C4CD1C84D2C7020
:101700002C46A17000242C81AC712C466478012CED
:1017100022D16C702C462489BCB9FF2A15D0914285
:1017200003D1C0F57A746C8135E002F17D04641A4E
:101730007D2594FBF5F605FB1644A3B203EB830469
:10174000C0EBC404B64D6C8125E0FF2A23D1C0F55F
:101750007A74B34D6C811EE0B14C6478052C1AD1BB
:10176000AF4D6C702C462489ACB9914204D141F242
:101770008834241A6C810EE002F17D04641A7D2500
:1017800094FBF5F605FB1644A3B203EB8304C0EB10
:10179000C404A34D6C8170BDF3B5024600BF00BF09
:1017A00000BF92F88A42192194FBF1F1CBB21921C2
:1017B00094FBF1F501FB1541C8B2C0EBC00101EB90
:1017C0004101964D05EBC101083101EB4311097848
:1017D00003290ED192F88E12012902D192F88C427F
:1017E00007E092F88E12052902D192F88C4200E0AF
:1017F000FCBD192194FBF1F1CBB2192194FBF1F559
:1018000001FB1541C8B292F88E1201295DD1C0EBDF
:10181000C00505EB4505814E06F83510002151E065
:101820000126C0EBC00505EB45057C4F07EBC50560
:10183000083505EB41152E70C0EBC00505EB4505DD
:1018400007EBC505083505EB41156E700026C0EBAA
:10185000C00505EB450507EBC505083505EB41154A
:10186000AE7101EBC10505EB011505447D2695FB25
:10187000F6F706FB1755EEB2C0EBC00505EB4505C4
:10188000664F07EBC505083505EB4115AE7040F214
:10189000BD36C0EBC00505EB450507EBC5050835B2
:1018A00005EB41156E81C0EBC00505EB45053E46D5
:1018B00006EBC505083505EB4115BDF80460A5F834
:1018C0000360491C0529ABDB60E092F88E12052904
:1018D0005CD1C0EBC00505EB4505504E06F8351050
:1018E000C0EBC00101EB4101354605EBC101497870
:1018F000491CC0EBC00505EB450506EBC505697045
:101900000125C0EBC00101EB410106EBC10108312B
:1019100001EB43110D700525C0EBC00101EB410146
:1019200006EBC101083101EB43114D70C0EBC00162
:1019300001EB4101354605EBC101083101EB4311D3
:101940008C700025C0EBC00101EB410106EBC10129
:10195000083101EB43118D7141F25D35C0EBC001DF
:1019600001EB410106EBC101083101EB43114D814F
:10197000C0EBC00101EB4101354605EBC101083167
:1019800001EB4311BDF80450A1F8035000BF2FE74D
:101990002DE9F04106460C460025C4EBC40000EBDF
:1019A00040001E4901EBC000083000EB46104778AC
:1019B000052F7DD1C4EBC40000EB400001EBC0005B
:1019C000407800280FDDC4EBC40000EB400001EBC1
:1019D000C0004078401EC4EBC40101EB41010F4A36
:1019E00002EBC1014870C4EBC40000EB40000B499E
:1019F00001EBC000407838B90020C4EBC40101EB12
:101A00004101064A02F831000021C4EBC40000EB9A
:101A10004000024A02EBC000083003E0E009002069
:101A2000D810002000EB46104171C4EBC40000EB5D
:101A3000400002EBC000083000EB46100170C4EB20
:101A4000C40000EB400002EBC000083000EB461081
:101A50008171C4EBC40000EB400002EBC000083011
:101A600000EB46100181C4EBC40000EB400002EB28
:101A7000C000083000EB46100171C4EBC40000EB5D
:101A8000400002EBC000083000EB4610C170C4EB10
:101A9000C40000EB400002EBC000083000EB461031
:101AA0004181C4EBC40000EB400002EBC00000E049
:101AB00004E0083000EB4610817066E0012F64D12D
:101AC00000BFFAA008F043FB00BF0020C4EBC40134
:101AD00001EB4101F74A02F83100002553E00021F3
:101AE000C4EBC40000EB4000F24A02EBC000083037
:101AF00000EB45100170C4EBC40000EB400002EBAA
:101B0000C000083000EB45104171C4EBC40000EB8D
:101B1000400002EBC000083000EB45108171C4EBBF
:101B2000C40000EB400002EBC000083000EB4510A1
:101B30000181C4EBC40000EB400002EBC0000830A0
:101B400000EB45100171C4EBC40000EB400002EB58
:101B5000C000083000EB4510C170C4EBC40000EBBE
:101B6000400002EBC000083000EB45104181C4EB9F
:101B7000C40000EB400002EBC000083000EB451051
:101B80008170681CC5B2052DA9DBBDE8F0812DE987
:101B9000F05F80468A460025002600240027C648BC
:101BA00080F88A82192098FBF0F0C6B2192098FBC1
:101BB000F0F100FB1180C4B2BF4880F8A04280F869
:101BC000A162BAF1010F5CD1C4EBC40000EB40008C
:101BD000B84901EBC000083000EB461090F80190C6
:101BE000C4EBC40000EB400001EBC000083000EB88
:101BF00046100078012844D1B9F1050F0AD1C4EB91
:101C0000C40000EB400001EBC000083000EB4610C0
:101C1000877930E0B9F1010F2DD1002518E0C4EB30
:101C2000C40000EB4000A34901EBC000083000EB0A
:101C300045108079B84209DDC4EBC40000EB4000D8
:101C400001EBC000083000EB45108779681CC5B275
:101C5000052DE4DB00250CE0C4EBC40000EB4000E4
:101C6000944901EBC000083000EB45108771681CF7
:101C7000C5B2052DF0DB042F03DB21463046FFF70C
:101C800087FEC4EBC40000EB40008A4901EBC000B2
:101C9000083000EB461090F800B0BBF1000F09D0FF
:101CA000BBF1010F09D0BBF1020F08D0BBF1030F4C
:101CB00009D106E00120BDE8F09F0220FBE70320E8
:101CC000F9E70420F7E70020F5E7F0B5044600BF88
:101CD00000BF192094FBF0F0C1B2192094FBF0F67C
:101CE00000FB1640C2B2C2EBC20000EB4000714ED6
:101CF00006EBC000083000EB41104578052D0CD1F3
:101D0000C2EBC20000EB400006EBC000083000EB65
:101D100041100089401C83B21FE0012D1BD159B92D
:101D2000C2EBC20000EB4000624E06EBC000B0F810
:101D30009000401C83B210E0C2EBC20000EB4000F8
:101D40005C4E06EBC00008304E1E00EB46100089CA
:101D5000401C83B201E00020F0BDC2EBC20000EBEA
:101D60004000544E06EBC000083000EB41100381E8
:101D70000126C2EBC20000EB40004E4F07EBC00053
:101D8000083000EB411006700026C2EBC20707EBDB
:101D90004707DFF820C10CEBC707083707EB4117EF
:101DA0003E617E61C2EBC20000EB4000664606EB7E
:101DB000C000083000EB41108079401CC6B2C2EB75
:101DC000C20000EB4000674607EBC000083000EBA4
:101DD000411086711846BFE718B5014600BF00BF25
:101DE000192091FBF0F0C2B2192091FBF0F400FB36
:101DF0001410C3B2C3EBC30000EB40002D4C04EB46
:101E0000C000083000EB4210B0F803000090BDF8AD
:101E1000000018BD11B500BF00BF00BF264B93F8EE
:101E2000A12293F8A012C1EBC10303EB4303214CA1
:101E300004EBC303083303EB42135878C1EBC1032F
:101E400003EB430304EBC303B3F80B30ADF80030EE
:101E500018BD7FB500210024192592FBF5F5E9B2E4
:101E6000192592FBF5F605FB1625ECB26BB9C4EB10
:101E7000C40505EB45050F4E06EBC505083505EB1A
:101E80004115BDF800602E820EE0012B0CD1C4EB91
:101E9000C40505EB4505074E06EBC505083505EB02
:101EA0004115BDF800602E8304B070BD7C7C3030DD
:101EB0003E3E2000E009002038070020F0B5002059
:101EC0007CE00025C0EBC00606EB4606FB4F07F89A
:101ED0003650C0EBC00606EB460607EBC60675702B
:101EE000002168E001EBC10505EB01152A18002669
:101EF000C0EBC00505EB4505F04F07EBC505083500
:101F000005EB41152E70C0EBC00505EB450507EB51
:101F1000C505083505EB4115AA70C0EBC00505EBFA
:101F2000450507EBC505083505EB41152E81C0EBCE
:101F3000C00505EB450507EBC505083505EB411563
:101F4000AE71C0EBC00505EB450507EBC5050835CF
:101F500005EB41152E71C0EBC00505EB450507EB00
:101F6000C505083505EB4115EE70C0EBC00707EB62
:101F70004707DFF848C30CEBC707083707EB4117E3
:101F80003E617E610025C0EBC00606EB46060CEB09
:101F9000C606083606EB4116B561F5610026C0EBB2
:101FA000C00505EB4505674607EBC505083505EB9C
:101FB00041156E71491C052994DB401C192880DBF2
:101FC0000C23002075E0451C95FBF3F603FB16552A
:101FD00085BB0625C0EBC00606EB4606B74F07F8E3
:101FE00036500525C0EBC00606EB460607EBC606D5
:101FF000757000211BE001EBC10505EB01152A18E6
:102000000226C0EBC00505EB4505AC4F07EBC50547
:10201000083505EB41152E70C0EBC00505EB4505F5
:1020200007EBC505083505EB4115AA70491C0529C4
:10203000E1DB3DE0FFE75D1E854201DD441C01E080
:10204000A0F10B04062594FBF5F605FB16457DBBB8
:102050000625C0EBC00606EB4606984F07F836503B
:102060000525C0EBC00606EB460607EBC6067570F5
:1020700000211BE001EBC10505EB01152A18032621
:10208000C0EBC00505EB45058C4F07EBC5050835D2
:1020900005EB41152E70C0EBC00505EB450507EBC0
:1020A000C505083505EB4115AA70491C0529E1DB7A
:1020B000401C192887DBF0BD2DE9F041044680481B
:1020C000B0F8030020807E48008960807C48407919
:1020D00020737B48407820737A48007802280ED11C
:1020E00077480022784BD0E90451284608F0F8F9E7
:1020F000074608F03CFB60600020A06012E07148D9
:10210000007801280ED17148006860606C48002298
:102110006D4BD0E90651284608F0E2F9074608F071
:1021200026FBA060BDE8F0810021694A11700128FA
:1021300005D10121517040F2B631518107E00528E7
:1021400005D10521624A517041F256315181002179
:102150005F4A917000225E490A71CA7000215C4A90
:10216000118191715171704700205549887000218B
:1021700053480171C170002051490881887148712C
:1021800000214F4A116151619061D06170472DE982
:10219000F04F87B0824600BF4FF0000B0020069042
:1021A000DAF800B09AF8040040B20690584608F0F9
:1021B00092FA06460F46069808F07CFA80460022FE
:1021C000444B08F08DF90022424BCDE9000108F0A4
:1021D00087F932463B46CDE9020108F0DAF83E4A7B
:1021E0003E4BCDE9040108F07BF904460D4620463C
:1021F000294607B0BDE8F08F2DE9F05F04460D4693
:10220000354A364B2046294608F0DCF98046002244
:10221000334B08F0D7F982468B465046594608F0B2
:10222000BFFA06460F4630463946BDE8F09F2DE915
:10223000F04704460D4600BF2046294608F058FAEC
:102240000646254A254B08F04BF98046894640460C
:102250004946BDE8F0872DE9FC5F82460AF5A07685
:10226000C0CE7F20D6F1FF31B84102DA361E67F5C5
:10227000807730463946FFF7DAFF0022194BCDE967
:10228000000108F02DF9804689464FF09852164B10
:102290004046494608F024F904460D460022134BF7
:1022A0002046294608F0A8FA06D30022104B204603
:1022B000294608F0B9FA1DD2BDE8FC9FE0090020CC
:1022C000F81000203807002000005940B800002016
:1022D000D81000200000F040FA48CE3B1835B13D40
:1022E00080842E410000D03F19DDB1410000E0BFE5
:1022F0000088D3402046294608F0AEFA83469AF873
:1023000015209AF81400594606F00CFA22462B467E
:10231000CDE9000108F0E1F804460D4625F000453E
:10232000FD4A30C200BFBDE8FC9F2DE9F04F87B0E9
:102330008246DAF83C91DAF838817F20D8F1FF3113
:1023400070EB090004DA0022B8EB020869F5807925
:1023500040464946FFF76BFF0022F04BCDE90201F2
:1023600008F0BEF8CDE904014FF09852EC4BDDE9DE
:10237000040108F0B5F804460D460022E94B20465A
:10238000294608F039FA06D30022E74B20462946B1
:1023900008F04AFA02D207B0BDE8F08F204629467D
:1023A00008F05AFA83469AF815209AF8140059460C
:1023B00006F0B8F922462B46CDE9020108F08DF867
:1023C00004460D4625F00045D84830C022462B462D
:1023D000DAF898B15846DAF89C1107F0DAFF0AF5F6
:1023E000CC7203C2DAF8A001401CCAF8A001DAF8E6
:1023F000A00108F05FF9CDE9020102460B46DAF8C8
:1024000098B15846DAF89CC1614608F0DBF80646F8
:102410000F46C74AC0C2DAF8A411481CCAF8A40182
:102420000AF5AC7000EBC10230C2DAF8A40108284A
:1024300002D10020CAF8A401DAF8A80108282AD19C
:1024400000200290039083460EE00AF5AC7000EB8A
:10245000CB0103C9CDE90001DDE9022307F099FFB3
:10246000CDE902010BF1010BDAF8A8015845ECDCCB
:10247000DAF8A80108F01EF902460B46CDE9000182
:10248000DDE9020108F09EF8CDE90201A94ADDE983
:10249000020103C204E0DAF8A801401CCAF8A8014E
:1024A00000BF78E7CA233F221354DE23402213548F
:1024B000412280F83C2090F83C2009B1202300E024
:1024C00000231A4380F83C2088233D22135490F8BF
:1024D0008A323E221354FF234122135442221354C2
:1024E00000F13C02944B1B88A0F84330704710B5B4
:1024F000002101EB011303EB8303904C04EBC303B6
:1025000083F8720210BD2DE9F04104460D461746CE
:102510001E4684F8AC7135B12A4604F5D67104F133
:10252000450007F012FF05F10B00A4F81A0131462F
:102530002046FFF7B7FF012E02D1022084F8520295
:1025400084F85362BDE8F0812DE9F0410646144657
:102550001D4636B1200A40EA0567384607F03DFBC4
:1025600000BF304607F0CEFBBDE8F0812DE9F04119
:1025700004460D460026B4F81A01002204F13C017D
:1025800006F06BFDB4F81A01002106F079FD55B193
:1025900094F834010206D4F8301142EA1127384683
:1025A00007F01BFB00BF94F8520218B141F28830CB
:1025B00007F0CEFB94F852122943C8B207F015FB7E
:1025C00000B101263046BDE8F08100B5A7B08022F9
:1025D0005B4901A807F0B9FE182001F097FC07F04D
:1025E0005FFC02208DF88C0009208DF891008DF899
:1025F000900002208DF88D0000208DF89300282097
:102600008DF88E0003208DF88F0001208DF8920048
:1026100000208DF89800032123A806F0DBFB9DF82D
:102620008C0000EB4000474911F820008DF8840031
:102630009DF88C0000EB400001EB8000001D9DF830
:102640008D10491E50F82100229021A806F060FB51
:102650004FF4805007F09EFC002201A97F2006F075
:10266000FCFC00217F2006F00BFD002007F0BDFAE6
:10267000002027B000BD7CB502250126182001F0FE
:1026800045FC07F00DFC05EB45002E4911F8200034
:102690008DF8000005EB450001EB8000001D711E68
:1026A00050F821000190684606F032FB284607F0FA
:1026B00029FC002403E0E0B206F058FB641C1F2C48
:1026C000F9DD7CBD2DE9F041804698F8520210BB3F
:1026D00000BF98F83800C8B1D8F83012D8F808010F
:1026E00040180446D8F80C000B280FD10022164BD6
:1026F000D8F848623046D8F84C1208F095F805D260
:102700000420D8F83812A1FB000100194FF0000294
:10271000134610461AE01CE0B00000200000D03F35
:1027200019DDB1410000E0BF0088D34098000020CF
:10273000A8000020A000002024000020380700206E
:102740000CB00008E8AA000800C06240FFF7FCFED9
:1027500002E0002088F85202002088F8380098F83B
:10276000000030B1D8F80C00052802D00120C8F8CC
:1027700010000820C8F80400BDE8F0811CB504462C
:1027800000200090019002F0E8FAFE49086094F8F9
:102790007402FD49087094F8A302012804D10021B5
:1027A00040F2AD10015506E094F8A30218B90121DA
:1027B00040F2AD100155F5480088010A4FF4D7707A
:1027C0000155F248017840F2AF100155608F401C6E
:1027D0006087608F010A4FF4D870015594F83A1061
:1027E000401C01550023212206212046FFF78BFEC5
:1027F0000220E06000212046FFF7B8FE38B1022039
:10280000606000202061608F401E608706E000202D
:10281000DF490860022060600120206194F8A30273
:10282000012803D14FF47A7001F01FFC94F8A30241
:1028300010B9642001F019FC1CBD10B5D548FFF794
:102840009DFF10BD10B50446D3A007F080FC012009
:10285000DA4908700020DA490870182006F0AEFC4A
:10286000B4F8060206F0C3FCC848008806F0C7FCAE
:10287000C6480188D3A007F06AFCC4480088A4F8C1
:10288000800204F13C00C1490988A4F843100B20E0
:10289000606094F8650207F02CF8052006F0F1FF5F
:1028A00010BD10B504464DF6CA60A4F8060200BF7C
:1028B000B6480188C7A007F04AFC00BF0020CB49FA
:1028C0008870FF200880B1480088A4F88002182092
:1028D00006F074FCB4F8060206F089FCAB480088E8
:1028E00006F08DFC04F13C00A8490988A4F84310C7
:1028F000002084F8380007F013F8012084F86502FE
:1029000094F8650206F0F5FF002007F021FA204652
:10291000FFF7D8FE10BD00B5ADF57B7D4FF47A71A1
:1029200001A806F04FFF401C20B900BFB0A007F07F
:102930000EFC00BF1021B34803F032FD012001F06E
:1029400094FB1021AF4803F029FD012001F08DFB1D
:10295000022007F0B6F8AC48008806F0F2F9002033
:1029600006F01DFF0121A94807F02DFA0DF57B7D2A
:1029700000BD70B504460D46042D24D100BFA4A0AF
:1029800007F0E5FB00BF94F85002A0B194F85002A4
:10299000032810DB002084F8380084F8520207F086
:1029A000D7F9207803280DD1E06805280AD1204600
:1029B000FFF788FE06E00820606000BF96A007F0E1
:1029C000C6FB00BF70BD012D18D0052D04D100201D
:1029D00084F8520207F0BCF96D480068401C6C494D
:1029E00008600846006830B102F0B7F98B49096801
:1029F000401A8B49086001202061E3E70025002090
:102A0000634908602061E068801E0B280DD2DFE872
:102A100000F0070E080D0C0C0C0C0C060F0000BF8C
:102A200000BF012084F8380006E000BF00BF00BFEF
:102A3000002084F8380000BF00BFE0680D2802D1F4
:102A40000B2060603DE0E068032809D102F085F9C1
:102A500006462078032802D10120C4F810022DE098
:102A6000E068022806D12078022803D102F075F927
:102A7000064623E0E068022806D12078032803D127
:102A800002F06BF9064619E0E06805280ED102F065
:102A900064F9064600BF63480068311A62A007F077
:102AA00056FB00BF0120C4F8100207E0E0680B28C5
:102AB00003D100204149087000E000BF2046FFF725
:102AC00001FE00BF7EE72DE9FF4704460F46606820
:102AD000022804D0082806D00B284DD13EE120461C
:102AE000FFF74CFE3AE1002F47D0022F04D0042F0D
:102AF00044D0062F43D127E104F19F064FF0000890
:102B0000B6F807000390B6F805000290B6F8030087
:102B1000019096F8098096F80290BDF80C00A4F890
:102B20004801B8F1210F2BD135464FF0000A0020A3
:102B300084F85402B5F8070000902078032820D1CB
:102B40003E4800683E49086002F007F93B490860CA
:102B500002F003F93A490968401A3A4908603A48CC
:102B60000088401C3849088002F0F7F83749B0FB6C
:102B7000F1F201FB12006BE0EFE0E6E0A8E0E9E033
:102B800092E089E0BC000020F50000202400002035
:102B900090000020380700202A2A2A2A2A2A2A2AD6
:102BA0002A2A20544147202A2A2A2A2A2A2A2A2A3B
:102BB0002A2A2A2A2A2A200A0000000020010020AE
:102BC00070100020092041444452203D20256420FB
:102BD0000A00000053554220535441092041444407
:102BE00052203D202564200A00000000360100200C
:102BF0004641494C454420746F2057414B45205570
:102C0000500A000000000240F800002080D00200BE
:102C10002D574F542000000028312900C00000200B
:102C2000F0000020CC000020726576465F73656E70
:102C3000645265705F593D2564202000FC0000202F
:102C40000001002004010020E400002040420F00A9
:102C500044F62061B0FBF1F0401C84F87202A87ABF
:102C6000FE490870E87A0002FD490880287B09883F
:102C70000844FB490880084600880880687B0002F9
:102C80006087618FA87B08446087608FF549088062
:102C90000120C4F8100201E095F809A00720606047
:102CA0002046FFF70FFD06E0002084F8380020469C
:102CB000FFF708FD00BF00BF94F82C0238B9207858
:102CC00028B9002084F838002046FFF7FBFC42E0DA
:102CD000E06A401CE062002020612078032802D0D6
:102CE0002078012812D12078032804D1E068022836
:102CF00001D1606026E00020E06207F029F80020A2
:102D000084F853022046FFF7DDFC24E020780228F7
:102D100018D194F88B0210B1E0680B2802D10B2077
:102D200060600DE094F88B02012809D102206060F8
:102D3000E068032802D0E0680B2801D10B20606016
:102D400006F0B0FF002706E000BF206908B90120A7
:102D5000206100E000BF00BF00E000BF00BF2069AD
:102D600004B0BDE8F087C04A10707047BE480078D4
:102D70007047BD48D0F8100228B10020BA49C1F808
:102D80001002012070470020FCE7B74A82F8A30236
:102D9000704710B50024002004EB041101EB810101
:102DA000B14A02EBC101C86204EB041101EB8101DD
:102DB00002EBC10181F80402002104EB041202EBD2
:102DC0008202A94B03EBC202C2F89811C2F89C110F
:102DD00004EB041101EB81011A4602EBC101C1F8B9
:102DE000A001012007F001F8002004EB041101EB21
:102DF00081019D4A02EBC10181F8040204EB041138
:102E000001EB810102EBC101C1F8A80104EB04113F
:102E100001EB810102EBC101C1F8A40104EB041133
:102E200001EB810102EBC101086304EB041101EB2A
:102E3000810102EBC101486310BD8B49C1F88402D6
:102E400070472DE9FE4305460024002001900290C2
:102E50000026002780460120FFF7EFFF2878022890
:102E60007DD1687804EB041101EB81017E4A02EB0D
:102E7000C10181F81E0100220121684606F00FF908
:102E80006888052801D1052701E0022700BF00BF9F
:102E9000022F65D104EB041000EB8000724901EBB6
:102EA000C00090F8570202287DDA01A806F068F900
:102EB0009DF804009DF8051000EB01209DF8061018
:102EC00000EB01409DF8071000EB01669DF808003B
:102ED000002104EB041202EB8202634B03EBC202FB
:102EE00002F5887203C204EB041000EB800019465F
:102EF00001EBC000D0F81001002104EB041202EB3A
:102F0000820203EBC202C2F81011C2F8140104EBF2
:102F1000041000EB8000194601EBC000D0F810212E
:102F2000D0F81401921940F1000004EB041101EBF8
:102F3000810103EBC101C1F81021C1F8140104EBB8
:102F4000041000EB8000194601EBC000D0F810110E
:102F5000D0F81401454AC2E90010688801E08DE00C
:102F60008BE004EB041101EB81011A4602EBC10175
:102F7000A1F81C01698804EB041202EB820203EB46
:102F8000C20202F19F00002206F089F804EB04104F
:102F900000EB8000344901EBC00090F8A8002A281B
:102FA0000BD1002000E043E004EB041101EB8101B0
:102FB0002D4A02EBC10181F85402012004EB0411F7
:102FC00001EB8101284A02EBC10181F85402022180
:102FD00004EB041000EB800002EBC00090F85722D5
:102FE00004EB041000EB80001F4B03EBC00090F8D3
:102FF0005702401C04EB041303EB8303DFF868C0A3
:103000000CEBC30383F8570204EB041000EB8000C1
:10301000634603EBC00000F255208154082004EB06
:10302000041101EB81011A4602EBC101486001E085
:103030004FF001080E480068401C0D49086004EB81
:10304000041000EB8000084901EBC000406B401CFD
:1030500004EB041101EB8101034A0BE05301002052
:1030600054010020500100203807002048010020B2
:103070003001002002EBC10148635CE0287804289D
:103080004AD104EB041000EB8000FE4901EBC000C4
:1030900090F85702022828DA042104EB041000EB10
:1030A0008000F84A02EBC00090F8572204EB0410AD
:1030B00000EB8000F34B03EBC00090F85702401C7C
:1030C00004EB041303EB8303DFF8B8C30CEBC30377
:1030D00083F8570204EB041000EB8000634603EB17
:1030E000C00000F25520815401E04FF0080804EBC5
:1030F000041000EB8000E34901EBC00040680628A3
:1031000019D104EB041101EB8101DE4A02EBC1008D
:103110000421FFF72EFC0EE004EB041000EB80000E
:10312000D84901EBC00090F8650220B9002213468F
:103130001046FFF709FAB8F1000F06DD4FF00A0854
:1031400006F0B0FD002006F0DDFDBDE8FE832DE9B0
:10315000FC410746002400200090019000253E78A5
:103160000120FFF76AFE04EB041000EB8000C54964
:1031700001EBC00090F81E0150B10626002004EBC0
:10318000041101EB8101BF4A02EBC10181F81E016C
:10319000012E7AD104EB041000EB8000B94901EB59
:1031A000C00090F85702022853DA684605F0D9FFAC
:1031B0009DF800009DF8011000EB01209DF8021021
:1031C00000EB01409DF8031000EB01659DF8040041
:1031D000002104EB041202EB8202AA4B03EBC202B1
:1031E00002F5847203C204EB041000EB8000194660
:1031F00001EBC000D0F80801002104EB041202EB3F
:10320000820203EBC202C2F80811C2F80C0104EBFF
:10321000041000EB8000194601EBC000D0F8082133
:10322000D0F80C01521940F1000004EB041101EB3D
:10323000810103EBC101C1F80821C1F80C01002094
:1032400004EB041101EB81011A4602EBC10181F884
:10325000540204EB041000EB80008A4901EBC0002B
:10326000006B401C04EB041101EB8101854A02EB69
:10327000C101086304EB041101EB810102EBC10001
:103280000121FFF776FB35E0FFE7062E32D104EB94
:10329000041000EB80007B4901EBC00090F857025E
:1032A000022827DA062104EB041000EB8000754A9F
:1032B00002EBC00090F8572204EB041000EB8000F2
:1032C000704B03EBC00090F85702401C04EB041352
:1032D00003EB8303DFF8ACC10CEBC30383F85702A5
:1032E00004EB041000EB8000634603EBC00000F227
:1032F00055208154BDE8FC8170B50024002004EB0A
:10330000041101EB81015F4A02EBC10181F8380031
:1033100004EB041101EB810102EBC101486004EBF5
:10332000041101EB810102EBC10181F82D0204EBD4
:10333000041101EB810102EBC10181F82C0204EBC5
:10334000041101EB810102EBC101C1F8A40104EBFE
:10335000041101EB810102EBC101C1F8A80106F0E3
:103360009FFD40F6070005F034FC05460121464864
:1033700006F029FD022006F0A4FB0DB1601E70BD11
:10338000AFF24151AFF2392006F0DCFAFFF701FD50
:103390004DF6CA6004EB041101EB8101394A02EBDE
:1033A000C101A1F80602012004EB041101EB810127
:1033B00002EBC10181F82E02002004EB041101EBA5
:1033C000810102EBC10181F82F023049FEF714FFA1
:1033D0002F4B1840C9B204EB041202EB8202294BB6
:1033E00003EBC20202F5107203C200202949FEF766
:1033F00003FF274B1840C9B204EB041202EB820210
:10340000204B03EBC20202F50E7203C200212248D8
:1034100004EB041202EB820203EBC202C2F8481270
:10342000C2F84C0200201D49FEF7E6FE04EB041230
:1034300002EB8202134B03EBC20202F50C7203C2D1
:10344000174804EB041101EB81011A4602EBC1019C
:10345000C1F81C02002004EB041101EB810102EB16
:10346000C10181F8500204EB041101EB810102EB70
:10347000C10181F8520204EB041101EB810102EB5E
:10348000C1010FE03807002080D0020000409F40BB
:1034900000FEFFFF0088B340000014400070A7400A
:1034A00040420F0081F8530204EB041101EB81014B
:1034B00002EBC10181F8540204EB041101EB81011C
:1034C00002EBC10181F8580201F047FC04EB041142
:1034D00001EB8101FE4A02EBC101C1F8600200204C
:1034E00004EB041101EB810102EBC10181F85502EB
:1034F000002104EB041000EB800002EBC00080F818
:103500005612002004EB041101EB810102EBC10112
:1035100081F8570242F2107004EB041101EB8101B3
:1035200002EBC101C1F82002002004EB041101EB01
:10353000810102EBC10181F8650204EB041101EB8A
:10354000810102EBC101488704EB041101EB810109
:1035500002EBC10181F8880204EB041101EB810147
:1035600002EBC10181F88F0204EB041101EB810130
:1035700002EBC101A1F8940204EB041101EB8101FB
:1035800002EBC10181F8900204EB041101EB81010F
:1035900002EBC10181F8A20204EB041101EB8101ED
:1035A00002EBC10101F26A2005F03AFEFDF7FCFBD7
:1035B000C8490880C6480078022809D104EB0411E4
:1035C00001EB8101C24A02EBC100FFF73BF908E0C1
:1035D00004EB041101EB8101BD4A02EBC100FFF7CE
:1035E00060F90020CBE610B505F0EDFA10BD2DE92D
:1035F000F04105460024032700BF287804EB04119E
:1036000001EB8101B24A02EBC1010875697804EB54
:10361000041000EB800002EBC0004176697804EBF7
:10362000041000EB800002EBC0000176A97804EBE7
:10363000041000EB800002EBC0004175E97804EB58
:10364000041000EB800002EBC000C176297904EB86
:10365000041000EB800002EBC0008175697904EB77
:10366000041000EB800002EBC000C175A97904EBE7
:10367000041000EB800002EBC0008176002104EB17
:10368000041000EB800002EBC000017741F2410121
:1036900004EB041000EB800002EBC000C1830021AA
:1036A00004EB041000EB800002EBC00080F8201057
:1036B000394604EB041202EB8202854B03EBC20293
:1036C00002F1140005F086FB287800EB40008249E7
:1036D00011F8200004EB041101EB81017C4A02EB9C
:1036E000C10181F8240004EB041202EB8202784B42
:1036F00003EBC202117DA87805F018FB06460EB157
:10370000701C50B9287800EB4000734901EB800031
:10371000001DA978491E50F8216004EB041000EB4D
:1037200080006B4901EBC00090F82000012807D110
:1037300004EB041000EB800001EBC00086620FE098
:10374000F0B240EA002141EA004141EA006204EBA4
:10375000041101EB81015E4B03EBC1018A6200BFE2
:1037600004EB041101EB8101594A02EBC10191F80C
:10377000200006F06AF804EB041101EB8101544AC1
:1037800002EBC10101F1240005F0C2FA07F00200CA
:1037900018BBA878401E514931F8100004EB041101
:1037A00001EB81014A4A02EBC101A1F8200104EBBF
:1037B000041101EB810102EBC101B1F8200105F018
:1037C000CAFA04EB041101EB8101414A02EBC10189
:1037D000B1F8200105F0B5FA38E0A87805F035FC1D
:1037E000401004EB041101EB8101394A02EBC101E5
:1037F000A1F8200104EB041000EB8000114601EB5E
:10380000C000B0F8200108BBA878401E334931F849
:10381000100004EB041101EB810102EBC101A1F8DE
:10382000200104EB041101EB810102EBC101B1F8AD
:10383000200105F090FA04EB041101EB8101244A08
:1038400002EBC101B1F8200105F07BFA04EB041092
:1038500000EB80001E4901EBC000B0F820012049B8
:103860000880BDE8F0812DE9F041054600240327DA
:1038700000BF04EB041000EB8000154901EBC00011
:103880000575394604EB041202EB8202104B03EB80
:10389000C20202F1140005F09DFA05EB45000E4945
:1038A00011F8200004EB041101EB8101084A02EB3E
:1038B000C10181F8240004EB041000EB800002EB4E
:1038C000C000017D012005F031FA064666B109E02D
:1038D0003807002024000020E8AA000848AB0008B0
:1038E000F8000020701C28B905EB4500FE4901EBEB
:1038F0008000466804EB041000EB8000FB4901EBFC
:10390000C00090F82000012807D104EB041000EB60
:10391000800001EBC00086620FE0F0B240EA0021B7
:1039200041EA004141EA006204EB041101EB81012C
:10393000EE4B03EBC1018A6200BF04EB041101EB03
:103940008101EA4A02EBC10191F8200005F07DFFF8
:10395000BDE8F08110B500214FF47A72424301EBCB
:10396000011303EB8303E14C04EBC303C3F81822F8
:1039700010BD10B5002202EB021303EB8303DB4CF6
:1039800004EBC30303F5127303C310BD2DE9F04725
:1039900004460D464FF0000A0022D54B204629462A
:1039A00006F09EFD0646FEF727FC0AEB0A1202EB24
:1039B0008202CE4B03EBC20202F50E7203C20AEB87
:1039C0000A1000EB8000194601EBC00000F51270F0
:1039D00030C000224FF080432046294606F07AFD91
:1039E00006460022C24B06F07BFD8046FEF704FC33
:1039F0000AEB0A1202EB8202BC4B03EBC20202F595
:103A00000C7203C2BDE8F08710B5002101EB011371
:103A100003EB8303B54C04EBC30383F82E0210BD04
:103A200010B51021B34802F0BBFC012001F091FD5C
:103A30001021B04802F0B2FC052001F08AFD002000
:103A400005F0ADFE0021481E06F0BDF910BDA748E7
:103A500090F855027047A8480CC8104619467047A0
:103A6000A249D1F8A0017047A4480CC810461946D5
:103A70007047A3480CC81046194670479B49486BCD
:103A800070479A49086B70479E480CC81046194603
:103A9000704770479C49497901F0040109B1002041
:103AA00000E0012070479849497901F0080109B107
:103AB000012000E000207047002094490870704702
:103AC0008A4991F890020021884A82F89012704742
:103AD00000B500208C490870088188708871002129
:103AE000894A11615161FDF76EF900BD8649488927
:103AF00070477E49B1F8940200217C4AA2F89412E2
:103B0000704770B5794800F51E7060C81022002318
:103B10002846314606F0E8FB1446204670BD73493E
:103B2000D1F88402704730B90B21704A51600021EE
:103B300082F88B120DE0012806D102216B4A5160F8
:103B4000012182F88B1204E0022802D10821674A81
:103B500051607047654981F889027047634991F85F
:103B6000890270476149C1F898020121684A1170C1
:103B70000021684A116070475C49D1F8980270478B
:103B80005A49A1F89E020121584A82F89D127047B5
:103B90000120564981F8A2027047544991F8A202C7
:103BA0000021524A82F8A21270475B480188002027
:103BB000594A108008467047704730B55748D0E9D9
:103BC0000020C3B20021554C2160616010461946A7
:103BD00030BD30B55248D0E90020C3B20021504C6E
:103BE000216061601046194630BD4E4908880021A9
:103BF0004C4A118070474C49087870470020704744
:103C000070B50546002400BF00BF04EB041000EBB4
:103C10008000364901EBC00090F855625DB900BFE5
:103C200004EB041101EB8101304A02EBC100314683
:103C3000FEF749FF08E004EB041101EB81012B4A78
:103C400002EBC100FEF73EFDEEB3002004EB0411D1
:103C500001EB8101254A02EBC10181F8550204EB19
:103C6000041000EB8000114601EBC00090F85702F1
:103C7000401E04EB041101EB810102EBC10181F84C
:103C8000570204EB041000EB8000114601EBC0006A
:103C900090F85602B8B104EB041000EB800001EB81
:103CA000C00090F8560204EB041101EB810102EB15
:103CB000C10181F85502002104EB041000EB8000E3
:103CC00002EBC00000E001E080F85612002104EB96
:103CD000041000EB8000054A02EBC00080F8561289
:103CE00000BF002070BD0000E8AA000838070020CF
:103CF00000408F4000000240A800002098000020F3
:103D0000B0000020A0000020D810002034010020C6
:103D10002101002030010020500100204801002036
:103D20004001002054010020530100200020704772
:103D300010B500BF0221614803F03AFF0028F9D016
:103D400000215E4803F0B0FE002010BD2DE9F041D7
:103D500005460E461746984600241021584802F0A2
:103D60001FFB00BF0EE0315D544803F0EAFE00BFC8
:103D70000121524803F01CFF0028F9D04F4803F0FE
:103D8000DDFE641CAC42EEDB00240FE018F80410EA
:103D90004A4803F0D6FE00BF0121484803F008FF5F
:103DA0000028F9D0454803F0C9FE641CBC42EDD39D
:103DB0001021434802F0F2FA0020BDE8F0812DE91D
:103DC000F04105460E4617469846002410213C480F
:103DD00002F0E6FA00BF0EE0315D384803F0B1FEB4
:103DE00000BF0121354803F0E3FE0028F9D0334835
:103DF00003F0A4FE641CAC42EEDB002410E00021C2
:103E00002E4803F09EFE00BF01212C4803F0D0FE97
:103E10000028F9D0294803F091FE08F80400641C3A
:103E2000BC42ECD31021264802F0B8FA0020BDE8CD
:103E3000F0812DE9F04104460F4615460026B046B4
:103E40002FB14FF400611F4802F0A8FA0BE0012CDB
:103E500004D1287800F0030000B1A0464FF40061BF
:103E6000184802F09DFA4FF48051164802F098FA73
:103E700000260EE0A95D144803F063FE00BF012197
:103E8000114803F095FE0028F9D00F4803F056FEC4
:103E9000761CA642EED34FF400610A4802F080FA85
:103EA0004FF48051074802F079FAB8F1000F02D0C0
:103EB000022000F086FFBDE8F081000000300140E4
:103EC0000000024000040240003800401CB54FF4DE
:103ED0008070009001208DF8040003208DF805000B
:103EE0006946454802F0E0F94FF48071424802F01B
:103EF00057FA4FF48070009003208DF804008DF87D
:103F0000050069463C4802F0CFF91CBD10B586B0EB
:103F100004463A4803F004FD0020ADF804004FF4D5
:103F20008270ADF806000020ADF80800ADF80A0078
:103F3000ADF80C004FF40070ADF80E00ADF8104075
:103F40000020ADF812000720ADF8140001A92B489D
:103F500003F00CFD0121294803F0A6FD06B010BDB9
:103F60000EB50121080702F089FD012002F04FFB88
:103F7000012002F05DFD002002F05AFD012002F058
:103F800066FC00BF492002F00FFC0028FAD04FF475
:103F9000803002F029FD012002F046FD02F020FEF3
:103FA0004FF4801001F06EFC4FF48010019000205F
:103FB0008DF8080008208DF8090001208DF80A000E
:103FC00001A801F0EEFB03208DF8000000208DF821
:103FD00001008DF8020001208DF80300684601F011
:103FE00066FB002003F09CF9002003F0AEF90121EC
:103FF000880303F009FC0EBD0000024000300140C0
:1040000070B500F0AAFE05464FF0E02040694FF081
:10401000E020806900204FF0E0214969B0FBF1F415
:10402000204670BD70B50446FFF7EAFF0546164806
:1040300004FB00F600BFFFF7E3FF401BB042FAD3DA
:10404000002070BD70B500F088FE04464FF0E020FF
:1040500040694FF0E0218969401A4FF0E021496939
:10406000B0FBF1F00519284670BD70B50446FFF7A6
:10407000E9FF0546264600BFFFF7E4FF401BB042BC
:10408000FAD3002070BD000040420F000FB430B5DD
:10409000DDE90B45DDE905321B1BAA4108D3DDE94B
:1040A0000723A21A75EB030202D32046294613E028
:1040B000DDE905321B1BAA4104D2DDE90501CDE98A
:1040C000054509E0DDE90732E31A75EB020203D288
:1040D000DDE90701CDE9074530BC5DF814FB2DE9AA
:1040E000FF5F86B0DDE914BA9DF82400012802D0F4
:1040F0000AB0BDE8F09FBDF82000BBF80810401AD8
:1041000001287DD1DDE90630DBE90012591A60EBA8
:104110000200B1F1010840F1FF014FF0FF32FF232F
:10412000404606F0E1F814461D46FE4800EB4A10F2
:10413000806958B9FB4800EB4A10C0E902450021EC
:10414000F84A02EB4A1211605160B6E0F54800EB04
:104150004A108069012823D1F24800EB4A10D0E9C7
:104160000210091BA8410FD2EE4800EB4A11D1E919
:104170000201EC4A02EB4A12C2E90401E94800EBF1
:104180004A10C0E9024504E0E64800EB4A10C0E9E5
:1041900004450020E34A02EB4A12106050608CE0B4
:1041A000E04800EB4A108069022841DBDD4800EB63
:1041B0004A10806966283BDADA4800EB4A13CDE9F9
:1041C000044510330FCB8DE80F00D64800EB4A1C96
:1041D0009CE80F00FFF75AFF06460F46D14800EB58
:1041E0004A108069801EC317CE4901EB4A12D2E9FA
:1041F000001CA0FB012E03FB01E100FB0C1C00E0F6
:1042000064E0134698194CEB0702CDE90402C54857
:1042100000EB4A108069401EC31780464246DDE924
:10422000040106F061F8BF4A02EB4A1203C244E0FF
:10423000BC4800EB4A10806966283ED1B94800EBC3
:104240004A11D1E90201201A75EB010035D2B548B7
:1042500000EB4A10D0E90410091BA8412DD2B14847
:1042600000EB4A108069801EC317AE4901EB4A1269
:10427000D2E900C2A0FB0C1E03FB0CE300FB0230E2
:1042800009196841CDE90410A64800EB4A1080697D
:10429000401EC317804642460846059906F024F89A
:1042A000A04A02EB4A1203C29E4800EB4A10806902
:1042B000401E9C4901EB4A1188619A4800EB4A1064
:1042C0008069401C974901EB4A11886100BF0FE7E4
:1042D00070B504460025102600BF09E005EB450235
:1042E00004F1100101EBC200314606F047F86D1CE5
:1042F000142DF3DB314604F5F87006F03FF800208A
:10430000A4F8000284F8020270BD2DE9FF4788B0CE
:10431000DDF8548000241498B0F800421498CDE9D8
:10432000000808A80FC8FFF7DAFEC4BB9DF82C00F0
:10433000012835D17C48D0E900100022514050407E
:1043400001431AD1BDF8280014990989401A01289F
:1043500013D1149ADDE90810D2E90032CB1A60EBD0
:104360000200B3F1010940F1FF014FF0FF32FF23DA
:10437000484605F0B9FF6C480CC0BDF82A001499F6
:104380004881149ADDE90810C2E90010BDF8280040
:10439000149908819DF82C001499087337E1FFE700
:1043A0001498D0E9001000235940584001437DD0B3
:1043B0009DF82C00002879D1282C77DA002C48D1E0
:1043C0005948D0E90030594A9A1A70F1000005D2D4
:1043D000544800EB481103C9534A03C2DDE90830D1
:1043E000149A06CA591A60EB0200B1F1010940F1B2
:1043F000FF014FF0FF32FF23484605F075FF04EB45
:1044000044011498103000EBC100C0E90223464972
:1044100003C906F081F981460022454B06F060F899
:10442000CDE9060104EB44011498103000EBC10003
:10443000D0E90221104606F06FF9CDE90401DDE96B
:10444000062306F0F1F904D2002014900CB0BDE868
:10445000F0871498B0F80002401C1499A1F80002EB
:10446000BDF82A1004EB44021498103020F83210E2
:104470001498418904EB4402103000EBC2004180E3
:104480002C48018804EB44021498103000EBC20061
:104490008180149BDDE90810D3E9002C8B1A60EBB6
:1044A0000C00B3F1010940F1FF0100E017E04FF00B
:1044B000FF32FF23484605F017FF04EB4401149830
:1044C000103000EBC100C0E90223BDF8281004EB56
:1044D00044021498103000EBC200C18097E0012C18
:1044E000FCDB9DF82C000128F8D1149800F5C07071
:1044F00008A991E80E107030A0E80E10BDF8280051
:1045000014990989401A012878D1149BDDE9081013
:104510000CCB8A1A60EB0300B2F1010940F1FF01F4
:104520000AE00000181100206001002040420F0046
:104530000000F83F2A0000204FF0FF32FF234846DA
:1045400005F0D2FE16461F4600254FE0464800EB18
:1045500048108069142808DA05EB450114981030DA
:1045600000EBC100C0E904673FE03F4800EB4810A2
:10457000D0E9001005EB4503149A103202EBC30298
:10458000C2E9041005EB45011498103000EBC1009E
:10459000D0E90221104606F0BFF8CDE9040130460B
:1045A000394606F0A5F881468A462F4800EB4810A8
:1045B000D0E90021104606F0AFF84A465346CDE94F
:1045C000000105F0FFFFCDE90201DDE9042305F05C
:1045D00087FFCDE9060106F0E3F805EB4503149AE1
:1045E000103202EBC302C2E902016D1CA542ADDB31
:1045F0000120149981F8020203E0FFE71498FFF705
:1046000067FE08A991E80E101498A0E80E1000BFEC
:104610001CE71FB54FF0FF320023002111E01348C3
:1046200050F8210010B9501C00B90A460F4850F844
:104630002100BDF80A40A04202D10A46012302E04F
:10464000491C0529EBDB00BF002A07DB052A05DA38
:10465000BDF80A00054C44F8220003E04FF0FF309B
:1046600004B010BD1846FBE718110020B811002057
:104670000648804706480047FEE7FEE7FEE7FEE7FC
:10468000FEE7FEE7FEE7FEE7FEE7FEE7D58500086A
:10469000F50000081CB50220009000208DF80400F1
:1046A00001208DF8050002208DF807006946424878
:1046B00001F0FAFD0121084603F0E1FA00F0DCFC0C
:1046C0001CBD1CB5022001F0DDF802200090002086
:1046D0008DF8040008208DF8050001208DF80600F3
:1046E000684601F05EF81CBD1CB502200090002059
:1046F0008DF8040008208DF8050000208DF80600D4
:10470000684601F04EF81CBD1FB501200290002044
:104710008DF80C008DF80F0002A9274801F0C4FDA8
:104720000021012003F0ABFA0120009000208DF859
:10473000040008208DF8050001208DF80600684669
:1047400001F02FF81FBD08B50F208DF801008DF87E
:10475000020001208DF8030028208DF80000684633
:1047600000F0A5FF17208DF80000684600F09FFFBD
:1047700009208DF80000684600F099FF01208DF8AF
:1047800001008DF802008DF8030007208DF800006D
:10479000684600F08CFF08BD10B500F070FA00F01C
:1047A00078FA00F0E9F800F009F8FFF7CCFFFFF71E
:1047B000ABFF00F037FB10BD0004024000B587B02E
:1047C00007220221694801F0F8FD0722032167480A
:1047D00001F0F3FD26208DF8180001208DF8190056
:1047E00000208DF81A0001208DF81B0006A800F0AB
:1047F0005EFF0820049003208DF8150000208DF83E
:1048000014008DF8170004A9584801F04DFD04204C
:10481000049003208DF8150002208DF8140000206C
:104820008DF8160004A9514801F03EFD4FF4E13027
:1048300000900020ADF80600ADF80800ADF80400C7
:10484000ADF80C000C20ADF80A006946484803F0AA
:104850009CFB0121464803F01DFC4021444803F025
:1048600001FD0121880302F0F8F8072209213F48E1
:1048700001F0A3FD07220A213C4801F09EFD2520FE
:104880008DF8180001208DF8190000208DF81A000D
:1048900001208DF81B0006A800F009FF4FF480608E
:1048A000049003208DF8150002208DF814000020DC
:1048B0008DF8170004A92D4801F0F6FC4FF40070A4
:1048C000049003208DF8150002208DF814000020BC
:1048D0008DF8160001208DF8170004A9234801F077
:1048E000E3FC4FF4E12000900020ADF80600ADF8A5
:1048F0000800ADF80400ADF80C000C20ADF80A007B
:1049000069461C4803F041FB012240F22551194839
:1049100003F076FC0121174803F0BCFB4021154849
:1049200003F0A0FC2021134803F09CFC07B000BD5D
:1049300070B504460D46E1B20D4803F0D6FB00BF4A
:1049400040210B4803F081FC0028F9D00A2C0AD141
:104950000D21074803F0C9FB00BF4021044803F0C4
:1049600074FC0028F9D0204670BD00000000024011
:1049700000440040003801401CB50121072002F02E
:104980005BF81020009001208DF8040003208DF8C2
:1049900005006946324801F087FC1021304801F0DB
:1049A000FFFC10212E4801F0F9FC4FF480500090DC
:1049B00001208DF8040003208DF805006946284881
:1049C00001F072FC4FF48051254801F0E9FC4FF4EE
:1049D0000040009001208DF8040003208DF80500B0
:1049E00069461F4801F060FC4FF400411C4801F08B
:1049F000D7FC4FF48060009001208DF80400032064
:104A00008DF805006946174801F04EFC4FF48061AF
:104A1000144801F0C5FC4FF48061124801F0BEFC5F
:104A20001CBD10B54FF400410D4801F0B9FC142035
:104A300000F0C7F94FF40041094801F0AFFC10BD88
:104A400010B54FF48051064801F0AAFC142000F084
:104A5000B8F94FF48051024801F0A0FC10BD0000ED
:104A6000000002400004024010B5012000F0FFFEEB
:104A700020B1FBF755FB012000F004FF10BD10B57D
:104A8000022000F0F4FE40B10120DE490870C003AE
:104A9000FCF704F8022000F0F5FE10BD10B5082068
:104AA00000F0E5FE40B10120D64908701020FBF768
:104AB000F5FF082000F0E6FE10BD10B5402000F024
:104AC000D6FE40B10120CF4908701020FBF7E6FF69
:104AD000402000F0D7FE4FF4007000F0C8FE30B167
:104AE0002020FBF7DBFF4FF4007000F0CBFE10BD81
:104AF00010B500214FF0006000F00EFE4FF4E060B2
:104B000000F0D0FD10BD10B50121084601F094FF62
:104B10000121022001F090FF0121042001F08CFF0F
:104B20000121480401F0AAFF0121880301F095FF4B
:104B30000121080301F091FF0121880301F09EFF8C
:104B40000121084601F089FF10BD2DE9F047054617
:104B500000260027B0460024A14601F0BFF801F06E
:104B6000F1FA044635B904F0010050B100BF4FF02E
:104B7000010906E0012D04D104F0010008B9102656
:104B8000A946B9F1000F17D004F0020008B10027C0
:104B900000E0202704F0040010B14FF0000801E00D
:104BA0004FF0400800BF42463946304601F052FA05
:104BB0000428F8D101F0A8F801F09FF8BDE8F087CB
:104BC000704710B500F0A7FE01F088F801F0CBFAAD
:104BD00038B100BFAA2001F073F90428FAD101F01E
:104BE00093F810BD10B5012001F038FE00BF412040
:104BF00001F0DAFD0028FAD00120FFF7A6FF45F208
:104C0000555001F00DFC062001F00DFC40F6FF7040
:104C100001F00CFC01F00DFC01F010FC10BD7FB5A3
:104C2000684601F065FE4FF47A710198B0FBF1F42B
:104C30002146B1F1807F00D31DE021F07F40401E6E
:104C40004FF0E022506150170F22002807DA1307B7
:104C50001E0E6D4B00F00F052D1F5E5503E0130770
:104C60001D0E6A4B1D5400BF00204FF0E0229061E2
:104C70000720106100BF042000F066FD7FBD10B565
:104C8000FFF736FFFFF7CBFFFFF7ACFF00F056FC56
:104C900010BD10B5FFF737FF00F0A7FA10BD1CB527
:104CA00000215B4802F000FF00214FF4805001F02A
:104CB000D4FE0021574803F0EDF900214FF40030F5
:104CC00001F0DCFE01208DF8040003208DF80500C2
:104CD00000208DF8060002208DF8070001034E48E1
:104CE00001F05EFB4FF400714C4801F057FB1021BE
:104CF0004A4801F055FB1CBD10B50121080301F025
:104D0000ACFE0121424802F0CFFE0121480401F02F
:104D1000B5FE01213F4803F0BDF94FF400513E4874
:104D200001F03CFB4FF400713C4801F039FB1021CD
:104D30003A4801F033FB10BD10B501F07AFB10BD0D
:104D400037480068401C36490860704700203449E5
:104D50000860704732490860704731480068704702
:104D60002F48006870472E49096801442C4A116099
:104D700070472B4A11684FF0E02252694FF0E02350
:104D80009B69D21A4FF0E0235B69B2FBF3F2501833
:104D90007047234A11684FF0E02252694FF0E02338
:104DA0009B69D21A4FF47A735A434FF0E0235B6940
:104DB000B2FBF3F201EB4103C3EBC11302EBC300FF
:104DC00070472DE9F04104462746FFF7D2FF06461B
:104DD00006E0FFF7CEFF851BBD4201D3BDE8F081A1
:104DE000F7E72DE9F04104462746FFF7D2FF0646D4
:104DF00006E0FFF7CEFF851BBD4201D3BDE8F08181
:104E0000F7E700001100002018ED00E000E400E0EA
:104E1000003001400044004000080240000402400D
:104E20006801002000B587B005221146644801F0F2
:104E3000C4FA05220621624801F0BFFA05220721C3
:104E40005F4801F0BAFA02208DF8040000208DF8C6
:104E5000060002208DF8070003208DF805002020B1
:104E600000906946564801F01FFA402000906946BC
:104E7000534801F019FA802000906946504801F02B
:104E800013FA504802F04CFD0020ADF808004FF432
:104E90008270ADF80A000020ADF80C00ADF80E00ED
:104EA000ADF810004FF40070ADF8120046480068ED
:104EB0004649884203D91820ADF8140002E01820B2
:104EC000ADF814000020ADF816000720ADF818006A
:104ED00002A93C4802F04AFD01213A4802F0E4FDF3
:104EE00007B000BD00B587B005220D21384801F09C
:104EF00064FA05220F21364801F05FFA05220E21DF
:104F0000334801F05AFA02208DF8040000208DF891
:104F1000060002208DF8070003208DF805004FF4ED
:104F20000050009069462A4801F0BEF94FF4004055
:104F300000906946264801F0B7F94FF48040009090
:104F40006946234801F0B0F9224802F0E9FC00204C
:104F5000ADF808004FF48270ADF80A000020ADF8FB
:104F60000C00ADF80E00ADF810004FF40070ADF875
:104F70001200154800681549884203D90820ADF889
:104F8000140002E00020ADF814000020ADF8160077
:104F90000720ADF8180002A90E4802F0E7FC012135
:104FA0000C4802F081FD07B000BD10B50021094892
:104FB00002F07AFD00214FF4804001F05FFD10BD4A
:104FC00000000240003001408801002000366E01E0
:104FD000000402400038004070B504460D467B488E
:104FE000007808B1FF2070BD2A462146382000F025
:104FF0006BFA0020F7E710B504467448007808B152
:10500000FF2010BD2146382000F070FAC0B2F8E74A
:1050100010B52A20FFF7EFFF40F0010421462A20B7
:10502000FFF7DAFF10BD10B52A20FFF7E4FF0446B2
:1050300024F0010421462A20FFF7CEFF10BD70B5F1
:105040000024002500BF0D21382000F04FFAC4B223
:105050001A2C05D02A2C03D03A2C01D0052DF2DBD6
:105060001A2C05D02A2C03D03A2C01D0012000E0C4
:1050700000205649087070BD10B5FFF7E0FF534897
:10508000007800B110BDFFF7CEFF6A222A21382038
:1050900000F01AFA1F222B21382000F015FA5A22AC
:1050A0002C21382000F010FA2C222D21382000F07D
:1050B0000BFA2C222E21382000F006FAB8221521F6
:1050C000382000F001FA08221721382000F0FCF9FE
:1050D00003221821382000F0F7F91F221D21382063
:1050E00000F0F2F911221F21382000F0EDF9002222
:1050F0000E21382000F0E8F910220F21382000F0AE
:10510000E3F91120FFF777FF044644F040042246FC
:105110001121382000F0D8F91320FFF76CFF044666
:1051200004F03F0400BF44F0400444F080042246F1
:105130001321382000F0C8F91C20FFF75CFF04465B
:1051400004F0F80400BF44F0010422461321382083
:1051500000F0BAF91420FFF74EFF044604F00704EC
:1051600044F0380422461421382000F0ADF9142010
:10517000FFF741FF044604F0F80444F0010422461E
:105180001421382000F0A0F92D20FFF734FF044649
:1051900044F0100422462D21382000F095F92E20ED
:1051A000FFF729FF044604F0EF0444F01004224600
:1051B0002E21382000F088F905221221382000F035
:1051C00083F9FFF725FF00BF5CE700006C010020BA
:1051D00008B5009004E09DF80010491EC9B2009186
:1051E0009DF800100029F6D108BD1CB54FF4806071
:1051F000009001208DF8040003208DF805000020A8
:105200008DF8060001208DF807006946C54801F0B9
:105210004BF84FF40060009001208DF8040003204B
:105220008DF8050000208DF8060001208DF807009C
:105230006946BC4801F038F84FF40061B94801F004
:10524000ADF84FF48061B74801F0A8F81CBD1CB55B
:105250004FF40061B34801F0A1F800BF4FF40060C3
:10526000009001208DF8040003208DF80500002037
:105270008DF8060001208DF807006946A94801F065
:1052800013F800BF4FF48061A64801F087F80120B1
:10529000FFF79EFF4FF40061A24801F081F84FF440
:1052A0008061A04801F07CF80120FFF791FF1CBD50
:1052B0001CB54FF400619B4801F072F800BF4FF439
:1052C0000060009001208DF8040003208DF8050097
:1052D00000208DF8060001208DF8070069469148EE
:1052E00000F0E2FF00BF4FF480618E4801F056F8F5
:1052F0000120FFF76DFF4FF400618A4801F04EF87E
:105300000120FFF765FF1CBD1CB504462CB94FF406
:105310000061844801F044F804E04FF400618148E2
:1053200001F03CF800BF4FF40060009001208DF8C0
:10533000040003208DF8050000208DF806000120F0
:105340008DF807006946774800F0AEFF00BF4FF4C4
:105350008061744801F022F80120FFF739FF4FF413
:105360008061704801F01CF80120FFF731FF1CBD7F
:105370007CB5064600BF4FF40060009001208DF818
:10538000040003208DF8050000208DF806000120A0
:105390008DF807006946634800F086FF00BF0024CF
:1053A00021E006FA04F000F0800028B14FF400611B
:1053B0005C4800F0F3FF04E04FF40061594800F04E
:1053C000EFFF4FF48061574800F0E8FF0120FFF73E
:1053D000FFFE4FF48061534800F0E2FF0120FFF729
:1053E000F7FE601CC4B2082CDBDB4FF400614D48B3
:1053F00000F0D4FF00BF4FF40060009000208DF853
:10540000040003208DF8050001208DF8060000201F
:105410008DF807006946434800F046FF00BF4FF48F
:105420008061404800F0BAFF0120FFF7D1FE4FF441
:1054300000613C4800F09AFF012801D1002500E0FE
:1054400001254FF48061374800F0AAFF28467CBD53
:105450007CB5002500BF4FF40060009000208DF85F
:10546000040003208DF8050001208DF806000020BF
:105470008DF8070069462B4800F016FF00BF002496
:1054800019E04FF48061274800F08AFF0120FFF700
:105490009FFE4FF48061234800F080FF0120FFF75A
:1054A00097FE6806050E4FF400611E4800F05EFF8F
:1054B0000543601CC4B2082CE3DB4FF4806119483B
:1054C00000F06EFF28467CBD70B504460D461646BA
:1054D000FFF7BDFE2046FFF74BFF2846FFF748FFCA
:1054E0003046FFF745FFFFF7E3FE70BD70B5044699
:1054F0000D46FFF7ACFE2046FFF73AFF2846FFF7C0
:1055000037FFFFF7A4FE44F00100FFF731FFFFF77C
:105510009FFF06460020FFF7F7FEFFF7C9FE304663
:1055200070BD00000004024010B54FF4801000F080
:10553000A9F94FF4804002F0DEF910BD10B5012149
:10554000080701F09BFA002000F0CFFFFEF708FDEE
:1055500010BD70B50546FFF7EFFB49F288006843C0
:1055600000094FF47A71B0FBF1F4B4F5803F01D338
:105570004FF6FF7404B970BD4FF4801000F082F94B
:105580004FF4804002F0B7F9002001F0EEFE204613
:1055900001F0DBFE012001F0E8FE0121084601F0E8
:1055A0008FF8002001F0E1FE00BF012001F0F5F8C6
:1055B00000BF00BF312001F0F7F80028FAD0012029
:1055C00001F057F900BF392001F0EEF80028FAD0B9
:1055D000032001F05EF900BF01F065F90C28FBD152
:1055E00000BFFFF71CFBFFF7A7FB00BFC3E770B5C9
:1055F00005462C460E2C00DC70BD0E3C03F0F7FF78
:10560000FAF799FDFFF74BFB44F62060844218DD62
:1056100006E044F62060FFF79CFFA4F59C44203C84
:1056200044F62060844203DB1B4800780028F0D059
:105630000E2C09DD1848007830B92046FFF789FFA5
:1056400002E02046FFF785FFFFF756FB04F10E004E
:10565000FFF789FB00BFCFE710B504462046FFF7F0
:1056600078FF10BDFAF750FD00BFBFF34F8F0B4816
:10567000006800F4E0600A490843001D074908601B
:10568000BFF34F8F00BF00BFFEE710B504462046B2
:10569000FFF7ADFF10BD0000110000200CED00E091
:1056A0000000FA0532490143324A1160704770B573
:1056B000002100230F22C4781CB32E4C246804F46C
:1056C000E064C4F5E064C4F30721C1F10404E3B26B
:1056D0000A4144789C40E1B28478144021430C078D
:1056E000210E254C05786155047804F01F0501242E
:1056F000AC4005786D11AD0005F1E025C5F800411D
:1057000009E0047804F01F050124AC401B4D067825
:10571000761145F8264070BD194A0A400243154BE0
:105720001B1F1A60704739B1124A121D12680243DA
:10573000104B1B1D1A6006E00E4A121D12688243B0
:105740000C4B1B1D1A607047042808D14FF0E02154
:10575000096941F004014FF0E022116107E04FF0C8
:10576000E021096921F004014FF0E0221161704746
:105770000000FA050CED00E000E400E080E100E04C
:1057800080FFFF1F002041490860091D0860091DB6
:105790000860091D08606FF07F403C4914310860C3
:1057A0007047002139498279002A3AD00A461268A6
:1057B00003689A430B461A600A1D126803689A43ED
:1057C0000B1D1A60027911440A6803681A430A60C3
:1057D0002E4A0832126803689A432C4B08331A6029
:1057E0001A1D126803689A43284B0C331A604279D9
:1057F000102A0ED11A1F126803681A43234B08336C
:105800001A601A1D126803681A43204B0C331A6081
:105810000DE01E49427911440A6803681A430A6080
:1058200005E0027911440A6803689A430A607047E8
:105830000021016001710C214171002181717047CB
:105840001249103109680143104A10321160704743
:10585000014600200D4A143212680A400AB10120A4
:1058600000E0002070470949143108607047014684
:105870000020064A143212680A400AB1012000E0F2
:10588000002070470149143108607047000401404E
:1058900001460020FE4A106820F001000843106015
:1058A000704730B1FA49096841F00201F84A1160C5
:1058B00005E0F749096821F00201F54A11607047D7
:1058C00030B1F349096841F00401F14A116005E083
:1058D000EF49096821F00401ED4A1160704730B1C9
:1058E000EB49096841F00801E94A116005E0E8491F
:1058F000096821F00801E64A11607047E448001D7C
:10590000006800F0010028B1E248E1490C3108606C
:10591000E1480860704700B5DD48001D006800F0F0
:10592000020038B1FFF7EAFFDC48D94910310860BE
:10593000DB48086000BDD648001D006840F002004A
:10594000D349091D086070470420D14918310968FE
:1059500001F0010109B1012010E0CD4918310968B9
:1059600001F4807109B1022008E0C94918310968C1
:1059700001F4F05109B1032000E00420704708B59C
:10598000024604200090FFF7DFFF009003E0FFF7DE
:10599000DBFF0090521E9DF80000012801D1002A73
:1059A000F5D10AB9052000909DF8000008BD30B57A
:1059B000044604256803FFF7E2FF0546042D1FD1C6
:1059C000B348001D006840F40070B149091D08602B
:1059D0000846006840F00800086000202060680366
:1059E000FFF7CDFF0546AA48001D006820F008001B
:1059F000A749091D08600846006820F40070086087
:105A0000284630BD70B504460D4604267003FFF7E6
:105A1000B6FF0646042E04D125604003FFF7AFFF12
:105A20000646304670BD9A48001D006840F00100EF
:105A30009749091D0860704740B19549091D0968DB
:105A400041F48071924A121D116007E09049091DCE
:105A5000096821F480718E4A121D1160704730B5BB
:105A6000044604256803FFF78AFF0546042D01D18B
:105A700000202070284630BD30B504460425680358
:105A8000FFF77DFF0546042D01D100202080284628
:105A900030BD30B5044604256803FFF770FF0546A6
:105AA000042D01D100202060284630BD70B5044689
:105AB0000D4604267003FFF762FF0646042E0CD144
:105AC0007348001D006820F480707149091D08604A
:105AD00025607003FFF753FF0646304670BD2DE981
