:020000040000FA
:030000000200D229
:0300130002147A5A
:03002B000212C7F7
:03003B0002165852
:03004B0002145349
:030053000216F0A2
:03005B000214622A
:0300630002146E16
:03007B00021183EC
:10008300021729C4F5F0E5C75430C4C0E0E5C754EE
:10009300CF45F0F5C7E47385C7F053F0CFD0E0C484
:1000A30045F0F5C722D083D082E5C7C45403C0E02E
:1000B300E493C0E0740193C0E0740293C45430F538
:1000C300F0E5C754CF45F0F5C72200000080FB756B
:1000D300D0007581407510007511E3000200E21233
:1000E3000184B9000302016EE479137802B80002B7
:1000F3008004F709D8FCE490E300780079168002C5
:10010300F0A3D8FCD9FA7812902E2D7A01BA000206
:100113008007E493A3F608DAF990F8FFAA82AB8389
:10012300902E2E78EF79058015E493A3AC82AD83EE
:100133008A828B83F0A3AA82AB838C828D83D8E9D6
:10014300D9E790E300AA82AB83902E2E7801790140
:100153008015E493A3AC82AD838A828B83F0A3AA38
:1001630082AB838C828D83D8E9D9E77582DE758370
:100173001274001200867582CD758300740012001C
:1001830086790122E066701008A3E066700A08A36E
:10019300E066700408A3E06622C3E7960809E796C1
:1001A3000809E7960809E796A2D265D03322C3E08F
:1001B3009608A3E09608A3E09608A3E096A2D2656A
:1001C300D03322C3E7960809E7960809E79608099A
:1001D300E79622C3E09608A3E09608A3E09608A357
:1001E300E09622BB0102E722C082C08389828A8310
:1001F300BB0003E08002E493D083D0822208080886
:10020300E630E711120ABC120218080808C6448037
:10021300C618181822181818E9799EC608CAC608FD
:10022300CBC608CCC6C370207996CACBCC701979DB
:100233008ECBCC70137986CC700EF9802ACA33CA60
:10024300CB33CBCC33CC331930E7F2CCCBCA3350DE
:10025300147004EA30E00DE4CA3ACACB3BCBCC3C81
:10026300CC500209C3E913C6CC182313C6CB18C656
:10027300CA18C6F9221202B820F01430E72B74FF13
:10028300FCFBFA747F8022E4FCFBFA7480801AB4CE
:100293008008BC00F2BB00EF800F50EBF9E4C39A77
:1002A300FAE49BFBE49CFCE499C6CC18C6CB18C6C5
:1002B300CA18C6F922E4C9C608CAC608CBC6D333CE
:1002C3000308CCC63392F0C3947F402E9418401990
:1002D300C9B90704CACBCC225025C309CA33CACB38
:1002E30033CBCC33CC33D9F422F4600DC9CCC31354
:1002F300CB13CBCA13CAD9F6CC22E4FCFBFA2214E3
:10030300FCFBFA22E6C33318461846184622E7C315
:100313003319471947194722181818E60846087071
:100323000AE608C3337005E633F4220822191919C3
:10033300E7094709700AE709C3337005E733F42275
:100343000922E6084608C3134608336002E633F47D
:1003530022E7094709C3134709336002E733F4224D
:100363001203456025120354602012030770030231
:100373000311080808E76670101819E766700A1871
:1003830019E76670041819E76622F4221203456020
:100393001C12035460171203077007120311700134
:1003A300D322C0D01203117006D0D0B322C322339C
:1003B300D0D0501430E0F6C3E7960809E796080951
:1003C300E7960809E796B32220E0D5E6970809E601
:1003D300970809E6970809E697B322120345601BBD
:1003E30012035460161203077007120311600CB353
:1003F30022C0D01203117005D0D022C32233D0D033
:10040300501330E0EBC3E7960809E7960809E7962F
:100413000809E7962220E0E4E6970809E697080929
:10042300E6970809E6972200120345604F1203542A
:100433006012E7548066F612031B701112031170E9
:100443003B090909F4F618F618F618F622120330D8
:10045300701512030708080860EAE6447FF6187669
:100463008018E4F618F622120307601612031170BF
:1004730012E4F608F608F608E65480F609090918A6
:10048300181822EAC0E0EBC0E0ECC0E0EDC0E0E603
:1004930087F0A4FBACF008E687F0A42CFCE435F06D
:1004A300FA1809E687F0A42C4B60027401CA35F0F0
:1004B300FCE433FB09E687F0D2F7A42CCB35F0FC40
:1004C3001908E687F0A42BCC35F0FBE433FD0819BB
:1004D300E687F0D2E7A42C4ACB35F0CD3400FC09F3
:1004E300E687F0D2E7A42DCC35F0FDE433FA091802
:1004F300E687F0D2F7A42CCD35F0CA3400FC08E629
:1005030087F0D2E7D2F7A42ACC35F07A7E20E70B26
:100513000ACB33CBCD33CDCC33CC33CB3350147068
:1005230004ED30E00ED2F1E4CD3DCDCC3CCC3B50DC
:1005330005DA05C2F1EB547FC63308E63392F0FBCC
:10054300E73309E733C39A502D2B70190C0D4C4D2B
:1005530070151806E608C333700D20F10AA2F013D4
:10056300F6E418800B4024E4F630F002768018F6A7
:1005730018F618F68024D33B14501074FFA2F0131E
:10058300F6187680E418F618F6800FA2F013F61822
:10059300E63303F618ECF618EDF6D0E0FDD0E0FCF8
:1005A300D0E0FBD0E0FA2212035460461203456008
:1005B3003DE9687008F618F618F618F62274806795
:1005C300F71205DE090909748067F72212034560F3
:1005D3001D1203547005191919801A12031B701F79
:1005E300120330C37003E66733191919400718184B
:1005F300182208080874FFF618F618F618F62212DF
:1006030003306017120311702192F012030770195F
:10061300501720F014080808090909E7F61819E724
:10062300F61819E7F61819E7F62212030760E6E849
:1006330069701F0808E62480F608E436F618547F2C
:10064300B47F0CE654806007F6E418F618F6221817
:100653001822E9C6CC08C6CD08C6CE08C6CFC0E06E
:10066300E8C0E0EAC0E0EBC0E009E9F809E7FA090D
:10067300E7FBE6F918E6F8C3EC98ED99EE9AEBC2BE
:10068300E7F5F0EFC2E795F0500E600CEBCFFBEA15
:10069300CEFAE9CDF9E8CCF8EAA2E7D2E7FAEB33F0
:1006A300FB13F5F0EEA2E7D2E7FEEF33FFC5F0133D
:1006B300A2E730E601B313C5F0C3C0E0C0F07F008A
:1006C300C39BFB605B9418600C401AD0E023F9D005
:1006D300E0F80207AD8AF0E9486003D2F0E4AFF036
:1006E300FAF9F8803BEB30E40D89F0EA6003D2F0CD
:1006F300E4AFF0F9CAF8EB30E30D88F0EF6002D213
:10070300F0AFF0E4CAC9F8EB54076014FBC3EA1373
:10071300FAE913F9E813F8EF135002D2E0FFDBED27
:10072300D0E0C0E030E739C3E49FFFF5F0EC98FC7C
:1007330042F0ED99FD42F0EE9AFE42F0D0E0F9D09E
:10074300E0F8E5F0607AE923F9EE20E742D8028089
:1007530067C3EF33FFEC33FCED33FDEE33FE80EA8A
:10076300EC28FCED39FDEE3AFED0E023F9D0E0F8B9
:100773004002801BC3EE13FEED13FDEC13FCEF13DD
:100783005002D2E0FF08B800067F7F74FF802EEF8F
:100793003350178CF020F00260100CBC000C0DBD20
:1007A30000080EBE000408E860DFE933E813FFEE3B
:1007B3002313FE4F4D4C8008E95480FFE4FEFDFCFB
:1007C300EE33EF33F47004FCFD7E80D0E0FBD0E029
:1007D300FAD0E0F8D0E0CFC618CEC618CDC618CCF4
:1007E300C6F9221203457004181818221203547014
:1007F3000D74FFF61819F61819F61819F622E754AE
:100803008066F6120307700F12031170F014F608D6
:10081300F608F608F680D1120311700CF608F608F4
:10082300768008E6447F80EC120333700C12031EBB
:1008330060BFE65480F6E480BB12031E70051919ED
:100843001980A5E869700C763F18768018F618F6BB
:10085300E8F922E6CDC0E018ECC0E0E633CD33CDB5
:10086300D313F6E719FCE7191933CC33C3947F404C
:100873000ECD9D502408E65480F6E418F6800FF45C
:10088300043D14501408E6447FF6187680E418F605
:1008930018F6D0E0FCD0E0FD22CCD313CCFD18E455
:1008A300C6CBC0E018E4C6CAC0E00808ED08C633EA
:1008B300E613F618E433C675F003C3CA97CA09CB27
:1008C30097CB199C40047D08802EBD000302098F3D
:1008D30016B6FF050606081618C3CA33CACB33CBB0
:1008E30033CA27CA09CB37CB193CC37D08803E18CE
:1008F3007D0820E75CC633C6CA33CACB33CB33DDAE
:10090300F1D5F0EB30E77BCA97CA09CB974ACB19ED
:100913009C406F4B7025E620E0218066187D08C35C
:10092300CA97CA09CB97CB199CD3C633C6CA33CA55
:10093300CB33CB3350C9DDE7D5F0E1D3E4C636C6BC
:1009430008C636C608C636C608C636C6181818807E
:1009530031C3CA97CA09CB97CB199CB34097C63307
:10096300C6CA33CACB33CB33DD34D5F02EC6A2E0AF
:10097300C640C8CA27CA09CB37194A70BECB3CB494
:1009830080B90808E63308E633601F181818D0E06A
:10099300FAD0E0FBD0E0FCD0E0FD22187D08CA27A6
:1009A300CA09CB37CB193CD3808013F618E4B67F42
:1009B30011F618B6FF0EF618C60470D20808768032
:1009C30080CAF618F618F680C5080808EAC0E0EBF6
:1009D300C0E086F0E7A4FA180986F0E7A42AFA181B
:1009E3000986F0E7A42AFA180986F0E7A42AFA1977
:1009F30086F0E7A4FBE5F02AFA190886F0E7A42BB2
:100A0300FBE5F03AFA190886F0E7A42BFBE5F03A88
:100A1300FA18180986F0E7A4C5F02BFBE43AFA1993
:100A230008E7C5F0C6A426F6E5F03BFBE43AFA185E
:100A330086F0E7A4F6E5F00826F6E43B08F6E43A88
:100A430008F6D0E0FBD0E0FA22E4CFC0E0E4CEC069
:100A5300E0E4CDC0E0E4CCC0E075F020C3E633F6BB
:100A630008E633F608E633F608E633F6181818EC0A
:100A730033FCED33FDEE33FEEF33FFC3EC9709EDAB
:100A83009709EE9709EF97191919400FFFEC97FC97
:100A930009ED97FD09EE97FE191906D5F0BEECF79F
:100AA30009EDF709EEF709EFF7191919D0E0FCD0B2
:100AB300E0FDD0E0FED0E0FF22181818E4C396F65C
:100AC30008E496F608E496F608E496F622C6F4C619
:100AD30008C6F4C608C6F4C608C6F4C622601608DB
:100AE3000808C6C313C618C613C618C613C618C645
:100AF30013C6D5E0EA227009080808226016181800
:100B030018C6C333C608C633C608C633C608C633B9
:100B1300C6D5E0EA22E627F60809E637F60809E62D
:100B230037F60809E637F622E026F608A3E036F69C
:100B330008A3E036F608A3E036F622E026F008A381
:100B4300E036F008A3E036F008A3E036F022C3E66F
:100B530097F60809E697F60809E697F60809E6976F
:100B6300F622C3E0C696F608A3E0C696F608A3E00D
:100B7300C696F608A3E0C696F622C3E096F008A34D
:100B8300E096F008A3E096F008A3E096F022E05682
:100B9300F608A3E056F608A3E056F608A3E056F6D7
:100BA30022E056F008A3E056F008A3E056F008A3AD
:100BB300E056F022E046F008A3E046F008A3E04642
:100BC300F008A3E046F022E0F608A3E0F608A3E06D
:100BD300F608A3E0F622E6F008A3E6F008A3E6F0A1
:100BE30008A3E6F022CAC0E0E6F0A308DAFAD0E0F0
:100BF300FA22CAC0E0E0A3C582CCC582C583CDC5B5
:100C030083F0A3C582CCC582C583CDC583DAE6D084
:100C1300E0CA22CAC0E0E493A3C582CCC582C583DF
:100C2300CDC583F0A3C582CCC582C583CDC583DA88
:100C3300E5D0E0CA22C3E498F8E499F9120C79806C
:100C430026C3E49AFAE49BFBE920E7E9120C79E472
:100C530098F8E499F922C3E498F8E499F9120C7925
:100C6300E498F8E499F9C3E49AFAE49BFB22EB20B5
:100C7300E7CFE920E7E0B90010BB0008E88AF08479
:100C8300F8AAF022E4FBC8FA22EB70227B10C833E7
:100C9300C8C933C9335007C39AC3DBF280069A50DD
:100CA300012ADBEAC833F4C8C933F4C9FA2275F060
:100CB30008E4C833C8C933C933C99AC99B5004C9A6
:100CC3002AC93BD5F0ECFBC833F4C8E4C9FA226067
:100CD3000D08C6A2E713C618C613C6D5E0F32260F3
:100CE3000C08C6C313C618C613C6D5E0F422700495
:100CF30022600D18C6C333C608C633C6D5E0F41840
:100D0300222510C0A8C2AF40021511F510D0A822A9
:100D1300C0D02510C0A8C2AF50020511F510D0A84D
:100D2300D0D0222510F582C0A8C2AF40021511F51C
:100D330010D0A8851183222510F582E43511F5839F
:100D430022E473C0E0E8C0E0E58124FCF8E6A2E712
:100D5300D0E0F8D0E0222510C582C0E0E51134FFD1
:100D6300C583C0E0E510C3958224F8C0A8C2AF854F
:100D73008311858210D0A8CEF0A3E520F0A37808D4
:100D8300E608F0A3DEFAEFF0A3E58124FAF8E6081B
:100D9300F0A3E608F0A3E608F0A30808E608F0A32A
:100DA300E608F0A315811581D0E0FED0E0F81581A7
:100DB30015811581E8C0E0EEC0E0222510C582C090
:100DC300E0E51134FFC583C0E0E510C3958224F943
:100DD300C0A8C2AF858311858210D0A8CEF0A3E549
:100DE30020F0A37808E608F0A3DEFAEFF0A3E5818C
:100DF30024FBF8E608F0A3E608F0A30808E608F0E9
:100E0300A3E608F0A315811581D0E0FED0E0F81524
:100E1300811581E8C0E0EEC0E02285118385108250
:100E2300E0A3FEE0A3F5207808E0A3F608DFFAE0EC
:100E3300A3FFE0A3C0E0E0A3C0E0E0A3C0E0E0A321
:100E4300C0E0E0A3C0E085A8F0C2AF85821085832F
:100E53001185F0A8D083D08202009A851183851072
:100E630082E0A3FEE0A3F5207808E0A3F608DFFA0A
:100E7300E0A3FFE0A3C0E0E0A3C0E0E0A3C0E0E0A4
:100E8300A3C0E085A8F0C2AF85821085831185F0E9
:100E9300A8D083D08222C0D02510C582C0E0E5113E
:100EA30034FFC583C0E0E510C3958224F3C0A8C214
:100EB300AF858311858210D0A8C8F0A3E9F0A3EA17
:100EC300F0A3EBF0A37908E709F0A3D8FAECF0A3B9
:100ED300EDF0A3EEF0A3EFF0A3D0E0F0A3D0E0F0A9
:100EE300A3D0E0F0A3E520F0A3E5F0F0A322851161
:100EF30083851082E0C0E0A3E0F9A3E0FAA3E0FB5E
:100F0300A37808E0F608A3DFFAE0FCA3E0FDA3E082
:100F1300FEA3E0FFA3E0C0E0A3E0C0E0A3E0F5D0C0
:100F2300A3E0F520A3E0A3F5F0E5A8C2AF85821006
:100F3300858311F5A8D082D083D0E0F8D0E0327455
:100F430004800A74038006740280027401C0E0F412
:100F530004120D26D0E0120BE822740480047402FC
:100F63008000CCC0E0EDC0E0E510C39CCCAD1150D7
:100F7300011DC0A8C2AF8C108D11D0A8120BF5D0E3
:100F8300E0FDD0E0FC22D083D082C5F0E493A3C57A
:100F9300F0C395F0F5F0E493A3C395F04005E5F0B5
:100FA300048001E475F002A42582F582E5F035831F
:100FB300F583E493A3C0E0E493C0E022D083D0821E
:100FC300E9C0E0E493A3C386F0C5F095F0F908E423
:100FD30093A386F0C5F095F0700BE493A3C39940F7
:100FE30005E9048002A3E475F002A42582F582E5F5
:100FF300F03583F583D0E0F9E493A3C0E0E493C034
:10100300E022D083D082CCC0E0E493A36006121028
:101013002F1470FAE493A3600612104E1470FAD0E2
:10102300E0FCE493A3C0E0E493C0E022C0E0E493D7
:10103300A3D39C5010E493A3C39C400AD0E0D0E018
:10104300D0E0021022A3A3A3D0E022C0E0E493A344
:101053006C7009D0E0D0E0D0E0021022A3A3D0E06E
:1010630022EC23F5F0EB54802345F0C4F5F0642023
:101073007004EB4480FBE5C7FC54CF45F0F5C7E4AF
:101083008B838A8293F98CC7227800800A78018047
:1010930006780480027808C083C082C085C084C0FB
:1010A3009F759F03C3E9943075F008A444804BF502
:1010B300858A84E87013851082851183E0700104AA
:1010C300F8A3E0700104F9800279018C828D83100A
:1010D300AF11759201E493A3759200F0A3D8F3D9ED
:1010E300F18013C2AF759201E493A3759200D2AF5E
:1010F300F0A3D8EFD9EDD09FD084D085D082D08310
:1011030022C083C082C085C084C0C77583F4758242
:101113007EC083C08275851175846D75F016780164
:1011230010AF027800759201E0A3759200F0A3D589
:10113300F0F3E86002D2AFD082D0838B858A8478C3
:101143000110AF0278008DAD8CAC75C75112116BD5
:10115300759200E5AE20E7FBE86002D2AFD0C7D0BE
:1011630084D085D082D08322E47375920175AE0258
:101173007A04E0F5AFA3DAFAE5AE20E6FBD9F12273
:10118300C0E074F2120E9974F3558A6016E590F478
:10119300F874F35890E561F0A3E4F0538A0CE58A00
:1011A300122A31C2EB7F01020EF174F1120DBEEA75
:1011B300FEEBFFA2AFE492E0F50CC2AF8E088F09FD
:1011C300750A00750B0090F4B77808120B3E90F483
:1011D300AEE07002A3E0700302129C90F4AEE0F55F
:1011E30008A3E0F509E5082402F8E5093400F988C5
:1011F300828983E0FAA3E0FBC3EE9AEF9B8882899E
:10120300834006E4F0A3F08013C3E09EF0A3E09FC5
:10121300F088828983E07002A3E0705F850882858D
:101223000983A3A3A3A3E0FAA3E0FB8508828509AE
:1012330083A3A3A3A3A3A3E0F91226E385088285CE
:101243000983E0F8A3E0F9E50A7002E50B70059065
:10125300F4AE8006850A82850B83E8F0A3E9F08566
:101263000882850983E0F50EA3E0F50FAA08AB0910
:10127300122719850E08850F09801385080A850929
:101283000B850882850983E0F508A3E0F509E508E5
:101293007002E50960030211E8E50CA2E092AF7F5A
:1012A30008020E5EC082C08390F4B4E0FAA3E0FBB0
:1012B3001211ADD083D08222E9700874026B7003DF
:1012C3001212A722C0E0C0D0C082C083C2C790DF81
:1012D30060E0D083D082D0D0D0E03279FF1226F5FF
:1012E30053BEFBE5BEA2E650FA0078F8790100E8A8
:1012F30024FF18E934FFF9E87001E970F175C6803D
:10130300748065C670FA43BE0478108682088683AB
:10131300800374CDF01213DF7400958274E095831B
:1013230040F07582FF7583008004A88276CDE58145
:10133300F5081213DFE5089582E4958340EC790004
:101343001227D31229D77A007B0012277975080058
:101353007509007808120F4A7C087D007A017B002A
:1013630012277F7402120D137508BD7509F47808EE
:10137300120F4A7508087509007808120F4A7C0095
:101383007D007A017B0012278B7404120D1390F4F5
:10139300C2E064046003122A1990F4BDE0FA90F4E9
:1013A300BEE0F9E42A90FD72F0A3E9F090F4C3E003
:1013B300FA941B5006EAC3940B5003122A191229FC
:1013C3005F12178D1222211226FB79FF1226EF7965
:1013D300021227D31227017A007B0022E58224FF21
:1013E300F582E58334FFF583C32280010012141FC5
:1013F3007001EB70F722EA7001EB601FEAF8EBF97A
:101403007AE87B030012141F7001EB70F7E824FFE6
:1014130018E934FFF9E87001E970E522EA24FF1ABC
:10142300EB34FFFBEA22C082C083121438122AA9CC
:10143300D083D08222C082C08390F5CDE0700312A6
:101443002A8B90F5D7E07003122A91D083D08222A1
:10145300C0E074F2120E99122A857F01020EF1C0C8
:10146300E074F2120E99122A8B80EFC0E074F2122C
:101473000E99122A9180E3C0E074F0120E99E5C12F
:10148300C0E01216321216C21216CFD0E0F090F658
:1014930004E024021216DBFBA3E0F5838B82A3A3F3
:1014A300A3A3E06A7006E488828983F090E568E08C
:1014B3007002A3E060030215B290F604E02402F880
:1014C300A3E03400F912163A121005000241F21497
:1014D3004DD8140F15E490F603F090F5FEF0A3F049
:1014E300740190F602F088828983E0040215B190BA
:1014F300F602E0548164017005E0448280E7E4F081
:1015030090F5FEF0A3F090F6030215AC90F602E01E
:1015130054066402700BE0D2E212163990F603808F
:10152300C4E0540C64047005E0D2E380B8E05418BE
:101533006408700EE0D2E412163990F600F0A3E4CA
:1015430080A3E0543064107005E0D2E58097E05446
:10155300606420700BE0D2E612163990F5FE80DD50
:10156300E0A2E6E4F0503390F603E0F890F600E0F2
:1015730028F8A3E03400F97583F57582FEE06870FE
:1015830003A3E069600302161D90F600E0F8A3E0F0
:10159300F990E568E8F0A3E9801490F5FEF0A3F074
:1015A30090F603F090F600F0A3F088828983F09020
:1015B300E568C3E09478A3E09400505E90E568E0AA
:1015C3007002A3E0605412163204F090E568E02440
:1015D300FFF0A3E034FFF090E568E07002A3E07051
:1015E30039121622E0F508A3E0F509750A00780818
:1015F300120F46121632FC7D007A6A7BE5122689A9
:101603007403120D13121622A3A3E4F07C01FDFA56
:101613007B2090E4BFE0F91227B57F03020EF1129D
:1016230016262290F604E0F8A3E0F58388822212BE
:101633001626A3A3E022F088828983E0FA90F604B9
:10164300E0FCA3E0F5838C82E02AFCA3E034008C69
:1016530082F583E022C0E074F2120E99C2E990F69B
:1016630004E0240B1216E4FC90F604E0240CFAA325
:10167300E03400FB8A828B83E06C7007E488828904
:1016830083800688828983E004F090F604E0240BCB
:101693001216DBF8A3E0F5838882A3A3A3A3A3A375
:1016A300A3A3A3A3E06A6012EA1216C2A3A3A3A38F
:1016B300A3A3A3A31216CFE0F5C17F01020EF1F895
:1016C30090F604E0FAA3E0F5838A8222E028FAA3E5
:1016D300E034008A82F583221216E4FA90F604E0DD
:1016E30022F8A3E03400F988828983E022C0E07401
:1016F300F2120E99E59EFAE5C35A54206005122BA7
:101703008D801EE5C35A5440601790DF07E0FA90BE
:10171300F612E0C39AA2D265D0335002EAF075C341
:10172300A37F01020EF1C0E074F2120E99E591FA63
:10173300A2E0C0D0E5E9A2E092F0120D4615818245
:10174300F0500875E9FE122BC98037E5E95A5402B7
:10175300600875E9FD122BCF8028E5E95A544060F3
:101763000CC2AF5391BFD2AF122CE38015E5E95AF7
:101773005420600E122CB975E9DF90DF62E0A2E21B
:1017830040F2759B0075E9FF809774F8120DBE1245
:10179300218B1220C5121FB779011217B5E9FE7903
:1017A300FF1226F5EEF980057401120D137F010275
:1017B3000E5E74F8120DBE74FF120D04122185E93A
:1017C300FEE4851082851183F0AA82AB83795612D9
:1017D30021A37ABD7BF479E21221A390F8FDE07096
:1017E30002A3E0601290F8FDE0FAA3E0FB122719D0
:1017F30090F8FDE4F0A3F0EEF980ADC082C08374ED
:10180300E269700B7CBD7DF412268F790080031290
:10181300219D02199774F8120DBE8908EAFEEBFFA9
:1018230074E26508700BEEFCEFFD7ABD7BF41226C3
:101833008FEEFAEFFBA9081221A30217B0F582EB92
:1018430012186B22C082C083121861121FBD0219C5
:1018530095C082C083121861121FC3021995EA242E
:1018630013F582EB12186B22121AACE4F02274F512
:10187300120DBEEAFEEBFF8E828F837808120BCA2D
:1018830090F8F97808120BD990F8FDE07002A3E004
:10189300600579FC0219598E828F83A3A3A3A3E069
:1018A300FA74036A700302193CEE2413F508EF344B
:1018B30000F509EA70437A1B7B001227138A0A8B0F
:1018C3000BA80AA90B90F8FDE8F0A3E9F0E8700172
:1018D300E97004791A807F7C1B7D007900122695BC
:1018E30090F8FDE0240BF8A3E03400F98508828525
:1018F3000983E8F0A3E9F080408E828F83A3A3A33A
:10190300A3A3A3A3E0603275F021A4FAABF01227DE
:1019130013850882850983EAF0A3EBF085088285A5
:101923000983E0F8A3E0F990F8FDE8F0A3E9F0906B
:10193300F8FDE07002A3E0609AEE2410F582EF1246
:1019430018438E828F83A3A3A3A3A3A3F0EEFAEF7E
:10195300FB1221EB79007F04020E5E74F8120DBEB8
:1019630074FF120D04EAFEEBFF74018510828511EA
:1019730083F0AA82AB8379521221A3EE2415F58258
:10198300EF121843EE2420121A45121FC9790002E0
:1019930017AB7900D083D0822274F1120DBE8A0C6A
:1019A3008B0DEA241BF50EEB3400F50F7B007A0058
:1019B300850E82F583E0F91220418A088B09AE086F
:1019C300AF09EE7001EF6073850C08850D09750A88
:1019D300007808120F467C107D00EE2422FAEF34C3
:1019E30000FB1226897403120D13850E82850F8363
:1019F300E08E828F83A3A3A3A3F0E50C241CF582BE
:101A0300E50D121AACE0F508A3E0F5097808120F0A
:101A130046850E82850F83E0FC7D008E828F83A333
:101A2300A3E0FAA3E0FB1226897403120D13EE243C
:101A33001F121A4512203B79008002791A7F08028F
:101A43000E5EF582EF12186BEEFAEFFB2274F512BD
:101A53000DBE8A088B09ECFEEDFF7B007A0079004E
:101A6300122041EA7001EB603AEA242D121AB124E4
:101A730022121AA9E508F0A3E509F0EA242A121AAA
:101A8300B1242B121AA9EEF0A3EFF0EA242E1218B8
:101A930040EA242F121AA97431F0EA241F121840C5
:101AA30012203B021959F582EB3400F58322121AF6
:101AB300A97402F0EA221200A822B1031200A8417D
:101AC300B1031200A8E7B1031200A80080021200BC
:101AD300A8AC82021200A8CD82021200A84A830297
:101AE3001200A80F84021200A81784021200A83E55
:101AF30084021200A84784021200A84A840212003A
:101B0300A87884021200A8E284021200A87B86024D
:101B13001200A83987021200A87B87021200A85C72
:101B230088021200A85F88021200A87D88021200B2
:101B3300A82C8A021200A88D8A021200A80D8B021B
:101B43001200A898B9031200A8D6B9031200A8EA94
:101B5300C3021200A8FCC3021200A82DC402120083
:101B6300A89EC4021200A83AC5021200A8EFC5023B
:101B73001200A882C6021200A8A1C6021200A8CCB5
:101B8300C6021200A810C7021200A833C70212002F
:101B9300A88FC7021200A884C8021200A82CC90289
:101BA3001200A8B7C9021200A80C89031200A82EBC
:101BB30089031200A87C89031200A8BC89031200C0
:101BC300A8F08A031200A8548B031200A8638B03A6
:101BD3001200A86E8B031200A8328C031200A821F6
:101BE300F3021200A845F3021200A88EF3021200BA
:101BF300A841F4021200A85CF5021200A86EF502D7
:101C03001200A808F6021200A823F6021200A899EF
:101C1300F6021200A8B29C031200A8F69D0312005C
:101C2300A8C19F031200A8CA9F031200A8D39F0351
:101C33001200A8DC9F031200A8E59F031200A8EE80
:101C43009F031200A8FC9F031200A805A003120023
:101C5300A80EA0031200A817A0031200A836A00321
:101C63001200A805F0031200A8F7F7021200A81546
:101C7300FA021200A861FB021200A817FC0212006C
:101C8300A8A75B011200A8D85B011200A84E5E0151
:101C93001200A8E85E011200A8F65E011200A83146
:101CA3005F011200A82C60011200A8566201120005
:101CB300A84668011200A8A66A011200A86C6B016D
:101CC3001200A8D46C011200A8D56D011200A8D58A
:101CD30070011200A88B72011200A8E372011200B6
:101CE300A8C373011200A86E74011200A831750114
:101CF3001200A8B7B5021200A8C5B5021200A8EEDB
:101D0300B5021200A810B6021200A88FB802120082
:101D1300A8D5B8021200A843B9021200A81ABA0241
:101D23001200A84FBA021200A8A6BA021200A8DA3B
:101D3300BA021200A824BB021200A874BB0212004C
:101D4300A880BB021200A8D8BB021200A810BC02D4
:101D53001200A8D175011200A84576011200A8034C
:101D630078011200A89A78011200A8137A011200D0
:101D7300A8E47B011200A86C7C011200A8597D0124
:101D83001200A8DC7D011200A82D7E011200A8B26A
:101D93007F011200A8C27F011200A8CF7F011200A9
:101DA300A8F37F011200A8FB7F011200A81980018C
:101DB3001200A82382011200A8A482011200A8F530
:101DC30082011200A83983011200A85D8301120069
:101DD300A82284011200A8B484011200A8B18501CD
:101DE3001200A88186011200A8F387011200A8EB54
:101DF30088011200A8A189011200A83C8A011200DF
:101E0300A84A8A011200A86E8A011200A8978A01C3
:101E13001200A8A38A011200A8AF8A011200A8CD5C
:101E23008A011200A8118B011200A8718B01120004
:101E3300A8A88B011200A8EB8B011200A800400197
:101E43001200A88A40011200A85141011200A80AF9
:101E530042011200A8BE42011200A87C44011200F4
:101E6300A87245011200A86946011200A80C470197
:101E73001200A83347011200A8E547011200A82F5A
:101E830048011200A8C248011200A86149011200CA
:101E9300A88349011200A85B4A011200A8074C015C
:101EA3001200A85F4C011200A8B04C011200A8B4A4
:101EB3004D011200A8F64D011200A83B4E0112007D
:101EC300A8994E011200A8E94F011200A83550014C
:101ED3001200A89C51011200A82454011200A84C1E
:101EE30054011200A88E56011200A8E556011200F3
:101EF300A87A57011200A8CD57011200A800580173
:101F03001200A82A58011200A81559011200A88D21
:101F130059011200A8EA5A011200A81A5B01120023
:101F2300A857F0031200A87FF0031200A80ED401F3
:101F33001200A841D4011200A80AD5011200A80B6F
:101F4300D6011200A829D7011200A8C9D80112008E
:101F5300A844D9011200A8F0D9011200A809DB0195
:101F63001200A874DB011200A8BBDB011200A81247
:101F7300DC011200A81CDC011200A875DC011200B0
:101F8300A8DFDC011200A875DD011200A8F9DD014C
:101F93001200A8EFDE011200A875DF011200A8A14C
:101FA300DF011200A8D5DF011200A806E00112002C
:101FB300A8BCE0011200A8D5E0011200A82BE101A2
:101FC3001200A84EE1011200A85AE1011200A85C18
:101FD300F8011200A8A1F8011200A808F9011200E3
:101FE300A859F9011200A892F9011200A8B3F90146
:101FF3001200A8BDF9011200A8D5FA011200A8FA2F
:10200300FA011200A87CFB011200A88FFB01120049
:10201300A8A1FB011200A843FC011200A838FD018E
:102023001200A844FE011200A8D6FE011200A8E087
:10203300FE011200A84AFF011200A85BFF01120073
:10204300A8A4FF011200A8A5CA021200A8D5CA02BB
:102053001200A805CB021200A834CB021200A86D0F
:10206300CB021200A8CCCB021200A8E7CC021200CC
:10207300A831CD021200A860CD021200A8D0CD0273
:102083001200A8F8CD021200A824CE021200A83232
:10209300CE021200A8A0CE021200A8DFCE021200C8
:1020A300A821CF021200A85ECF021200A881CF029E
:1020B3001200A88CCF021200A8AACF021200A8888F
:1020C300D0021200A89BD0021200A88E8403120033
:1020D300A8CB84031200A8E184031200A8F38503AC
:1020E3001200A80A86031200A81E86031200A8B8CD
:1020F30086031200A80D87031200A8D587031200D8
:10210300A8E187031200A866E1011200A89BE10180
:102113001200A8B5E1011200A822E2011200A8C42E
:10212300E2011200A808E3011200A85CE501120015
:10213300A8DFE5011200A87FE6011200A8DCE80190
:102143001200A8EBE8011200A8EEE8011200A8F6BD
:10215300E8011200A813E9011200A825E901120001
:10216300A857E9011200A81CEA011200A88DEA0190
:102173001200A8F8EA011200A89AEB011200A8586D
:10218300EC011200A886EC011200A825ED01120053
:10219300A849AC031200A870AC031200A897AC03C3
:1021A3001200A807AD031200A8E4F0031200A8F47C
:1021B300F0031200A8F7F0031200A831E80212009E
:1021C300A8B6E8021200A8B5E9021200A89FEA0225
:1021D3001200A839EB021200A876EC021200A83014
:1021E300ED021200A870ED021200A8A2ED02120087
:1021F300A8A491031200A88092031200A8E39203FB
:102203001200A87E93031200A83E94031200A8B7FD
:1022130094031200A8F294031200A8379503120046
:10222300A8E19E021200A8EF9E021200A86B9F0273
:102233001200A8869F021200A8D59F021200A8E8E8
:10224300A1021200A876A3021200A846A602120059
:10225300A87DA6021200A8AFA6021200A8F2A60249
:102263001200A8C6FC021200A84DFD021200A8C865
:10227300FD021200A8D4FD021200A8E3FD02120021
:10228300A8FAFD021200A807FE021200A82AFE0205
:102293001200A862FE021200A871FE021200A896A4
:1022A300FE021200A8ACFE021200A8CAFE0212002F
:1022B300A8D6FE021200A8F9FE021200A829FF0206
:1022C3001200A830FF021200A88095031200A8C9CB
:1022D30095031200A8FA95031200A8419603120071
:1022E300A85396031200A86596031200A8739603D9
:1022F3001200A88B96031200A8D996031200A8DC3B
:1023030096031200A8DF96031200A8E296031200B8
:10231300A8E596031200A83198031200A850980369
:102323001200A86C98031200A88898031200A8E36F
:1023330098031200A80999031200A8159903120023
:10234300A8138C011200A8538C011200A85A8C0107
:102353001200A8968C011200A8B98C011200A801E2
:102363008D011200A8D18D011200A8198E0112004F
:10237300A8F58E011200A8E18F011200A845900173
:102383001200A82991011200A88891011200A89EA9
:1023930091011200A8C091011200A8F69101120048
:1023A300A81292011200A82592011200A8469201D8
:1023B3001200A86A92011200A89192011200A8A427
:1023C30092011200A8EC92011200A8799401120064
:1023D300A8EA94011200A87F95011200A821960192
:1023E3001200A87C96011200A89D96011200A82352
:1023F30097011200A83A97011200A83D9701120015
:10240300A84797011200A84A97011200A8BF970195
:102413001200A84A98011200A87398011200A8ABF1
:1024230098011200A83399011200A8A09901120083
:10243300A8BE99011200A8069B011200A8099B01DE
:102443001200A8719B011200A8889B011200A8AA80
:102453009B011200A8CC9B011200A8089C0112004A
:10246300A81C9C011200A8139E011200A83C9E0107
:102473001200A88E9E011200A8259F011200A874C5
:102483009F011200A8909F011200A850B3011200EF
:10249300A86AB4011200A8E9B8011200A8B7BC01E8
:1024A3001200A859BD011200A870BD011200A88432
:1024B300BD011200A892BD011200A8C6BD01120001
:1024C300A804BE011200A83DC0011200A83FC1012B
:1024D3001200A83AC3011200A86BC3011200A87529
:1024E300C3011200A89CC3011200A8CBC3011200B0
:1024F300A8ADED021200A8D7ED021200A847EE0224
:102503001200A8A1EE021200A8C6EE021200A8B49F
:10251300EF021200A858F0021200A87CF202120087
:10252300A8BAF2021200A809F3021200A8C1DC0241
:102533001200A81DDD021200A87CDD021200A83ED5
:10254300DE021200A876DE021200A89DDE0212004F
:10255300A8C1DE021200A8F2DE021200A8C1DF0247
:102563001200A8A5E0021200A86BE1021200A8EB7A
:10257300E1021200A828F1031200A8248B02120022
:10258300A8CC8B021200A8488D021200A85D8E020F
:102593001200A8168F021200A8858F021200A8CB82
:1025A3008F021200A80790021200A869900212007D
:1025B300A87390021200A87D90021200A83D910218
:1025C3001200A87891021200A88192021200A810AA
:1025D30093021200A89F93021200A8FA930212001A
:1025E300A83794021200A86994021200A8879402E3
:1025F3001200A838F2031200A896B7031200A883AA
:10260300B8031200A8B4B8031200A8BDB80312009F
:10261300A836ED011200A88CED011200A8A7ED0168
:102623001200A856EE011200A8F7EF011200A883CA
:10263300F0011200A8F5F1011200A826F201120020
:10264300A859F2011200A82CF3011200A8A9F40161
:102653001200A875F5011200A854F6011200A85E35
:10266300F6011200A86DF6011200A889F601120006
:10267300A8BBF6011200A875F7011200A82BF801F8
:102683001200A8DDD0021200A8E7D0021200A82D84
:10269300D1021200A84CD1021200A869D102120083
:1026A300A834D2021200A872D2021200A87BD2026E
:1026B3001200A8D3D2021200A8FED2021200A8650B
:1026C300D3021200A8CED3021200A815D40212001E
:1026D300A883D4021200A8CAD4021200A83ED502CD
:1026E3001200A895D5021200A8C7D5021200A8F9B6
:1026F300D5021200A809D6021200A819D6021200A8
:10270300A838D6021200A88DBD031200A8F7BD0396
:102713001200A81CBE031200A82DBF031200A86C50
:10272300A1011200A80DA3011200A848A3011200E1
:10273300A804A5011200A89AA5011200A812A701D6
:102743001200A85BA7011200A83CA8011200A8BBB5
:10275300A8011200A835A9011200A87CA901120042
:10276300A8CBA9011200A80BAA011200A84FAB0124
:102773001200A8B1AC011200A8C9AE011200A8D67C
:10278300AE011200A835AF011200A8F7B201120082
:10279300A8FAF1031200A810F2031200A8BCAE03BA
:1027A3001200A8F6AE031200A892AF031200A8D33A
:1027B300AF031200A83FB0031200A87DB0031200BC
:1027C300A8B3B0031200A8EAB0031200A8FCB00338
:1027D3001200A838C5031200A8CCC5031200A8E74D
:1027E300C5031200A832C6031200A83DC603120097
:1027F300A8D4C6031200A8F0C6031200A8B4A90304
:102803001200A827AA031200A8F8AA031200A8A678
:10281300AB031200A8EFD6021200A854D70212008D
:10282300A852D8021200A871D8021200A87CD802BC
:102833001200A88CD8021200A833D9021200A8965D
:10284300D9021200A8ABD9021200A8CDD9021200F6
:10285300A840DA021200A853DA021200A812DB021F
:102863001200A829DB021200A850DB021200A88D77
:10287300DC021200A819A7021200A886A702120000
:10288300A853A8021200A8BDA8021200A80BA9020F
:102893001200A823A9021200A83EA9021200A886CA
:1028A300A9021200A8BCA9021200A819AA021200C8
:1028B300A838AA021200A8BBAA021200A8C5AA023D
:1028C3001200A817AC021200A843AC021200A877AA
:1028D300AC021200A8A1AC021200A8ADAC02120017
:1028E300A8F6AC021200A897AD021200A89AAD0296
:1028F3001200A89DAD021200A8BAAD021200A82CC6
:10290300AE021200A849AE021200A857AE0212008E
:10291300A8F5BC021200A803BD021200A86DBD02F7
:102923001200A8C2BD021200A824BE021200A868A9
:10293300BE021200A8CBC3021200A8618D031200CD
:10294300A82B8E031200A8EB8E031200A8698F0335
:102953001200A85C90031200A84BF2031200A89582
:10296300BB031200A8B6BC031200A81CBD031200CF
:10297300A8D4F1031200A8DDF1031200A8F2F103B9
:102983001200A83FA0031200A856A0031200A84EED
:10299300A1031200A878A1031200A806A203120043
:1029A300A840A2031200A85BA2031200A8D2A203AC
:1029B3001200A8FCA2031200A808A3031200A81582
:1029C300A3031200A826A3031200A834A303120032
:1029D300A85CC3031200A868C3031200A88BC30337
:1029E3001200A834C4031200A87DC4031200A8CFA8
:1029F300C4031200A80AC5031200A81FC5031200CE
:102A0300A898C8031200A8DDC8031200A888C90348
:102A13001200A8BBC9031200A80AC7031200A81812
:102A2300C7031200A891CD031200A8A7CD0312007B
:102A3300A8EDCD031200A8E7FF021200A8F2FF02DF
:102A43001200A881E2021200A85BE3021200A8EBC5
:102A5300E3021200A88AE4021200A8B9E4021200F9
:102A6300A830E5021200A86DE5021200A8EFE50206
:102A73001200A83DE6021200A8DAE6021200A80E30
:102A8300E7021200A832E7021200A890E702120040
:102A9300A8F2E7021200A80080031200A8908003A6
:102AA3001200A8AE80031200A82682031200A840D9
:102AB30083031200A8B5CE031200A82D95021200BD
:102AC300A87095021200A87E95021200A89E950296
:102AD3001200A8AE95021200A8D295021200A841D6
:102AE30096021200A8D996021200A8229702120099
:102AF300A8E797021200A80798021200A85A9902A1
:102B03001200A88B99021200A8F399021200A84C94
:102B13009A021200A8A29A021200A8159B021200A0
:102B2300A8259B021200A8529B021200A8959B02A3
:102B33001200A8C19B021200A82C9C021200A8E15B
:102B43009C021200A83D9D021200A8639D02120080
:102B5300A8AE9E021200A8C09E021200A8CC9E023C
:102B63001200A883BF031200A8BFBF031200A8D29C
:102B7300BF031200A8F5BF031200A826C00312006A
:102B8300A863C0031200A8BAC0031200A8F6C003CA
:102B93001200A876C1031200A8ADC1031200A8BF9A
:102BA300C1031200A8DBC1031200A81FC203120055
:102BB300A828C2031200A876C2031200A897C20372
:102BC3001200A827C3031200A82DC3031200A83ABA
:102BD300C3031200A8C7CF031200A8E4CF03120057
:102BE300A868B3031200A8FAB3031200A807B4033A
:102BF3001200A80FB4031200A857B4031200A88749
:102C0300B4031200A8AFB4031200A814B503120052
:102C1300A843B5031200A86EB5031200A87FB5033D
:102C23001200A821CF031200A849CF031200A85F06
:102C3300CF031200A88FB5031200A8A8B503120092
:102C4300A8B4B5031200A8C8B5031200A8EBB503D6
:102C53001200A8F7B5031200A806B6031200A819BC
:102C6300B6031200A84EB6031200A888B6031200DA
:102C7300A8ADB6031200A8F0B6031200A819B70353
:102C83001200A831B7031200A83BB7031200A84CE7
:102C9300B7031200A890B7031200A869AE0212008E
:102CA300A891AE021200A8A4AE021200A8B7AE0209
:102CB3001200A8CDAE021200A826AF021200A8602F
:102CC300AF021200A84BB2021200A869B3021200AD
:102CD300A89BB3021200A8FBB3021200A8C7B40258
:102CE3001200A8EFB4021200A804B5021200A8143F
:102CF300B5021200A849B5021200A89EB50212003F
:102D0300A8F4C9031200A80FCA031200A82FCA030C
:102D13001200A843CA031200A863CA031200A884BE
:102D2300CA031200A89CCA031200A8CBCA0312004C
:102D3300A8E6CA031200A826CE031200A85CCE039D
:102D43001200A8BEA3031200A8C5A3031200A8AFD4
:102D5300A4031200A8E1A4031200A803A503120010
:102D6300A836A5031200A848A5031200A874A5035A
:102D73001200A8D7A5031200A814A6031200A85E88
:102D8300A6031200A88FA6031200A8AFA603120081
:102D9300A809CC031200A842CC031200A8EECC036E
:102DA3001200A80DCB031200A863CB031200A8A640
:102DB300CB031200A8E7CB031200A800A70312005D
:102DC300A8A5A7031200A809A8031200A825A80311
:102DD3001200A837A8031200A8F5A8031200A82D13
:102DE300A9031200A82199031200A86C99031200E9
:102DF300A8A49C031200A8BFC4011200A86BC901B8
:102E03001200A89CF0031200A8A5F1031200A8F178
:102E1300CC031200A81BCD031200A876CF03120027
:102E2300A869F1031200A81AF2030101010BFEFFC6
:102E330010013000000043214321432143210B2093
:102E430005204321833300000000A93400008E35A0
:102E53009C356936000000000000000000000000FF
:102E630000000C0000000C000C0100004D656E75A5
:102E7300204E6F646520494420496E636F7272650A
:102E830063742100D5FDD4DABFAABBFA2E2E2E001F
:102E9300D5FDD4DAB9D8BBFA2E2E2E00CCBDCDB7D2
:102EA300D2D1B9D8B1D50043483400D5FDD4DAC75F
:102EB300F3BEC82E2E2E00C7F3BEC8B3C9B9A600F1
:102EC300C7F3BEC8CEDEBBD8B8B400D5FDD4DAB1E3
:102ED300A8BEAF2E2E2E00B1A8BEAFB3C9B9A600AF
:102EE300B1A8BEAFCEDEBBD8B8B40004B6CCCFFB1E
:102EF300CFA200CCBDCDB7B5F7C1E300CCBDCDB7F4
:102F0300D0A3D7BC00B6A8CEBBD0C5CFA200CEC23B
:102F1300B6C8CFD4CABE00CAC2B9CAB1A8BEAF0030
:102F2300B6A8CEBBBFA8CBD1CBF700B6A8CEBBBF4C
:102F3300A8D1E9D6A400B1BEBBFAC9E8D6C300B88C
:102F4300BDBCD3B9A6C4DC00B9D8003130C3EB0093
:102F53003230C3EB003330C3EB00B3ACC5A8B1A828
:102F6300BEAFC5A8B6C800B1B3B9E2CAB1BCE400EC
:102F7300CEC2B6C8D0A3D7BC00CAB1BCE4C9E8D698
:102F8300C300CAB1BCE4C8D5C6DA00CAB1BCE4B850
:102F9300F1CABD003132D0A1CAB1D6C6003234D095
:102FA300A1CAB1D6C600BBF0D4D6B1A8BEAF00CD7E
:102FB300B8CBAEB1A8BEAF00B6A5B0E5B1A8BEAF61
:102FC30000C6E4CBFBB1A8BEAF00C9BEB3FD00C8C9
:102FD300ABB2BFC9BEB3FD00B1BEBBFABAC5C2EB4B
:102FE30000B5B1C7B0C6B5B5C000C8EDBCFEB0E60C
:102FF300B1BE3A00B9A620C4DC004D656E75204E03
:103003006F646520494420496E636F72726563740F
:103013002100C7EBBDABCCBDCDB7D6C3C8EBCDDF6D
:10302300CBB9C5A8B6C8CEAA30B5C4BBB7BEB3D654
:10303300D0A1A300CDDFCBB9CCBDCDB7D2D1B9D808
:10304300B1D500D5FDD4DAB5F7C1E32E2E2E00B5E8
:10305300F7C1E3B3C9B9A600B5F7C1E3CAA7B0DCAA
:1030630000D0A3D7BCC7B0C7EBC8B7C8CFCCBDCDC2
:10307300B7D2D1BEADB5F7C1E300D0A3D7BCB3C9B6
:10308300B9A600D0A3D7BCCAA7B0DC002020B6CC19
:10309300D0C5D0C5CFE4BDABC2FAA3AC202020C7B6
:1030A300EBBCB0CAB1C7E5C0ED002020B6CCD0C59B
:1030B300D0C5CFE4D2D1C2FAA3AC202020C7EBC144
:1030C300A2BFCCC9BEB3FD002900CEDEB6CCD0C5AD
:1030D300CFA200D5FDD4DAC9BEB3FD00D2D1C9BE9B
:1030E300B3FD00C9BEB3FDCAA7B0DC00C9E8D6C3AF
:1030F300CDEAB3C9003130303852433200C8B7C8C3
:10310300CFB7A2CBCDB1A8BEAFD0C5CFA22028B038
:10311300B4C8B7B6A8BCFCB7A2CBCD2900BDF8C8CC
:10312300EBCBD1CBF72E2E2E00D2D1D1E9BFA8BA4B
:10313300C53A00B9B2CBD1B5BD2020D5C5002530E5
:10314300327500257500D0C5BAC500CCBDCDB7D248
:10315300D1B9D8B1D500BEE0C0EB003A006D00CEC6
:10316300DEB6A8CEBBD0C5CFA20004000200080083
:1031730009000400020009002101200D000F083E90
:10318300FC0646FC21BFE44CFC000120A10700BC67
:103193000600000002000064000000BC0200008979
:1031A300130000010800003200000091010000B587
:1031B300E7B3D8B5E7C1BFB5CD00CCBDCDB7D2D14C
:1031C300B9D8B1D5002575000121871CDD29BF1AA7
:1031D3007B28912406CAB1BCE400C8D5C6DA00C96D
:1031E300E8D6C3CDEAB3C90063683400CDDFCBB9F9
:1031F300C5A8B6C800D5FDD4DAD0A3D7BC2E2E2ED1
:103203000063683400B3ACC5A8B1A8BEAFC5A8B607
:10321300C800D5FDD4DAC9E8D6C32E2E2E00CEC2FF
:10322300B6C8D0A3D7BC00640002000AE6E80300D6
:103233000000000000FF3300000030C807001F003B
:103243000000093D0000EAFFFFFFFFFFFF0080FFD2
:10325300FF00010000009F020000090000000000C1
:10326300090000000000D007010001000000000178
:10327300FF7F00000080FFFF0200E0F40000000079
:10328300400F0000500000000019F5140002000870
:1032930000000506071E02051E03F401803EFFFF22
:1032A300FF010000C900000038FFFFFF0500000018
:1032B30000400000F4010000005800000100000C71
:1032C30000090C0A00010206303132333435363737
:1032D300383941424344454600286E756C6C207072
:1032E3006F696E7465722900303132333435363785
:1032F3003839616263646566003F3F3F00000080C8
:103303003FF9021550B743BA510000204100E7DBF3
:103313002E0000A0400A000000871F991F6F1F693D
:103323001FA51FAB1F9F1F571F7B1F811F751FB13A
:103333001F0005150D0910080400383C3E363B3BC1
:10334300352B432C303016181920231A1C1E30300D
:103353003017181921301B1D1F30652095206B2055
:1033630071208F2083207D209B20A120A720B320C4
:1033730077205F2059208920AD20D921B920BF2093
:10338300030071003001600011007000310220035E
:1033930050048000100061000000140063007300FB
:1033A30072006200430000001300060000000000EA
:1033B30004001200000000000000000004000400EC
:1033C300370037003C02440000000000000000000A
:1033D3006500000035008100000005000000830047
:1033E300000001017101010101011101010131011C
:1033F300010101018001100161013B00140063011F
:1034030073017201620143010001130106013D01D1
:103413003500040112010001000100010001040153
:103423000401330133013C01440132013600000140
:1034330000016501000135008101000105018201E0
:103443008301000103027102300160021102700264
:103453000102020202028002100261023A004100EC
:103463006302730272026202430200021302380013
:103473000002000204021202000200020002000223
:1034830004020402370037003C0244020002390000
:1034930000020002650200023502810200020502F9
:1034A300820283020002010371030103010301038A
:1034B30001030103220302030103100300030003BA
:1034C300000300030003000300034203000324037B
:1034D3000603000300030403120325032303250348
:1034E3002303040304030003000300034403000352
:1034F3000003230300036503210035038103000355
:1035030005030003000300030304710402046004C1
:10351300110470040204020401040204100461048F
:103523000004140463047304720462044304000477
:103533001304060400040004040412040004000439
:103543000004000451046400000400040004440463
:10355300000400040004000465040004350481042D
:103563006400050400048304000400034948424D39
:10357300181725050200011916181616152303003E
:103583000C0E020B040B0A0708000F432155215BA5
:10359300212F20612129203520AF2167216D217939
:1035A30021732136000100060000000F0000000017
:1035B30000000000000000000003FFFF0000040300
:1035C300FFFF0000FFFF0FF4010005C40403200008
:1035D3000100000B000000000000000003010001D7
:1035E300363601010001020100010301000104015B
:1035F300060605020000070100340801000F090454
:1036030001010D0100FF0E0800001702000019015F
:1036130000FF1A0100011B0100051C0100081D0227
:1036230000001F010001200100012102000023010D
:10363300000F2402000026010001270103082802CD
:1036430000FF2A0100072B0102402C0100002D017D
:1036530000012E0100012F0100FF30010B1C310876
:1036630000003A010008C121DF21E521C721D32150
:10367300CD21000000000000000000000000010058
:10368300000000000000E72200000200000000002C
:103693000000ED2200000300000000000000F32200
:1036A30000000400000000000000F922FF220500D2
:1036B30000000000000005230B23060000000000AB
:1036C30000001D230000070000000000000023236A
:1036D300000008000000000000002923000009008A
:1036E3000000000000002F2300000A00000000007B
:1036F30000001D2623260B000000000000002926E1
:103703002F260C0000000000000011231723C0F92E
:10371300C7F9D0F9D9F9E2F9EBF9F4F9FFF90AFAA3
:1037230013FA1CFA1FFA24FA29FA2EFA3BFA44FA7E
:103733004DFA56FA5FFA68FA71FA7AFA83FA8CFA52
:1037430095FA9EFAA3FAACFAB5FABEFA0EC8FA0CC9
:103753000F0A11376B2389230F00000E00000000AE
:10376300BF23000010C7F90E000000008F2395232C
:1037730011D0F90E00000000A723AD2312D9F90ED2
:10378300000000008524892313E2F90E00000000E5
:10379300E923EF2314EBF90E24043D3737243D24AA
:1037A30015F4F90E000000004F24000016FFF90E77
:1037B3000000000055245B24170AFA0E20042D375D
:1037C300F523FB231813FA0E0003493725242B2472
:1037D30019C0F90F00000000C523CB231A00001005
:1037E300000000009B23A1231B0000110000000028
:1037F300412647261C00001000000000B323B92314
:103803001D00001900000000D123D7231EC0F900BA
:10381300000245376B23DD231F000000000000007A
:10382300E3230000202EFA17000000004D26532644
:10383300213BFA1700042537012407242244FA17F1
:103843000000000071267726234DFA170002353752
:103853000D241324240000140000000043244924F1
:10386300250000150000000061246724265FFA2369
:103873000002393719241F24B0BACEE2001F1C1FDF
:103883001E1F1E1F1F1E1F1E1F06002F29FFFF00C6
:1038930000000000000000D504FC04230549057066
:1038A300052305490570059605000000000000008A
:1038B300007FFF40014001C001C001400140017F82
:1038C300FF000000000000000000000000000000F6
:1038D300007FFF40014009C009C009400940017F42
:1038E300FF000000000000000000000000000000D6
:1038F300007FFF40014025C025C025402540017FB2
:10390300FF000000000000000000000000000000B5
:10391300007FFF40014125C125C125412540017F8D
:10392300FF00000000000000000000000000000095
:10393300007FFF40014925C925C925492540017F4D
:10394300FF00000000000000000000000000000075
:10395300007FFC600C501448244444428441047F9B
:10396300FC00000000000000000000000000000058
:1039730000000000000FE01FF03EF83C78783C7830
:103983003C783C701C701C701C701C701C783C785C
:103993003C783C3C783EF81FF00FE000000000004C
:1039A3000000000000000000000000000000000311
:1039B3008003800F801F80038003800380038003C4
:1039C30080038003800380038003800380038003DC
:1039D300800380038000000000000000000000005E
:1039E3000000000000000000001FC03FE03DF07831
:1039F300F07870707070F000F000F001E003C00721
:103A0300800F001E003C00780078007FF07FF000FC
:103A130000000000000000000000000000000000A3
:103A23000000000FE03FF03CF878787838703800F9
:103A33007801F803E003F001F80078003870387873
:103A43003878787CF83FF01FE000000000000000A9
:103A53000000000000000000000000000000E00182
:103A6300E003E003E007E007E00EE01EE01CE038BF
:103A7300E078E070E07FFC7FFC00E000E000E00025
:103A8300E000E00000000000000000000000000073
:103A9300000000000000001FF83FF838003800382D
:103AA3000038003FE03FF03CF838780078003800F9
:103AB300387038787878783CF03FE01FC000000019
:103AC30000000000000000000000000000000000F3
:103AD3000007E00FF01E781C783C383C003FE03FC5
:103AE300F03EF83C783C783838383838383C783C05
:103AF300781EF80FF007E00000000000000000004F
:103B030000000000000000000000003FF83FF80044
:103B13007800780078007000F000F000F001E00118
:103B2300E001E003C003C003C003800780078007F0
:103B33008000000000000000000000000000000002
:103B430000000000000FC01FE03CF03CF03870386C
:103B5300703CF03CF01FE01FE03CF0787870387068
:103B630038787878787CF83FF01FE0000000000098
:103B73000000000000000000000000000000001F23
:103B8300803FC07DE078F078F0707070707070786E
:103B9300F07DF03FF01F70007000F070F078E07D72
:103BA300E03FC01F80000000000000000000000094
:103BB3000000000000000000003C107E307E206604
:103BC30060666066C066C07F807F803D7803FC03CB
:103BD300FC06CC06CC0CCC0CCC08FC18FC107800F2
:103BE30000000000000000000000000000000000D2
:103BF30000000000000000000000000000000000C2
:103C030000000000000000000000000000000000B1
:103C130000000038003800380000000000000000F9
:103C23000000000000000000000000000000000091
:103C3300000000000000000000000000007FF87F8B
:103C4300F800000000000000000000000000000079
:103C53000000000000000000000000000000000061
:103C630000000000000000060000000F03F0001930
:103C73008FFC80199E078019B803800F38018000DC
:103C8300700180007000800060008000E000000090
:103C9300E0000000E0000000E0000000E0000000A1
:103CA30060000000700000007000800030018000A0
:103CB300380300001C0700000FFC000007F8000099
:103CC300000000000000000000000000000000FFF2
:103CD300DFBF9F7F5F3F3F1B171313130F0F0F0BA5
:103CE3000B0B0B070707070606060606060300BEAF
:103CF300040A150008050C01030914100A08090039
:103D03000102030405060708090A0B0C0D0E0F0038
:103D1300160F160D0B150B021102220B30030006B2
:103D2300FF2223242A26292531323337202136FF47
:013D3300414E
:1040000074F6120D597A008004124C2A0A903CFD75
:104010001247DE40F47A00801C8A08750900740398
:104020007808120CF1124D8C74FEF0A374FF12414B
:104030004CA3A3F00A903CFF1247DE40DC7A0080DC
:104040001C8A0875090074037808120CF1E508242D
:1040500080F582E50934F8F5831240820A1247DBC5
:1040600040DF903CFAE49390E3ABF0124071024ED3
:10407000367CE87D037A107B0090E38FE0F912270D
:10408000B52274FEF0A374FFF02274F4120D59747B
:10409000FD120D04EAFEEBFF89081246DE7003A351
:1040A000E069700579000241447902EEFAEFFB12F3
:1040B0001EF1E960EFE508F5097809120F4E124587
:1040C00062120D13E9707B90E3AAE0F509F974011F
:1040D00029F090E343E0F50AA3E0F50B780A120F0C
:1040E0004A7D017C00AA0AAB0B121EA97402120DB4
:1040F00013E9704E7401120D3A74061246FC7001F9
:10410000EB603B8A828B83A3A3A3A3A3A31256765F
:10411000740188828983F0E50860047C8080027CD9
:1041200000EC1241FDE5091246EFA3124D9C12412D
:104130004C1246F474FC124084121BE58006791080
:10414000800279C77403120D13024DF1124C54A36F
:104150002274F7120D59EAFEEBFF121E1FE96006EA
:104160007AFF7BFF807F90F574E064027070EEFA56
:10417000EFFB1241E85046EB75F006A4F8AAF0EA0E
:10418000F9E8124BDC7028EB124BFB90E342124132
:10419000FAE064FE7004A3E064FF6021EB75F006B2
:1041A000A4F8EAF9E8124BD2E0FAA3E0FB8036E08B
:1041B00064036009E0640470047AFE80A57B0080DB
:1041C000010B903D00E493FAEBC39A5011EB124BB4
:1041D000C26E7003A3E06F70E8EEFAEF80CEEEFAE5
:1041E000EFFB121E8B025754121F09121EEBE9FB44
:1041F000903CFDE493FAE9C39A22124D83A3124244
:104200000222F088828983A3A32274F2120D598AB4
:10421000088B098C0A8D0B7E00121E1FE960057940
:10422000000242B9AA08AB091241E8500E1257BC6D
:10423000640360030242B77F02804AAA08AB0912F6
:104240001E91121BC78A0C8B0DA80CA90DE87001DA
:10425000E9606488828983A3A3A3A3A3E0A2E050BA
:10426000567F01A2E150127901AC08AD09AA0AAB50
:104270000B121E67E9700E803E88828983A3A3A378
:10428000A3A3D2E1F090E343E0650A7004A3E065E4
:104290000B700C7901AA08AB09121E430E8018EFAF
:1042A000F9AC08AD09AA0AAB0B121E67E970080E3B
:1042B000AA08AB09121E9DEEF97F06020E1D74F0CE
:1042C000120D5974FE120D041244708C088D09856C
:1042D0001082851183E02416F50EA3E03400F50F5B
:1042E000850E8212567488828983A3E0F50C1245EC
:1042F0003BFA88828983A3A3A3A3E0F9EAFEE9FF3E
:10430000AA08AB09121EA3E9FA850E82850F831253
:104310005411E02AF50A530C807808120F4A7D00E8
:10432000AC0AA90B7402120D3A124460120D13E983
:10433000FA74036A70057900024445EA703E90E31E
:104340003CE0601CE50CF50D780D120F4E7901ACC8
:1043500008AD09E9120D3A12575912456C120D13A6
:10436000780C120F4E124562120D13E9700E741282
:10437000120D3A125ADD74FFF0A380427412120D2E
:104380003A125ADDE064FF7004A3E064FF603085F8
:104390001082851183E0240B12445512575F121EC0
:1043A0008BEA65087003EB6509708BEEFAEFFB1280
:1043B0001E8B7412120D3A125ADDEAF0A3EBF0785C
:1043C00008120F4A7D01AC0AA90B7402120D3A12B1
:1043D0004460120D13EEFAEFFB12598190E343E0B3
:1043E0006E7003A3E06F6020E87001E9604B888283
:1043F0008983A3A3A3A3E06401600D88828983A3BA
:10440000A3A3A3E064027031124448125ADDA3E072
:10441000F5087808120F4EE50BF5087808120F4ED4
:104420007900EEFCEFFD7402120D3A125759121E7C
:10443000617402120D13024336124448125411E5FE
:104440000AF0121DA70253E3851082851183E02430
:104450001612445522F8A3E03400F9888289832299
:10446000E0240B12540CFAA3E0FB121EA9740222E2
:10447000851082851183EAF0A3EBF02274F0120D0F
:10448000598A0E8B0F12566C12453BFC8882898329
:10449000A3A3A3A3E0FBECF508EBF50988828983CD
:1044A000A3A3A3A3A3E0FC88828983A3A3A3A3A3BC
:1044B000A3E0FBECFEEBFF88828983A3A3A3A3A365
:1044C000A3A3E0F50A88828983A3E05480F50CACAD
:1044D0000AA90BAA08AB09121EAFE9FA74036A60B5
:1044E0005790E343E065087004A3E06509603AEA89
:1044F0007030E50CF50D780D120F4E12454D120D72
:1045000013E97034780C120F4E780B120F4EA90A73
:10451000EEFCEFFDAA08AB09121E617402120D1326
:10452000801674046A701180DBE50CF508780812B7
:104530000F4E12454D120D130253E888828983A352
:10454000A3E0F50B88828983A3A3A3E0227901E588
:104550000E240BF582E50F125196FCA3E0FD1245E7
:10456000682279027CFE7DFFEEFAEFFB121E977443
:10457000012274F0120D5974FA120D04E9851082AB
:10458000851183F08A088B09ECFEEDFF7416120D7D
:104590003AE0F50C7417120D3AE0F50DA90C121E55
:1045A000B57401120D3A1244767404120D3A74086F
:1045B000F07403120D3AAA82AB83121E018A0E8B8D
:1045C0000FEA7001EB700302465A8A828B83A3A321
:1045D000A3A3A3A3E0F50AA3E0F50B7402850A8266
:1045E000850B83F0A3E50D12465FE50C12465FA331
:1045F000E508F0E509850A82850B83A3A3A3A3F050
:10460000EE850A82850B83A3A3A3A3A3F0EF850AFB
:1046100082850B83A3A3A3A3A3A3F07401120D3A75
:1046200012575F121EA3E9851082851183FAE02AD2
:10463000850A82850B83A3A3A3A3A3A3A3F074017C
:10464000120D3A125676850E82850F83A3A3E8F0E9
:10465000A3E9F0AA0EAB0F121BE574060253E5F0B6
:10466000850A82850B83A3A32274F2120D5974FD6F
:10467000120D048A088B09ECFEEDFF890C1246DE50
:104680007003A3E06970047901804B750D0190E31C
:1046900043E065087004A3E0650960387401120DF9
:1046A0003A74041246FC7001EB60298A828B83A362
:1046B000A3A3A3A3A3125676740388828983F0A3CD
:1046C000E50C1246EF124DA11246F4124BF2121BEA
:1046D000E5E9F50DA90D7403120D130242B9121F7D
:1046E000098A0A8B0BA80AA90B90E343E06822F021
:1046F000EE024203F08A828B83A3A322F08510820C
:10470000851183AA82AB83121E01EA2274F7120D6F
:104710005912566CE8FAE9FB79018A828B83A3A3CC
:10472000E0FC8A828B83A3A3A3E0FBECFA121C5764
:1047300002575474F6120D597508307509F87EB891
:104740007FF712407190E3ABE014F0700C903CFAEC
:10475000E49390E3ABF0121F1B7A00803F8E828FB0
:1047600083A3A3A3A3E0602BEE2404F582EF124FF2
:10477000D170208E828F83A3A3A3A3A3E0640160E2
:10478000128E828F83124082E48E828F83A3A3A332
:10479000A3A3F00AEE2406FEEF3400FF903CFD12C6
:1047A00047DE40B97A008028E5082407124FCD7013
:1047B00012850882850983A3124082E485088285D8
:1047C0000983F00AE5082408F508E5093400F5092D
:1047D000903CFF1247DE40D0024E36903D01E493FC
:1047E000FBEAC39B2274F6120D59E9701E7C007A15
:1047F0005F7BE390E334E0FD90E332E0C39D124839
:104800002274FE6E700374FF6F700D7C017A5B7B07
:10481000E390E334E0124822121DCBEEFAEFFB02E4
:104820004E36F9121E7F8A088B09AE08AF09227432
:10483000F4120D59EAFEEBFF7AFE7BFF7D0080014A
:104840000DEDC39950798E828F837508017509002B
:10485000750A00750B00ED7808120AF97808120B3A
:104860009190FD05780812018760D57508017509DA
:1048700000750A00750B00ED7808120AF978081225
:104880000AD08E828F837808120BA4EC700990E313
:1048900034E0F98D088005EDF9750800121EF78ADD
:1048A0000A8B0BA80AA90B90E343E028F8A3E03990
:1048B000F9E50828F8E439F9740128FAE439FB022B
:1048C0004DF174F4120D5990E343125676EAC398F1
:1048D000F8EB99F974FF28FE74FF39FF90E334E098
:1048E000F9121EF78A088B09C3EE9508EF95095057
:1048F00021EEFAEFFB121EFDE9C3405F750801755A
:104900000900750A00750B007808120AF990E35B3C
:10491000804490E334E0F508F9121EF78A0A8B0B05
:10492000C3EE950AFEEF950BFF90E332E0C39508C6
:10493000F8E49400F9C3EE98EF99A2D265D0335011
:104940001A750801750900750A00750B00EE7808E4
:10495000120AF990E35F7808120BB7121DCB024DD3
:10496000F174F6120D59121E918A088B09121BC799
:10497000EA7001EB6006AA08AB0980047AFE7BFFAF
:10498000024E3674F0120D5974FE120D041244706A
:104990007EFE7FFF851082851183C082C08390E3F5
:1049A00043125676D083D082E0C398F508A3E099ED
:1049B000F509750A00750B0090E334E0F9121EF753
:1049C00090FD05780C120BCA780C790812019C40F6
:1049D0002790E332E02AF8E43BF990E334E0FCE886
:1049E000C39CF50CE99400F50D750E00750F007869
:1049F00008790C12019C500B90E363E0605690E341
:104A000046804C90E363E0C0E090E333E0FCD0E00C
:104A1000C39C50408A0C8B0D7808790C12019C4085
:104A200028EF2508FAEF3509FB121EFD121EF78A42
:104A3000088B09A808A90990E343E028F8A3E03906
:104A4000F9740128FEE439800A851082851183E01B
:104A5000FEA3E0FFEEFAEFFB0253E374F2120D59EE
:104A60008C088D09890A740E120D3AE07005903C8D
:104A7000FE8003903CFDE493F50B121F098A0C8B1A
:104A80000DAE0CAF0D90E343E06E7003A3E06F70CA
:104A90000579000242B9121EEBE9FC903CFDE4935B
:104AA0006C70127AFE7BFF121EEBE9FCC3950B4083
:104AB00004790280DEEC75F006A4A9F0125770EEBE
:104AC000F0A3EFF074FE6508700474FF6509600BD5
:104AD000EC75F006A4124BD2124BF27401650A7009
:104AE0002A124BFA740188828983A3A3A3A3A3F09B
:104AF00090E342124D7EF0124BE9AA08AB09121D59
:104B0000B3EA7001EB708A7C008020EC75F006A49B
:104B1000124BDC7003024A91124BFA90E3411241AE
:104B2000FAA3A3A3E50AF0024A910C903D00E49396
:104B3000FAECC39A4003024A917E00801DEE75F0A4
:104B400006A424BAF582E5F034F7125674EC124B41
:104B5000C2687003A3E06960D10E903CFDE493FA53
:104B6000EEC39A40D8E4936E70C0EC75F00BA424A9
:104B700060F8E5F034F7F9E8FAE9FB8A828B8312F2
:104B80004BF290FD9BE08A828B83A3A3A3A3A3F0A7
:104B900074028A828B83A3A3A3A3F0E48A828B830B
:104BA000A3A3A3A3A3A3F090FD057808120BCA8AC0
:104BB000828B83A3A3A3A3A3A3A37808120BD90278
:104BC0004A9175F00BA42460F582E5F034F7F58383
:104BD000E02224BAF582E934F7F5832224BDF58278
:104BE000E934F7F583E064012290E350E0FCA3E0B0
:104BF000FD22E508F0A3E509F022EC75F006A424F7
:104C0000B8F8E934F7F922C082C083121F09121ED6
:104C1000EBE9FA903CFDE4936A7004790480041295
:104C20004C2AF9D083D08202009AEA75F006A424B7
:104C3000B8F8E5F034F7F98882898374FEF0A3743C
:104C4000FF12420274FEF0A374FF124C54124DAFD7
:104C5000A3A3F022F0E488828983A3A3A3A32274F0
:104C6000F6120D597E0790E337E0703F124BE912C0
:104C70001DB38A088B09A808A909E87001E9602B0F
:104C800088828983A3E0C3940D40047E01801C8840
:104C9000828983A3E0C3940740047E03800D888249
:104CA0008983A3E0C3940340021E1EEEF9024E3630
:104CB00074F0120D598A0A8B0BE9FEECFF8D087413
:104CC00010120D3AE0F50CA3E0F50D124D741241EF
:104CD000F3504F890A750B007403780A120CF1E542
:104CE0000A2436F582E50B34F8F583E0FAEFC39A2F
:104CF000502CE5086023750F007403780E120CF138
:104D0000E50E2430F8E50F34F8F9EF88828983A3A3
:104D1000A3A3A3A3A3124DA5F079000253E879033E
:104D200080F979007AFE7BFF124D74E493650E7072
:104D300004790280E6E50860E089087509007403DB
:104D40007808120CF1124D8CE50AF0A3E50B124D18
:104D5000A5124D9CA3A3F074FF88828983A3A3A30B
:104D6000A3A3F0EE88828983F090E341124D7EA3E5
:104D7000A3A380A4121EE5E9F50E903CFF22124D7C
:104D800083A322E088828983A3A3A322E508243099
:104D9000F8E50934F8F988828983A322124DA1A38A
:104DA00022F0EF80DF124DAFE50CF0A3E50D2212EB
:104DB0004202A32274F4120D59ECFE121EE5903C3F
:104DC000FF1241F35029890A750B007403780A1207
:104DD0000CF1E50A2435F582E50B34F8F583E0FAA9
:104DE000EEC39A5006EEF0790080067903800279CE
:104DF000047F04020E1D74F6120D59EAFEEBFF1239
:104E00001EE5E9F508903CFF1241F3501B750900BF
:104E100074037808120CF1E5082433F582E50934AF
:104E2000F8F58312575F8007EEFAEFFB121E8B80B6
:104E3000057402120D137F02020E1D74F6120D5935
:104E40008A828B83E4A3A3A3A3A3F0FB80010B902E
:104E50003D01E493FAEBC39A501F8B081253EFFA0B
:104E60008C828D83A3A3A3A3A3A3A3A3E06A70DE74
:104E7000ECFAEDFB121D4D801EE4936B7019740665
:104E80008C828D83A3A3A3A3A3A3A3A3A3F07A00DF
:104E90008C828D83124FDD809D74F4120D598A0827
:104EA0008B098A828B83A3A3E0141246F4A3A3A3E5
:104EB000E0F9121D298A0A8B0BAE0AAF0BEE7001C6
:104EC000EF7003024FCA850882850983A3A3E070AF
:104ED000288E828F83A3A3A3A3A3A3A3A3A3E06489
:104EE000026003124FD774068E828F83A3A3A3A3FD
:104EF000A3A3A3A3A3F0024FCA850882850983A3B5
:104F0000A3A3A3A3A3E07003024FAD850882850984
:104F100083A3A3A3A3E07003024FCAE508240312EE
:104F20004FCD6003024FCA850882850983A3A3A3DE
:104F3000A3E014F08E828F83A3A3A3A3A3A3A3A3B0
:104F4000A3E06403705A850882850983A3A3A3A301
:104F5000E0700DEEFCEFFDAA08AB09121EBB80400D
:104F600074048E828F83A3A3A3A3A3A3A3A3A3F0FC
:104F70001226A78A0A740F550AF87401288E828FA8
:104F800083A3A3A3A3F0A3E4F07A20FB1253FE7043
:104F900001EB700C7A207B0090E38FE0F91226E39E
:104FA00090E330E0850882850983024EF28E828F7D
:104FB00083A3A3A3A3A3A3A3A3A3E06403700BEE03
:104FC000FCEFFDAA08AB09121EBB024DF1F582E50C
:104FD0000912519614F0227AF08E828F83E0240C0D
:104FE000124455E0F9121C932274F6120D597C00FC
:104FF0007E0080258E0875090074037808120CF174
:10500000E5082480FAE50934F8FB8A828B83A3A3A0
:10501000E06005121EC17C010E903D01E493FAEEA2
:10502000C39A40D074016C70097C647D007A401290
:105030004077024E3674F5120D59788079F8750A6A
:1050400000803E88828983A3A3A3A3A3A3A3E0FE39
:10505000EA24101251936E701E88828983125AD7E7
:10506000EA240B1251936E7003A3E06F70098882DB
:105070008983A3A3E07023050AE82408F8E9340033
:10508000F9903D01E493FEE50AC39E40B6E49365C2
:105090000A700779007F03020E1D88828983A3A30B
:1050A000A3A3A3A3E07004790180EA750A008047F6
:1050B000AA0AEA75F00BA4ABF02460F582EB34F792
:1050C000F583E06C7003A3E06D702AEA75F00BA421
:1050D0002462F582EB34F7F58312575F90E350E0DA
:1050E0006A7003A3E06B700D88828983A3A3A3A3D6
:1050F000A3A3E014F0050A903D00E493FAE50AC387
:105100009A40AD750A008002050A850A08903CF5B0
:10511000E493FA740193FBC3E5089AE49B503BAA1D
:105120000AEA75F00EA4ABF0243EF582EB34F6F5F6
:1051300083E064FF60D2EA75F00EA4243AF582EBB6
:1051400034F6F583E06C7003A3E06D70BB88828950
:1051500083A3A3A3A3A3A3E014F0903D00E493FAD8
:10516000903CF5E4932AFAA3E4933400FB88828907
:1051700083A3A3A3A3A3A3E0FCC3EA9CEB940040F6
:10518000030250A7E488828983A3A3A3A3A3A3F067
:105190000250A7F582EB3400F583E02274F0120D83
:1051A0005974F8120D041244707402120D3AECF0A6
:1051B000A3EDF0750801750900903D00E4937808AF
:1051C000120CF1E5093395E0F50AF50B90FD057831
:1051D0000C120BCA7404120D3A780C120BD97A0017
:1051E0007C807DF880128C828D83A3A3E060180AF6
:1051F000EC2408FCED3400FD1247DB40E9E4936A3F
:10520000700579000253DFE48C828D83A3A3A3A3EE
:10521000A3A3F0FA8050EA75F00BA4FEABF0EBFF0D
:10522000EE2460F582EF34F7125AD57402120D3A6B
:10523000E06E7003A3E06F602CEA75F00BA4FEEB48
:10524000FFEE2462F582EF34F7125AD590E350E076
:105250006E7003A3E06F700D8C828D83A3A3A3A354
:10526000A3A3E004F00A903D001247DE40A87A00B4
:10527000803364016005E06403702285108285112B
:1052800083125411A3A3A3A3E064FF7004A3E064FA
:10529000FF700A7404120D3A7808120BB70A7401F1
:1052A0007808120AF98A0C903CF5E493FE74019395
:1052B000FFC3E50C9EE49F505AEA75F00EA4FEABC6
:1052C000F0125ACB7402120D3AE06E7003A3E06F35
:1052D00060CBEA75F00EA4FE125ACB90E343E06E69
:1052E0007003A3E06F60B6EA75F00EA4FEEBFFEE6C
:1052F000243EF582EF34F6F583E064046006E06056
:10530000030252728C828D83A3A3A3A3A3A3E00400
:10531000F0808A8C828D83A3A3A3A3A3A3E0601053
:10532000851082851183E0240F12540864017003F4
:10533000E4800590E331E0048C828D83A3A3A3A3D2
:10534000F090E336E08C828D83A3A3F090E330E00D
:105350008C828D8312541812575A8C828D8312447A
:1053600076E98C828D83A3A312541824101254085A
:105370008C828D83A3A3A3A3A3A3A3F07404120D13
:105380003AC082C08390FD057808120BCAD083D042
:1053900082780812018760327A0080010A1247DBA6
:1053A00050288A081253EF60036970F0750900E90C
:1053B000F07404120D3A780C120BCA7402780812B9
:1053C0000CF112565F780C120BD97A401253FC7014
:1053D00001EB70097C647D007A401240777901749A
:1053E0000880027402120D137F08020E1D8E08E55C
:1053F0000824C8F582E434F8F583E0227B0090E3CA
:105400008FE0F91227C1EA2212540C22125765E0EC
:1054100022125AE1A3024C5AA3A3A3F0851082855D
:105420001183E02274F4120D5975080080020508FA
:10543000903D01E493FAE508C39A500D85080AE50A
:105440000A1253F16970E7E4F0024DF174F0120DA5
:105450005974FC120D048A0E8B0F8A828B83A3A3CE
:1054600012575F121D2FEA7001EB60030255E390A3
:10547000FD057808120BCA851082851183124BF244
:10548000A3E50AF0A3E50BF090FD267808120BCAFD
:105490007E00804EEE75F00BA4F8ACF0ECF9E82439
:1054A00060F582E934F712567C7003A3E069702A34
:1054B000EE75F00BA4F8ECF9E82462F582E934F714
:1054C00012567490E350E0687003A3E069700B8596
:1054D00010828511837808120BB70E7401780812B8
:1054E0000AF9903D00E493FCEEC39C40A77E008047
:1054F000080E74017808120AF98E0C903CF5E493BA
:10550000F8740193F9C3E50C98E4995036EE75F000
:105510000EA4A9F0243EF582E934F6F583E064FF99
:1055200060CFEE75F00EA4243AF582E934F61256F7
:105530007C7003A3E06970B98510828511837808B7
:10554000120BB77E0080057A007B000E903D01E4CF
:1055500093FCEEC39C40030255E31253ED60EC75DF
:10556000090074027808120CF112565FC082C083E1
:105570008510828511837808120BCAD083D0827877
:1055800008120B9190FD05780812018760BD125337
:10559000EDF9121D29EA7001EB60AC8A828B83A3BE
:1055A000A3A3A3A3A3A3A3A3E06405709A85108279
:1055B0008511837808120BCA7808120AD08E0C75F0
:1055C0000D007402780C120CF1E50C24D1F582E583
:1055D0000D34F8F5837808120BA4903D01E493FE96
:1055E00002554BEA7001EB60128A828B83A3A3A35E
:1055F000A3A3A3A3A3A3E06405601D850E82850F6A
:1056000083A3A3A3A3124BEC850E82850F83A3A3D0
:1056100012575F121A508042850E82850F83A3A312
:105620001256768A828B83E0FCA3E0F5838C82E8B5
:10563000F0A3E9F074018A828B83A3A3A3A3A3A39D
:10564000A3A3A3F07A201253FC7001EB700C7A2014
:105650007B0090E38FE0F91226E374040253E5E542
:105660000824D1F582E50934F8F58322EA2416F5F9
:1056700082EB3400F583E0F8A3E0F922F583E0F84B
:10568000A3E0F9850E82850F83A3A3E0682274F658
:10569000120D59E9FC7900800109903CFFE493FD6B
:1056A000E9C39D503D890875090074037808120C00
:1056B000F1E5082431F582E50934F8F583E06A70F4
:1056C00003A3E06B70D3890875090074037808128E
:1056D0000CF1E5082430F582E50934F8F583E06C37
:1056E00070B7024E3674F7120D597E008019EE75B0
:1056F000F006A424B8F582E5F034F7F583E06A708B
:1057000003A3E06B604C0E903CFDE493FCEEC39C65
:1057100040DCE4936E703B74FE6A700374FF6B7040
:10572000317E0080010E903CFDE493FAEEC39A5066
:1057300021EE75F006A4A9F024BCF582E934F7F552
:1057400083E070E1EE75F006A412577012575F12F5
:105750001E9DEEF97F01020E1DE0240B125765E03D
:10576000FAA3E0FB22FAA3E03400FB8A828B8322B7
:1057700024B8F582E934F7F5832274F6120D59EA5C
:10578000FEEBFF89081241E8500B1257BC65087008
:10579000047900802474016508701C124BE9EEFA4C
:1057A000EFFB121DB38A828B83E5827002E5836072
:1057B00006E0C3940340DA7901024E36EB75F00639
:1057C000A424BDF582E5F034F7F583E02274F612E7
:1057D0000D59890890E363E0C333F8E433F990F698
:1057E00034E028FAA3E0398A82F58312575FEA850C
:1057F00008F0A4FAACF08508F0EBA42CFB024E36BE
:10580000C082C083EAF8EBF990E363E0C333FAE4C3
:1058100033FB90F634E02AFCA3E03B8C82F5831244
:10582000575F120C79E8F9024C2374F0120D597489
:10583000FE120D04851082851183ECF0A3EDF08932
:10584000087412120D3A124BEC8982AE82EEC33309
:10585000F8E433F9EC28F8ED39F988828983E4F02B
:10586000A3F0EA2E125193FE74012E0EE43400FFD1
:10587000E824FEF582E934FFF583EEF0A3EFF0743F
:10588000FE2508F50A807CE50AFE3395E0FFEEF878
:10589000EFF9E8C333F8E933F9EC28F8ED39F98585
:1058A0001082851183E02EF508A3E03F850882F57C
:1058B00083A3E0F50888828983A3A3E0F50EA3E023
:1058C000F50FE50E8508F0A4F50E85F00B8508F0C0
:1058D000E50FA4250BF50FEA2EF582EB3FF583A328
:1058E000E0250EFEE4350FFFEEC39508FEEF9400B1
:1058F000FF74012E0EE43FFF88828983EEF0A3EF50
:10590000F0150AE50AC39400A2D265D03340030221
:1059100058870253E374F6120D5974FE120D04EA0F
:10592000FEEBFF90F905E0602985108285118385E3
:1059300082088583097808120F4A7C007D00121FB7
:105940000F7402120D13851082851183E0FAA3E013
:10595000802B125981E87001E9601F88828983A336
:10596000A3A3A3E06401600D88828983A3A3A3A3FA
:10597000E06402700590E34380D2EEFAEFFB024E42
:1059800031121BC78A088B09A808A9092274F012D2
:105990000D5974FA120D041244707404120D3AEC8D
:1059A000F0A3EDF07508007C007D007A007B008A92
:1059B00009851082851183125AD77416120D3A1276
:1059C0005ADDEEF0A3EFF0025A5A7416120D3A1295
:1059D0005ADDECF0A3EDF07404120D3AE06C7003A4
:1059E000A3E06D70037509017402120D3AEEF0A385
:1059F000EFF0E508C333F8E433F990F634E028F526
:105A00000EA3E039F50F7402120D3AE024FFF50CF5
:105A1000A3E034FFF50DA80CF9850E82850F8312E3
:105A2000575F120C798A0A8B0BAE0AAF0BA80CA930
:105A30000D850E82850F8312575F120C79880A89B3
:105A40000BAA0AAB0B7402120D3AE02CF8A3E03D4E
:105A5000F9E8C39EFCE99FFD0508EE7001EF6023A5
:105A600090E333E0F8E508C398501885080AE50A82
:105A70002436F582E434F6F583E06A7001EB6003C6
:105A80000259CAE508603F2435F582E434F6F5830F
:105A9000E0F8C3EA98EB9400501D851082851183CD
:105AA0001256767416120D3AE0FAA3E0F5838A8254
:105AB000E8F0A3E9F0800FE06A7001EB600890E382
:105AC00033E0650870D4A90902465AEBFFEE243A88
:105AD000F582EF34F6F583E0FEA3E0FF22125AE1EF
:105AE00022E0F8A3E0F58388822274F7120D59EAC8
:105AF000FEEBFF74026970107900EEFAEFFB121EE4
:105B000043E970117901800F7401697008790112FD
:105B10001EF1E970E3790002575474F6120D597CB6
:105B20000079057A007B00806A8E828F83A3A3A30D
:105B3000A3E07002A3E06053EE2404F8EF3400F910
:105B400088828983E024FFF0A3E034FFF088828913
:105B500083E07002A3E0703374068E828F83A3A368
:105B6000A3A3A3A3A3A3A3F0124FD78E828F83A3D3
:105B7000A3A3A3A3A3E0540460118E828F83A3A3E5
:105B8000A3A3A3A3A3A3E0F9121ED97C007905EE79
:105B9000FAEFFB121D238A088B09AE08AF09EE70DD
:105BA00001EF7085024E36C082C083E990E38FF02A
:105BB000E490E352F0122D91121CF390E390E4F084
:105BC000A3F0121E37121BA9121E3D122D9790E34F
:105BD0001FE4F0A3F0025EEF74F2120D59EAFEEB3F
:105BE000FF74805FF9E47001E97024EEA2E04003E5
:105BF000025D0390E357E0640F6003025D037401EC
:105C00006EFA025E30121CE1AA08AB091226B390AC
:105C1000E38FE0F91226BF8A088B09EA7001EB7066
:105C200003025CFA8A828B83E012100501404195E1
:105C30005C0B20555C215A5C22835C235F5C2574DD
:105C40005C26795C297E5C31885C339B5C36E95C40
:105C500037055C085C121CA580AE121CAB80A990B5
:105C6000E329E07002A3E0609F90E329126B2A12FF
:105C70000D448094121CB7808F121CC9808A121C9C
:105C8000DB8085121CB180808A828B83A3E0F912AD
:105C90001CD5025C08121EDF025C088A828B83A37B
:105CA00085820A85830BE0F9121C51850A82850BD7
:105CB00083E064EB600C850882850983A3E064E1DE
:105CC0007009E4850882850983A3F0750A01780AC2
:105CD000120F4E850882850983A3126B37126B63FE
:105CE000120D13121CF9025C087AF08508828B836E
:105CF000A3A3E0F9121C99025C08EEFA74806FFB12
:105D0000025E30EE54207003025DE9750A007C02E9
:105D10007D007A207B0090E38FE0F91227B57C00AC
:105D200079047A007B00121D238A088B098018747D
:105D300001850882850983A3A3A3A3A3A3A3A3A387
:105D4000F0850C08850D09E5087002E509606E7C98
:105D5000007904AA08AB09121D238A0C8B0D750A61
:105D600001E508240412708824FFF0A3E034FF1238
:105D700068277002A3E070C9850882850983A3A300
:105D8000A3A3A3A3A3A3A3A3E0640170A285088295
:105D9000850983A3A3A3A3A3A3E05404709174066D
:105DA000850882850983A3A3A3A3A3A3A3A3A3F028
:105DB0007AB7850882850983125ED88084121CF91F
:105DC0007C0079017A007B00121D23EA7001EB70E0
:105DD00010E50A700C7A207B0090E38FE0F912271F
:105DE000BB74206EFAEF025CFFEE54106007121EC7
