:020000040000FA
:06000000020B9602042C25
:03002B00020A4B7B
:03003300020C4874
:0300530002032E77
:03006B00020C4242
:03007B0002050279
:100083000203A7010176B70DA3F29AC89E24BE7D91
:10009300A999A04DA0B5C6A5A42EA1AF9CB59F0F4D
:1000A3009DE4C200A2FDA335A46A9A01A0B9C6C10A
:1000B300C6A1A96DA44DA35099C9C6010203051C8D
:1000C300010000040501000005010A010806FF09FB
:1000D3000000000000090000000000B20701000159
:1000E30000010204081020408002004080C0FF018C
:1000F30004040404010102CF1BCF1BCF1BCF1B9DA4
:100103001A971ACF1BF01E00000000B41F00000056
:10011300000C0000000C0074F712077074F6120A4A
:10012300A97403120C59E4F079011211D9E970038F
:100133000201E7A2AFE492E0FEC2AF90166FC3E004
:10014300940CA3E09400401074019016CEF0EEA23C
:10015300E092AF79020201E979067C557D16851894
:1001630082851983AA82AB8312140D7403120C596E
:10017300E0A2E1503675080175090090166FE0782A
:1001830008120B4AE508F4F8E509F4F9901671E052
:1001930058F0A3E059F090166FE02401F0A3E03487
:1001A30000F0EEA2E092AF7900803B7A6A7B1612F0
:1001B3001A4FE9702A7C557D167A6A7B16121A2526
:1001C300E9601C75080175090090166FE078081244
:1001D3000B4A901671E04508F0A3E0450980B6EE9E
:1001E300A2E092AF7903740A120A187F02020899F7
:1001F30074F7120770A2AFE492E0FEC2AF7A617B9C
:1002030016121A55E9601274019016CDF01207D038
:10021300EEA2E092AF790180447C557D167A617B32
:1002230016121A2BE9602F75080675090078081253
:100233000A807CE07D167A557B16121C9B74021291
:100243000A18EA7001EB70051207D0800979067A63
:10025300557B16121419EEA2E092AF7904808C74C8
:10026300F7120770A2AFE492E0FEC2AF90166FC31D
:10027300E0940CA3E09400500D7A6A7B16121A4F97
:10028300E9700302031B90166FE4F0A3F09016715C
:10029300E07002A3E0700A9016E6E004F0540770E1
:1002A300777A6A7B16121A438A089005B3E0FAA399
:1002B300E0FB901673EAF0A3EBF09005BFE0FAA31E
:1002C300E0FB901675EAF0A3EBF0901671E0FAA349
:1002D300E0FB901677EAF0A3EBF09016E7E09016B8
:1002E30079F09016E704F0E50890167AF07C7B7DB0
:1002F300167A6A7B16121A3D7D007C0690167AE008
:100303002408F97A737B16121203121233E490163F
:10031300E6F0901671F0A3F09016CEE0600512019E
:100323001AE4F0EEA2E092AF0201EEC0E0C0D0E822
:10033300C0E0E9C0E0EAC0E0EBC0E0ECC0E0EDC043
:10034300E0EEC0E0C082C083C0F0A2AFE492E0FE62
:10035300D2AFE5A7FAE5A1FBEA5B541060081217D8
:100363009775A1EF8019EAA2E0C0D0EBA2E092F06A
:10037300120B37158182F0500612184575A1FEEE57
:10038300A2E092AFD0F0D083D082D0E0FED0E0FDE7
:10039300D0E0FCD0E0FBD0E0FAD0E0F9D0E0F8D038
:1003A300D0D0E032C0E0C0D0E8C0E0E9C0E0EAC0AD
:1003B300E0EBC0E0ECC0E0EDC0E0EEC0E0C082C026
:1003C30083C0F0A2AFE492E0FED2AF9061A4E0FA62
:1003D300759B00E5915A540860087591F71217E56B
:1003E300802AE5915A541060087591EF1217EB803B
:1003F3001BEAA2E0C0D0E591A2E092F0120B371500
:100403008182F05007E0C2E0F01219359061A3E059
:10041300FAE5E95A5404600E12190B75E9FB906171
:1004230093E0A2E640F2020382C0E0C0D0E8C0E05D
:10043300E9C0E0EAC0E0EBC0E0ECC0E0EDC0E0EE14
:10044300C0E0C082C083C0F0A2AFE492E0FED2AFAE
:100453009061A5E0FAE5BF5A5404600675BFFB122C
:10046300194D020382C3E498F8E499F91204A980B0
:1004730026C3E49AFAE49BFBE920E7E91204A9E422
:1004830098F8E499F922C3E498F8E499F91204A9D5
:10049300E498F8E499F9C3E49AFAE49BFB22EB208D
:1004A300E7CFE920E7E0B90010BB0008E88AF08451
:1004B300F8AAF022E4FBC8FA22EB70227B10C833BF
:1004C300C8C933C9335007C39AC3DBF280069A50B5
:1004D300012ADBEAC833F4C8C933F4C9FA2275F038
:1004E30008E4C833C8C933C933C99AC99B5004C97E
:1004F3002AC93BD5F0ECFBC833F4C8E4C9FA22C0DF
:10050300E0C0D0E8C0E0E9C0E0EAC0E0EBC0E0EC66
:10051300C0E0EDC0E0EEC0E0C082C083C0F0E58A79
:10052300A2E55021E58DA2E5501B12111FE96012CF
:10053300E5A8FEC2AF1215D5EEA2E792AF7901127C
:10054300156F538ADFE58AA2E0500CE58DA2E050D7
:1005530006538AFE12011AE58AA2E2500CE58DA227
:10056300E25006538AFB1201F3C2EBD0F0D083D0E2
:1005730082D0E0FED0E0FDD0E0FCD0E0FBD0E0FA9A
:10058300D0E0F9D0E0F8D0D0D0E032120C4EB90070
:1005930003020604E479217805B800028004F70910
:1005A300D8FCE4900400780779158002F0A3D8FC06
:1005B300D9FA781A9000867A01BA00028007E49388
:1005C300A3F608DAF9781B9000877A01BA00028053
:1005D30007E493A3F608DAF9901806AA82AB83908E
:1005E3000088789379018015E493A3AC82AD838A64
:1005F300828B83F0A3AA82AB838C828D83D8E9D9C3
:10060300E77582457583C574031209DF7582F77533
:10061300831D74001209DF080808EAC0E0EBC0E09C
:1006230086F0E7A4FA180986F0E7A42AFA180986DF
:10063300F0E7A42AFA180986F0E7A42AFA1986F043
:10064300E7A4FBE5F02AFA190886F0E7A42BFBE5FB
:10065300F03AFA190886F0E7A42BFBE5F03AFA180A
:10066300180986F0E7A4C5F02BFBE43AFA1908E76A
:10067300C5F0C6A426F6E5F03BFBE43AFA1886F08B
:10068300E7A4F6E5F00826F6E43B08F6E43A08F6B4
:10069300D0E0FBD0E0FA22E4CFC0E0E4CEC0E0E457
:1006A300CDC0E0E4CCC0E075F020C3E633F608E645
:1006B30033F608E633F608E633F6181818EC33FC7D
:1006C300ED33FDEE33FEEF33FFC3EC9709ED9709EE
:1006D300EE9709EF97191919400FFFEC97FC09EDF5
:1006E30097FD09EE97FE191906D5F0BEECF709ED53
:1006F300F709EEF709EFF7191919D0E0FCD0E0FD7F
:10070300D0E0FED0E0FF222518C582C0E0E5193411
:10071300FFC583C0E0E518C3958224F8F8E4C5A8B3
:10072300858319858218C5A8E8CEF0A3E520F0A338
:100733007808E608F0A3DEFAEFF0A3E58124FAF8DF
:10074300E608F0A3E608F0A3E608F0A30808E60825
:10075300F0A3E608F0A315811581D0E0FED0E0F800
:10076300158115811581E8C0E0EEC0E0222518C58A
:1007730082C0E0E51934FFC583C0E0E518C3958264
:1007830024F9F8E4C5A8858319858218C5A8E8CE9D
:10079300F0A3E520F0A37808E608F0A3DEFAEFF073
:1007A300A3E58124FBF8E608F0A3E608F0A3080814
:1007B300E608F0A3E608F0A315811581D0E0FED08A
:1007C300E0F815811581E8C0E0EEC0E02274F8126C
:1007D30007707AEC79131214137A02790212141344
:1007E30090163AE0FA90163BE0F91214137AF47972
:1007F300011214137A0079001214137E037A00791C
:10080300001214131EEE70F57E097A00790012149B
:10081300131EEE70F579067F010208998519838509
:100823001882E0A3FEE0A3F5207808E0A3F608DF32
:10083300FAE0A3FFE0A3C0E0E0A3C0E0E0A3C0E0D0
:10084300E0A3C0E0E0A3C0E0E4C5A88582188583E7
:1008530019C5A8D083D0820209E580010012088F50
:100863007001EB70F722EA7001EB601FEAF8EBF915
:100873007AE87B030012088F7001EB70F7E824FF1E
:1008830018E934FFF9E87001E970E522EA24FF1A58
:10089300EB34FFFBEA22851983851882E0A3FEE08F
:1008A300A3F5207808E0A3F608DFFAE0A3FFE0A3AE
:1008B300C0E0E0A3C0E0E0A3C0E0E0A3C0E0E4C583
:1008C300A8858218858319C5A8D083D08222D083B6
:1008D300D082C5F0E493A3C5F0C395F0F5F0E4939B
:1008E300A3C395F04005E5F0048001E475F002A48C
:1008F3002582F582E5F03583F583E493A3C0E0E434
:1009030093C0E02274028000CCC0E0EDC0E0E518A3
:10091300C39CCCAD1950011D10AF068C188D1980E6
:10092300068C188D19D2AF120980D0E0FDD0E0FCFF
:1009330022D083D082CCC0E0E493A360061209C026
:100943001470FAE493A36006120A931470FAD0E0C9
:10095300FCE493A3C0E0E493C0E022CAC0E0E493C4
:10096300A3C582CCC582C583CDC583F0A3C582CC84
:10097300C582C583CDC583DAE5D0E0CA22CAC0E00B
:10098300E0A3C582CCC582C583CDC583F0A3C58250
:10099300CCC582C583CDC583DAE6D0E0CA2270090F
:1009A300080808226016181818C6C333C608C633C9
:1009B300C608C633C608C633C6D5E0EA22C0E0E49B
:1009C30093A3D39C5010E493A3C39C400AD0E0D0DC
:1009D300E0D0E0020951A3A3A3D0E022C09FF59F7A
:1009E300E473D09F22D083D082C09FE493C0E0748D
:1009F3000193C0E0740293F59F222518F58210AF8E
:100A030008F518400215198008F51840021519D287
:100A1300AF85198322C0D0251810AF08F5185002EE
:100A230005198008F51850020519D2AFD0D02260FD
:100A330016080808C6C313C618C613C618C613C6B5
:100A430018C613C6D5E0EA22C0E0C0D0EAC0E0E58C
:100A5300A8D2AFC2C7A2E792AFD0E0FAD0D0D0E01D
:100A630032C3E0C696F608A3E0C696F608A3E0C62E
:100A730096F608A3E0C696F62274048006740280F4
:100A8300027401C0E0F4041209FDD0E0120C352217
:100A9300C0E0E493A36C7009D0E0D0E0D0E0020999
:100AA30051A3A3D0E022251810AF08F51840021572
:100AB300198008F51840021519D2AF22C3E0960831
:100AC300A3E09608A3E09608A3E096A2D265D033EC
:100AD30022E066701008A3E066700A08A3E066705F
:100AE3000408A3E06622C3E096F008A3E096F008AA
:100AF300A3E096F008A3E096F022C3E697F6080970
:100B0300E697F60809E697F60809E697F622E0560F
:100B1300F008A3E056F008A3E056F008A3E056F06F
:100B230022E056F608A3E056F608A3E056F608A31B
:100B3300E056F622C0E0E8C0E0E58124FCF8E6A236
:100B4300E7D0E0F8D0E022700422600D18C6C3336A
:100B5300C608C633C6D5E0F41822E026F608A3E09B
:100B630036F608A3E036F608A3E036F622E627F6C3
:100B73000809E637F60809E637F60809E637F622E4
:100B8300E026F008A3E036F008A3E036F008A3E07F
:100B930036F02275D00075813F75180075190475FC
:100BA3009F0002058EE4C396F608E496F608E496E1
:100BB300F608E496F622C3E7960809E7960809E7DC
:100BC300960809E79622C6F4C608C6F4C608C6F412
:100BD300C608C6F4C622600D08C6A2E713C618C627
:100BE30013C6D5E0F322C3E09608A3E09608A3E07A
:100BF3009608A3E09622E6F008A3E6F008A3E6F041
:100C030008A3E6F022E0F608A3E0F608A3E0F6085E
:100C1300A3E0F622E7F60809E7F60809E7F608096C
:100C2300E7F622600C08C6C313C618C613C6D5E080
:100C3300F422CAC0E0E6F0A308DAFAD0E0FA22759B
:100C43008900C2C532758B00C2E83274F855C744B7
:100C530001F5C77901222518F582E43519F58322B8
:100C63001209E8C5D5011209E8FFD5011209E839CF
:100C7300D6011209E894D6011209E80AD70112092C
:100C8300E8A6D8011209E8D8D8011209E83ADA012E
:100C93001209E852DA011209E880DC011209E8F8C6
:100CA300DC011209E86FDE011209E895DE01120981
:100CB300E8CFDE011209E809DF011209E853DF0179
:100CC3001209E8EFDF011209E85DE1011209E8BA50
:100CD300E1011209E8E2E1011209E853E301120913
:100CE300E82FE4011209E890E4011209E848E5015C
:100CF3001209E8C0E5011209E85EE7011209E8906C
:100D0300E7011209E8D5E8011209E8E4E90112094B
:100D1300E895F2021209E8E7F2021209E878F30211
:100D23001209E8C7F3021209E8F0F3021209E848CE
:100D3300F4021209E884F4021209E8B8F402120971
:100D4300E8FCF4021209E81FF5021209E83EF50275
:100D53001209E85CF5021209E8D7F5021209E85412
:100D6300F6021209E860F6021209E86FF6021209A8
:100D7300E886F6021209E894F6021209E8AEF602D2
:100D83001209E8E8F6021209E80DF7021209E8333E
:100D9300F7021209E84DF7021209E859F70212099E
:100DA300E82BF8021209E8F191021209E8389202DD
:100DB3001209E88C92021209E8D692021209E8F1AC
:100DC30092021209E80293021209E815930212092A
:100DD300E82893021209E84693021209E8499302AC
:100DE3001209E84C93021209E84F93021209E889A9
:100DF30093021209E8A693021209E88B94021209DE
:100E0300E85095021209E87995021209E842960220
:100E13001209E86296021209E81D97021209E8F620
:100E230097021209E81D98021209E867980212094D
:100E3300E8A598021209E8DA98021209E80799026C
:100E43001209E80A99021209E81E99021209E82117
:100E530099021209E82499021209E8279902120952
:100E6300E87299021209E8049B021209E8E09B0266
:100E73001209E8179C021209E8599C021209E88B2F
:100E83009C021209E8619D021209E8649D0212099D
:100E9300E8679D021209E8A29D021209E8449E0236
:100EA3001209E8CE9E021209E8D19E021209E8D483
:100EB3009E021209E8D79E021209E8DA9E0212097D
:100EC300E8A89F021209E8BA9F021209E81BA102CF
:100ED3001209E8D5A1021209E8FE20001209E81A56
:100EE30021001209E82021001209E86721001209F4
:100EF300E8B421001209E80A22001209E83C2300A1
:100F03001209E89C23001209E83025001209E804BD
:100F130027001209E8B527001209E8692900120918
:100F2300E84D2A001209E8882C001209E8202E0057
:100F33001209E8412E001209E86F2E001209E8A0F9
:100F43002E001209E80C2F001209E8952F00120950
:100F5300E8BF2F001209E85A30001209E8CC30002C
:100F63001209E89131001209E8D631001209E8228A
:100F730032001209E86732001209E81C3500120931
:100F8300E8AF35001209E84936001209E8203700B6
:100F93001209E8B537001209E88F3E001209E87F0D
:100FA30040001209E88240001209E82F42001209AA
:100FB300E89844001209E83045001209E8C94500E1
:100FC3001209E8CC45001209E88346001209E886B5
:100FD30046001209E88447001209E88E4700120907
:100FE300E82548001209E84E48001209E8434A0080
:100FF3001209E8EA4A001209E8F44A001209E8FF74
:101003004A001209E8024B001209E89D4B0012093D
:10101300E8B14B001209E86E4C001209E87E4D005E
:101023001209E8274E001209E87E4E001209E82E45
:101033004F001209E89C4F001209E8D64F0012092D
:10104300E89E50001209E87D51001209E8DA5200C7
:101053001209E80553001209E83E53001209E88D0E
:1010630053001209E87354001209E8BF540012092F
:10107300E80056001209E84856001209E88F5700A5
:101083001209E86EEA011209E8E1EA011209E834FB
:10109300EB011209E8A2EB011209E877EE0112094C
:1010A300E8EDEF011209E8F2EF011209E8EBF001B4
:1010B3001209E8EBF2011209E827F5011209E8DA4F
:1010C300F7011209E8F6F9011209E82EFB011209EA
:1010D300E8FAFB011209E88FFC011209E88FFE010F
:1010E3001209E89BFE011209E8B8FE011209E8693A
:1010F300FF011209E8B7FF011209E8D3B20312098D
:10110300E800B3031209E870B3031209E8C3B30399
:101113001209E8CDB3031209E8EDB3031209E8AFEE
:10112300B4031209E8B6B4031209E8F3B4031209CD
:10113300E872D3021209E81DD4021209E8D9D802D1
:101143001209E874DB021209E88FDB021209E8AD29
:10115300DB021209E89CC5031209E8A0E3021209A5
:10116300E8ABE3021209E8B6E3021209E8BFE302BF
:101173001209E8E4E3021209E835E4021209E87B04
:10118300E5021209E824E6021209E869E8021209F5
:10119300E8A7E8021209E8E2E8021209E810E90206
:1011A3001209E885E9021209E8A6E9021209E848EA
:1011B300EA021209E855EA021209E85FEA02120993
:1011C300E869EA021209E890EA021209E8B4EA02BD
:1011D3001209E893C7031209E8C184031209E8D688
:1011E30084031209E8E084031209E8FA840312096C
:1011F300E80E85031209E84F85031209E875850394
:101203001209E8E185031209E82886031209E8397F
:1012130086031209E84E86031209E8688603120959
:10122300E8B486031209E8F986031209E823870361
:101233001209E8E887031209E86788031209E8211D
:1012430089031209E8C5DB021209E8CFDB021209A0
:10125300E826DC021209E845DC021209E82ADF026B
:101263001209E880DF021209E8B5DF021209E81764
:10127300E0021209E8AEE0021209E80DE1021209E8
:10128300E871E1021209E8F1E1021209E856E2020B
:101293001209E895E2021209E8DAE2021209E8F912
:1012A300E2021209E84CBD031209E814BE03120955
:1012B300E819B7031209E887B7031209E8A7B703C8
:1012C3001209E8ADB8031209E80080021209E8EA3E
:1012D30080021209E83081021209E815830212091B
:1012E300E85883021209E83985021209E880850269
:1012F3001209E88086021209E83287021209E8AD72
:1013030087021209E84088021209E8948802120948
:10131300E8ED88021209E83589021209E8B18A0268
:101323001209E8788C021209E8398E021209E8479B
:101333008E021209E8A78E021209E8A2910212098D
:10134300E8C79E031209E848A2031209E860A20352
:101353001209E801A3031209E842A3031209E85F93
:10136300A3031209E882A3031209E8BBA30312092A
:10137300E867A5031209E86DBE031209E88ABE03F4
:101383001209E8CFBE031209E866BF031209E8C0D9
:10139300C6031209E837EB021209E8A2EB021209AD
:1013A300E89DEC021209E8BCEC021209E8C7EC0262
:1013B3001209E8D7EC021209E89EED021209E8F8D7
:1013C300ED021209E828EE021209E858EE021209AA
:1013D300E8F4EE021209E807EF021209E8DBEF0274
:1013E3001209E80BF0021209E8C2F0021209E8EE52
:1013F300F0021209E814F1021209E8D8F102120905
:10140300E861F2021209E87C89031209E8F589030D
:101413001209E8B58A031209E8108B031209E88957
:101423008B031209E8E88B031209E82F8C031209D6
:10143300E8568C031209E8AE8C031209E8D98C0331
:101443001209E8E48C031209E8048D031209E85435
:101453008D031209E8878D031209E87FA50312099A
:10146300E824A6031209E8A4A8031209E82BC2037F
:101473001209E848C2031209E8CAC2031209E8D7ED
:10148300C2031209E85BC1031209E86CC103120924
:10149300E85DD4011209E811C2031209E887FE02CC
:1014A3001209E8C7FE021209E8FEFE021209E896D5
:1014B300FF021209E8CAC7031209E8D8C7031209D1
:1014C300E89EF8021209E8C6F8021209E833F902A5
:1014D3001209E86EF9021209E84DFA021209E87AD4
:1014E300FA021209E883FA021209E88CFA021209D5
:1014F300E8ABFA021209E8B4FA021209E8CBFA02DD
:101503001209E8CEFA021209E8D1FA021209E8E553
:10151300FA021209E88DFC021209E897FC0212098B
:10152300E8D1FC021209E8E3FC021209E817FD0204
:101533001209E827FD021209E83CFD021209E846F8
:10154300FD021209E806FE021209E8DFC8031209C8
:10155300E80080031209E83A80031209E85D80037A
:101563001209E87F81031209E88C81031209E80755
:1015730082031209E81382031209E8328203120973
:10158300E89C83031209E8CA83031209E8FA830378
:101593001209E80584031209E82084031209E83ECE
:1015A30084031209E89D84031209E81EBC0312098F
:1015B300E845BC031209E8CCBC031209E833BD03B8
:1015C3001209E8DD9E031209E837C4031209E85241
:1015D300C4031209E895C4031209E8CAC403120933
:1015E300E8CDC4031209E8F07F001209E8F37F0095
:1015F3001209E8F87F001209E895B0031209E80020
:10160300B2031209E884B2031209E83799031209F5
:10161300E85899031209E87799031209E8B6990380
:101623001209E8FF99031209E8419A031209E864D1
:101633009A031209E8709A031209E8749B031209CA
:10164300E8739C031209E826B9031209E829B903D0
:101653001209E895B9031209E812BA031209E872EC
:10166300BA031209E8908D031209E8838E03120965
:10167300E82B8F031209E82490031209E84D900325
:101683001209E8A590031209E8AB90031209E8E8F0
:1016930090031209E8FC90031209E816910312095A
:1016A300E86691031209E81EA2021209E8A5A30243
:1016B3001209E8C3A3021209E8D5A3021209E8EA52
:1016C300A3021209E8FCA3021209E82AA4021209E0
:1016D300E8BBA4021209E86EA5021209E8DBA50221
:1016E3001209E8DDA6021209E8FEA6021209E823A0
:1016F300A7021209E8B4AA021209E81EAB021209F2
:10170300E840AB021209E8D7AC021209E84FAD0278
:101713001209E8D7AD021209E8E8AD021209E8237D
:10172300AE021209E82EAE021209E85AAE021209FD
:10173300E8AFAE021209E8CFAE021209E837AF02F2
:101743001209E866AF021209E8BDB0021209E8CF38
:10175300B0021209E8DBB0021209E83DC80312091E
:10176300E851C8031209E8869C031209E8C99C03DF
:101773001209E8DA9C031209E8199D031209E84FDC
:101783009D031209E8859D031209E89D9D03120933
:10179300E8209E031209E84D9E031209E8B9A80345
:1017A3001209E8F1A8031209E83FA9031209E8673F
:1017B300A9031209E8C4A9031209E8D6A903120967
:1017C300E8F1A9031209E813AA031209E81FAA03FF
:1017D3001209E87CAA031209E8A0AA031209E82364
:1017E300AB031209E830AB031209E841AB0312095A
:1017F300E857C7031209E874C7031209E89B91036A
:101803001209E8FB92031209E80893031209E82579
:1018130093031209E83C93031209E8519303120955
:10182300E83494031209E8B694031209E8CB94034D
:101833001209E80695031209E85895031209E86CA2
:1018430095031209E87A95031209E8D2C403120931
:10185300E8F8C4031209E820C5031209E809B5032F
:101863001209E830B5031209E851B5031209E80B70
:10187300AE031209E824AE031209E830AE031209DD
:10188300E844AE031209E868AE031209E874AE0334
:101893001209E883AE031209E896AE031209E8F6CB
:1018A300AE031209E830AF031209E860AF0312096F
:1018B300E8AFAF031209E8FDAF031209E815B0035F
:1018C3001209E81FB0031209E845B0031209E88AB8
:1018D300B0031209E8657F001209E8817F0012094D
:1018E300E8E47F001209E8ECFF021209E825CA02C6
:1018F3001209E859CA021209E87ACA021209E88DE4
:10190300CA021209E8A8CA021209E80ACB0212099C
:10191300E83ECB021209E84DCF021209E8ACD0022F
:101923001209E8DCD0021209E839D1021209E851A0
:10193300D2021209E879D2021209E88ED202120900
:10194300E89ED2021209E8DFD2021209E834D30278
:101953001209E844D3021209E8E4BA031209E8FFC2
:10196300BA031209E828BB031209E842BB031209B0
:10197300E867BB031209E88DBB031209E8A6BB03A2
:101983001209E8D5BB031209E8F0BB031209E8E327
:10199300C2031209E829C3031209E8949503120943
:1019A300E8A495031209E8D096031209E804970303
:1019B3001209E82697031209E84997031209E86216
:1019C30097031209E89997031209E8099803120982
:1019D300E84698031209E89398031209E8C19803AB
:1019E3001209E8E198031209E86FAB031209E8242E
:1019F300AC031209E800AD031209E890AD03120924
:101A0300E8D0AD031209E872BF031209E8DBBF0394
:101A13001209E81AC0031209E85BC0031209E800BF
:101A23009F031209E8609F031209E8DF9F0312096D
:101A3300E890A0031209E847A1031209E868A1038B
:101A43001209E8DBA1031209E8FEA1031209E80960
:101A5300A2031209E830A2031209E854590012093B
:101A6300E8BE59001209E8115A001209E85F5A004A
:101A73001209E87A5A001209E8B05A001209E8D1AB
:101A83005A001209E8DD5A001209E85B5C001209EA
:101A9300E8795C001209E8E25C001209E8F55C00F1
:101AA3001209E8035D001209E8A55D001209E8AF19
:101AB3005E001209E8C95F001209E83E60001209DE
:101AC300E84860001209E8B560001209E8CC60003C
:101AD3001209E80B61001209E85861001209E8874E
:101AE30061001209E8BD61001209E8DC6100120916
:101AF300E8FA61001209E83B62001209E825630075
:101B03001209E86B63001209E89663001209E8F80A
:101B130063001209E82B64001209E86464001209E7
:101B2300E87264001209E8CA64001209E809650052
:101B33001209E84965001209E88D65001209E8B049
:101B430065001209E8BB65001209E8D965001209AE
:101B5300E8A266001209E8AC66001209E8EB660029
:101B63001209E84667001209E85A67001209E86992
:101B730068001209E87C68001209E89368001209FA
:101B8300E8A868001209E88469001209E88F69006F
:101B93001209E8B66A001209E8D26A001209E82BB2
:101BA3006B001209E8696B001209E8836B001209E4
:101BB300E8BA6B001209E8FA6D001209E86C6E00CE
:101BC3001209E8E16E001209E83671001209E846CD
:101BD30071001209E84971001209E85571001209F0
:101BE300E86971001209E87171001209E8A6710031
:101BF3001209E86A72001209E8DB72001209E8416F
:101C030073001209E8DD73001209E8767400120903
:101C1300E89574001209E83875001209E867750041
:101C23001209E86A75001209E89975001209E8AE0D
:101C330075001209E81776001209E81977001209EE
:101C4300E8F977001209E88478001209E8A5790019
:101C53001209E85C7A001209E8957A001209E8C6CD
:101C63007A001209E8027B001209E8DC7B00120902
:101C7300E88E7C001209E8207D001209E8DD7D0072
:101C83001209E85C7E001209E88E7E001209E8CD95
:101C93007E001209E8037F001209E816C603120941
:101CA300E80FC7031209E898C3031209E86AC803D7
:101CB3001209E800C8031209E86FC6031209E8997C
:101CC300C8031209E8C1C8031209E8AFC503120922
:101CD300E805D4011209E8ABD2011209E836D201B2
:101CE3001209E896D1011209E8CBD0011209E8EBF9
:101CF300CF011209E851CF011209E8E0CE01120920
:101D0300E8E2CD011209E89ACC011209E890CB016F
:101D13001209E846CB011209E8F5CA011209E8DF06
:101D2300CA011209E8C5CA011209E852CA01120917
:101D3300E8EDC9011209E808C9011209E8B4C801AC
:101D43001209E86AC8011209E816C8011209E80D68
:101D5300BF021209E8B4BE021209E83CBC02120930
:101D6300E8B9B9021209E8E3B1021209E855B10270
:101D73001209E82EB1021209E807B1021209E8F7C5
:101D8300B0021209E8F0B0021209E826D5011209DF
:101D9300E875C0031209E813CA021209E8DFC90291
:101DA3001209E8A7C9021209E89EC9021209E893B9
:101DB300C9021209E879C9021209E86EC9021209B7
:101DC300E8F6C8021209E81BC8021209E8FEC302BA
:101DD3001209E879C3021209E81DBF021209E85A81
:101DE300C0021209E8ACBF021209E87EBF02120961
:101DF300E809C20300000080FBE4730001363601EA
:101E030001000102010001030100010401060605AE
:101E1300020000070100340801000F090401010D4D
:101E23000100FF0E08000017020000190100FF1A4D
:101E33000100011B0100FE1C0100081D0200001F20
:101E430001000120010001210200002301000F24F1
:101E53000200002601000127010008280200FF2AD2
:101E63000100072B0102402C0100002D0100012E6F
:101E73000100012F0100FF30010B1C310800003A63
:101E83000100083B01000F2F010000030271023023
:101E930001600211027002010202020202800210BA
:101EA3000261023A0041006302730272026202435A
:101EB30002000213023800000200020402120200B0
:101EC3000200020002000204020402370037003C51
:101ED30002440200023900000200026502000235DA
:101EE30002810200020502820283020002030071E2
:101EF30000300160001100700031022003500480A3
:101F0300001000610000001400630073007200629F
:101F1300004300000013000600000000000400124C
:101F23000000000000000000000400040037003738
:101F3300003C0244000000000000000000650000B7
:101F4300003500810000000500000083000000014F
:101F530001710101010101110101013101010101BE
:101F6300018001100161013B0014006301730172E0
:101F730001620143010001130106013D0135000423
:101F830001120100010001000100010401040133F9
:101F93000133013C014401320136000001000165B7
:101FA3000100013500810100010501820183010067
:101FB300010103710301030103010301030103226F
:101FC30003020301031003000300030003000300E3
:101FD300030003000342030003240306030003007A
:101FE3000304031203250323032503230304030428
:101FF300030003000300034403000300032303005F
:102003000365032100350381030003050300030077
:1020130003000336000100060000000F000000006B
:1020230000000000000000000003FFFF00000403A5
:10203300FFFF0000FFFF0FF4010005C404032000AD
:102043000100130B000000000000000003010FF764
:102053001A271BFD1A031B211B151B0F1B2D1B33DB
:102063001B391B451B091BF11AEB1A00160F160D22
:102073000B150B021102220F320302CF1BE11BE7E8
:102083001BC11AED1BBB1AC71A140AE5D5C5B5A5A2
:10209300A59585857565351C531C591C3B1C471C30
:1020A300411C303016181920231A1C1E300C0E0246
:1020B3000B040B0A0708000F303017181921301BC7
:1020C3001D1F3000383C3E363B3B352B432C1B1B3E
:1020D3003F1B4D1C4B1B511B1D1CF31BF91B051CEC
:1020E300FF1B0204020101010109020005150D098C
:1020F30010080400BE040A8C20FA06C082C0837450
:102103000490050AF090050B74F9F0A37404F0E44D
:10211300900509F002321BC082C08380F274F7126B
:10212300070A7508007E2C7F96AA087901120D6BA9
:10213300E9FA8E828F83E06A60121216C57D017CF4
:102143000079007AE97BB31216F580FE0508EE24C8
:102153000CF8EF3400F9E8FEE9FFE508C3942640E4
:10216300C80230C7C082C08390049FE0F9120D6596
:10217300E96401703990049FE0F9120D71E9FB7570
:10218300F00CA4A9F02434F582E93496F583E070C9
:1021930002A3E06019EB75F00CA42434F582E93452
:1021A30096F583E0F8A3E0F5838882121DFC0232E2
:1021B3001B74F712070AE9FFEAFE90049FE0F91285
:1021C3000D65E96401703D90049FE0F9120D71E91A
:1021D300FB75F00CA42436F582E5F03496F583E024
:1021E3007002A3E0601EEEFAEFF9EB75F00CA42485
:1021F30036F582E5F03496F583E0F8A3E0F58388BD
:1022030082121DFC0230C774F212070AE9FEEAFFCC
:1022130090049FE0F9120D65E9640160030223371E
:10222300EEF9120D65E96401600302233790049F00
:10223300E0F9120D71E975F00CA4242CF8E5F034E3
:1022430096F988828983A3A3A3A3E0F50C888289E6
:1022530083A3A3A3A3A3E0F50BEEF9120D71E97514
:10226300F00CA42431F582E5F03496F583E0F50A09
:10227300EEC3950CF8E49400F9850B08C3E89508C0
:10228300E99400A2D265D0334003022337EF6008FC
:10229300C3950A40030223377C417D1879007A09EC
:1022A3007B05120D53E50A6054C394045012740164
:1022B3002F901841F0EF901842F0E4901843803CBF
:1022C300850A0874FD2508F874FF3400F98F08C3E4
:1022D300E89508E99400A2D265D033400D740190CB
:1022E3001841F0EF901842F080D1EF901842F0E8D7
:1022F300FA901843F0EFC39A04901841F090049FAA
:10230300E0901840F0EE90049FF06436700479007A
:102313008010E06434700479018007E06435701143
:1023230079027A437B18120C81901843E09018428B
:10233300F0120D777F0602081F74F612070A900445
:102343009FE0F9120D65E96401704490049FE0F980
:10235300120D71E9FA90049FE0901840F0EA75F0CD
:102363000CA4242FF582E5F03496F583E090049FC6
:10237300F07508417509187808120A807C007D0001
:102383007A097B05120D597402120A18120D77800F
:1023930003120A187F0202081F74F012070A90043E
:1023A3009FE0F9120D71E975F00CA4242CF8E5F007
:1023B3003496F988828983A3E0F508A3E0F50988B8
:1023C300828983A3A3A3A3A3E0F50A88828983A3B5
:1023D300A3A3A3A3A3E0F50CA3E0F50D90049FE052
:1023E300FA901840E06A602E1216C5AA08AB0912CB
:1023F30012458A0E8B0F7410C3950EF8E4950FF9EE
:102403007A027B001204A1E8F97D017C00AA08ABE3
:10241300091216F5800E7E01EEF91216BF0EEEC3F9
:10242300940440F4E50A700302252BC394047E0050
:10243300506D850A08901843E0F8E508C398F8E45E
:102443009400F9C3E89401E99400A2D265D0335013
:102453000302250A7D01ED2EFC7900E0FA8E08E5E2
:10246300082AFAE43400FBEA33FAEB33FBE50C2ADF
:10247300F582E50D3BF583E0FAA3E0FB1216F50EBA
:10248300850A0E901843E0F8E50EC398F8E494002B
:10249300F9C3EE98E499A2D265D033506A80B5901F
:1024A300049FE06422702B900539E0702590184357
:1024B300E0F88E08E50828F8E43400F9740568703C
:1024C30001E9603CE0F8E50828F87406687001E962
:1024D300602E7D01ED2EFC7900901843E0FA8E0802
:1024E300E5082AFAE43400FBEA33FAEB33FBE50CA4
:1024F3002AF582E50D3BF583E0FAA3E0FB1216F51E
:102503000EEEC394034098901841E0F9121713900C
:10251300049FE0FA901840E06A600312173DAA0A8C
:10252300901842E0F91217437F0802081F74F5124E
:10253300070AE9FE8A0AEBFFEE1209340004024F90
:1025430025054F25063926083926FF2690049FE0E6
:10255300901840F0EAC3940450030225E3EF901867
:10256300416047E064019018427025E0701474FFE5
:10257300250A1AF07403901841F074FE2A90184348
:10258300800714F0901843E014F0120D770226FF31
:10259300E014F0901841E014F0F9121713AA0A900E
:1025A3001842E0F91217430226FFE0640190184233
:1025B300701AE0650A700B7401F07403901841F00F
:1025C30080BBE004F0901843E00480BDE004F09089
:1025D3001841E014F07B10FA79001217190226FF54
:1025E30074FF250AC3940340030226FFEF901841AA
:1025F3006022E06401700BEAF074FF250A90184230
:10260300800B901842E014F0901841E014F09018F9
:1026130041E08085E064017003EA8002E014F090F9
:102623001842E0650A700474018002E004F07B1034
:10263300901841E080A190049FE0901840F0EAC315
:102643009404406BEF9018416039E06403901842A2
:102653007026E0FA850A0874FF2508F874FF340031
:10266300F9E86A7001E960030225C5740190184115
:10267300F0E49018420225C2E004F0901841E0040F
:1026830002259BE064039018427019E06401700C0A
:10269300EAF07401901841F0EA022580E014F02476
:1026A30002022580E014F0901841E0040225D7745B
:1026B300FF250AC394035044EF9018416021E0655D
:1026C3000A700E7401F0E4901842F0901843022649
:1026D30010901842E004F0901841E004022610E044
:1026E300650A700474018002E004F0901842E0640B
:1026F300017004EA022630E0140226307F03020848
:102703001F74F712070A74F4120AA9E9FE90049FD2
:10271300E0F9120D71E975F00CA4242CF582E5F0B3
:102723003496C082851882851983AC82AD83F58384
:10273300D082740C12098090049FE0641F700C74A3
:1027430005120C59AA82AB83121D19EE1208D1018E
:102753000288275C27882774277A00901842E0C0F4
:10276300E07404120C59D0E0FBE02BF9120EF78051
:102773003C90049EE06009E4F0791C120D7D802DED
:10278300120EFD802890049FE06422701290053998
:10279300E0700C7B017405120C59E024FE80087B69
:1027A300017405120C59E0FAEEF9120F09740C02C8
:1027B30030C474F412070A74E9120AA990049FE062
:1027C300F9120D71E975F00CA4242DF582E5F034AE
:1027D30096F583E0F508A3E0F50990049FE0FA90ED
:1027E3001840E06A602E1216C5AA08AB09121245FA
:1027F3008A0A8B0B7410C3950AF8E4950BF97A02D5
:102803007B001204A1E8F97D017C00AA08AB091240
:1028130016F5800E7E01EEF91216BF0EEEC3940478
:1028230040F4851882851983AA82AB83121D1990FF
:102833001840E064107040851882851983E0C394C2
:10284300045017E0901841F0851882851983E0142D
:10285300901842F0E4901843807A7403901841F082
:10286300851882851983E014901842F085188285B3
:102873001983E024FD80DEE0642670598518828583
:102883001983E0C39403901842E0FA8518828519EE
:1028930083E06A402C700A901842E014F024FE8012
:1028A300B4E0FA901843E0F8740328080808E43405
:1028B30000F9EA98E499C365D0335019901842801F
:1028C3000B7012901842E014F0901841E014F0904D
:1028D3001843E014F0851882851983E0FF607DC3F7
:1028E30094047E005029EEF97401120C59AA82ABAC
:1028F30083121D137D01ED2EFC79007409120C590E
:10290300AA82AB831216F50EEEC39F502E80D7908A
:102913001843E02EF97401120C59AA82AB83121DDD
:10292300137D01ED2EFC79007409120C59AA82ABB8
:10293300831216F50EEEC3940340D4901841E0F9C8
:1029430012171390049FE0FA901840E06A60031294
:10295300173DEFFA901842E0F91217437417120A61
:10296300187F0402081F74F712070A74E9120AA9F0
:10297300E9FFEAFE90049FE0F9120D718518828544
:102983001983AA82AB83121D1974016F70339018D7
:10299300417C467D18740312098090049FE09018CF
:1029A30040F07ACB7B04120D5F7C417D1890049F2D
:1029B300E0F97ACB7B04120D537924120D7D022AA0
:1029C3004A74046F707A851882851983E060589081
:1029D3001842E0F97401120C59AA82AB83121D1339
:1029E3007401120C59AC82AD839004C6E0FAA3E0E3
:1029F300FB1219E99004C6E0FAA3E0FB121245EAC0
:102A03009004C5F0F89004C6E028FAA3E034008AE5
:102A130082F583E4F09004C5740312090B120D9B35
:102A23007403120A1880207C387DBF7AA17B0412BC
:102A33001CBF7914120D837AE87B031211438007BC
:102A4300EEFAEFF9120F0F0230C274F012070A7494
:102A5300D3120AA91216C590049FE06436700F754D
:102A63000A007D017C0079047A4B7BC28029E064F3
:102A730034700F750A017D017C0079047A9C7BC256
:102A83008015E064356003022C80750A027D017CA9
:102A93000079047A667BC21216F58518828519833C
:102AA300AA82AB83121D19A90A851882851983AAE4
:102AB30082AB83120C81E96003022C808518828526
:102AC3001983E070127401901841F0E4901842F0F9
:102AD300901843F0022C8090049FE0FA901840E095
:102AE3006A601C851882851983E0901843F0851865
:102AF30082851983E0901842F07401901841F085A3
:102B03001882851983E014C39403E04003022BB4B5
:102B1300FFFE75090180297417120C59AC82AD832D
:102B23007A0D7B051219E97D01AC09ED2508F97AC7
:102B33000D7B051216F51F05091EEE7003022C729C
:102B4300AC0A901843E0C39509F97417120C59AAFB
:102B530082AB83120C9FE96003022C80AB097A00DD
:102B6300EFF912170DE9F5087D01AC097AFD7BC772
:102B73001216F57417120C5985820E85830F780E81
:102B8300120A80AC0CAD0D7403120C59AA82AB83EC
:102B9300121CFB7402120A18E97003022B1A7D013E
:102BA300AC09ED2508F97409120C59AA82AB83808C
:102BB3008224FCC394074003022C72901843E0FF65
:102BC3007E01AC0A901843E0C39EF97417120C59A6
:102BD300AA82AB83120C9FE96003022C80EEFB7A7E
:102BE30000EFF912170DE9F5087D01EEFC7AFD7B84
:102BF300C71216F57417120C5985820C85830D784C
:102C03000C120A807421120C59E0FC7D0474031227
:102C13000C59AA82AB83121CFB7402120A18E960D6
:102C2300137D01EEFCED2508F97409120C59AA82F3
:102C3300AB83801C7417120C59AC82AD837A0D7B65
:102C4300051219E97D01EEFCED2508F97A0D7B05E6
:102C53001216F574316F700C851882851983E02480
:102C630030FF80011F0EEEC394045003022BC59066
:102C73001841E060087B10FA7900121719742D12BD
:102C83000A1802252B74F712070A74E9120AA9E934
:102C9300FF90049FE0643670047E008010E064348B
:102CA30070047E018007E0643570027E02EEF985D0
:102CB3001882851983AA82AB83120C81EF1208D183
:102CC30001030E2E542D0E2EF72DCF2C8518828541
:102CD3001983E0701A7CC57DBC7AA17B04121CBFEA
:102CE3007914120D837AE87B03121143022E1DEE31
:102CF300FC901842E014F97401120C59AA82AB83B8
:102D0300120C9FE96003022E1D7401120C59AC8250
:102D1300AD839004C6E0FAA3E0FB1219E99004C660
:102D2300E0FAA3E0FB121245EA9004C5F0F8900420
:102D3300C6E028FAA3E034008A82F583E4F0900425
:102D4300C5740312090B120D9B7403120A18022E89
:102D53001D851882851983E07003022CD8EEFC9040
:102D63001842E014F97401120C59AA82AB83120CB5
:102D73009F7401120C59AC82AD839004C3E0FAA393
:102D8300E0FB1219E99004C3E0FAA3E0FB12124539
:102D9300EA9004C2F0F89004C3E028FAA3E03400F8
:102DA3008A82F583E4F07C037B107A01F91216A77B
:102DB3007D017C0179009004C3E0FAA3E0FB1216C5
:102DC300F57D017C027900740A120C59AA82AB8347
:102DD3001216F57D017C0379007A8B7BC61216F5FA
:102DE3007D017C03790C7A917BC51216F5790D125E
:102DF3000D83802690049EE0600C791C120D7DE407
:102E030090049EF08014120EFD800F7B00851882C3
:102E1300851983E0FAEFF9120F090230C274F71231
:102E2300070AE9FF74016F700F901842E09004A144
:102E3300F07915120D838003120F0F0230C774F758
:102E430012070AE9FFEAFE74126F701890049FE0FC
:102E5300FA901840E06A600C7900121DBB791C12CD
:102E63000D7D8005EEFA120F0F0230C774F61207BC
:102E73000A7508E87509047808120A807508087548
:102E830009007808120A807C007D007ABE7B041258
:102E9300133B7404120A18120F0302239774F712D8
:102EA300070AE9FFEAFE90049FE0F9120D71E97544
:102EB300F00CA42430F582E5F03496F583E0FB743E
:102EC300016F703B7A00901842E064027010900426
:102ED300EFE0FA901842E02BF9120EF78028E06435
:102EE3000370059004EC80E9E0640470E67C9D7D4A
:102EF300BC7AA17B04121CBF7915120D838007EEE7
:102F0300FAEFF9120F0F0230C774F612070A74F0C2
:102F1300120AA9901842E0705D7408120C59AA8233
:102F2300AB831213DD7408120C59AA82AB831210FF
:102F33005F851882851983AA82AB831213C585180E
:102F430082851983AA82AB831212458A08A8087462
:102F53000EC398FF851882851983AA82AB83121248
:102F630045EAF97D02EFFC851882851983AA82ABB5
:102F7300831216EF8017640170139004EEE070065D
:102F83007A857BC180047A077BC112105F741002BB
:102F9300239474F712070AE9FF74016F70189018ED
:102FA30042E0700A121DD97919120D83800B640156
:102FB3007007794380F312107D0230C7C082C0834B
:102FC30074E8120AA9901842E0701C7408120C5994
:102FD300AA82AB839004EAE0F91214FD7408120C80
:102FE30059AA82AB838065640170137408120C596B
:102FF300AA82AB839004EBE0F912150380DEE06450
:103003000270347C9B7DC5851882851983AA82ABA7
:1030130083121CBF9004E8E02430C0E07404120C57
:1030230059D0E0F07405120C59E4F0851882851923
:1030330083AA82AB838015E0640370139004EDE0F0
:1030430060067AFA7BC780047AF47BC712105F7438
:1030530018120A1802321B74F712070AE9FFEAFE74
:1030630090049FE0F9120D71E9FB74016F704790B2
:103073001842E070059004EA801A64017005900418
:10308300EB8011E0640270047A00800AE06403704C
:10309300059004EDE0FA901842E0C0E0EB75F00C07
:1030A300A42430F582E5F03496F583D0E0FBE02BE1
:1030B300F9120EF78007EEFAEFF912107D8005740E
:1030C30017120A187F0102081F74F712070AE9FF93
:1030D300EAFE74016F705990049FE0643F70099099
:1030E3001842E09004EA800CE064407008901842B3
:1030F300E09004EBF07AE87B04120D177AE87B0486
:10310300120D231215217A207B00901710E0F9127B
:1031130013657A207B00901710E0F91212937CA9B3
:103123007DC17AA17B04121CBF7914120D83805BCD
:1031330074036F600574076F701B1215217A207B6F
:1031430000901710E0F91213657A207B0090171096
:10315300E0F9121293EEFAEFF9120F0F901842E012
:1031630004F974026F600F74056F600A74086F606E
:103173000574066F70157A031214D37C0F7D007AE1
:10318300207B00901710E0F912135F0230C774F729
:1031930012070AE9FF74016F7033901842E070035D
:1031A300E480066401700674019004EDF07AE87B14
:1031B30004120D177AE87B04120D237CA97DC17AD2
:1031C300A17B04121CBF7914120D838003120F0F0D
:1031D3000230C7C082C0839004ECE0FA901842F03A
:1031E30074012A901841F0024788C082C0831216E6
:1031F300C57D017C0179037A787BBE1216F57D01CA
:103203007C0379007AAF7BC51216F57D017C0379C7
:103213000C7A907BC61216F5D083D0820209E5742E
:10322300F712070AE9FF74016F7033901842E070D8
:1032330003E480066401700674019004ECF07AE8FC
:103243007B04120D177AE87B04120D237CA97DC140
:103253007AA17B04121CBF7914120D838003120F11
:103263000F0230C774F212070A7485120AA9900478
:103273009FE0F9120D717ACB7B04120D5F79018502
:103283001882851983AA82AB83120CF9901840E047
:103293006420600AE0640A6005E06432701C8518EB
:1032A30082851983E0901843F0851882851983E09D
:1032B300901842F07401901841F0851882851983A3
:1032C300E0F50A1216C57A877BC31212458A0C8B66
:1032D3000D7410C3950CF8E4950DF97A027B001276
:1032E30004A1E8F97D017C007A877BC31216F5E51A
:1032F3000A7003023514C3940440030233F7AF0A80
:103303007E018026EEFCED2509F99004C3E0FAA3C3
:10331300E0FB1216F5E5087009EEFB7A0E799312BD
:1033230016E90E1FEF70030235087C0174FF2FF9B5
:103333007417120C59AA82AB83120CCF7417120C98
:1033430059E0F508750A08750B00780A120A8074AB
:103353001E120C59AC82AD837A1E7B0512124B747C
:1033630002120A18E4900526F07C1E7D059004C322
:10337300E0FAA3E0FB1219E99004C3E0FAA3E0FB2F
:10338300121245EA9004C2F0F89004C3E028FAA3AD
:10339300E034008A82F583E4F0EEFB7A00EFF91261
:1033A300170DE9F5097D01EEFC7AFD7BC71216F5D1
:1033B300741C120C5985820A85830B780A120A80C1
:1033C300741C120C59E0FC7D047403120C59AA827C
:1033D300AB83121CFB7402120A18E97D017003020D
:1033E3003307EEFCED2509F97409120C59AA82ABD7
:1033F300830233157E007C01901843E0C39E14F9C9
:103403007417120C59AA82AB83120CCF7417120CC7
:1034130059E0F508750A08750B00780A120A8074DA
:103423001E120C59AC82AD837A1E7B0512124B74AB
:1034330002120A18E4900526F07C1E7D059004C351
:10344300E0FAA3E0FB1219E99004C3E0FAA3E0FB5E
:10345300121245EA9004C2F0F89004C3E028FAA3DC
:10346300E034008A82F583E4F074012EF509FB7AD7
:1034730000901843E0C39EF912170DE9F50A7D0188
:10348300AC097AFD7BC71216F5741C120C598582A0
:103493000C85830D780C120A80741C120C59E0FC05
:1034A3007D047403120C59AA82AB83121CFB7402B1
:1034B300120A18E960177D01ED2EFCED250AF97457
:1034C30009120C59AA82AB831216F5801F7A1E7B50
:1034D300051212458A0C74012EFD7401250AFCA9FC
:1034E3000C9004C3E0FAA3E0FB1216EFE508700B9F
:1034F30074012EFB7A0E79931216E90EEEC3940330
:1035030050030233F97B10901841E0FA7900121747
:1035130019747B120A1802233774F712070A74FF0F
:10352300120AA9E9FE7901851882851983AA82AB5B
:1035330083120CF9EE1208D101029B3545359B35F8
:103543008A35851882851983E060239018417C466B
:103553007D1874031209807C417D1890049FE0F963
:103563007ACB7B04120D53792F120D7D80397C1792
:103573007DBF7AA17B04121CBF7914120D837AE8F4
:103583007B03121143802090049EE06006E4F079EF
:103593001C80D6120EFD800F7B008518828519834F
:1035A300E0FAEEF9120F0974010230C474F712073E
:1035B3000AEAFEEBFF8E828F83E0FAE49004F2F0D6
:1035C3009004F4F074019004F2F0750800EAC394D7
:1035D3001040707910AA088E828F83A3E02AFAA381
:1035E300E03400FB1216FBE9A2E09004F2E0501E67
:1035F30024F0F8E43404F988828983A3A3A3E024A4
:103603000F88828983A3A3A3A3F0740F801C24F0E3
:10361300F8E43404F988828983A3A3A3E0241088FF
:10362300828983A3A3A3A3F074102508F5088E82CF
:103633008F83E0C39508FA9004F2E004F0EAC394A0
:103643001050900230C774F312070A89098A08A937
:10365300081216B985090AE50A24F3F582E434044D
:10366300F583E0F8741028F8E43400F99004C8E016
:10367300FAE89AE99400C365D033E50A501A24F0B6
:10368300F8E43404F988828983A3A3A3E0FA888247
:103693008983A3A3A3A3800E24F3F582E43404F562
:1036A30083E0FA9004C8E0C39AF50C850C0A740110
:1036B300250AFAE43400FB1212BD8A0A8B0BAE0A08
:1036C300AF0BEE7001EF6050850C0A750B00780AA2
:1036D300120A8085090AE50A24F3F582E43404F525
:1036E30083E0F89004C9E028FCA3E03400FD121243
:1036F3004B7402120A18850C0AEE250AF582EF3480
:1037030000F583E4F0AD08FCA90CEEFAEFFB12160A
:10371300EFEEFAEFFB1212C37F0502081F74F612D5
:10372300070A9004C9E07002A3E07026E49004F154
:10373300F09004F0F09004F3F09004F4F07401902E
:1037430004F3F079537AC87B04120D2FEA7001EB6E
:10375300605D121D6D7D017C0079057AD47BC312F7
:1037630016F57A0179001216AD9004C8E060407A2C
:10377300C87B04120F817A019004F2E0F9120F87DB
:103783009004F2E0F5089004F3F09004C8E090048C
:10379300F1F0E50824F3F582E43404F583E0FA90CC
:1037A30004C8E0C39A9004F0F07A01F91216AD024E
:1037B300239774F312070A749C120AA9E9FEEAFF1D
:1037C30074056F707674036E6003023A029004C846
:1037D300E070461216B37AC87B04120D3590049F2D
:1037E300E0643170217508007509007808120A80B9
:1037F3007C9F7D047ACB7B04120D597402120A1844
:10380300120D77023E85E0642C7008750841750936
:103813001880D8120EFD023E859004F1E070030279
:103823003E85FA9004C8E0C39AF50CFA7B001212A5
:10383300BD8A088B09EA7001EB70057900023E87A7
:103843009004F1E0F89004C9E028F8A3E03400F90B
:1038530074FF28F58274FF39F583E0C39481850CE6
:103863008285820A750B00780A5003023933120AE3
:10387300809004F1E0F89004C9E028FCA3E0340050
:10388300FD12124B7402120A18780A120A80AC084D
:10389300AD099004F1E0F89004C9E028F8A3E034FE
:1038A30000F974FE28FA74FF39FB12124B740212EA
:1038B3000A189004C8E024FEF0F89004C9E028FA3E
:1038C300A3E034008A82F583E4F07AC87B04120F04
:1038D300819004F1E0FA9004F3E024F3F582E434F8
:1038E30004F583E06A70399004C8E070030239E498
:1038F3009004F1E024FEF09004F3E024F0F8E434C3
:1039030004F988828983A3A3E0FA88828983A3A325
:10391300A3E0C39A24FE9004F0F09004F30239E18B
:103923009004F1E024FEF09004F0E024FE0239E379
:10393300120A809004F1E0F89004C9E028FCA3E0A7
:103943003400FD12124B7402120A18780A120A800C
:10395300AC08AD099004F1E0F89004C9E028F8A39D
:10396300E03400F974FF28FA74FF39FB12124B7428
:1039730002120A189004C8E014F0F89004C9E02871
:10398300FAA3E034008A82F583E4F07AC87B041258
:103993000F819004F1E0FA9004F3E024F3F582E45C
:1039A3003404F583E06A702D9004C8E0603390041A
:1039B300F1E014F09004F3E024F0F8E43404F9881F
:1039C300828983A3A3E0FA88828983A3A3A3E0C3A4
:1039D3009A140239199004F1E014F09004F0E01401
:1039E300F07A019004F3E0F9120F87AA08AB0912E9
:1039F30012C37A019004F0E0F91216AD023E857409
:103A0300016E6003023AC89004C8E060EF1216B377
:103A130090049FE06429701B7C417D1879297ACB3F
:103A23007B04120D537AC27B04120D41792B120DC4
:103A33007D80C9E0643170737C01901847E014F90C
:103A4300851882851983AA82AB83120CCF75080867
:103A53007509007808120A807407120C59AC82ADFC
:103A6300837A277B0512124B7402120A18E490051D
:103A73002FF07C277D059004C3E0FAA3E0FB121925
:103A8300E99004C3E0FAA3E0FB121245EA9004C2F2
:103A9300F0F89004C3E028FAA3E034008A82F583A7
:103AA300E4F079051211DF790C8083E0642C600364
:103AB300023E857C467D18792C7ACB7B04120D530C
:103AC300792D023A3174026E6003023BAB9004F32A
:103AD300E0C394025003023E859004F0E0F99004A1
:103AE300F3E024F2F582E43404F583E0FA9004C9A8
:103AF300E02AFAA3E03400FB1216FBE9A2E0500629
:103B03009004F0E014F09004F0E0C0E09004F3E0DF
:103B130024F2F582E43404F583D0E0FAE02A900439
:103B2300F1F09004F3E014F024F0F8E43404F9889D
:103B3300828983A3A3A3A3E0FC88828983A3A3A38D
:103B4300E0F8ECC398F8E49400F9E86A7001E970CE
:103B53004A9004F3E024F3F582E43404F583E0F8B7
:103B63009004F0E028F8E43400F99004C9E028F860
:103B7300A3E039F974FF28F58274FF39F583E0C3B4
:103B830094819004F0E0400B24FEF09004F1E024D3
:103B9300FE800714F09004F1E014F07A019004F32E
:103BA300E0F9120F870239F574086E6003023C7363
:103BB3009004C8E0FA9004F3E024F3F582E43404BB
:103BC300F583E0F8741028F8E43400F9EA98E499EE
:103BD300C365D0335003023E859004F3E004F090B4
:103BE30004C8E0F89004F3E024F3F582E43404F528
:103BF30083E0FAE8C39AF8E49400F99004F0E0FA59
:103C0300C3E89AE99400A2D265D033501F9004F31D
:103C1300E024F3F582E43404F583E0FA9004C8E089
:103C2300C39A9004F0F09004F1023B9DE0F99004F4
:103C3300F3E024F3F582E43404F583E0FA9004C955
:103C4300E02AFAA3E03400FB1216FBE9A2E05006D7
:103C53009004F0E014F09004F0E0C0E09004F3E08E
:103C630024F3F582E43404F583D0E0FAE02A80B645
:103C730074066E6003023DAA9004F1E0C0E0900474
:103C8300C8E0FAD0E0C39A4003023E859004F1E015
:103C9300F89004C9E028FAA3E034008A82F583E0AF
:103CA300C394819004F1E05003023D352402F0FAFD
:103CB3009004F3E024F3F582E43404F583E0F8742C
:103CC3000F28F8E43400F9E86A7001E9703D9004C4
:103CD300F1E0C0E09004C8E0FAD0E09A504B9004C1
:103CE300F1E0F89004C9E028FAA3E034008A82F5F1
:103CF30083E0C394814032E49004F0F09004F3E055
:103D030004F07A01F9120F870239F59004F3E024E5
:103D1300F3F582E43404F583E0F8741028F8E4340E
:103D230000F9E86A7001E960CE9004F0E02402F043
:103D330080D604F0FA9004F3E024F3F582E434042B
:103D4300F583E0F8740F28F8E43400F9E86A7001A9
:103D5300E970339004F1E0C0E09004C8E0FAD0E0E9
:103D63009A501C9004F1E0F89004C9E028FAA3E00B
:103D730034008A82F583E0C394814003023CFA90C5
:103D830004F0E00480A99004F3E024F3F582E43422
:103D930004F583E0F8741028F8E43400F9E86A7055
:103DA30001E970DB023CFA74056E6003023E7A900F
:103DB30004F1E07003023E85F89004C9E028F8A3FB
:103DC300E03400F974FF28F58274FF39F583E0C30A
:103DD30094819004F1E0FA9004F3E0404F24F3F56A
:103DE30082E43404F583E06A70319004F3E024F054
:103DF300F8E43404F988828983A3A3E0FA888289EA
:103E030083A3A3A3E0C39A24FE9004F0F09004F3E9
:103E1300E014F07A01F9120F8780079004F0E02490
:103E2300FEF09004F1E024FEF00239F524F3F5826C
:103E3300E43404F583E06A70309004F3E024F0F88E
:103E4300E43404F988828983A3A3E0FA888289830E
:103E5300A3A3A3E0C39A149004F0F09004F3E01436
:103E6300F07A01F9120F8780069004F0E014F090C5
:103E730004F1E014023D3274076E600302383E120F
:103E830016C579017464120A1802371B74EF1207FE
:103E93000A890A8A0B901849E0FA120F93E9600322
:103EA30002407AAA0BA90A121D67E9901849F06427
:103EB30005600302407A121D858A088B09121D7F53
:103EC300E970030240709004C8E0C394515012E0BB
:103ED300C39450401F850882850983E0C3948140C1
:103EE300137C497DBB7AA17B04121CBF7914120D8C
:103EF3008302407A121D7FE9F50C9004F1E0C0E0E3
:103F03009004C8E0FAD0E0C39A50799004F1E0FA43
:103F13009004C8E0C39AF510FA7B001212BD8A0E12
:103F23008B0FAE0EAF0FEE7001EF605885108285D8
:103F3300820E750F00780E120A809004F1E0F8905B
:103F430004C9E028FCA3E03400FD12124B740212F2
:103F53000A18780E120A80EEFCEFFD9004F1E0F8E7
:103F6300850C0EE50E28F8E43400F99004C9E02826
:103F7300FAA3E039FB12124B7402120A18EEFAEF9D
:103F8300FB1212C3850C0E750F00780E120A80AC5B
:103F930008AD099004F1E0F89004C9E028FAA3E021
:103FA3003400FB12124B7402120A189004C8E02565
:103FB3000CF07AC87B04120F819004F1E0250CF019
:103FC300FA9004F3E024F3F582E43404F583E0F893
:103FD300741028F8E43400F9E86A7001E9700C9071
:103FE30004F3E004F0E49004F080749004F3E0241C
:103FF300F3F582E43404F583E0F8741028F8E4342C
:1040030000E89AE99400C365D0339004F3E05006C6
:1040130004F0E50C80D024F3F582E43404F583E066
:10402300F8740F28F8E43400F9E86A7001E970299C
:104033009004F1E0C0E09004C8E0FAD0E09A50198F
:104043009004F1E0F89004C9E028FAA3E034008A70
:1040530082F583E0C3948150869004F0E0250CF050
:104063007A019004F3E0F9120F87121D797A019017
:1040730004F0E0F91216AD7F0902081F02478474A9
:10408300F612070A749A120AA9E9FE74016E600314
:104093000241FA901842E0701F7C417D1890049F02
:1040A300E0F97ACB7B04120D537AC27B04120D41E3
:1040B3007911120D7D02422A6401600302414A799B
:1040C300007401120C59AA82AB83120CF974011209
:1040D3000C59E0C39405401A7C2D7DBF7AA17B0463
:1040E300121CBF7914120D837AE87B031211430269
:1040F300422AE004F07402120C597401F09004C8CF
:10410300E0C0E07406120C59D0E0F09004C8E0F56A
:10411300087509007808120A809004C9E0FCA3E03E
:10412300FD7416120C59AA82AB83121CCB740212B3
:104133000A1879007402120C59AA82AB83120CFF7D
:104143007C007D000240A0E0640260030241F37939
:1041530000851882851983AA82AB83120CF985180E
:1041630082851983E0C3940540030240DB74021285
:104173000C597401F09004C8E0C0E07406120C59A5
:10418300D0E0F09004C8E0F5087509007808120A39
:10419300809004C9E0FCA3E0FD7416120C59AA82B6
:1041A300AB83121CCB7402120A1879007402120C2E
:1041B30059AA82AB83120CFF851882851983E00408
:1041C300F07AC87B04120D3590049FE0901840F0FC
:1041D3007508417509187808120A807C9F7D047A56
:1041E300CB7B04120D597402120A18120EFD80378C
:1041F300E06403703280CA74036E702890049FE0F9
:10420300901840F07508417509187808120A807CE7
:104213009F7D047ACB7B04120D597402120A181283
:104223000D778003120F0F746602239474F4120740
:104233000A749B120AA990049FE0F9120D71790088
:10424300851882851983AA82AB83120CF9901840D2
:10425300E064206005E0642E701C85188285198354
:10426300E0901843F0851882851983E0901842F096
:104273007401901841F09004C9E07002A3E0701239
:1042830079537AC87B04120D2FEA7001EB70030295
:1042930044931216C57A957BC31212458A0A8B0B77
:1042A3007410C3950AF8E4950BF97A027B001204A3
:1042B300A1E8F97D017C007A957BC31216F5851878
:1042C30082851983E07003024493C394044003027C
:1042D30043A7FF7E018018250AFCA9089004C9E0C2
:1042E300FAA3E0FB1216EF0E1FEF70030244877C64
:1042F3000074FF2FF97401120C59AA82AB83120CBC
:10430300CF7508527509007808120A807415120CCB
:1043130059AC82AD839004C9E0FAA3E0FB121CCB35
:104323007402120A187405120C59E09004C8F0F8CC
:104333009004C9E028FAA3E034008A82F583E4F00C
:10434300EEFB7A00EFF912170DE9F50A7D01EEFC99
:104353007AFD7BC71216F5850A08740FC39508F812
:10436300E49400F99004C8E0FAC3E89AE99400A23F
:10437300D265D0335007740FC3950A8001E0F50866
:10438300A9089004C9E0FAA3E0FB1216FBE9A2E036
:10439300EEFD740140030242DA250AFC74FF25088E
:1043A300F90242DF7E007C00901843E0C39E14F9BB
:1043B3007401120C59AA82AB83120CCF7508527583
:1043C30009007808120A807415120C59AC82AD8367
:1043D3009004C9E0FAA3E0FB121CCB7402120A1882
:1043E3007405120C59E09004C8F0F89004C9E02851
:1043F300FAA3E034008A82F583E4F074012EF50811
:10440300FB7A00901843E0C39EF912170DE9F50AF1
:104413007D01AC087AFD7BC71216F5850A08740F77
:10442300C39508F8E49400F99004C8E0FAC3E89A45
:10443300E99400A2D265D0335007740FC3950A8064
:1044430001E0F508A9089004C9E0FAA3E0FB1216FD
:10445300FBE9A2E07401500E2EFD7401250AFC74E1
:10446300FF2508F980092EFD7401250AFCA908908F
:1044730004C9E0FAA3E0FB1216EF0EEEC394035057
:10448300030243A97B10901841E0FA79001217192F
:10449300746502296174F712070A74FF120AA9E905
:1044A300FE7900851882851983AA82AB83120CF9E1
:1044B300EE1208D101021E45C1441E45064585186A
:1044C30082851983E060239018417C467D1874032C
:1044D3001209807C417D1890049FE0F97ACB7B041C
:1044E300120D53792C120D7D80407C647DBF7AA11F
:1044F3007B04121CBF7914120D837AE87B0312111B
:1045030043802790049EE06006E4F0791C80D67A0D
:10451300C87B04120D35120EFD800F7B00851882B7
:10452300851983E0FAEEF9120F090235AA74F6121F
:10453300070A749C120AA99004C9E07002A3E070F0
:1045430026E49004F1F09004F0F09004F3F090046A
:10455300F4F074019004F3F079537AC87B04120DDC
:104563002FEA7001EB605A7C00901847E014F9853C
:104573001882851983AA82AB83120CCF7404120CA0
:1045830059E09004C8F0F5087509007808120A800C
:104593007414120C59AC82AD839004C9E0FAA3E001
:1045A300FB121CCB7402120A189004C8E0F89004A2
:1045B300C9E028FAA3E034008A82F583E4F0120FFD
:1045C3008D746402239402478474F612070AE9FE89
:1045D30074016E600302466E901842E070267C0000
:1045E3007D0090049FE0F97ACB7B04120D53900475
:1045F3009FE0901840F07AC27B04120D41791112AA
:104603000D7D8079640170147C007D0090049FE02F
:10461300F97ACB7B04120D53792E80E3E0640270A8
:104623005C7AC87B04120D3590049FE0901840F02B
:104633007508007509007808120A807C007D007AED
:10464300CB7B04120D597402120A187508417509BF
:10465300187808120A807C9F7D047ACB7B04120DA4
:10466300597402120A18120D77801274036E700ABD
:1046730090049FE0901840F080D1120F0F0223970F
:104683000231ED74F612070A74FF120AA9E912083F
:10469300D101027F479E467F474C471216C57AF1E8
:1046A3007BC11212458A088B097410C39508F8E47C
:1046B3009509F97A027B001204A1E8F97C187A6C57
:1046C3007BBE1217077900851882851983AA82ABEE
:1046D30083120CF9901847E0FE851882851983E050
:1046E300FAEEC39A50197A00901847E014F9120DA4
:1046F300050E851882851983E0FAEEC39A40E7E038
:1047030014F07AC87B04120D3590049FE090184092
:10471300F07508007509007808120A807C007D0096
:104723007ACB7B04120D597402120A187808120A04
:10473300807C007D007ACB7B04120D597402120A2F
:1047430018750841750918801B75080075090078EC
:1047530008120A807C007D007ACB7B04120D597409
:1047630002120A187808120A807C9F7D047ACB7B98
:1047730004120D597402120A18120D7774010223E0
:1047830094C082C083120F0302321B74F612070A0D
:1047930074F4120AA9E9FF74016F705C90049FE03E
:1047A300F9120D71E975F00CA4242CF582E5F034AF
:1047B30096C082851882851983AC82AD83F583D038
:1047C30082740C12098079017405120C59AA82AB08
:1047D30083120CF9901842E0C0E07404120C59D013
:1047E300E0FAE02A90049FF0643170077AC87B04F2
:1047F300120D35120D77802574036F701D75080037
:104803007509007808120A807C9F7D047ACB7B04AB
:10481300120D597402120A1880D9120F0F740C0268
:10482300239474F712070AE9FFEAFE8009EEFAEF10
:10483300F9120F870F0EEEC3940450089004F2E0B0
:10484300C39F50E974FF2FF90230C774F612070AA9
:10485300747C120AA99018467C417D1874031209CE
:10486300809004C9E07002A3E0701879537AC87B82
:1048730004120D2FEA7001EB7003024A3E7401909B
:1048830004F3F07C01901847E014F97420120C59DA
:10489300AA82AB83120CCF7424120C59E09004C883
:1048A300F0F5087509007808120A807434120C595F
:1048B300AC82AD839004C9E0FAA3E0FB121CCB7475
:1048C30002120A187420120C59E0600302497B7427
:1048D30001F07430120C59E07002A3E070177901F3
:1048E300851882851983AA82AB83120CE18518820D
:1048F30085198380057430120C59E0FAA3E0FB7428
:1049030020120C598582088583097808120A80755C
:1049130008647509007808120A807C007D00121370
:10492300357404120A187508C17509047808120A47
:10493300807508017509007808120A807C007D00E3
:104943007ABB7B0412133B7404120A189004C1E06F
:1049530014F07508C17509047808120A80750801F6
:104963007509007808120A807C007D007ABB7B04FD
:104973001213357404120A189004C3E0FCA3E0FD7B
:104983007402120C59AA82AB831219EF9004C3E08C
:10499300FAA3E0FB121245EA9004C2F0F89004C3B4
:1049A300E028FAA3E034008A82F583E4F01216C506
:1049B3007402120C598582088583097808120A80CB
:1049C3007425120C59E0FC7D04740C120C59AA8254
:1049D300AB83121CFB7402120A18E97D017C009060
:1049E30004C2601FE0F87410C398F8E49400F97AE5
:1049F300027B001204A1E8F97412120C59AA82ABCB
:104A030083801CE0F87410C398F8E49400F97A02E8
:104A13007B001204A1E8F99004C3E0FAA3E0FB12BF
:104A230016F59004C8E060137AC87B04120F817AEC
:104A3300017901120FE1E99004F3F07484022394E5
:104A430074F612070AE91209340004015C4A02A24F
:104A53004A03734A08BD4AE74A7C007D0090049FDD
:104A6300E0F97ACB7B04120D537930120D7D8074FB
:104A73007AC87B04120D3590049FE0901840F075BE
:104A830008417509187808120A807C9F7D047ACB47
:104A93007B04120D597402120A18120D7780459087
:104AA30004F3E0C39404403C7C037B107A01790057
:104AB3001216A79004F3E01480219004F3E0C0E001
:104AC3009004F2E0FAD0E0C39A50197C037B107A89
:104AD3000179001216A79004F3E004F07A0124FE92
:104AE300F9120FE1022397C082C083120F8D0232A5
:104AF3001B74F712070A120F990230C70231ED74C3
:104B0300F612070AE91208D101029A4B154B9A4B88
:104B13007C4B1216C57AF17BC11212458A088B09A8
:104B23007410C39508F8E49509F97A027B0012041E
:104B3300A1E8F97C187A6C7BBE1217077A019018EA
:104B430047E014F9120D057AC87B04120D35900461
:104B53009FE0901840F07508007509007808120A64
:104B6300807C9F7D047ACB7B04120D597402120A58
:104B730018750841750918800675080075090078CD
:104B830008120A807C9F7D047ACB7B04120D597432
:104B930002120A18120D77022397C082C0831216DD
:104BA300C57D017C0179027A817BBC0231FE74F6FA
:104BB30012070AE91208D101026B4CC44B6B4C4D2E
:104BC3004C1216C57AF17BC11212458A088B0974FF
:104BD30010C39508F8E49509F97A027B001204A141
:104BE300E8F97C187A6C7BBE1217077901120D0B5A
:104BF300E49004C1F07508C17509047808120A80AD
:104C03007508017509007808120A807C007D007A16
:104C1300BB7B041213357404120A187AC87B04127E
:104C23000D3590049FE0901840F075080078081245
:104C33000A807C9F7D047ACB7B04120D5974021287
:104C43000A1875084175091880067508007509006A
:104C53007808120A807C9F7D047ACB7B04120D595D
:104C63007402120A18120D7702239774F512070AB9
:104C730074FF120AA9E9FEEAFF90049FE0F9120DFE
:104C830071E975F00CA42430F582E5F03496F583D0
:104C9300E0F50A74036E702990049FE0901840F0C9
:104CA3007508417509187808120A807C9F7D047A7B
:104CB300CB7B04120D597402120A18120D77024DA0
:104CC3007674016E6003024D6FE485188285198343
:104CD300F0AA82AB83121D19850A08901842E025B9
:104CE30008F8E43400F97427687001E97042851804
:104CF30082851983E0946440197C1F7DC07AA17B6F
:104D030004121CBF7914120D7D7AE87B0312114340
:104D130080617AC27B04120D417C417D1890049F0F
:104D2300E0F97ACB7B04120D537912120D7D804387
:104D33007426687001E9701F851882851983E070F5
:104D4300127C387DBF7AA17B04121CBF7914120D2B
:104D53008380B6792680D47425687001E970148540
:104D63001882851983E060D9792580BFEFFAEEF9BF
:104D7300120F0F7401120A180226FF74F612070AA3
:104D830074EA120AA97C037B107A00790D1216A724
:104D9300901847E0F9851882851983AA82AB83129C
:104DA3001D137D017C0179007408120C59AA82AB92
:104DB300831216F5851882851983AC82AD8390041E
:104DC300C3E0FAA3E0FB1219E97508087509007836
:104DD30008120A807402120C59AC82AD837A307BBC
:104DE3000512124B7402120A18E4900538F07D0183
:104DF3007C02F99004C3E0FAA3E0FB1216F59004D9
:104E0300C3E0FAA3E0FB121245EA9004C2F0F89063
:104E130004C3E028FAA3E034008A82F583E4F07443
:104E23001602239474F612070AE91208D103017BD0
:104E33004E554E384E7CC27D047AC57B04120D3B21
:104E43009004C5740312090B120D9B7403120A1804
:104E5300802690049FE0901840F07508417509186A
:104E63007808120A807C9F7D047ACB7B04120D594B
:104E73007402120A18120D7702239774F612070AA6
:104E830074EA120AA91216C5901847E0F985188228
:104E9300851983AA82AB83121D137D017C007906D9
:104EA3007A6D7BC61216F57F027408120C59AA821A
:104EB300AB831212458A088B097410C39508F8E472
:104EC3009509F97A027B001204A1E8F97D017C02BD
:104ED3007408120C59AA82AB831216F57408120CCB
:104EE30059AA82AB831212458A088B0974102508CC
:104EF300F8E43509F97A027B001204A1E8F97D018F
:104F03007C027A0F7BC81216F57D017C0379007A47
:104F1300AF7BC51216F57D017C03790C7A907BC6B5
:104F23001216F57416120A1802081F74F612070AED
:104F3300E91208D10102994F414F994F734F12164D
:104F4300C57AF17BC11212458A088B097410C39587
:104F530008F8E49509F97A027B001204A1E8F97CC8
:104F6300187A6C7BBE121707901847E0F9121D01DF
:104F730090049FE0901840F075084175091878086F
:104F8300120A807C9F7D047ACB7B04120D59740234
:104F9300120A18120D7702239774F712070AE9FF12
:104FA30074016F7028901842E09004EFF07AE87B68
:104FB30004120D177AE87B04120D237CA97DC17AB4
:104FC300A17B04121CBF7914120D838003120F0FEF
:104FD3000230C774F412070A90049FE0F9120D71AE
:104FE300E975F00CA4242DF582E5F03496F583E001
:104FF300F508A3E0F50990049FE0FA901840E06AF1
:10500300602C1216C5AA08AB091212458A0A8B0B2B
:105013007410C3950AF8E4950BF97A027B00120425
:10502300A1E8F97D017C00AA08AB091216F57B0201
:105033007A0279901216E97B027A03798B1216E9C8
:105043007F007E059004E8E060277B02EEFA790D8D
:105053001216E97B0274012EFA790D1216E90F0E6E
:105063000E9004E8E0FAEFC39A40DFE0C3940450E3
:1050730027E0C3332405FEE0FA7404C39AFF7B02DE
:10508300EEFA79001216E97B0274012EFA79001206
:1050930016E90E0E1FEF70E602296474F712070A71
:1050A300E91208D101077A51BB504151F7507A51A7
:1050B30041513451175134517AE87B04120D177A58
:1050C300E87B04120D231215217A207B0090171020
:1050D300E0F91213657A207B00901710E0F91212A1
:1050E300937CA97DC17AA17B04121CBF7914120D94
:1050F3008302517A1215217A207B00901710E0F970
:105103001213657A207B00901710E0F912129312A4
:105113000EFD80631215217A207B00901710E0F9B1
:105123001213657A207B00901710E0F91212938016
:10513300469004E8E0C39404501AE0048007900406
:10514300E8E0601014F07AE87B04120D177AE87B2C
:1051530004120D2390049FE0901840F01214F17A8A
:10516300031214D37C0F7D007A207B00901710E08C
:10517300F912135F120D770230C774F612070A741F
:10518300ED120AA9901842E07010851882851983E0
:10519300AA82AB831213DD0252836401702D85183A
:1051A300828519838582088583097808120A8079A4
:1051B3000A9005B3E0F508A3E0AA08FB7C007D0094
:1051C3001212577402120A18025283E064027037F3
:1051D300121215E98518828519838582088583094A
:1051E3007808600E120A80790A9005A4E0FA7B0021
:1051F30080CA120A80790A9005ADE0FA7B007C0030
:105203007D0012125780BCE06403705E121215E930
:105213006018851882851983858208858309780833
:10522300120A80790A9005A5808A7C037B0E7A0393
:1052330079001216A77C077D0079008518828519ED
:1052430083AA82AB831212517A857BC71212458AD5
:10525300088B097808120A807C857DC77402120CBA
:1052630059AA82AB8312124B809BE0640470117CB9
:10527300527DC0851882851983AA82AB83121CBF15
:10528300851882851983AA82AB8312105F90184216
:10529300E0703F740C120C59AA82AB831213E974A9
:1052A3000C120C59AA82AB831212458A08A80874FF
:1052B3000EC398FF740C120C59AA82AB83121245C9
:1052C300EAF97D02EFFC740C120C59AA82AB83122B
:1052D30016EF741302239474F712070AE9FF740696
:1052E3006F600F74026F600A74086F600574056F56
:1052F300700512107D800874036F7003120EFD0297
:1053030030C7C082C08390049FE0FA901840E06ADF
:1053130060261213ADE96401700D7401901841F019
:10532300E4901842F0800D7402901841F0740190DB
:105333001842F0E4901843F002478874F712070A02
:10534300E9FF74016F7033901842E07004740180B8
:105353000564017005E49004EEF07AE87B04120D15
:10536300177AE87B04120D237CA97DC17AA17B0403
:10537300121CBF7914120D7D800D74036F7005121A
:105383000D898003120F0F0230C774EE12070A8AC9
:105393000C8B0D90049FE0F9120D71E975F00CA4CC
:1053A300242CF8E5F03496F988828983A3E0F50884
:1053B300A3E0F50988828983A3A3A3A3A3E0F50A45
:1053C30088828983A3A3A3A3A3A3E0F50EA3E0F597
:1053D3000F90049FE0FA901840E06A602E1216C501
:1053E300AA08AB091212458A108B117410C39510C9
:1053F300F8E49511F97A027B001204A1E8F97D0122
:105403007C00AA08AB091216F5800E7E01EEF91294
:1054130016BF0EEEC3940440F47D017C0179009025
:105423001842E0C333FAE433FBE50E2AF582E50FB5
:105433003BF583E0FAA3E0FB1216F5AA0CAB0D12C1
:105443001245740EC39AF97D017C03AA0CAB0D12AD
:1054530016F590049FE0FA901840E06A6003121773
:105463003DAA0A901842E0F91217437F0A02081F67
:10547300C082C08390049FE0FA901840E06A6017EE
:105483001216C57AC27B04120D417D017C0079009E
:105493007A487BBE1216F579021216B97D017C019A
:1054A30079069004C3E0FAA3E0FB1216F57A0190A3
:1054B30004C2E02406F91216AD02321B74EC120783
:1054C3000A74FF120AA9E9120934010911B255033A
:1054D30001DE5403A15513B255F65590C701780860
:1054E300120C089004C2E060449004C3E0FAA3E005
:1054F300FB9004C2E0FC90C705780C120C087808F6
:10550300790C12061A8A828B83E0F874D028F50C82
:1055130074FF3400F50D3395E0F50EF50F78087937
:105523000C120B70A3AA82AB831CEC70C985080C08
:1055330085090D850A0E850B0F90C709780C120B90
:105543005D90C70D7810120C087810790C120BB906
:10555300401A7C9B7DBF7AA17B04121CBF79141275
:105563000D837AE87B031211430255F68518828571
:105573001983E508F08582088583097808120A8073
:105583007508017509007808120A807C007D007A8D
:10559300BC7B041213357404120A18E9600C7AC236
:1055A3007B04120D41120EFD804912138980449031
:1055B30004C2E0C39407503BE0FF74012FF0120DC7
:1055C300A1EFF89004C3E028FAA3E034008A82F53F
:1055D30083E9F09004C2E0F89004C3E028FAA3E062
:1055E30034008A82F583E4F090049FE0901840F041
:1055F300120D777401120A187F0C02081FC082C0B3
:105603008390049FE0FA901840E06A60171216C571
:105613007AC27B04120D417D017C0079007A737B91
:10562300BC1216F579021216B97D017C0179059039
:1056330004C3E0FAA3E0FB1216F57A019004C2E07A
:1056430024050254B874F612070A74FE120AA9E973
:1056530012093401091146570301675603355713DD
:1056630046578A57851882851983E4F0A3F090047E
:10567300C2E070030257069004C3E0F8A3E0F99078
:1056830004C2E0FF851882851983E0FAA3E0FBEAF0
:1056930075F00AA4FAACF075F00AEBA42CFB88822F
:1056A3008983E0FC74D02CFC74FF3400FDEC2AFAEF
:1056B300ED3BFB851882851983EAF0A3EBF0888222
:1056C3008983A3A882A9831FEF70B98518828519DE
:1056D30083C3A3E09440402B851882851983E0643B
:1056E300FF7004A3E064FF601A7CA27DBD7AA17BF6
:1056F30004121CBF7914120D837AE87B0312114341
:1057030002578A85188285198385820885830978DB
:1057130008120A807508027509007808120A807C4D
:10572300007D007ABD7B041213357404120A18E954
:10573300600C7AC27B04120D41120EFD80491213D4
:105743008980EF9004C2E0C39407503BE0FF7401EB
:105753002FF0120DA1EFF89004C3E028FAA3E03470
:10576300008A82F583E9F09004C2E0F89004C3E074
:1057730028FAA3E034008A82F583E4F090049FE0E2
:10578300901840F0120D77740202239474F61207F6
:105793000AE9FE90049FE0F9120D71E9FB75F00C24
:1057A300A4A9F02431F582E93496F583E0F508EEF7
:1057B3001208D101073558CA57F057EB573558F03F
:1057C300570B5835580B587A00901842E0C0E0EB5D
:1057D30075F00CA42430F582E93496F583D0E0FB10
:1057E300E02BF9120EF7804A120EFD804590049FBC
:1057F300E0901840F0901842E0600314800474FFB6
:105803002508F0120D77802A90049FE0901840F04D
:10581300901842E0FA74FF2508F874FF3400F9C3C6
:10582300EA98E499A2D265D0335004E00480D3E42B
:1058330080D0022397E0F508750900750A00750BFF
:1058430000227409120A187F0402081FEE2412FAB8
:10585300EF3400FB121BABE922120A187F03020884
:105863001FE0FAA3E0F9EA22E024F5C3941222121E
:105873005876221217798A0C8B0D8C0E8D0F2212FB
:105883001C8F9017621272567A147B0022F0A3E0E9
:10589300F00260C579031A1AEFFB121BB1740222DE
:1058A300E024FFF8A3E034FFF9221258ECA2E5222A
:1058B300125907120A187F0802081F7F0A02081FDD
:1058C300126320E4F022A3E08E828F831258D32246
:1058D300F0EE24FF1EEF34FFFF227F0502081F12A4
:1058E30058E622EE2410F582EF3400F583E022E53A
:1058F30008126DDCE5091258EC227A987B17121214
:1059030081740222121C83740422EE2423F582EF95
:105913001258EC22EE240DF582EF1258EC640122AA
:10592300125928EE22E0FEA3E0FF22FAEF3400FB37
:1059330079E112186922F0EEFAEFFB22EE240EF55C
:1059430082EF12632022E0FCA3E0FD2274010261D6
:10595300B7C082C08374FE120AA980077A987B17A6
:1059630012599A901798E07002A3E070EF90179A7B
:10597300E07002A3E060097A9A7B1712599A80EDCE
:10598300901798E4F0A3F090179EF090179FF09073
:1059930017A0F07402801E12127B8518828519836A
:1059A300EAF0A3EB1259AE121B9922125C3DAA82B4
:1059B300AB83227411120A180260C574F412070A29
:1059C300E9FE24C6F582E43420F583E493F508FA6E
:1059D3007B0012125DEA7001EB6008EA2508126988
:1059E3006980287A027B0012125DEA7001EB60176E
:1059F300EE24BBF582E43420F583E4938A828B831F
:105A0300F0741AA3125D9B7A007B0002584AE9FDE9
:105A1300EAFC74062DFAECA2E0501EEA75F00A8443
:105A2300ABF0EB6014740A2AC39BFAEBC3940540F2
:105A330004740A2AFA740B2AFAEDC3941340047807
:105A43001480027806E82AF8740928F8E43400F987
:105A53007A0A7B001204A1E8F90209E5C082C08337
:105A63009017BEE05402600A1210A1E960047901A4
:105A7300800279000260C5C082C0839017BEE054E3
:105A830002601D90179EE070139017A1E07002A3AF
:105A9300E0600D9017A1E0125AA85004790180022A
:105AA30079000260C52410125FB5A2E722C082C04C
:105AB300839017A0E0C0E090C5CAE0FCD0E0C39C8F
:105AC300500512125D80047A007B000260C5C0821B
:105AD300C083121B9979000260C5C082C08374FE23
:105AE300120AA9851882851983125C451208D10010
:105AF30003F75BFE5A585BF75B7C5B901742E064ED
:105B03000F6018121B7BE9701285188285198312A6
:105B130063F290187C125FA8121DFC90176AE0C014
:105B2300E085188285198312666AD0E0125C34120C
